{
  "transactions": [
    {
      "hash": "0xb06d3e270d92a013db7e5893e442a1702e9608f9a15cdd3d5980dea3f83ecdf7",
      "transactionType": "CALL",
      "contractName": null,
      "contractAddress": "0x0969C6Fe0d7FF1873d5AbDBf14260C987bF73735",
      "function": "mint(address,uint256)",
      "arguments": [
        "0x70997970C51812dc3A010C7d01b50e0d17dc79C8",
        "891273"
      ],
      "transaction": {
        "from": "0x4100a9B680B1Be1F10Cb8b5a57fE59eA77A8184e",
        "to": "0x0969C6Fe0d7FF1873d5AbDBf14260C987bF73735",
        "gas": "0x1274d",
        "value": "0x0",
        "input": "0x40c10f1900000000000000000000000070997970c51812dc3a010c7d01b50e0d17dc79c800000000000000000000000000000000000000000000000000000000000d9989",
        "nonce": "0x64d",
        "chainId": "0x28c61"
      },
      "additionalContracts": [],
      "isFixedGasLimit": false
    },
    {
      "hash": "0x2886de3b7c7f2e7c2132728b1dc755ecf3f8895823f65fd6833edc6dd2d3eff6",
      "transactionType": "CALL",
      "contractName": null,
      "contractAddress": "0xD8152aaA8a2dFAFb356238B14124a9A17D2E1D24",
      "function": "registerPlayer(address,uint256,uint8)",
      "arguments": [
        "0x70997970C51812dc3A010C7d01b50e0d17dc79C8",
        "891273",
        "0"
      ],
      "transaction": {
        "from": "0x4100a9B680B1Be1F10Cb8b5a57fE59eA77A8184e",
        "to": "0xD8152aaA8a2dFAFb356238B14124a9A17D2E1D24",
        "gas": "0x27f8d",
        "value": "0x0",
        "input": "0x50ed283800000000000000000000000070997970c51812dc3a010c7d01b50e0d17dc79c800000000000000000000000000000000000000000000000000000000000d99890000000000000000000000000000000000000000000000000000000000000000",
        "nonce": "0x64e",
        "chainId": "0x28c61"
      },
      "additionalContracts": [],
      "isFixedGasLimit": false
    },
    {
      "hash": "0x59f6a663f97bea26d71b9308fab94cc062eaa60c56368e0b92881ec756debf3e",
      "transactionType": "CALL",
      "contractName": null,
      "contractAddress": "0x0969C6Fe0d7FF1873d5AbDBf14260C987bF73735",
      "function": "mint(address,uint256)",
      "arguments": [
        "0x3C44CdDdB6a900fa2b585dd299e03d12FA4293BC",
        "891274"
      ],
      "transaction": {
        "from": "0x4100a9B680B1Be1F10Cb8b5a57fE59eA77A8184e",
        "to": "0x0969C6Fe0d7FF1873d5AbDBf14260C987bF73735",
        "gas": "0x116d4",
        "value": "0x0",
        "input": "0x40c10f190000000000000000000000003c44cdddb6a900fa2b585dd299e03d12fa4293bc00000000000000000000000000000000000000000000000000000000000d998a",
        "nonce": "0x64f",
        "chainId": "0x28c61"
      },
      "additionalContracts": [],
      "isFixedGasLimit": false
    },
    {
      "hash": "0xf2b1f68531518d4503dd0291b211c2e4a36bb1df8dd53ee01cc673ed3bffe7c3",
      "transactionType": "CALL",
      "contractName": null,
      "contractAddress": "0xD8152aaA8a2dFAFb356238B14124a9A17D2E1D24",
      "function": "registerPlayer(address,uint256,uint8)",
      "arguments": [
        "0x3C44CdDdB6a900fa2b585dd299e03d12FA4293BC",
        "891274",
        "2"
      ],
      "transaction": {
        "from": "0x4100a9B680B1Be1F10Cb8b5a57fE59eA77A8184e",
        "to": "0xD8152aaA8a2dFAFb356238B14124a9A17D2E1D24",
        "gas": "0x316dc",
        "value": "0x0",
        "input": "0x50ed28380000000000000000000000003c44cdddb6a900fa2b585dd299e03d12fa4293bc00000000000000000000000000000000000000000000000000000000000d998a0000000000000000000000000000000000000000000000000000000000000002",
        "nonce": "0x650",
        "chainId": "0x28c61"
      },
      "additionalContracts": [],
      "isFixedGasLimit": false
    },
    {
      "hash": "0xa918fdb3018befb80fe00bfd094c530d9576901c87f3d9d7746b4385c646596c",
      "transactionType": "CALL",
      "contractName": null,
      "contractAddress": "0x0969C6Fe0d7FF1873d5AbDBf14260C987bF73735",
      "function": "mint(address,uint256)",
      "arguments": [
        "0x90F79bf6EB2c4f870365E785982E1f101E93b906",
        "891275"
      ],
      "transaction": {
        "from": "0x4100a9B680B1Be1F10Cb8b5a57fE59eA77A8184e",
        "to": "0x0969C6Fe0d7FF1873d5AbDBf14260C987bF73735",
        "gas": "0x1274d",
        "value": "0x0",
        "input": "0x40c10f1900000000000000000000000090f79bf6eb2c4f870365e785982e1f101e93b90600000000000000000000000000000000000000000000000000000000000d998b",
        "nonce": "0x651",
        "chainId": "0x28c61"
      },
      "additionalContracts": [],
      "isFixedGasLimit": false
    },
    {
      "hash": "0xb0daff0992e361c5d7b9185d454bface8814d033761c171e4adca017ea5fdef4",
      "transactionType": "CALL",
      "contractName": null,
      "contractAddress": "0xD8152aaA8a2dFAFb356238B14124a9A17D2E1D24",
      "function": "registerPlayer(address,uint256,uint8)",
      "arguments": [
        "0x90F79bf6EB2c4f870365E785982E1f101E93b906",
        "891275",
        "2"
      ],
      "transaction": {
        "from": "0x4100a9B680B1Be1F10Cb8b5a57fE59eA77A8184e",
        "to": "0xD8152aaA8a2dFAFb356238B14124a9A17D2E1D24",
        "gas": "0x2eafc",
        "value": "0x0",
        "input": "0x50ed283800000000000000000000000090f79bf6eb2c4f870365e785982e1f101e93b90600000000000000000000000000000000000000000000000000000000000d998b0000000000000000000000000000000000000000000000000000000000000002",
        "nonce": "0x652",
        "chainId": "0x28c61"
      },
      "additionalContracts": [],
      "isFixedGasLimit": false
    },
    {
      "hash": "0xe0ced48c9fce9502a59f9f1b297ab289889d55285d8c4d51f756f433a7d95857",
      "transactionType": "CALL",
      "contractName": null,
      "contractAddress": "0x0969C6Fe0d7FF1873d5AbDBf14260C987bF73735",
      "function": "mint(address,uint256)",
      "arguments": [
        "0x15d34AAf54267DB7D7c367839AAf71A00a2C6A65",
        "891276"
      ],
      "transaction": {
        "from": "0x4100a9B680B1Be1F10Cb8b5a57fE59eA77A8184e",
        "to": "0x0969C6Fe0d7FF1873d5AbDBf14260C987bF73735",
        "gas": "0x1274d",
        "value": "0x0",
        "input": "0x40c10f1900000000000000000000000015d34aaf54267db7d7c367839aaf71a00a2c6a6500000000000000000000000000000000000000000000000000000000000d998c",
        "nonce": "0x653",
        "chainId": "0x28c61"
      },
      "additionalContracts": [],
      "isFixedGasLimit": false
    },
    {
      "hash": "0xb9bb9669b34b361281cd31c5ee476be18431f090ed96d63ebcd8df66b2cf0765",
      "transactionType": "CALL",
      "contractName": null,
      "contractAddress": "0xD8152aaA8a2dFAFb356238B14124a9A17D2E1D24",
      "function": "registerPlayer(address,uint256,uint8)",
      "arguments": [
        "0x15d34AAf54267DB7D7c367839AAf71A00a2C6A65",
        "891276",
        "2"
      ],
      "transaction": {
        "from": "0x4100a9B680B1Be1F10Cb8b5a57fE59eA77A8184e",
        "to": "0xD8152aaA8a2dFAFb356238B14124a9A17D2E1D24",
        "gas": "0x2eafc",
        "value": "0x0",
        "input": "0x50ed283800000000000000000000000015d34aaf54267db7d7c367839aaf71a00a2c6a6500000000000000000000000000000000000000000000000000000000000d998c0000000000000000000000000000000000000000000000000000000000000002",
        "nonce": "0x654",
        "chainId": "0x28c61"
      },
      "additionalContracts": [],
      "isFixedGasLimit": false
    },
    {
      "hash": "0xde67375b4ffcb160816fc88ee55a1803bd320e619763bc27a475cad9103cbcd4",
      "transactionType": "CALL",
      "contractName": null,
      "contractAddress": "0x0969C6Fe0d7FF1873d5AbDBf14260C987bF73735",
      "function": "mint(address,uint256)",
      "arguments": [
        "0x9965507D1a55bcC2695C58ba16FB37d819B0A4dc",
        "891277"
      ],
      "transaction": {
        "from": "0x4100a9B680B1Be1F10Cb8b5a57fE59eA77A8184e",
        "to": "0x0969C6Fe0d7FF1873d5AbDBf14260C987bF73735",
        "gas": "0x1274d",
        "value": "0x0",
        "input": "0x40c10f190000000000000000000000009965507d1a55bcc2695c58ba16fb37d819b0a4dc00000000000000000000000000000000000000000000000000000000000d998d",
        "nonce": "0x655",
        "chainId": "0x28c61"
      },
      "additionalContracts": [],
      "isFixedGasLimit": false
    },
    {
      "hash": "0x00fd236ee6e605e7b9d6673818cad126180b1de154cf49951aa44937d8cfe719",
      "transactionType": "CALL",
      "contractName": null,
      "contractAddress": "0xD8152aaA8a2dFAFb356238B14124a9A17D2E1D24",
      "function": "registerPlayer(address,uint256,uint8)",
      "arguments": [
        "0x9965507D1a55bcC2695C58ba16FB37d819B0A4dc",
        "891277",
        "0"
      ],
      "transaction": {
        "from": "0x4100a9B680B1Be1F10Cb8b5a57fE59eA77A8184e",
        "to": "0xD8152aaA8a2dFAFb356238B14124a9A17D2E1D24",
        "gas": "0x27f8d",
        "value": "0x0",
        "input": "0x50ed28380000000000000000000000009965507d1a55bcc2695c58ba16fb37d819b0a4dc00000000000000000000000000000000000000000000000000000000000d998d0000000000000000000000000000000000000000000000000000000000000000",
        "nonce": "0x656",
        "chainId": "0x28c61"
      },
      "additionalContracts": [],
      "isFixedGasLimit": false
    },
    {
      "hash": "0xd6f3ac3780d19bdfd8e6dbd1dc2a167c292a15ee9c7e563e1d7cd4c84487f2bf",
      "transactionType": "CALL",
      "contractName": null,
      "contractAddress": "0x0969C6Fe0d7FF1873d5AbDBf14260C987bF73735",
      "function": "mint(address,uint256)",
      "arguments": [
        "0x976EA74026E726554dB657fA54763abd0C3a0aa9",
        "891278"
      ],
      "transaction": {
        "from": "0x4100a9B680B1Be1F10Cb8b5a57fE59eA77A8184e",
        "to": "0x0969C6Fe0d7FF1873d5AbDBf14260C987bF73735",
        "gas": "0x1274d",
        "value": "0x0",
        "input": "0x40c10f19000000000000000000000000976ea74026e726554db657fa54763abd0c3a0aa900000000000000000000000000000000000000000000000000000000000d998e",
        "nonce": "0x657",
        "chainId": "0x28c61"
      },
      "additionalContracts": [],
      "isFixedGasLimit": false
    },
    {
      "hash": "0x3af5f1677c248fb358a07a341a94ca53f686899caf2df4a4b1010fb5d98264f1",
      "transactionType": "CALL",
      "contractName": null,
      "contractAddress": "0xD8152aaA8a2dFAFb356238B14124a9A17D2E1D24",
      "function": "registerPlayer(address,uint256,uint8)",
      "arguments": [
        "0x976EA74026E726554dB657fA54763abd0C3a0aa9",
        "891278",
        "1"
      ],
      "transaction": {
        "from": "0x4100a9B680B1Be1F10Cb8b5a57fE59eA77A8184e",
        "to": "0xD8152aaA8a2dFAFb356238B14124a9A17D2E1D24",
        "gas": "0x2eafc",
        "value": "0x0",
        "input": "0x50ed2838000000000000000000000000976ea74026e726554db657fa54763abd0c3a0aa900000000000000000000000000000000000000000000000000000000000d998e0000000000000000000000000000000000000000000000000000000000000001",
        "nonce": "0x658",
        "chainId": "0x28c61"
      },
      "additionalContracts": [],
      "isFixedGasLimit": false
    },
    {
      "hash": "0x15ce66cd781f351dd728e747b6ef5435c310032f5750640e38e743aec3bff2dd",
      "transactionType": "CALL",
      "contractName": null,
      "contractAddress": "0x0969C6Fe0d7FF1873d5AbDBf14260C987bF73735",
      "function": "mint(address,uint256)",
      "arguments": [
        "0x14dC79964da2C08b23698B3D3cc7Ca32193d9955",
        "891279"
      ],
      "transaction": {
        "from": "0x4100a9B680B1Be1F10Cb8b5a57fE59eA77A8184e",
        "to": "0x0969C6Fe0d7FF1873d5AbDBf14260C987bF73735",
        "gas": "0x1274d",
        "value": "0x0",
        "input": "0x40c10f1900000000000000000000000014dc79964da2c08b23698b3d3cc7ca32193d995500000000000000000000000000000000000000000000000000000000000d998f",
        "nonce": "0x659",
        "chainId": "0x28c61"
      },
      "additionalContracts": [],
      "isFixedGasLimit": false
    },
    {
      "hash": "0x34158e493980c4031f8d44e7ce6c80ca3f98e975305bd8e927616a4c9a0b5753",
      "transactionType": "CALL",
      "contractName": null,
      "contractAddress": "0xD8152aaA8a2dFAFb356238B14124a9A17D2E1D24",
      "function": "registerPlayer(address,uint256,uint8)",
      "arguments": [
        "0x14dC79964da2C08b23698B3D3cc7Ca32193d9955",
        "891279",
        "1"
      ],
      "transaction": {
        "from": "0x4100a9B680B1Be1F10Cb8b5a57fE59eA77A8184e",
        "to": "0xD8152aaA8a2dFAFb356238B14124a9A17D2E1D24",
        "gas": "0x2eafc",
        "value": "0x0",
        "input": "0x50ed283800000000000000000000000014dc79964da2c08b23698b3d3cc7ca32193d995500000000000000000000000000000000000000000000000000000000000d998f0000000000000000000000000000000000000000000000000000000000000001",
        "nonce": "0x65a",
        "chainId": "0x28c61"
      },
      "additionalContracts": [],
      "isFixedGasLimit": false
    },
    {
      "hash": "0xcda9e5bc6c732694969a1af07975ab5e49704cef27b76bdaf2987a7697759fcf",
      "transactionType": "CALL",
      "contractName": null,
      "contractAddress": "0x0969C6Fe0d7FF1873d5AbDBf14260C987bF73735",
      "function": "mint(address,uint256)",
      "arguments": [
        "0x23618e81E3f5cdF7f54C3d65f7FBc0aBf5B21E8f",
        "891280"
      ],
      "transaction": {
        "from": "0x4100a9B680B1Be1F10Cb8b5a57fE59eA77A8184e",
        "to": "0x0969C6Fe0d7FF1873d5AbDBf14260C987bF73735",
        "gas": "0x1274d",
        "value": "0x0",
        "input": "0x40c10f1900000000000000000000000023618e81e3f5cdf7f54c3d65f7fbc0abf5b21e8f00000000000000000000000000000000000000000000000000000000000d9990",
        "nonce": "0x65b",
        "chainId": "0x28c61"
      },
      "additionalContracts": [],
      "isFixedGasLimit": false
    },
    {
      "hash": "0x0ef4030e79b3ac520222119ee667c3290a85593e55478ac4a19e4ffc10b5d4f8",
      "transactionType": "CALL",
      "contractName": null,
      "contractAddress": "0xD8152aaA8a2dFAFb356238B14124a9A17D2E1D24",
      "function": "registerPlayer(address,uint256,uint8)",
      "arguments": [
        "0x23618e81E3f5cdF7f54C3d65f7FBc0aBf5B21E8f",
        "891280",
        "1"
      ],
      "transaction": {
        "from": "0x4100a9B680B1Be1F10Cb8b5a57fE59eA77A8184e",
        "to": "0xD8152aaA8a2dFAFb356238B14124a9A17D2E1D24",
        "gas": "0x2eafc",
        "value": "0x0",
        "input": "0x50ed283800000000000000000000000023618e81e3f5cdf7f54c3d65f7fbc0abf5b21e8f00000000000000000000000000000000000000000000000000000000000d99900000000000000000000000000000000000000000000000000000000000000001",
        "nonce": "0x65c",
        "chainId": "0x28c61"
      },
      "additionalContracts": [],
      "isFixedGasLimit": false
    },
    {
      "hash": "0x8e9c36f13b242b14b18a28c64133465ae74e28d8d49f402f9b3d622f6f4a0396",
      "transactionType": "CALL",
      "contractName": null,
      "contractAddress": "0x0969C6Fe0d7FF1873d5AbDBf14260C987bF73735",
      "function": "mint(address,uint256)",
      "arguments": [
        "0xa0Ee7A142d267C1f36714E4a8F75612F20a79720",
        "891281"
      ],
      "transaction": {
        "from": "0x4100a9B680B1Be1F10Cb8b5a57fE59eA77A8184e",
        "to": "0x0969C6Fe0d7FF1873d5AbDBf14260C987bF73735",
        "gas": "0x1274d",
        "value": "0x0",
        "input": "0x40c10f19000000000000000000000000a0ee7a142d267c1f36714e4a8f75612f20a7972000000000000000000000000000000000000000000000000000000000000d9991",
        "nonce": "0x65d",
        "chainId": "0x28c61"
      },
      "additionalContracts": [],
      "isFixedGasLimit": false
    },
    {
      "hash": "0x7683123e83fa83d718ae1f5b9f9a3799dc5f508ff61fcf27eae9f2eaa929a205",
      "transactionType": "CALL",
      "contractName": null,
      "contractAddress": "0xD8152aaA8a2dFAFb356238B14124a9A17D2E1D24",
      "function": "registerPlayer(address,uint256,uint8)",
      "arguments": [
        "0xa0Ee7A142d267C1f36714E4a8F75612F20a79720",
        "891281",
        "0"
      ],
      "transaction": {
        "from": "0x4100a9B680B1Be1F10Cb8b5a57fE59eA77A8184e",
        "to": "0xD8152aaA8a2dFAFb356238B14124a9A17D2E1D24",
        "gas": "0x27f8d",
        "value": "0x0",
        "input": "0x50ed2838000000000000000000000000a0ee7a142d267c1f36714e4a8f75612f20a7972000000000000000000000000000000000000000000000000000000000000d99910000000000000000000000000000000000000000000000000000000000000000",
        "nonce": "0x65e",
        "chainId": "0x28c61"
      },
      "additionalContracts": [],
      "isFixedGasLimit": false
    }
  ],
  "receipts": [
    {
      "status": "0x1",
      "cumulativeGasUsed": "0x38191",
      "logs": [
        {
          "address": "0x0969C6Fe0d7FF1873d5AbDBf14260C987bF73735",
          "topics": [
            "0xddf252ad1be2c89b69c2b068fc378daa952ba7f163c4a11628f55a4df523b3ef",
            "0x0000000000000000000000000000000000000000000000000000000000000000",
            "0x00000000000000000000000070997970c51812dc3a010c7d01b50e0d17dc79c8",
            "0x00000000000000000000000000000000000000000000000000000000000d9989"
          ],
          "data": "0x",
          "blockHash": "0x6e0904c12c499042d2f95773123856ff127fb79f44f36a52d3cd0f6b9f6ffed2",
          "blockNumber": "0xd9982",
          "transactionHash": "0xb06d3e270d92a013db7e5893e442a1702e9608f9a15cdd3d5980dea3f83ecdf7",
          "transactionIndex": "0x1",
          "logIndex": "0x3",
          "removed": false
        }
      ],
      "logsBloom": "0x00000000000000000002000000000000000000000000000000000000000000800000001000000000000000000000000000000000000000000000000000000000000000000000000000000008000000000000000000000000000000000000000000000800020000000000000000000800000000000000000000000010000000000000000000000000000000000000000000000000000000000000040000000000000000000000000000000000000000000000000000000200000000000000000000000002000000000000000000000000080000000000000000000000000020000000000000000000000004000000000001000000000000000000000000000000",
      "type": "0x2",
      "transactionHash": "0xb06d3e270d92a013db7e5893e442a1702e9608f9a15cdd3d5980dea3f83ecdf7",
      "transactionIndex": "0x1",
      "blockHash": "0x6e0904c12c499042d2f95773123856ff127fb79f44f36a52d3cd0f6b9f6ffed2",
      "blockNumber": "0xd9982",
      "gasUsed": "0xc9eb",
      "effectiveGasPrice": "0x86ff52",
      "from": "0x4100a9B680B1Be1F10Cb8b5a57fE59eA77A8184e",
      "to": "0x0969C6Fe0d7FF1873d5AbDBf14260C987bF73735",
      "contractAddress": null
    },
    {
      "status": "0x1",
      "cumulativeGasUsed": "0x55098",
      "logs": [
        {
          "address": "0xD8152aaA8a2dFAFb356238B14124a9A17D2E1D24",
          "topics": [
            "0x3ea3314dd8adca61ba5ccef601f00167a9a3c43358bad8b897df2519ee6d3a6c",
            "0x1dd7a95e260723af3e1cd6bd03a7edec11b135a26a1cc314f87b5f607f96599e",
            "0x00000000000000000000000070997970c51812dc3a010c7d01b50e0d17dc79c8"
          ],
          "data": "0x00000000000000000000000000000000000000000000000000000000000d998900000000000000000000000000000000000000000000000000000000000000000000000000000000000000000000000000000000000000000000000067124598",
          "blockHash": "0x6e0904c12c499042d2f95773123856ff127fb79f44f36a52d3cd0f6b9f6ffed2",
          "blockNumber": "0xd9982",
          "transactionHash": "0x2886de3b7c7f2e7c2132728b1dc755ecf3f8895823f65fd6833edc6dd2d3eff6",
          "transactionIndex": "0x2",
          "logIndex": "0x4",
          "removed": false
        }
      ],
      "logsBloom": "0x00000000000000000002000000000000000000000000000000000000001000000000000000000000000000000000000000000000000000000000000000000000000000000000000000000000000000000000800000000000000000000000000000000800000000000000000000000000000000000000000000200000000000000000000000000000000000000000000000000000000040000000000000000000000000000000000000000000000000001000000000010000000000000000000000000000000000000000020000000000000000000000000000000000000800000000000000000000000000000000000021000000000000000000000000000000",
      "type": "0x2",
      "transactionHash": "0x2886de3b7c7f2e7c2132728b1dc755ecf3f8895823f65fd6833edc6dd2d3eff6",
      "transactionIndex": "0x2",
      "blockHash": "0x6e0904c12c499042d2f95773123856ff127fb79f44f36a52d3cd0f6b9f6ffed2",
      "blockNumber": "0xd9982",
      "gasUsed": "0x1cf07",
      "effectiveGasPrice": "0x86ff52",
      "from": "0x4100a9B680B1Be1F10Cb8b5a57fE59eA77A8184e",
      "to": "0xD8152aaA8a2dFAFb356238B14124a9A17D2E1D24",
      "contractAddress": null
    },
    {
      "status": "0x1",
      "cumulativeGasUsed": "0x61a77",
      "logs": [
        {
          "address": "0x0969C6Fe0d7FF1873d5AbDBf14260C987bF73735",
          "topics": [
            "0xddf252ad1be2c89b69c2b068fc378daa952ba7f163c4a11628f55a4df523b3ef",
            "0x0000000000000000000000000000000000000000000000000000000000000000",
            "0x0000000000000000000000003c44cdddb6a900fa2b585dd299e03d12fa4293bc",
            "0x00000000000000000000000000000000000000000000000000000000000d998a"
          ],
          "data": "0x",
          "blockHash": "0x6e0904c12c499042d2f95773123856ff127fb79f44f36a52d3cd0f6b9f6ffed2",
          "blockNumber": "0xd9982",
          "transactionHash": "0x59f6a663f97bea26d71b9308fab94cc062eaa60c56368e0b92881ec756debf3e",
          "transactionIndex": "0x3",
          "logIndex": "0x5",
          "removed": false
        }
      ],
      "logsBloom": "0x00000000000000000000000000000000000000000000000000000000000000000000001000000000000000000000000000000000000000000000000000100000000000000000000000000008000000000000000000000000000000000080000000000000020000000000000000000800000800000000000000000010000000000200000000000000000000000000000000000000000000000000000000000000000000000000200000000000000000000000000000000200000000000000000000000002000000400000000000000000080000000000000000000000000020000000000000000000000000000000000000000000000000000000000000000000",
      "type": "0x2",
      "transactionHash": "0x59f6a663f97bea26d71b9308fab94cc062eaa60c56368e0b92881ec756debf3e",
      "transactionIndex": "0x3",
      "blockHash": "0x6e0904c12c499042d2f95773123856ff127fb79f44f36a52d3cd0f6b9f6ffed2",
      "blockNumber": "0xd9982",
      "gasUsed": "0xc9df",
      "effectiveGasPrice": "0x86ff52",
      "from": "0x4100a9B680B1Be1F10Cb8b5a57fE59eA77A8184e",
      "to": "0x0969C6Fe0d7FF1873d5AbDBf14260C987bF73735",
      "contractAddress": null
    },
    {
      "status": "0x1",
      "cumulativeGasUsed": "0x8373a",
      "logs": [
        {
          "address": "0xD8152aaA8a2dFAFb356238B14124a9A17D2E1D24",
          "topics": [
            "0x3ea3314dd8adca61ba5ccef601f00167a9a3c43358bad8b897df2519ee6d3a6c",
            "0xbbd455c82c0c7ca00310ab6977baa567583cf04b71b3a7665c32d9d111c78182",
            "0x0000000000000000000000003c44cdddb6a900fa2b585dd299e03d12fa4293bc"
          ],
          "data": "0x00000000000000000000000000000000000000000000000000000000000d998a00000000000000000000000000000000000000000000000000000000000000020000000000000000000000000000000000000000000000000000000067124598",
          "blockHash": "0x6e0904c12c499042d2f95773123856ff127fb79f44f36a52d3cd0f6b9f6ffed2",
          "blockNumber": "0xd9982",
          "transactionHash": "0xf2b1f68531518d4503dd0291b211c2e4a36bb1df8dd53ee01cc673ed3bffe7c3",
          "transactionIndex": "0x4",
          "logIndex": "0x6",
          "removed": false
        }
      ],
      "logsBloom": "0x00000000000000000000000000000000000000000000000000000000001000000000000000000000000000000000000000000000002000000000000000100000000000000000000000000000000000000000800000000000000000000000000000000000000000000000000000000000000800000000000000200000000000000000000000000000000000000000000000200000000000000000000000000000000000000000200000000000000000001000000000000000000000000000000000000000000000000000020000000000000000000000000000000000000800000000000000000000000000000000000000000000002000000000000000000000",
      "type": "0x2",
      "transactionHash": "0xf2b1f68531518d4503dd0291b211c2e4a36bb1df8dd53ee01cc673ed3bffe7c3",
      "transactionIndex": "0x4",
      "blockHash": "0x6e0904c12c499042d2f95773123856ff127fb79f44f36a52d3cd0f6b9f6ffed2",
      "blockNumber": "0xd9982",
      "gasUsed": "0x21cc3",
      "effectiveGasPrice": "0x86ff52",
      "from": "0x4100a9B680B1Be1F10Cb8b5a57fE59eA77A8184e",
      "to": "0xD8152aaA8a2dFAFb356238B14124a9A17D2E1D24",
      "contractAddress": null
    },
    {
      "status": "0x1",
      "cumulativeGasUsed": "0x90125",
      "logs": [
        {
          "address": "0x0969C6Fe0d7FF1873d5AbDBf14260C987bF73735",
          "topics": [
            "0xddf252ad1be2c89b69c2b068fc378daa952ba7f163c4a11628f55a4df523b3ef",
            "0x0000000000000000000000000000000000000000000000000000000000000000",
            "0x00000000000000000000000090f79bf6eb2c4f870365e785982e1f101e93b906",
            "0x00000000000000000000000000000000000000000000000000000000000d998b"
          ],
          "data": "0x",
          "blockHash": "0x6e0904c12c499042d2f95773123856ff127fb79f44f36a52d3cd0f6b9f6ffed2",
          "blockNumber": "0xd9982",
          "transactionHash": "0xa918fdb3018befb80fe00bfd094c530d9576901c87f3d9d7746b4385c646596c",
          "transactionIndex": "0x5",
          "logIndex": "0x7",
          "removed": false
        }
      ],
      "logsBloom": "0x00000000000000000000200100000000000000000000000000000000000000000000001000000000000000000000000000000000000000000000000000000000000000000000000000000008000000000000000000000000000000000000000000000000020000000000000000000800000000000000000000000010000000000000000000000000000000000000000000000800000000000400000000000000000000000000000000000000000000000000000000000200000000000000000000000002000000000000000000000000480000000000000000000000000020000000000000000000000010000000000000000000000000000000000000000000",
      "type": "0x2",
      "transactionHash": "0xa918fdb3018befb80fe00bfd094c530d9576901c87f3d9d7746b4385c646596c",
      "transactionIndex": "0x5",
      "blockHash": "0x6e0904c12c499042d2f95773123856ff127fb79f44f36a52d3cd0f6b9f6ffed2",
      "blockNumber": "0xd9982",
      "gasUsed": "0xc9eb",
      "effectiveGasPrice": "0x86ff52",
      "from": "0x4100a9B680B1Be1F10Cb8b5a57fE59eA77A8184e",
      "to": "0x0969C6Fe0d7FF1873d5AbDBf14260C987bF73735",
      "contractAddress": null
    },
    {
      "status": "0x1",
      "cumulativeGasUsed": "0xb1df4",
      "logs": [
        {
          "address": "0xD8152aaA8a2dFAFb356238B14124a9A17D2E1D24",
          "topics": [
            "0x3ea3314dd8adca61ba5ccef601f00167a9a3c43358bad8b897df2519ee6d3a6c",
            "0x7335d69745ac3da63c72690a49e0166918aa7cb9196ca031473cdfb63fa66686",
            "0x00000000000000000000000090f79bf6eb2c4f870365e785982e1f101e93b906"
          ],
          "data": "0x00000000000000000000000000000000000000000000000000000000000d998b00000000000000000000000000000000000000000000000000000000000000020000000000000000000000000000000000000000000000000000000067124598",
          "blockHash": "0x6e0904c12c499042d2f95773123856ff127fb79f44f36a52d3cd0f6b9f6ffed2",
          "blockNumber": "0xd9982",
          "transactionHash": "0xb0daff0992e361c5d7b9185d454bface8814d033761c171e4adca017ea5fdef4",
          "transactionIndex": "0x6",
          "logIndex": "0x8",
          "removed": false
        }
      ],
      "logsBloom": "0x00000000000000000000000000000000000000000000000000000000001000000000000000000000000000000000000000000000000000000000000000000000000000000000000000000000000000000000800000000000000000000000000000000000000000000000000000000000000000000000000000200000000000000000000000000000000000000000000020000000000000010400000000000000000000000000000000000000000400001000000000000000000000000000000000000000000000000000020000000000400000000000000000000000000800000000000000000000000010000000000000000000000000000000000000000000",
      "type": "0x2",
      "transactionHash": "0xb0daff0992e361c5d7b9185d454bface8814d033761c171e4adca017ea5fdef4",
      "transactionIndex": "0x6",
      "blockHash": "0x6e0904c12c499042d2f95773123856ff127fb79f44f36a52d3cd0f6b9f6ffed2",
      "blockNumber": "0xd9982",
      "gasUsed": "0x21ccf",
      "effectiveGasPrice": "0x86ff52",
      "from": "0x4100a9B680B1Be1F10Cb8b5a57fE59eA77A8184e",
      "to": "0xD8152aaA8a2dFAFb356238B14124a9A17D2E1D24",
      "contractAddress": null
    },
    {
      "status": "0x1",
      "cumulativeGasUsed": "0xbe7df",
      "logs": [
        {
          "address": "0x0969C6Fe0d7FF1873d5AbDBf14260C987bF73735",
          "topics": [
            "0xddf252ad1be2c89b69c2b068fc378daa952ba7f163c4a11628f55a4df523b3ef",
            "0x0000000000000000000000000000000000000000000000000000000000000000",
            "0x00000000000000000000000015d34aaf54267db7d7c367839aaf71a00a2c6a65",
            "0x00000000000000000000000000000000000000000000000000000000000d998c"
          ],
          "data": "0x",
          "blockHash": "0x6e0904c12c499042d2f95773123856ff127fb79f44f36a52d3cd0f6b9f6ffed2",
          "blockNumber": "0xd9982",
          "transactionHash": "0xe0ced48c9fce9502a59f9f1b297ab289889d55285d8c4d51f756f433a7d95857",
          "transactionIndex": "0x7",
          "logIndex": "0x9",
          "removed": false
        }
      ],
      "logsBloom": "0x00000000040000000000000000000000001000000000000000000000000000000000001000000000000000000000000000000000000000000000000000000000000000000000000000000008000000000000000000040000000000000000000000000000020000000000000000000800000000000000000000000010000000000000000000000000000000000000000000000000000000000000000100000000000000000000000000000000000000000000000000000200000000200000000000000002000000000000000000000000080000000000000000000000000024000000000000000000000000000000000000000000000000000000000000000000",
      "type": "0x2",
      "transactionHash": "0xe0ced48c9fce9502a59f9f1b297ab289889d55285d8c4d51f756f433a7d95857",
      "transactionIndex": "0x7",
      "blockHash": "0x6e0904c12c499042d2f95773123856ff127fb79f44f36a52d3cd0f6b9f6ffed2",
      "blockNumber": "0xd9982",
      "gasUsed": "0xc9eb",
      "effectiveGasPrice": "0x86ff52",
      "from": "0x4100a9B680B1Be1F10Cb8b5a57fE59eA77A8184e",
      "to": "0x0969C6Fe0d7FF1873d5AbDBf14260C987bF73735",
      "contractAddress": null
    },
    {
      "status": "0x1",
      "cumulativeGasUsed": "0xe04ae",
      "logs": [
        {
          "address": "0xD8152aaA8a2dFAFb356238B14124a9A17D2E1D24",
          "topics": [
            "0x3ea3314dd8adca61ba5ccef601f00167a9a3c43358bad8b897df2519ee6d3a6c",
            "0xf176bb2b2fb8ed2513fdf6fbe4f476562e25f964a90fe1584d6250ce3b7fc427",
            "0x00000000000000000000000015d34aaf54267db7d7c367839aaf71a00a2c6a65"
          ],
          "data": "0x00000000000000000000000000000000000000000000000000000000000d998c00000000000000000000000000000000000000000000000000000000000000020000000000000000000000000000000000000000000000000000000067124598",
          "blockHash": "0x6e0904c12c499042d2f95773123856ff127fb79f44f36a52d3cd0f6b9f6ffed2",
          "blockNumber": "0xd9982",
          "transactionHash": "0xb9bb9669b34b361281cd31c5ee476be18431f090ed96d63ebcd8df66b2cf0765",
          "transactionIndex": "0x8",
          "logIndex": "0xa",
          "removed": false
        }
      ],
      "logsBloom": "0x00000000040000000000000000000000000000000000000000000000001000000000000000000000000000000000000000004000000000000000000000000000000000000000000000000000000000000000800000000000000000000000000000000000000000000000000000000000000000000000000000200000000000000000000000000000000000000000000000000000000000000000000100000000000000100000000000000000000000001000000000000000000000000000000000000000000000000000020000000000000000000000004000000000000804000000000000000000000000000000000000000000000000000000000000000000",
      "type": "0x2",
      "transactionHash": "0xb9bb9669b34b361281cd31c5ee476be18431f090ed96d63ebcd8df66b2cf0765",
      "transactionIndex": "0x8",
      "blockHash": "0x6e0904c12c499042d2f95773123856ff127fb79f44f36a52d3cd0f6b9f6ffed2",
      "blockNumber": "0xd9982",
      "gasUsed": "0x21ccf",
      "effectiveGasPrice": "0x86ff52",
      "from": "0x4100a9B680B1Be1F10Cb8b5a57fE59eA77A8184e",
      "to": "0xD8152aaA8a2dFAFb356238B14124a9A17D2E1D24",
      "contractAddress": null
    },
    {
      "status": "0x1",
      "cumulativeGasUsed": "0xece99",
      "logs": [
        {
          "address": "0x0969C6Fe0d7FF1873d5AbDBf14260C987bF73735",
          "topics": [
            "0xddf252ad1be2c89b69c2b068fc378daa952ba7f163c4a11628f55a4df523b3ef",
            "0x0000000000000000000000000000000000000000000000000000000000000000",
            "0x0000000000000000000000009965507d1a55bcc2695c58ba16fb37d819b0a4dc",
            "0x00000000000000000000000000000000000000000000000000000000000d998d"
          ],
          "data": "0x",
          "blockHash": "0x6e0904c12c499042d2f95773123856ff127fb79f44f36a52d3cd0f6b9f6ffed2",
          "blockNumber": "0xd9982",
          "transactionHash": "0xde67375b4ffcb160816fc88ee55a1803bd320e619763bc27a475cad9103cbcd4",
          "transactionIndex": "0x9",
          "logIndex": "0xb",
          "removed": false
        }
      ],
      "logsBloom": "0x00000004000000000080000000000000000000000000000000000010000000000000001000000000000000000000000000000000000000000000000000000000000000000000000000000008000000000000000000008000000000000000000000000000021000000000000000000800000000000000000000000010000000000000000000000000000000000000000000000000000000000000000000000000000000000000000000000000000000000000000000000200000000000000000000000002800000000000000000000000080000000000000000000000000020000000000000000000000000000000000000000000000000000000000000000000",
      "type": "0x2",
      "transactionHash": "0xde67375b4ffcb160816fc88ee55a1803bd320e619763bc27a475cad9103cbcd4",
      "transactionIndex": "0x9",
      "blockHash": "0x6e0904c12c499042d2f95773123856ff127fb79f44f36a52d3cd0f6b9f6ffed2",
      "blockNumber": "0xd9982",
      "gasUsed": "0xc9eb",
      "effectiveGasPrice": "0x86ff52",
      "from": "0x4100a9B680B1Be1F10Cb8b5a57fE59eA77A8184e",
      "to": "0x0969C6Fe0d7FF1873d5AbDBf14260C987bF73735",
      "contractAddress": null
    },
    {
      "status": "0x1",
      "cumulativeGasUsed": "0x109da0",
      "logs": [
        {
          "address": "0xD8152aaA8a2dFAFb356238B14124a9A17D2E1D24",
          "topics": [
            "0x3ea3314dd8adca61ba5ccef601f00167a9a3c43358bad8b897df2519ee6d3a6c",
            "0x7a17a10dd0ebe568a66e808e8062fd6a608c2ed2e368cf7e3fe3756e3310a282",
            "0x0000000000000000000000009965507d1a55bcc2695c58ba16fb37d819b0a4dc"
          ],
          "data": "0x00000000000000000000000000000000000000000000000000000000000d998d00000000000000000000000000000000000000000000000000000000000000000000000000000000000000000000000000000000000000000000000067124598",
          "blockHash": "0x6e0904c12c499042d2f95773123856ff127fb79f44f36a52d3cd0f6b9f6ffed2",
          "blockNumber": "0xd9982",
          "transactionHash": "0x00fd236ee6e605e7b9d6673818cad126180b1de154cf49951aa44937d8cfe719",
          "transactionIndex": "0xa",
          "logIndex": "0xc",
          "removed": false
        }
      ],
      "logsBloom": "0x00000004000000000000000000000000000000000000000010000000001000000000000000000000000000000000000000000000000000000000000000000000000000000000000000000000000008000000800000008000000000000000000000000000000000000000000000000000000000000000000000200000000000000000000000000000000000000000000000000000000000000000000000000000000000000000000000000000000000001000000000000000000000000000000000000000800000000000020000000000000000000000000000000000000800000000000000000000040000000000000000000000000000000000000000000000",
      "type": "0x2",
      "transactionHash": "0x00fd236ee6e605e7b9d6673818cad126180b1de154cf49951aa44937d8cfe719",
      "transactionIndex": "0xa",
      "blockHash": "0x6e0904c12c499042d2f95773123856ff127fb79f44f36a52d3cd0f6b9f6ffed2",
      "blockNumber": "0xd9982",
      "gasUsed": "0x1cf07",
      "effectiveGasPrice": "0x86ff52",
      "from": "0x4100a9B680B1Be1F10Cb8b5a57fE59eA77A8184e",
      "to": "0xD8152aaA8a2dFAFb356238B14124a9A17D2E1D24",
      "contractAddress": null
    },
    {
      "status": "0x1",
      "cumulativeGasUsed": "0x11678b",
      "logs": [
        {
          "address": "0x0969C6Fe0d7FF1873d5AbDBf14260C987bF73735",
          "topics": [
            "0xddf252ad1be2c89b69c2b068fc378daa952ba7f163c4a11628f55a4df523b3ef",
            "0x0000000000000000000000000000000000000000000000000000000000000000",
            "0x000000000000000000000000976ea74026e726554db657fa54763abd0c3a0aa9",
            "0x00000000000000000000000000000000000000000000000000000000000d998e"
          ],
          "data": "0x",
          "blockHash": "0x6e0904c12c499042d2f95773123856ff127fb79f44f36a52d3cd0f6b9f6ffed2",
          "blockNumber": "0xd9982",
          "transactionHash": "0xd6f3ac3780d19bdfd8e6dbd1dc2a167c292a15ee9c7e563e1d7cd4c84487f2bf",
          "transactionIndex": "0xb",
          "logIndex": "0xd",
          "removed": false
        }
      ],
      "logsBloom": "0x00000000000000000000000000000000000000040200000000000000000000000000001000000000000000000000000000000000000100000000000000000000000000000000000000000008000000000000000000000000080000000000000000000000020000000000000000000800000000000000000000000010000000000000000000000000000000000000000000000000000000000000000000000000000800000000000000000000000000000000000000000200000000000000000100000002000000000000000000000000080000000000000000000000000020000000000000000000000000000000000000000000000000000000000000000000",
      "type": "0x2",
      "transactionHash": "0xd6f3ac3780d19bdfd8e6dbd1dc2a167c292a15ee9c7e563e1d7cd4c84487f2bf",
      "transactionIndex": "0xb",
      "blockHash": "0x6e0904c12c499042d2f95773123856ff127fb79f44f36a52d3cd0f6b9f6ffed2",
      "blockNumber": "0xd9982",
      "gasUsed": "0xc9eb",
      "effectiveGasPrice": "0x86ff52",
      "from": "0x4100a9B680B1Be1F10Cb8b5a57fE59eA77A8184e",
      "to": "0x0969C6Fe0d7FF1873d5AbDBf14260C987bF73735",
      "contractAddress": null
    },
    {
      "status": "0x1",
      "cumulativeGasUsed": "0x13845a",
      "logs": [
        {
          "address": "0xD8152aaA8a2dFAFb356238B14124a9A17D2E1D24",
          "topics": [
            "0x3ea3314dd8adca61ba5ccef601f00167a9a3c43358bad8b897df2519ee6d3a6c",
            "0xa9e13aaf243b51bef55b4cb34920b623184cd91c83ef7f9f3cce185042b2ebaa",
            "0x000000000000000000000000976ea74026e726554db657fa54763abd0c3a0aa9"
          ],
          "data": "0x00000000000000000000000000000000000000000000000000000000000d998e00000000000000000000000000000000000000000000000000000000000000010000000000000000000000000000000000000000000000000000000067124598",
          "blockHash": "0x6e0904c12c499042d2f95773123856ff127fb79f44f36a52d3cd0f6b9f6ffed2",
          "blockNumber": "0xd9982",
          "transactionHash": "0x3af5f1677c248fb358a07a341a94ca53f686899caf2df4a4b1010fb5d98264f1",
          "transactionIndex": "0xc",
          "logIndex": "0xe",
          "removed": false
        }
      ],
      "logsBloom": "0x00000000000000000000000000000000000000040200000000000000001000000000000000000000000000000000000000000000000000000000000000000000000000000000000000000000000000000000800000000000080000000000000000000000000000000000000000000000000000000000000000200000000000000000000000000000000000004000000800000000000000000000000000000000000000000000000400000000000000001000000000000000000000000000000000000000000000000000020000000000000000000000000000000000000800000000000000000000000000000000000000000000000000000000000000000000",
      "type": "0x2",
      "transactionHash": "0x3af5f1677c248fb358a07a341a94ca53f686899caf2df4a4b1010fb5d98264f1",
      "transactionIndex": "0xc",
      "blockHash": "0x6e0904c12c499042d2f95773123856ff127fb79f44f36a52d3cd0f6b9f6ffed2",
      "blockNumber": "0xd9982",
      "gasUsed": "0x21ccf",
      "effectiveGasPrice": "0x86ff52",
      "from": "0x4100a9B680B1Be1F10Cb8b5a57fE59eA77A8184e",
      "to": "0xD8152aaA8a2dFAFb356238B14124a9A17D2E1D24",
      "contractAddress": null
    },
    {
      "status": "0x1",
      "cumulativeGasUsed": "0x144e45",
      "logs": [
        {
          "address": "0x0969C6Fe0d7FF1873d5AbDBf14260C987bF73735",
          "topics": [
            "0xddf252ad1be2c89b69c2b068fc378daa952ba7f163c4a11628f55a4df523b3ef",
            "0x0000000000000000000000000000000000000000000000000000000000000000",
            "0x00000000000000000000000014dc79964da2c08b23698b3d3cc7ca32193d9955",
            "0x00000000000000000000000000000000000000000000000000000000000d998f"
          ],
          "data": "0x",
          "blockHash": "0x6e0904c12c499042d2f95773123856ff127fb79f44f36a52d3cd0f6b9f6ffed2",
          "blockNumber": "0xd9982",
          "transactionHash": "0x15ce66cd781f351dd728e747b6ef5435c310032f5750640e38e743aec3bff2dd",
          "transactionIndex": "0xd",
          "logIndex": "0xf",
          "removed": false
        }
      ],
      "logsBloom": "0x000000000000000000000000000000000000008000000000000000000000000000000010000000000000000000000000000000000000000000000000000008000000000000000000000000080000000000000000000004000000000000000000000000000200000000000000000008000000000000000000000000100000000000000000000000040000000000000000000000000000000000000000000000000000000000000000000000000000000020000000000002000000000000000000000000020000000000000000000000000c0000000000000000000000000020000000000000000000000000000000000000000000000000000000000000000000",
      "type": "0x2",
      "transactionHash": "0x15ce66cd781f351dd728e747b6ef5435c310032f5750640e38e743aec3bff2dd",
      "transactionIndex": "0xd",
      "blockHash": "0x6e0904c12c499042d2f95773123856ff127fb79f44f36a52d3cd0f6b9f6ffed2",
      "blockNumber": "0xd9982",
      "gasUsed": "0xc9eb",
      "effectiveGasPrice": "0x86ff52",
      "from": "0x4100a9B680B1Be1F10Cb8b5a57fE59eA77A8184e",
      "to": "0x0969C6Fe0d7FF1873d5AbDBf14260C987bF73735",
      "contractAddress": null
    },
    {
      "status": "0x1",
      "cumulativeGasUsed": "0x166b14",
      "logs": [
        {
          "address": "0xD8152aaA8a2dFAFb356238B14124a9A17D2E1D24",
          "topics": [
            "0x3ea3314dd8adca61ba5ccef601f00167a9a3c43358bad8b897df2519ee6d3a6c",
            "0x87a6955ca40219124ffe3672c65d690220fb98409ba9c8545b2b061e94eded6f",
            "0x00000000000000000000000014dc79964da2c08b23698b3d3cc7ca32193d9955"
          ],
          "data": "0x00000000000000000000000000000000000000000000000000000000000d998f00000000000000000000000000000000000000000000000000000000000000010000000000000000000000000000000000000000000000000000000067124598",
          "blockHash": "0x6e0904c12c499042d2f95773123856ff127fb79f44f36a52d3cd0f6b9f6ffed2",
          "blockNumber": "0xd9982",
          "transactionHash": "0x34158e493980c4031f8d44e7ce6c80ca3f98e975305bd8e927616a4c9a0b5753",
          "transactionIndex": "0xe",
          "logIndex": "0x10",
          "removed": false
        }
      ],
      "logsBloom": "0x00000000000000000000000000000000000000000000000000000000001000000000000000000000000000000000000000000000000000000000000000000000000000000000000000000000000000000000800000000400000000000000000000000000000000000000000000000800000000000000000000200000000000000000000000000000000000000000000000000000000000000000010000000000000000000000000000000000000000003000000000000000000000000000000000000000000000000000020000000800040000000000000000000000000800000000000000000000000000000000000000000000000000000000000000000000",
      "type": "0x2",
      "transactionHash": "0x34158e493980c4031f8d44e7ce6c80ca3f98e975305bd8e927616a4c9a0b5753",
      "transactionIndex": "0xe",
      "blockHash": "0x6e0904c12c499042d2f95773123856ff127fb79f44f36a52d3cd0f6b9f6ffed2",
      "blockNumber": "0xd9982",
      "gasUsed": "0x21ccf",
      "effectiveGasPrice": "0x86ff52",
      "from": "0x4100a9B680B1Be1F10Cb8b5a57fE59eA77A8184e",
      "to": "0xD8152aaA8a2dFAFb356238B14124a9A17D2E1D24",
      "contractAddress": null
    },
    {
      "status": "0x1",
      "cumulativeGasUsed": "0x1734ff",
      "logs": [
        {
          "address": "0x0969C6Fe0d7FF1873d5AbDBf14260C987bF73735",
          "topics": [
            "0xddf252ad1be2c89b69c2b068fc378daa952ba7f163c4a11628f55a4df523b3ef",
            "0x0000000000000000000000000000000000000000000000000000000000000000",
            "0x00000000000000000000000023618e81e3f5cdf7f54c3d65f7fbc0abf5b21e8f",
            "0x00000000000000000000000000000000000000000000000000000000000d9990"
          ],
          "data": "0x",
          "blockHash": "0x6e0904c12c499042d2f95773123856ff127fb79f44f36a52d3cd0f6b9f6ffed2",
          "blockNumber": "0xd9982",
          "transactionHash": "0xcda9e5bc6c732694969a1af07975ab5e49704cef27b76bdaf2987a7697759fcf",
          "transactionIndex": "0xf",
          "logIndex": "0x11",
          "removed": false
        }
      ],
      "logsBloom": "0x00800000000000000000000000000000000000000000000000000000000000000000001000000000000000000000000000000000000000000000000000000000000000000000000000000008000000000000000000000000000000000000000000000000020000000000000000000800000000000000000000000010000000000000000000000000000000020000000000000000000080000000000000000000000000000000000000000000000000000000000000000200000000000002000000000002000000000000000040000000080000000000000000000000000020000000000000000000000000000000000000000000000000000000008000000000",
      "type": "0x2",
      "transactionHash": "0xcda9e5bc6c732694969a1af07975ab5e49704cef27b76bdaf2987a7697759fcf",
      "transactionIndex": "0xf",
      "blockHash": "0x6e0904c12c499042d2f95773123856ff127fb79f44f36a52d3cd0f6b9f6ffed2",
      "blockNumber": "0xd9982",
      "gasUsed": "0xc9eb",
      "effectiveGasPrice": "0x86ff52",
      "from": "0x4100a9B680B1Be1F10Cb8b5a57fE59eA77A8184e",
      "to": "0x0969C6Fe0d7FF1873d5AbDBf14260C987bF73735",
      "contractAddress": null
    },
    {
      "status": "0x1",
      "cumulativeGasUsed": "0x1951ce",
      "logs": [
        {
          "address": "0xD8152aaA8a2dFAFb356238B14124a9A17D2E1D24",
          "topics": [
            "0x3ea3314dd8adca61ba5ccef601f00167a9a3c43358bad8b897df2519ee6d3a6c",
            "0x118d244521b60198ef3520848d91fa3cc770d0a6c9cb2f476569892768fe9728",
            "0x00000000000000000000000023618e81e3f5cdf7f54c3d65f7fbc0abf5b21e8f"
          ],
          "data": "0x00000000000000000000000000000000000000000000000000000000000d999000000000000000000000000000000000000000000000000000000000000000010000000000000000000000000000000000000000000000000000000067124598",
          "blockHash": "0x6e0904c12c499042d2f95773123856ff127fb79f44f36a52d3cd0f6b9f6ffed2",
          "blockNumber": "0xd9982",
          "transactionHash": "0x0ef4030e79b3ac520222119ee667c3290a85593e55478ac4a19e4ffc10b5d4f8",
          "transactionIndex": "0x10",
          "logIndex": "0x12",
          "removed": false
        }
      ],
      "logsBloom": "0x00800000000000000000000000000000000000000000000000000000001000000000000000000000000000000000000000000000000000000000000000000000000000000000000000000000000000000000800000000000000000000000000000000000000000000000000000000000000000000000000000200001000000000000000000000000000000020000000000000000000000000000000000000000000000000000000000000000000000001000000000000000000000000000000000000000000000000000020000000000000000000000000000000000000800000000000000000000000000002000000000000000000000000000009000000000",
      "type": "0x2",
      "transactionHash": "0x0ef4030e79b3ac520222119ee667c3290a85593e55478ac4a19e4ffc10b5d4f8",
      "transactionIndex": "0x10",
      "blockHash": "0x6e0904c12c499042d2f95773123856ff127fb79f44f36a52d3cd0f6b9f6ffed2",
      "blockNumber": "0xd9982",
      "gasUsed": "0x21ccf",
      "effectiveGasPrice": "0x86ff52",
      "from": "0x4100a9B680B1Be1F10Cb8b5a57fE59eA77A8184e",
      "to": "0xD8152aaA8a2dFAFb356238B14124a9A17D2E1D24",
      "contractAddress": null
    },
    {
      "status": "0x1",
      "cumulativeGasUsed": "0x1a1bb9",
      "logs": [
        {
          "address": "0x0969C6Fe0d7FF1873d5AbDBf14260C987bF73735",
          "topics": [
            "0xddf252ad1be2c89b69c2b068fc378daa952ba7f163c4a11628f55a4df523b3ef",
            "0x0000000000000000000000000000000000000000000000000000000000000000",
            "0x000000000000000000000000a0ee7a142d267c1f36714e4a8f75612f20a79720",
            "0x00000000000000000000000000000000000000000000000000000000000d9991"
          ],
          "data": "0x",
          "blockHash": "0x6e0904c12c499042d2f95773123856ff127fb79f44f36a52d3cd0f6b9f6ffed2",
          "blockNumber": "0xd9982",
          "transactionHash": "0x8e9c36f13b242b14b18a28c64133465ae74e28d8d49f402f9b3d622f6f4a0396",
          "transactionIndex": "0x11",
          "logIndex": "0x13",
          "removed": false
        }
      ],
      "logsBloom": "0x00000000000000000000040000000000000000000000000000000000000000000000001000000000000000000000000000000000000000000000000000000000000000000000000000000008000000000000000000000000000008000000000000000000020000000000000000000800000000000000000000000010000000000000000000000000000000000000000000000000000000000000000000000000000000000000000000000000000000000000000000000200000000000000000000000002000000000000000000000002080000000000000000004000000020000000000000000000000000000000000000040000000000000000000800000000",
      "type": "0x2",
      "transactionHash": "0x8e9c36f13b242b14b18a28c64133465ae74e28d8d49f402f9b3d622f6f4a0396",
      "transactionIndex": "0x11",
      "blockHash": "0x6e0904c12c499042d2f95773123856ff127fb79f44f36a52d3cd0f6b9f6ffed2",
      "blockNumber": "0xd9982",
      "gasUsed": "0xc9eb",
      "effectiveGasPrice": "0x86ff52",
      "from": "0x4100a9B680B1Be1F10Cb8b5a57fE59eA77A8184e",
      "to": "0x0969C6Fe0d7FF1873d5AbDBf14260C987bF73735",
      "contractAddress": null
    },
    {
      "status": "0x1",
      "cumulativeGasUsed": "0x1beac0",
      "logs": [
        {
          "address": "0xD8152aaA8a2dFAFb356238B14124a9A17D2E1D24",
          "topics": [
            "0x3ea3314dd8adca61ba5ccef601f00167a9a3c43358bad8b897df2519ee6d3a6c",
            "0xc54f114c4803d84ff8b48f75002888f1480973c60c1253a7bbf82141b9e0e251",
            "0x000000000000000000000000a0ee7a142d267c1f36714e4a8f75612f20a79720"
          ],
          "data": "0x00000000000000000000000000000000000000000000000000000000000d999100000000000000000000000000000000000000000000000000000000000000000000000000000000000000000000000000000000000000000000000067124598",
          "blockHash": "0x6e0904c12c499042d2f95773123856ff127fb79f44f36a52d3cd0f6b9f6ffed2",
          "blockNumber": "0xd9982",
          "transactionHash": "0x7683123e83fa83d718ae1f5b9f9a3799dc5f508ff61fcf27eae9f2eaa929a205",
          "transactionIndex": "0x12",
          "logIndex": "0x14",
          "removed": false
        }
      ],
      "logsBloom": "0x00000000000000000000040080000000000000000000000000000000001000000000000000000000000000000000000000000000000000000000000000000000000000000000000000000000000000000000800000000000000008000000000000000000000000000000000000000000000000000000000000200000000000000000000000000000000000000000000000000000000000000000000000000000000000000000000000000000000000001000000400000000000000000000000000000200000000000000020000000000000000000000000000004000000800000000000000000000000000000000000000000000000000000000000000000000",
      "type": "0x2",
      "transactionHash": "0x7683123e83fa83d718ae1f5b9f9a3799dc5f508ff61fcf27eae9f2eaa929a205",
      "transactionIndex": "0x12",
      "blockHash": "0x6e0904c12c499042d2f95773123856ff127fb79f44f36a52d3cd0f6b9f6ffed2",
      "blockNumber": "0xd9982",
      "gasUsed": "0x1cf07",
      "effectiveGasPrice": "0x86ff52",
      "from": "0x4100a9B680B1Be1F10Cb8b5a57fE59eA77A8184e",
      "to": "0xD8152aaA8a2dFAFb356238B14124a9A17D2E1D24",
      "contractAddress": null
    }
  ],
  "libraries": [],
  "pending": [],
  "returns": {},
  "timestamp": 1729250714,
  "chain": 167009,
  "commit": "ffaac9d"
}