{
  "transactions": [
    {
      "hash": "0xb0430e7985f309c2e7b4c864664f63206747d3e957dfc5de7e6b039ba508318b",
      "transactionType": "CALL",
      "contractName": null,
      "contractAddress": "0x97a9f7C76BdAF91395B283F188AD229Bca0f6E62",
      "function": "mint(address,uint256)",
      "arguments": [
        "0x70997970C51812dc3A010C7d01b50e0d17dc79C8",
        "891281"
      ],
      "transaction": {
        "from": "0x4100a9B680B1Be1F10Cb8b5a57fE59eA77A8184e",
        "to": "0x97a9f7C76BdAF91395B283F188AD229Bca0f6E62",
        "gas": "0x17329",
        "value": "0x0",
        "input": "0x40c10f1900000000000000000000000070997970c51812dc3a010c7d01b50e0d17dc79c800000000000000000000000000000000000000000000000000000000000d9991",
        "nonce": "0x662",
        "chainId": "0x28c61"
      },
      "additionalContracts": [],
      "isFixedGasLimit": false
    },
    {
      "hash": "0xa2d507edc0432d7c321511af055ecfe550064c32490fd04a1eda4906de49ed69",
      "transactionType": "CALL",
      "contractName": null,
      "contractAddress": "0xbBDba7707A34f9091E2A068ab0D30D7dc2a6d265",
      "function": "registerPlayer(address,uint256,uint8)",
      "arguments": [
        "0x70997970C51812dc3A010C7d01b50e0d17dc79C8",
        "891281",
        "0"
      ],
      "transaction": {
        "from": "0x4100a9B680B1Be1F10Cb8b5a57fE59eA77A8184e",
        "to": "0xbBDba7707A34f9091E2A068ab0D30D7dc2a6d265",
        "gas": "0x27f8d",
        "value": "0x0",
        "input": "0x50ed283800000000000000000000000070997970c51812dc3a010c7d01b50e0d17dc79c800000000000000000000000000000000000000000000000000000000000d99910000000000000000000000000000000000000000000000000000000000000000",
        "nonce": "0x663",
        "chainId": "0x28c61"
      },
      "additionalContracts": [],
      "isFixedGasLimit": false
    },
    {
      "hash": "0xfebdb5a8ddec4bb8851879010a2d8c3e6a3328bed461c6ae32140a82ffbc3dc7",
      "transactionType": "CALL",
      "contractName": null,
      "contractAddress": "0x97a9f7C76BdAF91395B283F188AD229Bca0f6E62",
      "function": "mint(address,uint256)",
      "arguments": [
        "0x3C44CdDdB6a900fa2b585dd299e03d12FA4293BC",
        "891282"
      ],
      "transaction": {
        "from": "0x4100a9B680B1Be1F10Cb8b5a57fE59eA77A8184e",
        "to": "0x97a9f7C76BdAF91395B283F188AD229Bca0f6E62",
        "gas": "0x188ec",
        "value": "0x0",
        "input": "0x40c10f190000000000000000000000003c44cdddb6a900fa2b585dd299e03d12fa4293bc00000000000000000000000000000000000000000000000000000000000d9992",
        "nonce": "0x664",
        "chainId": "0x28c61"
      },
      "additionalContracts": [],
      "isFixedGasLimit": false
    },
    {
      "hash": "0x716a1f0de2154ac957edf9bb2ab0b59f648b7c9b63d1cd8e8d7b2e0f7f478c20",
      "transactionType": "CALL",
      "contractName": null,
      "contractAddress": "0xbBDba7707A34f9091E2A068ab0D30D7dc2a6d265",
      "function": "registerPlayer(address,uint256,uint8)",
      "arguments": [
        "0x3C44CdDdB6a900fa2b585dd299e03d12FA4293BC",
        "891282",
        "2"
      ],
      "transaction": {
        "from": "0x4100a9B680B1Be1F10Cb8b5a57fE59eA77A8184e",
        "to": "0xbBDba7707A34f9091E2A068ab0D30D7dc2a6d265",
        "gas": "0x316dc",
        "value": "0x0",
        "input": "0x50ed28380000000000000000000000003c44cdddb6a900fa2b585dd299e03d12fa4293bc00000000000000000000000000000000000000000000000000000000000d99920000000000000000000000000000000000000000000000000000000000000002",
        "nonce": "0x665",
        "chainId": "0x28c61"
      },
      "additionalContracts": [],
      "isFixedGasLimit": false
    },
    {
      "hash": "0x1e0102d70ec2700c2aab0827831bfa9fdc1690130be95db6d4f250447692da97",
      "transactionType": "CALL",
      "contractName": null,
      "contractAddress": "0x97a9f7C76BdAF91395B283F188AD229Bca0f6E62",
      "function": "mint(address,uint256)",
      "arguments": [
        "0x90F79bf6EB2c4f870365E785982E1f101E93b906",
        "891283"
      ],
      "transaction": {
        "from": "0x4100a9B680B1Be1F10Cb8b5a57fE59eA77A8184e",
        "to": "0x97a9f7C76BdAF91395B283F188AD229Bca0f6E62",
        "gas": "0x17329",
        "value": "0x0",
        "input": "0x40c10f1900000000000000000000000090f79bf6eb2c4f870365e785982e1f101e93b90600000000000000000000000000000000000000000000000000000000000d9993",
        "nonce": "0x666",
        "chainId": "0x28c61"
      },
      "additionalContracts": [],
      "isFixedGasLimit": false
    },
    {
      "hash": "0x04394b854d6ccc85ca7d7e36df65091382e832fbbda9fc8c4429418cb20e3bc6",
      "transactionType": "CALL",
      "contractName": null,
      "contractAddress": "0xbBDba7707A34f9091E2A068ab0D30D7dc2a6d265",
      "function": "registerPlayer(address,uint256,uint8)",
      "arguments": [
        "0x90F79bf6EB2c4f870365E785982E1f101E93b906",
        "891283",
        "2"
      ],
      "transaction": {
        "from": "0x4100a9B680B1Be1F10Cb8b5a57fE59eA77A8184e",
        "to": "0xbBDba7707A34f9091E2A068ab0D30D7dc2a6d265",
        "gas": "0x2eafc",
        "value": "0x0",
        "input": "0x50ed283800000000000000000000000090f79bf6eb2c4f870365e785982e1f101e93b90600000000000000000000000000000000000000000000000000000000000d99930000000000000000000000000000000000000000000000000000000000000002",
        "nonce": "0x667",
        "chainId": "0x28c61"
      },
      "additionalContracts": [],
      "isFixedGasLimit": false
    },
    {
      "hash": "0x267bd396a0fc16928cf4332d95f4ff357692abe4bf3ce5f398e9af4bb4b18705",
      "transactionType": "CALL",
      "contractName": null,
      "contractAddress": "0x97a9f7C76BdAF91395B283F188AD229Bca0f6E62",
      "function": "mint(address,uint256)",
      "arguments": [
        "0x15d34AAf54267DB7D7c367839AAf71A00a2C6A65",
        "891284"
      ],
      "transaction": {
        "from": "0x4100a9B680B1Be1F10Cb8b5a57fE59eA77A8184e",
        "to": "0x97a9f7C76BdAF91395B283F188AD229Bca0f6E62",
        "gas": "0x17329",
        "value": "0x0",
        "input": "0x40c10f1900000000000000000000000015d34aaf54267db7d7c367839aaf71a00a2c6a6500000000000000000000000000000000000000000000000000000000000d9994",
        "nonce": "0x668",
        "chainId": "0x28c61"
      },
      "additionalContracts": [],
      "isFixedGasLimit": false
    },
    {
      "hash": "0xebe434d965844b10e9cee1710d99d2eb8484dda703f59e7e5980c8f6201d04c8",
      "transactionType": "CALL",
      "contractName": null,
      "contractAddress": "0xbBDba7707A34f9091E2A068ab0D30D7dc2a6d265",
      "function": "registerPlayer(address,uint256,uint8)",
      "arguments": [
        "0x15d34AAf54267DB7D7c367839AAf71A00a2C6A65",
        "891284",
        "2"
      ],
      "transaction": {
        "from": "0x4100a9B680B1Be1F10Cb8b5a57fE59eA77A8184e",
        "to": "0xbBDba7707A34f9091E2A068ab0D30D7dc2a6d265",
        "gas": "0x2eafc",
        "value": "0x0",
        "input": "0x50ed283800000000000000000000000015d34aaf54267db7d7c367839aaf71a00a2c6a6500000000000000000000000000000000000000000000000000000000000d99940000000000000000000000000000000000000000000000000000000000000002",
        "nonce": "0x669",
        "chainId": "0x28c61"
      },
      "additionalContracts": [],
      "isFixedGasLimit": false
    },
    {
      "hash": "0xd3dc2d55ffbfdc58822f39c1673c1837c62639b4e56e9b2c4ca87566e380b0a6",
      "transactionType": "CALL",
      "contractName": null,
      "contractAddress": "0x97a9f7C76BdAF91395B283F188AD229Bca0f6E62",
      "function": "mint(address,uint256)",
      "arguments": [
        "0x9965507D1a55bcC2695C58ba16FB37d819B0A4dc",
        "891285"
      ],
      "transaction": {
        "from": "0x4100a9B680B1Be1F10Cb8b5a57fE59eA77A8184e",
        "to": "0x97a9f7C76BdAF91395B283F188AD229Bca0f6E62",
        "gas": "0x17329",
        "value": "0x0",
        "input": "0x40c10f190000000000000000000000009965507d1a55bcc2695c58ba16fb37d819b0a4dc00000000000000000000000000000000000000000000000000000000000d9995",
        "nonce": "0x66a",
        "chainId": "0x28c61"
      },
      "additionalContracts": [],
      "isFixedGasLimit": false
    },
    {
      "hash": "0xa2e228b38dea59dac01b3eb2d11fe574c245f7a05c0aa0b231127c9c07748de7",
      "transactionType": "CALL",
      "contractName": null,
      "contractAddress": "0xbBDba7707A34f9091E2A068ab0D30D7dc2a6d265",
      "function": "registerPlayer(address,uint256,uint8)",
      "arguments": [
        "0x9965507D1a55bcC2695C58ba16FB37d819B0A4dc",
        "891285",
        "2"
      ],
      "transaction": {
        "from": "0x4100a9B680B1Be1F10Cb8b5a57fE59eA77A8184e",
        "to": "0xbBDba7707A34f9091E2A068ab0D30D7dc2a6d265",
        "gas": "0x2eafc",
        "value": "0x0",
        "input": "0x50ed28380000000000000000000000009965507d1a55bcc2695c58ba16fb37d819b0a4dc00000000000000000000000000000000000000000000000000000000000d99950000000000000000000000000000000000000000000000000000000000000002",
        "nonce": "0x66b",
        "chainId": "0x28c61"
      },
      "additionalContracts": [],
      "isFixedGasLimit": false
    },
    {
      "hash": "0x299c65f1d2c2ad4a9755ca0eee753fb8e7ddbcf5b225db1b7b31811fbbd429ac",
      "transactionType": "CALL",
      "contractName": null,
      "contractAddress": "0x97a9f7C76BdAF91395B283F188AD229Bca0f6E62",
      "function": "mint(address,uint256)",
      "arguments": [
        "0x976EA74026E726554dB657fA54763abd0C3a0aa9",
        "891286"
      ],
      "transaction": {
        "from": "0x4100a9B680B1Be1F10Cb8b5a57fE59eA77A8184e",
        "to": "0x97a9f7C76BdAF91395B283F188AD229Bca0f6E62",
        "gas": "0x17329",
        "value": "0x0",
        "input": "0x40c10f19000000000000000000000000976ea74026e726554db657fa54763abd0c3a0aa900000000000000000000000000000000000000000000000000000000000d9996",
        "nonce": "0x66c",
        "chainId": "0x28c61"
      },
      "additionalContracts": [],
      "isFixedGasLimit": false
    },
    {
      "hash": "0x2e1030ebca4a96f9e825d7a9d371e80881ee4d692ccd9699d60759ae79b43f1f",
      "transactionType": "CALL",
      "contractName": null,
      "contractAddress": "0xbBDba7707A34f9091E2A068ab0D30D7dc2a6d265",
      "function": "registerPlayer(address,uint256,uint8)",
      "arguments": [
        "0x976EA74026E726554dB657fA54763abd0C3a0aa9",
        "891286",
        "2"
      ],
      "transaction": {
        "from": "0x4100a9B680B1Be1F10Cb8b5a57fE59eA77A8184e",
        "to": "0xbBDba7707A34f9091E2A068ab0D30D7dc2a6d265",
        "gas": "0x2eafc",
        "value": "0x0",
        "input": "0x50ed2838000000000000000000000000976ea74026e726554db657fa54763abd0c3a0aa900000000000000000000000000000000000000000000000000000000000d99960000000000000000000000000000000000000000000000000000000000000002",
        "nonce": "0x66d",
        "chainId": "0x28c61"
      },
      "additionalContracts": [],
      "isFixedGasLimit": false
    },
    {
      "hash": "0xb3ff0905f820de3aac0b62630aa67507bfdb0f89671452159b4949d93f931139",
      "transactionType": "CALL",
      "contractName": null,
      "contractAddress": "0x97a9f7C76BdAF91395B283F188AD229Bca0f6E62",
      "function": "mint(address,uint256)",
      "arguments": [
        "0x14dC79964da2C08b23698B3D3cc7Ca32193d9955",
        "891287"
      ],
      "transaction": {
        "from": "0x4100a9B680B1Be1F10Cb8b5a57fE59eA77A8184e",
        "to": "0x97a9f7C76BdAF91395B283F188AD229Bca0f6E62",
        "gas": "0x17329",
        "value": "0x0",
        "input": "0x40c10f1900000000000000000000000014dc79964da2c08b23698b3d3cc7ca32193d995500000000000000000000000000000000000000000000000000000000000d9997",
        "nonce": "0x66e",
        "chainId": "0x28c61"
      },
      "additionalContracts": [],
      "isFixedGasLimit": false
    },
    {
      "hash": "0x9431f4a5286d3e736645eec4b4f7432994df1b0e70d9ae79e7d47bf909d4a88a",
      "transactionType": "CALL",
      "contractName": null,
      "contractAddress": "0xbBDba7707A34f9091E2A068ab0D30D7dc2a6d265",
      "function": "registerPlayer(address,uint256,uint8)",
      "arguments": [
        "0x14dC79964da2C08b23698B3D3cc7Ca32193d9955",
        "891287",
        "0"
      ],
      "transaction": {
        "from": "0x4100a9B680B1Be1F10Cb8b5a57fE59eA77A8184e",
        "to": "0xbBDba7707A34f9091E2A068ab0D30D7dc2a6d265",
        "gas": "0x27f8d",
        "value": "0x0",
        "input": "0x50ed283800000000000000000000000014dc79964da2c08b23698b3d3cc7ca32193d995500000000000000000000000000000000000000000000000000000000000d99970000000000000000000000000000000000000000000000000000000000000000",
        "nonce": "0x66f",
        "chainId": "0x28c61"
      },
      "additionalContracts": [],
      "isFixedGasLimit": false
    },
    {
      "hash": "0xb3a8a33fcf8e9db674a636dd09eedecc75dbff3589563c727861e4e854dabd3f",
      "transactionType": "CALL",
      "contractName": null,
      "contractAddress": "0x97a9f7C76BdAF91395B283F188AD229Bca0f6E62",
      "function": "mint(address,uint256)",
      "arguments": [
        "0x23618e81E3f5cdF7f54C3d65f7FBc0aBf5B21E8f",
        "891288"
      ],
      "transaction": {
        "from": "0x4100a9B680B1Be1F10Cb8b5a57fE59eA77A8184e",
        "to": "0x97a9f7C76BdAF91395B283F188AD229Bca0f6E62",
        "gas": "0x17329",
        "value": "0x0",
        "input": "0x40c10f1900000000000000000000000023618e81e3f5cdf7f54c3d65f7fbc0abf5b21e8f00000000000000000000000000000000000000000000000000000000000d9998",
        "nonce": "0x670",
        "chainId": "0x28c61"
      },
      "additionalContracts": [],
      "isFixedGasLimit": false
    },
    {
      "hash": "0xed034042dde45aa6cb9a72f0db161c2c4eaf09122ec83a4229859fc889185317",
      "transactionType": "CALL",
      "contractName": null,
      "contractAddress": "0xbBDba7707A34f9091E2A068ab0D30D7dc2a6d265",
      "function": "registerPlayer(address,uint256,uint8)",
      "arguments": [
        "0x23618e81E3f5cdF7f54C3d65f7FBc0aBf5B21E8f",
        "891288",
        "2"
      ],
      "transaction": {
        "from": "0x4100a9B680B1Be1F10Cb8b5a57fE59eA77A8184e",
        "to": "0xbBDba7707A34f9091E2A068ab0D30D7dc2a6d265",
        "gas": "0x2eafc",
        "value": "0x0",
        "input": "0x50ed283800000000000000000000000023618e81e3f5cdf7f54c3d65f7fbc0abf5b21e8f00000000000000000000000000000000000000000000000000000000000d99980000000000000000000000000000000000000000000000000000000000000002",
        "nonce": "0x671",
        "chainId": "0x28c61"
      },
      "additionalContracts": [],
      "isFixedGasLimit": false
    },
    {
      "hash": "0x30c0ac8f646dcb554270d44826f251f34b065b27838e85299bc021ff9f1e4710",
      "transactionType": "CALL",
      "contractName": null,
      "contractAddress": "0x97a9f7C76BdAF91395B283F188AD229Bca0f6E62",
      "function": "mint(address,uint256)",
      "arguments": [
        "0xa0Ee7A142d267C1f36714E4a8F75612F20a79720",
        "891289"
      ],
      "transaction": {
        "from": "0x4100a9B680B1Be1F10Cb8b5a57fE59eA77A8184e",
        "to": "0x97a9f7C76BdAF91395B283F188AD229Bca0f6E62",
        "gas": "0x17329",
        "value": "0x0",
        "input": "0x40c10f19000000000000000000000000a0ee7a142d267c1f36714e4a8f75612f20a7972000000000000000000000000000000000000000000000000000000000000d9999",
        "nonce": "0x672",
        "chainId": "0x28c61"
      },
      "additionalContracts": [],
      "isFixedGasLimit": false
    },
    {
      "hash": "0xc1f8002aae1660b7ced8537aa79c2896b90f13ff0340808d2bdfd5aa2c37a4e7",
      "transactionType": "CALL",
      "contractName": null,
      "contractAddress": "0xbBDba7707A34f9091E2A068ab0D30D7dc2a6d265",
      "function": "registerPlayer(address,uint256,uint8)",
      "arguments": [
        "0xa0Ee7A142d267C1f36714E4a8F75612F20a79720",
        "891289",
        "2"
      ],
      "transaction": {
        "from": "0x4100a9B680B1Be1F10Cb8b5a57fE59eA77A8184e",
        "to": "0xbBDba7707A34f9091E2A068ab0D30D7dc2a6d265",
        "gas": "0x2eafc",
        "value": "0x0",
        "input": "0x50ed2838000000000000000000000000a0ee7a142d267c1f36714e4a8f75612f20a7972000000000000000000000000000000000000000000000000000000000000d99990000000000000000000000000000000000000000000000000000000000000002",
        "nonce": "0x673",
        "chainId": "0x28c61"
      },
      "additionalContracts": [],
      "isFixedGasLimit": false
    }
  ],
  "receipts": [
    {
      "status": "0x1",
      "cumulativeGasUsed": "0x3c451",
      "logs": [
        {
          "address": "0x97a9f7C76BdAF91395B283F188AD229Bca0f6E62",
          "topics": [
            "0xddf252ad1be2c89b69c2b068fc378daa952ba7f163c4a11628f55a4df523b3ef",
            "0x0000000000000000000000000000000000000000000000000000000000000000",
            "0x00000000000000000000000070997970c51812dc3a010c7d01b50e0d17dc79c8",
            "0x00000000000000000000000000000000000000000000000000000000000d9991"
          ],
          "data": "0x",
          "blockHash": "0xa634ab2fcf59887d34a7d21e732c5d610dc95eccfdb4dd10751b35c4331bfc18",
          "blockNumber": "0xd998a",
          "transactionHash": "0xb0430e7985f309c2e7b4c864664f63206747d3e957dfc5de7e6b039ba508318b",
          "transactionIndex": "0x1",
          "logIndex": "0x3",
          "removed": false
        }
      ],
      "logsBloom": "0x00000000000000000002000000000000000000000000000000000000000000000000000000000000000000000000000000000000000000100000000000000000000000000000000000000008000000000000000000000000000000000000000000000800020000000000000000000800000000000000000000000010000000000000000000000000000000000000000000000000000000000000000002000000000000000000000000000000000000000000000000000000000000000000000000000002000000000000000000000002000000000000000000000000000020000000000000000000000000004000000001040000000000000000000800000000",
      "type": "0x2",
      "transactionHash": "0xb0430e7985f309c2e7b4c864664f63206747d3e957dfc5de7e6b039ba508318b",
      "transactionIndex": "0x1",
      "blockHash": "0xa634ab2fcf59887d34a7d21e732c5d610dc95eccfdb4dd10751b35c4331bfc18",
      "blockNumber": "0xd998a",
      "gasUsed": "0x10cb7",
      "effectiveGasPrice": "0x176fde87",
      "from": "0x4100a9B680B1Be1F10Cb8b5a57fE59eA77A8184e",
      "to": "0x97a9f7C76BdAF91395B283F188AD229Bca0f6E62",
      "contractAddress": null
    },
    {
      "status": "0x1",
      "cumulativeGasUsed": "0x59358",
      "logs": [
        {
          "address": "0xbBDba7707A34f9091E2A068ab0D30D7dc2a6d265",
          "topics": [
            "0x3ea3314dd8adca61ba5ccef601f00167a9a3c43358bad8b897df2519ee6d3a6c",
            "0x2907a4953c25df1bc46385412451f9e0286ac722caaf6f7d417c2220c16f20b8",
            "0x00000000000000000000000070997970c51812dc3a010c7d01b50e0d17dc79c8"
          ],
          "data": "0x00000000000000000000000000000000000000000000000000000000000d999100000000000000000000000000000000000000000000000000000000000000000000000000000000000000000000000000000000000000000000000067124670",
          "blockHash": "0xa634ab2fcf59887d34a7d21e732c5d610dc95eccfdb4dd10751b35c4331bfc18",
          "blockNumber": "0xd998a",
          "transactionHash": "0xa2d507edc0432d7c321511af055ecfe550064c32490fd04a1eda4906de49ed69",
          "transactionIndex": "0x2",
          "logIndex": "0x4",
          "removed": false
        }
      ],
      "logsBloom": "0x00000000000000000002000000000000000800000000000000000000000000000000000000000002000000000000000000000000000000000000000000000000000000000000000000000000000000000000800000000000000000000000000000000800000400000000000000000000000000000000000000100000000000000000000000000000000000000000000000000000000000040000000000000000000000000000000000000000000000000000000000000000000000000000000000000000000000000000020000000000000000000000000000000000000808000000000000000000000000000000000001000000000000000000000000000000",
      "type": "0x2",
      "transactionHash": "0xa2d507edc0432d7c321511af055ecfe550064c32490fd04a1eda4906de49ed69",
      "transactionIndex": "0x2",
      "blockHash": "0xa634ab2fcf59887d34a7d21e732c5d610dc95eccfdb4dd10751b35c4331bfc18",
      "blockNumber": "0xd998a",
      "gasUsed": "0x1cf07",
      "effectiveGasPrice": "0x176fde87",
      "from": "0x4100a9B680B1Be1F10Cb8b5a57fE59eA77A8184e",
      "to": "0xbBDba7707A34f9091E2A068ab0D30D7dc2a6d265",
      "contractAddress": null
    },
    {
      "status": "0x1",
      "cumulativeGasUsed": "0x6a003",
      "logs": [
        {
          "address": "0x97a9f7C76BdAF91395B283F188AD229Bca0f6E62",
          "topics": [
            "0xddf252ad1be2c89b69c2b068fc378daa952ba7f163c4a11628f55a4df523b3ef",
            "0x0000000000000000000000000000000000000000000000000000000000000000",
            "0x0000000000000000000000003c44cdddb6a900fa2b585dd299e03d12fa4293bc",
            "0x00000000000000000000000000000000000000000000000000000000000d9992"
          ],
          "data": "0x",
          "blockHash": "0xa634ab2fcf59887d34a7d21e732c5d610dc95eccfdb4dd10751b35c4331bfc18",
          "blockNumber": "0xd998a",
          "transactionHash": "0xfebdb5a8ddec4bb8851879010a2d8c3e6a3328bed461c6ae32140a82ffbc3dc7",
          "transactionIndex": "0x3",
          "logIndex": "0x5",
          "removed": false
        }
      ],
      "logsBloom": "0x00000000000000000000000000000000000000000000000000000010000000000000000000000000000000000000000000200000000000100000000000100000000000000000000000000008000000000000000000000000000000000000000000000000020000000000000000000800000800000000000000000010000000000000000000000000000000000000000000000000000000000000000002000000000000000000200000000000000000000000000000000000000000000000000000000002000000000000000000000000000000000000001000000000000020000000000000000000000000004000000000000000000000000000000000000000",
      "type": "0x2",
      "transactionHash": "0xfebdb5a8ddec4bb8851879010a2d8c3e6a3328bed461c6ae32140a82ffbc3dc7",
      "transactionIndex": "0x3",
      "blockHash": "0xa634ab2fcf59887d34a7d21e732c5d610dc95eccfdb4dd10751b35c4331bfc18",
      "blockNumber": "0xd998a",
      "gasUsed": "0x10cab",
      "effectiveGasPrice": "0x176fde87",
      "from": "0x4100a9B680B1Be1F10Cb8b5a57fE59eA77A8184e",
      "to": "0x97a9f7C76BdAF91395B283F188AD229Bca0f6E62",
      "contractAddress": null
    },
    {
      "status": "0x1",
      "cumulativeGasUsed": "0x8bcc6",
      "logs": [
        {
          "address": "0xbBDba7707A34f9091E2A068ab0D30D7dc2a6d265",
          "topics": [
            "0x3ea3314dd8adca61ba5ccef601f00167a9a3c43358bad8b897df2519ee6d3a6c",
            "0x8e0eb35b74bc985d055dddd6fcce9f0110ecd67f86fec17c4f80e11216082b3c",
            "0x0000000000000000000000003c44cdddb6a900fa2b585dd299e03d12fa4293bc"
          ],
          "data": "0x00000000000000000000000000000000000000000000000000000000000d999200000000000000000000000000000000000000000000000000000000000000020000000000000000000000000000000000000000000000000000000067124670",
          "blockHash": "0xa634ab2fcf59887d34a7d21e732c5d610dc95eccfdb4dd10751b35c4331bfc18",
          "blockNumber": "0xd998a",
          "transactionHash": "0x716a1f0de2154ac957edf9bb2ab0b59f648b7c9b63d1cd8e8d7b2e0f7f478c20",
          "transactionIndex": "0x4",
          "logIndex": "0x6",
          "removed": false
        }
      ],
      "logsBloom": "0x00000000000000000000000000000000000000000000000000000000000000000000000000000002000000000000000000000000000000000000010000100000000000000000000000010000000000000000800000000000000000000000000000000000000400000000000000000000000800000000000000100000000000000001000000000000000000000000000000000000000000000000000000000000000000000000200000000000000000000000000000000000000000000000000000000000000000000000020000000000000000000000000000000000000800000000000000000000000000000000000000000000000000000000000000000000",
      "type": "0x2",
      "transactionHash": "0x716a1f0de2154ac957edf9bb2ab0b59f648b7c9b63d1cd8e8d7b2e0f7f478c20",
      "transactionIndex": "0x4",
      "blockHash": "0xa634ab2fcf59887d34a7d21e732c5d610dc95eccfdb4dd10751b35c4331bfc18",
      "blockNumber": "0xd998a",
      "gasUsed": "0x21cc3",
      "effectiveGasPrice": "0x176fde87",
      "from": "0x4100a9B680B1Be1F10Cb8b5a57fE59eA77A8184e",
      "to": "0xbBDba7707A34f9091E2A068ab0D30D7dc2a6d265",
      "contractAddress": null
    },
    {
      "status": "0x1",
      "cumulativeGasUsed": "0x9c97d",
      "logs": [
        {
          "address": "0x97a9f7C76BdAF91395B283F188AD229Bca0f6E62",
          "topics": [
            "0xddf252ad1be2c89b69c2b068fc378daa952ba7f163c4a11628f55a4df523b3ef",
            "0x0000000000000000000000000000000000000000000000000000000000000000",
            "0x00000000000000000000000090f79bf6eb2c4f870365e785982e1f101e93b906",
            "0x00000000000000000000000000000000000000000000000000000000000d9993"
          ],
          "data": "0x",
          "blockHash": "0xa634ab2fcf59887d34a7d21e732c5d610dc95eccfdb4dd10751b35c4331bfc18",
          "blockNumber": "0xd998a",
          "transactionHash": "0x1e0102d70ec2700c2aab0827831bfa9fdc1690130be95db6d4f250447692da97",
          "transactionIndex": "0x5",
          "logIndex": "0x7",
          "removed": false
        }
      ],
      "logsBloom": "0x00000000000000000000000000008000000000000000000000000000000000000000000000080000000000000000000000000000000000100000000000000000000000000000000000000008000000000000000000800000000000000000000000000000020000000000000000000800000000000000000000000010000000000000000000000000000000000000000000000000000000000400000002000000000000000000000000000000000000000000000000000000000000000000000000000002000000000000000000000000400000000000000000000000000020000000000000000000000010004000000000000000000000000000000000000000",
      "type": "0x2",
      "transactionHash": "0x1e0102d70ec2700c2aab0827831bfa9fdc1690130be95db6d4f250447692da97",
      "transactionIndex": "0x5",
      "blockHash": "0xa634ab2fcf59887d34a7d21e732c5d610dc95eccfdb4dd10751b35c4331bfc18",
      "blockNumber": "0xd998a",
      "gasUsed": "0x10cb7",
      "effectiveGasPrice": "0x176fde87",
      "from": "0x4100a9B680B1Be1F10Cb8b5a57fE59eA77A8184e",
      "to": "0x97a9f7C76BdAF91395B283F188AD229Bca0f6E62",
      "contractAddress": null
    },
    {
      "status": "0x1",
      "cumulativeGasUsed": "0xbe64c",
      "logs": [
        {
          "address": "0xbBDba7707A34f9091E2A068ab0D30D7dc2a6d265",
          "topics": [
            "0x3ea3314dd8adca61ba5ccef601f00167a9a3c43358bad8b897df2519ee6d3a6c",
            "0x6f4f61d36991bc75d105da9303e2dc7af9a1012c0bd892c3d2612d2bc0d634ee",
            "0x00000000000000000000000090f79bf6eb2c4f870365e785982e1f101e93b906"
          ],
          "data": "0x00000000000000000000000000000000000000000000000000000000000d999300000000000000000000000000000000000000000000000000000000000000020000000000000000000000000000000000000000000000000000000067124670",
          "blockHash": "0xa634ab2fcf59887d34a7d21e732c5d610dc95eccfdb4dd10751b35c4331bfc18",
          "blockNumber": "0xd998a",
          "transactionHash": "0x04394b854d6ccc85ca7d7e36df65091382e832fbbda9fc8c4429418cb20e3bc6",
          "transactionIndex": "0x6",
          "logIndex": "0x8",
          "removed": false
        }
      ],
      "logsBloom": "0x00000000000000000080000000000000000000000000000000000000000000000000000000000002000800000000000000000000000000000000000000000000000000000000000000000000000008000000800000000000000000000000000000000000000400000000000000000000000000000000000000100000000000000000000000000000000000000000000000000000000000000400000000000000000000000000000000000000000000000000000000000000000000000000000000000000000000000000020000000000400000000000000000000000000800000000000000000000000010000000000000000000000000000000000000000000",
      "type": "0x2",
      "transactionHash": "0x04394b854d6ccc85ca7d7e36df65091382e832fbbda9fc8c4429418cb20e3bc6",
      "transactionIndex": "0x6",
      "blockHash": "0xa634ab2fcf59887d34a7d21e732c5d610dc95eccfdb4dd10751b35c4331bfc18",
      "blockNumber": "0xd998a",
      "gasUsed": "0x21ccf",
      "effectiveGasPrice": "0x176fde87",
      "from": "0x4100a9B680B1Be1F10Cb8b5a57fE59eA77A8184e",
      "to": "0xbBDba7707A34f9091E2A068ab0D30D7dc2a6d265",
      "contractAddress": null
    },
    {
      "status": "0x1",
      "cumulativeGasUsed": "0xcf303",
      "logs": [
        {
          "address": "0x97a9f7C76BdAF91395B283F188AD229Bca0f6E62",
          "topics": [
            "0xddf252ad1be2c89b69c2b068fc378daa952ba7f163c4a11628f55a4df523b3ef",
            "0x0000000000000000000000000000000000000000000000000000000000000000",
            "0x00000000000000000000000015d34aaf54267db7d7c367839aaf71a00a2c6a65",
            "0x00000000000000000000000000000000000000000000000000000000000d9994"
          ],
          "data": "0x",
          "blockHash": "0xa634ab2fcf59887d34a7d21e732c5d610dc95eccfdb4dd10751b35c4331bfc18",
          "blockNumber": "0xd998a",
          "transactionHash": "0x267bd396a0fc16928cf4332d95f4ff357692abe4bf3ce5f398e9af4bb4b18705",
          "transactionIndex": "0x7",
          "logIndex": "0x9",
          "removed": false
        }
      ],
      "logsBloom": "0x00000000040000000000000000000000000000000000000000000000000000000000000000000000000000000000020000000000000000100000000000000000000000000000000000000008000000000000000000000000000000000000000000000000020000000000000000000800000000000000000000100010000000000000000000000000000000000000000000000001000000000000000102000000000000000000000000000000000000000000000000000000000000000000000000000002000000000000000000000000000000000000000000000000000024000000000000000000000000004000000000000000000000000000000000000000",
      "type": "0x2",
      "transactionHash": "0x267bd396a0fc16928cf4332d95f4ff357692abe4bf3ce5f398e9af4bb4b18705",
      "transactionIndex": "0x7",
      "blockHash": "0xa634ab2fcf59887d34a7d21e732c5d610dc95eccfdb4dd10751b35c4331bfc18",
      "blockNumber": "0xd998a",
      "gasUsed": "0x10cb7",
      "effectiveGasPrice": "0x176fde87",
      "from": "0x4100a9B680B1Be1F10Cb8b5a57fE59eA77A8184e",
      "to": "0x97a9f7C76BdAF91395B283F188AD229Bca0f6E62",
      "contractAddress": null
    },
    {
      "status": "0x1",
      "cumulativeGasUsed": "0xf0fd2",
      "logs": [
        {
          "address": "0xbBDba7707A34f9091E2A068ab0D30D7dc2a6d265",
          "topics": [
            "0x3ea3314dd8adca61ba5ccef601f00167a9a3c43358bad8b897df2519ee6d3a6c",
            "0xb72f12063d8f885bbbc306f7550d2da6190accc70184cf931ec40b37c1e07be8",
            "0x00000000000000000000000015d34aaf54267db7d7c367839aaf71a00a2c6a65"
          ],
          "data": "0x00000000000000000000000000000000000000000000000000000000000d999400000000000000000000000000000000000000000000000000000000000000020000000000000000000000000000000000000000000000000000000067124670",
          "blockHash": "0xa634ab2fcf59887d34a7d21e732c5d610dc95eccfdb4dd10751b35c4331bfc18",
          "blockNumber": "0xd998a",
          "transactionHash": "0xebe434d965844b10e9cee1710d99d2eb8484dda703f59e7e5980c8f6201d04c8",
          "transactionIndex": "0x8",
          "logIndex": "0xa",
          "removed": false
        }
      ],
      "logsBloom": "0x00000000040000000000000001000000000000000000000000000000000000000000000000000002000000000000000000000000000000000000000000000000000000000000000000000000000000000000800000000000000000000000000000000000000400000000000000000000000000000000000000100000000000000000000000000000000000000000000000000000010000000000000100000000000000000000000000000000000000000000000000000000000000000000000000000000000000000000020000000000000000000000000000000000000884000000000000000000000000000000000000000000000000000000000000000000",
      "type": "0x2",
      "transactionHash": "0xebe434d965844b10e9cee1710d99d2eb8484dda703f59e7e5980c8f6201d04c8",
      "transactionIndex": "0x8",
      "blockHash": "0xa634ab2fcf59887d34a7d21e732c5d610dc95eccfdb4dd10751b35c4331bfc18",
      "blockNumber": "0xd998a",
      "gasUsed": "0x21ccf",
      "effectiveGasPrice": "0x176fde87",
      "from": "0x4100a9B680B1Be1F10Cb8b5a57fE59eA77A8184e",
      "to": "0xbBDba7707A34f9091E2A068ab0D30D7dc2a6d265",
      "contractAddress": null
    },
    {
      "status": "0x1",
      "cumulativeGasUsed": "0x101c89",
      "logs": [
        {
          "address": "0x97a9f7C76BdAF91395B283F188AD229Bca0f6E62",
          "topics": [
            "0xddf252ad1be2c89b69c2b068fc378daa952ba7f163c4a11628f55a4df523b3ef",
            "0x0000000000000000000000000000000000000000000000000000000000000000",
            "0x0000000000000000000000009965507d1a55bcc2695c58ba16fb37d819b0a4dc",
            "0x00000000000000000000000000000000000000000000000000000000000d9995"
          ],
          "data": "0x",
          "blockHash": "0xa634ab2fcf59887d34a7d21e732c5d610dc95eccfdb4dd10751b35c4331bfc18",
          "blockNumber": "0xd998a",
          "transactionHash": "0xd3dc2d55ffbfdc58822f39c1673c1837c62639b4e56e9b2c4ca87566e380b0a6",
          "transactionIndex": "0x9",
          "logIndex": "0xb",
          "removed": false
        }
      ],
      "logsBloom": "0x00000004000000000000000000000000000000000000000000000000000000000000000000000000000000000000000000000000000000100000000000000000000000000000000000000008000000000000000000008000000002000000000000000000020000000000000000000800000000000000000000000010000000000000000000000000000000000000000000000000000000000000000002000000040000000000000000000000000000000000000000000000000000000000000000000002800000000000000000000000000000000000000000000000000020000000000000000000000000004000000000000000000000000400000000000000",
      "type": "0x2",
      "transactionHash": "0xd3dc2d55ffbfdc58822f39c1673c1837c62639b4e56e9b2c4ca87566e380b0a6",
      "transactionIndex": "0x9",
      "blockHash": "0xa634ab2fcf59887d34a7d21e732c5d610dc95eccfdb4dd10751b35c4331bfc18",
      "blockNumber": "0xd998a",
      "gasUsed": "0x10cb7",
      "effectiveGasPrice": "0x176fde87",
      "from": "0x4100a9B680B1Be1F10Cb8b5a57fE59eA77A8184e",
      "to": "0x97a9f7C76BdAF91395B283F188AD229Bca0f6E62",
      "contractAddress": null
    },
    {
      "status": "0x1",
      "cumulativeGasUsed": "0x123958",
      "logs": [
        {
          "address": "0xbBDba7707A34f9091E2A068ab0D30D7dc2a6d265",
          "topics": [
            "0x3ea3314dd8adca61ba5ccef601f00167a9a3c43358bad8b897df2519ee6d3a6c",
            "0xf95efa1d94e9a5b8bd7a429d23d5c192fdca8898f614024ac33d8e24d94edcb7",
            "0x0000000000000000000000009965507d1a55bcc2695c58ba16fb37d819b0a4dc"
          ],
          "data": "0x00000000000000000000000000000000000000000000000000000000000d999500000000000000000000000000000000000000000000000000000000000000020000000000000000000000000000000000000000000000000000000067124670",
          "blockHash": "0xa634ab2fcf59887d34a7d21e732c5d610dc95eccfdb4dd10751b35c4331bfc18",
          "blockNumber": "0xd998a",
          "transactionHash": "0xa2e228b38dea59dac01b3eb2d11fe574c245f7a05c0aa0b231127c9c07748de7",
          "transactionIndex": "0xa",
          "logIndex": "0xc",
          "removed": false
        }
      ],
      "logsBloom": "0x00000004000000000000000000000000000000000000000000000000000000000000000000000002000000000000000000000000000000000000000000000000000000000000000000000000000000000000800000008000000000000000000000000000000400000000080000000000000000000000000000100000000000000000000000000000000000000000000000000000000000000000000000000000000000000000000000000000000000000000000000000000000000000000000000000000800000000000020000000000000000004000000000000000000800000000000000000000000000000000000000000000000000000000000000008000",
      "type": "0x2",
      "transactionHash": "0xa2e228b38dea59dac01b3eb2d11fe574c245f7a05c0aa0b231127c9c07748de7",
      "transactionIndex": "0xa",
      "blockHash": "0xa634ab2fcf59887d34a7d21e732c5d610dc95eccfdb4dd10751b35c4331bfc18",
      "blockNumber": "0xd998a",
      "gasUsed": "0x21ccf",
      "effectiveGasPrice": "0x176fde87",
      "from": "0x4100a9B680B1Be1F10Cb8b5a57fE59eA77A8184e",
      "to": "0xbBDba7707A34f9091E2A068ab0D30D7dc2a6d265",
      "contractAddress": null
    },
    {
      "status": "0x1",
      "cumulativeGasUsed": "0x13460f",
      "logs": [
        {
          "address": "0x97a9f7C76BdAF91395B283F188AD229Bca0f6E62",
          "topics": [
            "0xddf252ad1be2c89b69c2b068fc378daa952ba7f163c4a11628f55a4df523b3ef",
            "0x0000000000000000000000000000000000000000000000000000000000000000",
            "0x000000000000000000000000976ea74026e726554db657fa54763abd0c3a0aa9",
            "0x00000000000000000000000000000000000000000000000000000000000d9996"
          ],
          "data": "0x",
          "blockHash": "0xa634ab2fcf59887d34a7d21e732c5d610dc95eccfdb4dd10751b35c4331bfc18",
          "blockNumber": "0xd998a",
          "transactionHash": "0x299c65f1d2c2ad4a9755ca0eee753fb8e7ddbcf5b225db1b7b31811fbbd429ac",
          "transactionIndex": "0xb",
          "logIndex": "0xd",
          "removed": false
        }
      ],
      "logsBloom": "0x00000000000000000000000000000000000000040200000000000000000000000000000000000000000000000000000000001000000000100000000000000000000000000000000000000008000000000000000000000000080040000000000000000000020000000000000000000800000000000000000000000010000000000000000000000000000000000000000000000000000000000000000002000000000000000000000000000000000000000000000000000000000000000000000000000022000000000000000000000000000000000000000000000000000020000000000000000000000000004000000000000000000000000000000000000000",
      "type": "0x2",
      "transactionHash": "0x299c65f1d2c2ad4a9755ca0eee753fb8e7ddbcf5b225db1b7b31811fbbd429ac",
      "transactionIndex": "0xb",
      "blockHash": "0xa634ab2fcf59887d34a7d21e732c5d610dc95eccfdb4dd10751b35c4331bfc18",
      "blockNumber": "0xd998a",
      "gasUsed": "0x10cb7",
      "effectiveGasPrice": "0x176fde87",
      "from": "0x4100a9B680B1Be1F10Cb8b5a57fE59eA77A8184e",
      "to": "0x97a9f7C76BdAF91395B283F188AD229Bca0f6E62",
      "contractAddress": null
    },
    {
      "status": "0x1",
      "cumulativeGasUsed": "0x1562de",
      "logs": [
        {
          "address": "0xbBDba7707A34f9091E2A068ab0D30D7dc2a6d265",
          "topics": [
            "0x3ea3314dd8adca61ba5ccef601f00167a9a3c43358bad8b897df2519ee6d3a6c",
            "0xa83dacca2d5280184ff7d2bad33dd7442340a20d5322d045fc4e8fd7d90abafd",
            "0x000000000000000000000000976ea74026e726554db657fa54763abd0c3a0aa9"
          ],
          "data": "0x00000000000000000000000000000000000000000000000000000000000d999600000000000000000000000000000000000000000000000000000000000000020000000000000000000000000000000000000000000000000000000067124670",
          "blockHash": "0xa634ab2fcf59887d34a7d21e732c5d610dc95eccfdb4dd10751b35c4331bfc18",
          "blockNumber": "0xd998a",
          "transactionHash": "0x2e1030ebca4a96f9e825d7a9d371e80881ee4d692ccd9699d60759ae79b43f1f",
          "transactionIndex": "0xc",
          "logIndex": "0xe",
          "removed": false
        }
      ],
      "logsBloom": "0x00000000000000000000000000000000000000040200000000000000000000000000000000000002000000000000000000000000000000000000000000000000000000000000000000000000000000000000800000000000080000000000000000000000000400000000000001000000400000000000000000100000000000000000000000000000000000000000000000000000000000000000000000000000000000000000000000000000000000000000000000000000000000000000000000000000000000000000020000000000000000000000000000000000000800000000000000200000000000000000000000000000000000000000000000000000",
      "type": "0x2",
      "transactionHash": "0x2e1030ebca4a96f9e825d7a9d371e80881ee4d692ccd9699d60759ae79b43f1f",
      "transactionIndex": "0xc",
      "blockHash": "0xa634ab2fcf59887d34a7d21e732c5d610dc95eccfdb4dd10751b35c4331bfc18",
      "blockNumber": "0xd998a",
      "gasUsed": "0x21ccf",
      "effectiveGasPrice": "0x176fde87",
      "from": "0x4100a9B680B1Be1F10Cb8b5a57fE59eA77A8184e",
      "to": "0xbBDba7707A34f9091E2A068ab0D30D7dc2a6d265",
      "contractAddress": null
    },
    {
      "status": "0x1",
      "cumulativeGasUsed": "0x166f95",
      "logs": [
        {
          "address": "0x97a9f7C76BdAF91395B283F188AD229Bca0f6E62",
          "topics": [
            "0xddf252ad1be2c89b69c2b068fc378daa952ba7f163c4a11628f55a4df523b3ef",
            "0x0000000000000000000000000000000000000000000000000000000000000000",
            "0x00000000000000000000000014dc79964da2c08b23698b3d3cc7ca32193d9955",
            "0x00000000000000000000000000000000000000000000000000000000000d9997"
          ],
          "data": "0x",
          "blockHash": "0xa634ab2fcf59887d34a7d21e732c5d610dc95eccfdb4dd10751b35c4331bfc18",
          "blockNumber": "0xd998a",
          "transactionHash": "0xb3ff0905f820de3aac0b62630aa67507bfdb0f89671452159b4949d93f931139",
          "transactionIndex": "0xd",
          "logIndex": "0xf",
          "removed": false
        }
      ],
      "logsBloom": "0x00000000000000000000000000000000000000000000000000000000000000000000000000000000000000000000000000000000000000100000000000000000000000000000000000000008000000000000000000000400000000000000000000000000020000000000000000000800000000000000000000000010000000000000000000000000000000000000000000000000000000000000000002000000000000000000000000000000000000002000000000000000000000000000000000000002000000000000000000000008040000000000000000000000000020000000000000000000000000004000000000000000000000000020000000000000",
      "type": "0x2",
      "transactionHash": "0xb3ff0905f820de3aac0b62630aa67507bfdb0f89671452159b4949d93f931139",
      "transactionIndex": "0xd",
      "blockHash": "0xa634ab2fcf59887d34a7d21e732c5d610dc95eccfdb4dd10751b35c4331bfc18",
      "blockNumber": "0xd998a",
      "gasUsed": "0x10cb7",
      "effectiveGasPrice": "0x176fde87",
      "from": "0x4100a9B680B1Be1F10Cb8b5a57fE59eA77A8184e",
      "to": "0x97a9f7C76BdAF91395B283F188AD229Bca0f6E62",
      "contractAddress": null
    },
    {
      "status": "0x1",
      "cumulativeGasUsed": "0x183e9c",
      "logs": [
        {
          "address": "0xbBDba7707A34f9091E2A068ab0D30D7dc2a6d265",
          "topics": [
            "0x3ea3314dd8adca61ba5ccef601f00167a9a3c43358bad8b897df2519ee6d3a6c",
            "0xd413892b0bc0d72c79ffa5611ab8c23ca6d592726d2a42053fb06e0b510f0748",
            "0x00000000000000000000000014dc79964da2c08b23698b3d3cc7ca32193d9955"
          ],
          "data": "0x00000000000000000000000000000000000000000000000000000000000d999700000000000000000000000000000000000000000000000000000000000000000000000000000000000000000000000000000000000000000000000067124670",
          "blockHash": "0xa634ab2fcf59887d34a7d21e732c5d610dc95eccfdb4dd10751b35c4331bfc18",
          "blockNumber": "0xd998a",
          "transactionHash": "0x9431f4a5286d3e736645eec4b4f7432994df1b0e70d9ae79e7d47bf909d4a88a",
          "transactionIndex": "0xe",
          "logIndex": "0x10",
          "removed": false
        }
      ],
      "logsBloom": "0x00000000000000000000000000000000000000000000000000000000000000000000000000000002000000000000000000000000000000000000000000000000000000000000000000000000000000000000800000000400000000000000000000000000000400000000000000000000000000000000000000100080000000000000000000000000000000000000000000000000000000000000000000000000000000000000000000000200000000002000000000000000000000000000000000000000000000000000020000000000040000000000000000000000000800000000000000000000000000000000000000000000008000000000000000000000",
      "type": "0x2",
      "transactionHash": "0x9431f4a5286d3e736645eec4b4f7432994df1b0e70d9ae79e7d47bf909d4a88a",
      "transactionIndex": "0xe",
      "blockHash": "0xa634ab2fcf59887d34a7d21e732c5d610dc95eccfdb4dd10751b35c4331bfc18",
      "blockNumber": "0xd998a",
      "gasUsed": "0x1cf07",
      "effectiveGasPrice": "0x176fde87",
      "from": "0x4100a9B680B1Be1F10Cb8b5a57fE59eA77A8184e",
      "to": "0xbBDba7707A34f9091E2A068ab0D30D7dc2a6d265",
      "contractAddress": null
    },
    {
      "status": "0x1",
      "cumulativeGasUsed": "0x194b53",
      "logs": [
        {
          "address": "0x97a9f7C76BdAF91395B283F188AD229Bca0f6E62",
          "topics": [
            "0xddf252ad1be2c89b69c2b068fc378daa952ba7f163c4a11628f55a4df523b3ef",
            "0x0000000000000000000000000000000000000000000000000000000000000000",
            "0x00000000000000000000000023618e81e3f5cdf7f54c3d65f7fbc0abf5b21e8f",
            "0x00000000000000000000000000000000000000000000000000000000000d9998"
          ],
          "data": "0x",
          "blockHash": "0xa634ab2fcf59887d34a7d21e732c5d610dc95eccfdb4dd10751b35c4331bfc18",
          "blockNumber": "0xd998a",
          "transactionHash": "0xb3a8a33fcf8e9db674a636dd09eedecc75dbff3589563c727861e4e854dabd3f",
          "transactionIndex": "0xf",
          "logIndex": "0x11",
          "removed": false
        }
      ],
      "logsBloom": "0x00800000000000000000000000000000000008000000000000000000000000000000000000000000000000000000000000000000000000100000006000000000000000000000000000000008000000000000000000000000000000000000000000000000020000000000000000000800000000000000000000000010000000000000000000000000000000020000000000000000000000000000000002000000000000000000000000000000000000000000000000000000000000000000000000000002000000000000000000000000000000000000000000000000000020000000000000000000000000004000000000000000000000000000008000000000",
      "type": "0x2",
      "transactionHash": "0xb3a8a33fcf8e9db674a636dd09eedecc75dbff3589563c727861e4e854dabd3f",
      "transactionIndex": "0xf",
      "blockHash": "0xa634ab2fcf59887d34a7d21e732c5d610dc95eccfdb4dd10751b35c4331bfc18",
      "blockNumber": "0xd998a",
      "gasUsed": "0x10cb7",
      "effectiveGasPrice": "0x176fde87",
      "from": "0x4100a9B680B1Be1F10Cb8b5a57fE59eA77A8184e",
      "to": "0x97a9f7C76BdAF91395B283F188AD229Bca0f6E62",
      "contractAddress": null
    },
    {
      "status": "0x1",
      "cumulativeGasUsed": "0x1b6822",
      "logs": [
        {
          "address": "0xbBDba7707A34f9091E2A068ab0D30D7dc2a6d265",
          "topics": [
            "0x3ea3314dd8adca61ba5ccef601f00167a9a3c43358bad8b897df2519ee6d3a6c",
            "0x4ba716e533def33c29911291711c4f960c380d370f3a9414201550a83e4709b4",
            "0x00000000000000000000000023618e81e3f5cdf7f54c3d65f7fbc0abf5b21e8f"
          ],
          "data": "0x00000000000000000000000000000000000000000000000000000000000d999800000000000000000000000000000000000000000000000000000000000000020000000000000000000000000000000000000000000000000000000067124670",
          "blockHash": "0xa634ab2fcf59887d34a7d21e732c5d610dc95eccfdb4dd10751b35c4331bfc18",
          "blockNumber": "0xd998a",
          "transactionHash": "0xed034042dde45aa6cb9a72f0db161c2c4eaf09122ec83a4229859fc889185317",
          "transactionIndex": "0x10",
          "logIndex": "0x12",
          "removed": false
        }
      ],
      "logsBloom": "0x00800000000000000000000000000000000000000008000000800000000000000000000000000002000000000000000000000000000000000000000000000000000000000000000000000000000000000000800000000000000000000000000000000000000400000000000000000000000000000000000000100000000000000000000000000000000000020000000000000000000000000000000000000000000000000000000000000000000000000000000000000000000000000000000000000000000000000000020000000000000000000000000000000040000800000000000000000000000000000000000000000000000000000000008000000000",
      "type": "0x2",
      "transactionHash": "0xed034042dde45aa6cb9a72f0db161c2c4eaf09122ec83a4229859fc889185317",
      "transactionIndex": "0x10",
      "blockHash": "0xa634ab2fcf59887d34a7d21e732c5d610dc95eccfdb4dd10751b35c4331bfc18",
      "blockNumber": "0xd998a",
      "gasUsed": "0x21ccf",
      "effectiveGasPrice": "0x176fde87",
      "from": "0x4100a9B680B1Be1F10Cb8b5a57fE59eA77A8184e",
      "to": "0xbBDba7707A34f9091E2A068ab0D30D7dc2a6d265",
      "contractAddress": null
    },
    {
      "status": "0x1",
      "cumulativeGasUsed": "0x1c74d9",
      "logs": [
        {
          "address": "0x97a9f7C76BdAF91395B283F188AD229Bca0f6E62",
          "topics": [
            "0xddf252ad1be2c89b69c2b068fc378daa952ba7f163c4a11628f55a4df523b3ef",
            "0x0000000000000000000000000000000000000000000000000000000000000000",
            "0x000000000000000000000000a0ee7a142d267c1f36714e4a8f75612f20a79720",
            "0x00000000000000000000000000000000000000000000000000000000000d9999"
          ],
          "data": "0x",
          "blockHash": "0xa634ab2fcf59887d34a7d21e732c5d610dc95eccfdb4dd10751b35c4331bfc18",
          "blockNumber": "0xd998a",
          "transactionHash": "0x30c0ac8f646dcb554270d44826f251f34b065b27838e85299bc021ff9f1e4710",
          "transactionIndex": "0x11",
          "logIndex": "0x13",
          "removed": false
        }
      ],
      "logsBloom": "0x00000000000000000000040000000000000000000000000000000000000000000000000000000000000000000000000000000000000000100000000000000000000000000000000000000008000000000000000000000000000008000000000000000000020000000000000000000800000000000000000000000010000000000000000000000000000000000000000000000000020000000000000002000000000000000000000000000000000000000000000000000000000000000000000000000002000000000000000000000000000000400000000001004000000020000000000000000000000000004000000000000000000000000000000000000000",
      "type": "0x2",
      "transactionHash": "0x30c0ac8f646dcb554270d44826f251f34b065b27838e85299bc021ff9f1e4710",
      "transactionIndex": "0x11",
      "blockHash": "0xa634ab2fcf59887d34a7d21e732c5d610dc95eccfdb4dd10751b35c4331bfc18",
      "blockNumber": "0xd998a",
      "gasUsed": "0x10cb7",
      "effectiveGasPrice": "0x176fde87",
      "from": "0x4100a9B680B1Be1F10Cb8b5a57fE59eA77A8184e",
      "to": "0x97a9f7C76BdAF91395B283F188AD229Bca0f6E62",
      "contractAddress": null
    },
    {
      "status": "0x1",
      "cumulativeGasUsed": "0x1e91a8",
      "logs": [
        {
          "address": "0xbBDba7707A34f9091E2A068ab0D30D7dc2a6d265",
          "topics": [
            "0x3ea3314dd8adca61ba5ccef601f00167a9a3c43358bad8b897df2519ee6d3a6c",
            "0xd5f7e3eac1f6a04d498a288fb0a1b2a19caee72049d6fbe1f1e1c234ca2b7993",
            "0x000000000000000000000000a0ee7a142d267c1f36714e4a8f75612f20a79720"
          ],
          "data": "0x00000000000000000000000000000000000000000000000000000000000d999900000000000000000000000000000000000000000000000000000000000000020000000000000000000000000000000000000000000000000000000067124670",
          "blockHash": "0xa634ab2fcf59887d34a7d21e732c5d610dc95eccfdb4dd10751b35c4331bfc18",
          "blockNumber": "0xd998a",
          "transactionHash": "0xc1f8002aae1660b7ced8537aa79c2896b90f13ff0340808d2bdfd5aa2c37a4e7",
          "transactionIndex": "0x12",
          "logIndex": "0x14",
          "removed": false
        }
      ],
      "logsBloom": "0x00000000000000000000040000000000000000000000000000000000000000000000000000100002000000000000000000000000000000000000000000000000000000000000000000000002000000000000800000000000000008000000000000000000000400000000000000000000000000000000000000100000000000000000000000000000000000000000000000000000000000000000000000000000000000000000000000000000000000000000000000000000000000000000000000000000000000000000020000000000000000000000000000004000000800000000000000000000000000000000000000000000000000000000000000200000",
      "type": "0x2",
      "transactionHash": "0xc1f8002aae1660b7ced8537aa79c2896b90f13ff0340808d2bdfd5aa2c37a4e7",
      "transactionIndex": "0x12",
      "blockHash": "0xa634ab2fcf59887d34a7d21e732c5d610dc95eccfdb4dd10751b35c4331bfc18",
      "blockNumber": "0xd998a",
      "gasUsed": "0x21ccf",
      "effectiveGasPrice": "0x176fde87",
      "from": "0x4100a9B680B1Be1F10Cb8b5a57fE59eA77A8184e",
      "to": "0xbBDba7707A34f9091E2A068ab0D30D7dc2a6d265",
      "contractAddress": null
    }
  ],
  "libraries": [],
  "pending": [],
  "returns": {},
  "timestamp": 1729250933,
  "chain": 167009,
  "commit": "ffaac9d"
}