{
  "transactions": [
    {
      "hash": "0xf007290132563d4c059c98bb4dcb3810d6aac780e0db9ea6cbad458cd0479a33",
      "transactionType": "CALL",
      "contractName": null,
      "contractAddress": "0x0362C8EA52966Fb2e0E34e7D97B2f63d25869Ce0",
      "function": "mint(address,uint256)",
      "arguments": [
        "0x70997970C51812dc3A010C7d01b50e0d17dc79C8",
        "891439"
      ],
      "transaction": {
        "from": "0x4100a9B680B1Be1F10Cb8b5a57fE59eA77A8184e",
        "to": "0x0362C8EA52966Fb2e0E34e7D97B2f63d25869Ce0",
        "gas": "0x17329",
        "value": "0x0",
        "input": "0x40c10f1900000000000000000000000070997970c51812dc3a010c7d01b50e0d17dc79c800000000000000000000000000000000000000000000000000000000000d9a2f",
        "nonce": "0x6b7",
        "chainId": "0x28c61"
      },
      "additionalContracts": [],
      "isFixedGasLimit": false
    },
    {
      "hash": "0x422b0468e670014738b425c20032da36349de4e576d541f7b6704c9b54f7c81b",
      "transactionType": "CALL",
      "contractName": null,
      "contractAddress": "0x81F51A95E18819b87059993A74102Cd8F046d296",
      "function": "registerPlayer(address,uint256,uint8)",
      "arguments": [
        "0x70997970C51812dc3A010C7d01b50e0d17dc79C8",
        "891439",
        "0"
      ],
      "transaction": {
        "from": "0x4100a9B680B1Be1F10Cb8b5a57fE59eA77A8184e",
        "to": "0x81F51A95E18819b87059993A74102Cd8F046d296",
        "gas": "0x22810",
        "value": "0x0",
        "input": "0x50ed283800000000000000000000000070997970c51812dc3a010c7d01b50e0d17dc79c800000000000000000000000000000000000000000000000000000000000d9a2f0000000000000000000000000000000000000000000000000000000000000000",
        "nonce": "0x6b8",
        "chainId": "0x28c61"
      },
      "additionalContracts": [],
      "isFixedGasLimit": false
    },
    {
      "hash": "0x4a6180ca5f9bafe38daa7c6bed0f934275cb67f852ad9a62acb8f6836376e748",
      "transactionType": "CALL",
      "contractName": null,
      "contractAddress": "0x0362C8EA52966Fb2e0E34e7D97B2f63d25869Ce0",
      "function": "mint(address,uint256)",
      "arguments": [
        "0x3C44CdDdB6a900fa2b585dd299e03d12FA4293BC",
        "891440"
      ],
      "transaction": {
        "from": "0x4100a9B680B1Be1F10Cb8b5a57fE59eA77A8184e",
        "to": "0x0362C8EA52966Fb2e0E34e7D97B2f63d25869Ce0",
        "gas": "0x188ec",
        "value": "0x0",
        "input": "0x40c10f190000000000000000000000003c44cdddb6a900fa2b585dd299e03d12fa4293bc00000000000000000000000000000000000000000000000000000000000d9a30",
        "nonce": "0x6b9",
        "chainId": "0x28c61"
      },
      "additionalContracts": [],
      "isFixedGasLimit": false
    },
    {
      "hash": "0x2d31c22493a0c8c6a2cd030019bf1b3bd66f7c650c2f299c49fdcd6507e592c6",
      "transactionType": "CALL",
      "contractName": null,
      "contractAddress": "0x81F51A95E18819b87059993A74102Cd8F046d296",
      "function": "registerPlayer(address,uint256,uint8)",
      "arguments": [
        "0x3C44CdDdB6a900fa2b585dd299e03d12FA4293BC",
        "891440",
        "2"
      ],
      "transaction": {
        "from": "0x4100a9B680B1Be1F10Cb8b5a57fE59eA77A8184e",
        "to": "0x81F51A95E18819b87059993A74102Cd8F046d296",
        "gas": "0x274c3",
        "value": "0x0",
        "input": "0x50ed28380000000000000000000000003c44cdddb6a900fa2b585dd299e03d12fa4293bc00000000000000000000000000000000000000000000000000000000000d9a300000000000000000000000000000000000000000000000000000000000000002",
        "nonce": "0x6ba",
        "chainId": "0x28c61"
      },
      "additionalContracts": [],
      "isFixedGasLimit": false
    },
    {
      "hash": "0xba479017cd61466288c75146c76ae2f4d8c991730cdd3ff0d7784f18d765ecc6",
      "transactionType": "CALL",
      "contractName": null,
      "contractAddress": "0x0362C8EA52966Fb2e0E34e7D97B2f63d25869Ce0",
      "function": "mint(address,uint256)",
      "arguments": [
        "0x90F79bf6EB2c4f870365E785982E1f101E93b906",
        "891441"
      ],
      "transaction": {
        "from": "0x4100a9B680B1Be1F10Cb8b5a57fE59eA77A8184e",
        "to": "0x0362C8EA52966Fb2e0E34e7D97B2f63d25869Ce0",
        "gas": "0x17329",
        "value": "0x0",
        "input": "0x40c10f1900000000000000000000000090f79bf6eb2c4f870365e785982e1f101e93b90600000000000000000000000000000000000000000000000000000000000d9a31",
        "nonce": "0x6bb",
        "chainId": "0x28c61"
      },
      "additionalContracts": [],
      "isFixedGasLimit": false
    },
    {
      "hash": "0x393fe400a600639e11ca6f9fa450378607c561beae27d6563af6473c6273a5ed",
      "transactionType": "CALL",
      "contractName": null,
      "contractAddress": "0x81F51A95E18819b87059993A74102Cd8F046d296",
      "function": "registerPlayer(address,uint256,uint8)",
      "arguments": [
        "0x90F79bf6EB2c4f870365E785982E1f101E93b906",
        "891441",
        "0"
      ],
      "transaction": {
        "from": "0x4100a9B680B1Be1F10Cb8b5a57fE59eA77A8184e",
        "to": "0x81F51A95E18819b87059993A74102Cd8F046d296",
        "gas": "0x22810",
        "value": "0x0",
        "input": "0x50ed283800000000000000000000000090f79bf6eb2c4f870365e785982e1f101e93b90600000000000000000000000000000000000000000000000000000000000d9a310000000000000000000000000000000000000000000000000000000000000000",
        "nonce": "0x6bc",
        "chainId": "0x28c61"
      },
      "additionalContracts": [],
      "isFixedGasLimit": false
    },
    {
      "hash": "0xd2bfd059592860b8bf7b5508f262ad4cfdc434c075052eb7f30f622b5db83c29",
      "transactionType": "CALL",
      "contractName": null,
      "contractAddress": "0x0362C8EA52966Fb2e0E34e7D97B2f63d25869Ce0",
      "function": "mint(address,uint256)",
      "arguments": [
        "0x15d34AAf54267DB7D7c367839AAf71A00a2C6A65",
        "891442"
      ],
      "transaction": {
        "from": "0x4100a9B680B1Be1F10Cb8b5a57fE59eA77A8184e",
        "to": "0x0362C8EA52966Fb2e0E34e7D97B2f63d25869Ce0",
        "gas": "0x17329",
        "value": "0x0",
        "input": "0x40c10f1900000000000000000000000015d34aaf54267db7d7c367839aaf71a00a2c6a6500000000000000000000000000000000000000000000000000000000000d9a32",
        "nonce": "0x6bd",
        "chainId": "0x28c61"
      },
      "additionalContracts": [],
      "isFixedGasLimit": false
    },
    {
      "hash": "0x72dddad3b0643d47727abbf342887d0dfa83973728486b6fa699e741c18a73bc",
      "transactionType": "CALL",
      "contractName": null,
      "contractAddress": "0x81F51A95E18819b87059993A74102Cd8F046d296",
      "function": "registerPlayer(address,uint256,uint8)",
      "arguments": [
        "0x15d34AAf54267DB7D7c367839AAf71A00a2C6A65",
        "891442",
        "1"
      ],
      "transaction": {
        "from": "0x4100a9B680B1Be1F10Cb8b5a57fE59eA77A8184e",
        "to": "0x81F51A95E18819b87059993A74102Cd8F046d296",
        "gas": "0x299d1",
        "value": "0x0",
        "input": "0x50ed283800000000000000000000000015d34aaf54267db7d7c367839aaf71a00a2c6a6500000000000000000000000000000000000000000000000000000000000d9a320000000000000000000000000000000000000000000000000000000000000001",
        "nonce": "0x6be",
        "chainId": "0x28c61"
      },
      "additionalContracts": [],
      "isFixedGasLimit": false
    },
    {
      "hash": "0x532cdd2c2095218aff4551a39e4b0c45691ef9cc50c17d8ddcfca99417df1fd4",
      "transactionType": "CALL",
      "contractName": null,
      "contractAddress": "0x0362C8EA52966Fb2e0E34e7D97B2f63d25869Ce0",
      "function": "mint(address,uint256)",
      "arguments": [
        "0x9965507D1a55bcC2695C58ba16FB37d819B0A4dc",
        "891443"
      ],
      "transaction": {
        "from": "0x4100a9B680B1Be1F10Cb8b5a57fE59eA77A8184e",
        "to": "0x0362C8EA52966Fb2e0E34e7D97B2f63d25869Ce0",
        "gas": "0x17329",
        "value": "0x0",
        "input": "0x40c10f190000000000000000000000009965507d1a55bcc2695c58ba16fb37d819b0a4dc00000000000000000000000000000000000000000000000000000000000d9a33",
        "nonce": "0x6bf",
        "chainId": "0x28c61"
      },
      "additionalContracts": [],
      "isFixedGasLimit": false
    },
    {
      "hash": "0xde7c460ab0b4da364766d13b4348ccd526e71edd230624521361e423bc4b4848",
      "transactionType": "CALL",
      "contractName": null,
      "contractAddress": "0x81F51A95E18819b87059993A74102Cd8F046d296",
      "function": "registerPlayer(address,uint256,uint8)",
      "arguments": [
        "0x9965507D1a55bcC2695C58ba16FB37d819B0A4dc",
        "891443",
        "0"
      ],
      "transaction": {
        "from": "0x4100a9B680B1Be1F10Cb8b5a57fE59eA77A8184e",
        "to": "0x81F51A95E18819b87059993A74102Cd8F046d296",
        "gas": "0x22810",
        "value": "0x0",
        "input": "0x50ed28380000000000000000000000009965507d1a55bcc2695c58ba16fb37d819b0a4dc00000000000000000000000000000000000000000000000000000000000d9a330000000000000000000000000000000000000000000000000000000000000000",
        "nonce": "0x6c0",
        "chainId": "0x28c61"
      },
      "additionalContracts": [],
      "isFixedGasLimit": false
    },
    {
      "hash": "0x25f9563aa8c2574d12da7ce95d1912667028c235552beafbdd0150aa7e0ce7cb",
      "transactionType": "CALL",
      "contractName": null,
      "contractAddress": "0x0362C8EA52966Fb2e0E34e7D97B2f63d25869Ce0",
      "function": "mint(address,uint256)",
      "arguments": [
        "0x976EA74026E726554dB657fA54763abd0C3a0aa9",
        "891444"
      ],
      "transaction": {
        "from": "0x4100a9B680B1Be1F10Cb8b5a57fE59eA77A8184e",
        "to": "0x0362C8EA52966Fb2e0E34e7D97B2f63d25869Ce0",
        "gas": "0x17329",
        "value": "0x0",
        "input": "0x40c10f19000000000000000000000000976ea74026e726554db657fa54763abd0c3a0aa900000000000000000000000000000000000000000000000000000000000d9a34",
        "nonce": "0x6c1",
        "chainId": "0x28c61"
      },
      "additionalContracts": [],
      "isFixedGasLimit": false
    },
    {
      "hash": "0x053fbac4f2c3a4cf6440329c3ecffa41937f63d012676a48358db3d2227e5552",
      "transactionType": "CALL",
      "contractName": null,
      "contractAddress": "0x81F51A95E18819b87059993A74102Cd8F046d296",
      "function": "registerPlayer(address,uint256,uint8)",
      "arguments": [
        "0x976EA74026E726554dB657fA54763abd0C3a0aa9",
        "891444",
        "2"
      ],
      "transaction": {
        "from": "0x4100a9B680B1Be1F10Cb8b5a57fE59eA77A8184e",
        "to": "0x81F51A95E18819b87059993A74102Cd8F046d296",
        "gas": "0x299d1",
        "value": "0x0",
        "input": "0x50ed2838000000000000000000000000976ea74026e726554db657fa54763abd0c3a0aa900000000000000000000000000000000000000000000000000000000000d9a340000000000000000000000000000000000000000000000000000000000000002",
        "nonce": "0x6c2",
        "chainId": "0x28c61"
      },
      "additionalContracts": [],
      "isFixedGasLimit": false
    },
    {
      "hash": "0x732b22ea7edaf75aa466ee1591319c813f12aa2233cf289d5b8f947d54b19c0c",
      "transactionType": "CALL",
      "contractName": null,
      "contractAddress": "0x0362C8EA52966Fb2e0E34e7D97B2f63d25869Ce0",
      "function": "mint(address,uint256)",
      "arguments": [
        "0x14dC79964da2C08b23698B3D3cc7Ca32193d9955",
        "891445"
      ],
      "transaction": {
        "from": "0x4100a9B680B1Be1F10Cb8b5a57fE59eA77A8184e",
        "to": "0x0362C8EA52966Fb2e0E34e7D97B2f63d25869Ce0",
        "gas": "0x17329",
        "value": "0x0",
        "input": "0x40c10f1900000000000000000000000014dc79964da2c08b23698b3d3cc7ca32193d995500000000000000000000000000000000000000000000000000000000000d9a35",
        "nonce": "0x6c3",
        "chainId": "0x28c61"
      },
      "additionalContracts": [],
      "isFixedGasLimit": false
    },
    {
      "hash": "0xd502babbd9c408b32b2004c5fef4d61b24fa6704f52b444c08aafe09d881342b",
      "transactionType": "CALL",
      "contractName": null,
      "contractAddress": "0x81F51A95E18819b87059993A74102Cd8F046d296",
      "function": "registerPlayer(address,uint256,uint8)",
      "arguments": [
        "0x14dC79964da2C08b23698B3D3cc7Ca32193d9955",
        "891445",
        "0"
      ],
      "transaction": {
        "from": "0x4100a9B680B1Be1F10Cb8b5a57fE59eA77A8184e",
        "to": "0x81F51A95E18819b87059993A74102Cd8F046d296",
        "gas": "0x22810",
        "value": "0x0",
        "input": "0x50ed283800000000000000000000000014dc79964da2c08b23698b3d3cc7ca32193d995500000000000000000000000000000000000000000000000000000000000d9a350000000000000000000000000000000000000000000000000000000000000000",
        "nonce": "0x6c4",
        "chainId": "0x28c61"
      },
      "additionalContracts": [],
      "isFixedGasLimit": false
    },
    {
      "hash": "0xacb56ae130135edaceeb5c5740d556b71751d1f4ee085fefaa83e8596d71ac33",
      "transactionType": "CALL",
      "contractName": null,
      "contractAddress": "0x0362C8EA52966Fb2e0E34e7D97B2f63d25869Ce0",
      "function": "mint(address,uint256)",
      "arguments": [
        "0x23618e81E3f5cdF7f54C3d65f7FBc0aBf5B21E8f",
        "891446"
      ],
      "transaction": {
        "from": "0x4100a9B680B1Be1F10Cb8b5a57fE59eA77A8184e",
        "to": "0x0362C8EA52966Fb2e0E34e7D97B2f63d25869Ce0",
        "gas": "0x17329",
        "value": "0x0",
        "input": "0x40c10f1900000000000000000000000023618e81e3f5cdf7f54c3d65f7fbc0abf5b21e8f00000000000000000000000000000000000000000000000000000000000d9a36",
        "nonce": "0x6c5",
        "chainId": "0x28c61"
      },
      "additionalContracts": [],
      "isFixedGasLimit": false
    },
    {
      "hash": "0xa155586747a54e03e142654d356d6c43a69727ca30ca67cf21402c4a2b5a193b",
      "transactionType": "CALL",
      "contractName": null,
      "contractAddress": "0x81F51A95E18819b87059993A74102Cd8F046d296",
      "function": "registerPlayer(address,uint256,uint8)",
      "arguments": [
        "0x23618e81E3f5cdF7f54C3d65f7FBc0aBf5B21E8f",
        "891446",
        "1"
      ],
      "transaction": {
        "from": "0x4100a9B680B1Be1F10Cb8b5a57fE59eA77A8184e",
        "to": "0x81F51A95E18819b87059993A74102Cd8F046d296",
        "gas": "0x299d1",
        "value": "0x0",
        "input": "0x50ed283800000000000000000000000023618e81e3f5cdf7f54c3d65f7fbc0abf5b21e8f00000000000000000000000000000000000000000000000000000000000d9a360000000000000000000000000000000000000000000000000000000000000001",
        "nonce": "0x6c6",
        "chainId": "0x28c61"
      },
      "additionalContracts": [],
      "isFixedGasLimit": false
    },
    {
      "hash": "0x35b44b5a721bceb5c15f48dfbfb5086ece724aeb13a4c0c4e6c9ea2f93719fb4",
      "transactionType": "CALL",
      "contractName": null,
      "contractAddress": "0x0362C8EA52966Fb2e0E34e7D97B2f63d25869Ce0",
      "function": "mint(address,uint256)",
      "arguments": [
        "0xa0Ee7A142d267C1f36714E4a8F75612F20a79720",
        "891447"
      ],
      "transaction": {
        "from": "0x4100a9B680B1Be1F10Cb8b5a57fE59eA77A8184e",
        "to": "0x0362C8EA52966Fb2e0E34e7D97B2f63d25869Ce0",
        "gas": "0x17329",
        "value": "0x0",
        "input": "0x40c10f19000000000000000000000000a0ee7a142d267c1f36714e4a8f75612f20a7972000000000000000000000000000000000000000000000000000000000000d9a37",
        "nonce": "0x6c7",
        "chainId": "0x28c61"
      },
      "additionalContracts": [],
      "isFixedGasLimit": false
    },
    {
      "hash": "0x893fed178c99ad447d2060494db06d8ddddc4e66346a59af518add8f6f927775",
      "transactionType": "CALL",
      "contractName": null,
      "contractAddress": "0x81F51A95E18819b87059993A74102Cd8F046d296",
      "function": "registerPlayer(address,uint256,uint8)",
      "arguments": [
        "0xa0Ee7A142d267C1f36714E4a8F75612F20a79720",
        "891447",
        "1"
      ],
      "transaction": {
        "from": "0x4100a9B680B1Be1F10Cb8b5a57fE59eA77A8184e",
        "to": "0x81F51A95E18819b87059993A74102Cd8F046d296",
        "gas": "0x299d1",
        "value": "0x0",
        "input": "0x50ed2838000000000000000000000000a0ee7a142d267c1f36714e4a8f75612f20a7972000000000000000000000000000000000000000000000000000000000000d9a370000000000000000000000000000000000000000000000000000000000000001",
        "nonce": "0x6c8",
        "chainId": "0x28c61"
      },
      "additionalContracts": [],
      "isFixedGasLimit": false
    }
  ],
  "receipts": [
    {
      "status": "0x1",
      "cumulativeGasUsed": "0x6bacd",
      "logs": [
        {
          "address": "0x0362C8EA52966Fb2e0E34e7D97B2f63d25869Ce0",
          "topics": [
            "0xddf252ad1be2c89b69c2b068fc378daa952ba7f163c4a11628f55a4df523b3ef",
            "0x0000000000000000000000000000000000000000000000000000000000000000",
            "0x00000000000000000000000070997970c51812dc3a010c7d01b50e0d17dc79c8",
            "0x00000000000000000000000000000000000000000000000000000000000d9a2f"
          ],
          "data": "0x",
          "blockHash": "0xcee580556e9b8fb066d13e716e6d74a26f30c75376e849b297f92fca256eb47c",
          "blockNumber": "0xd9a28",
          "transactionHash": "0xf007290132563d4c059c98bb4dcb3810d6aac780e0db9ea6cbad458cd0479a33",
          "transactionIndex": "0x7",
          "logIndex": "0x9",
          "removed": false
        }
      ],
      "logsBloom": "0x00000000000000000002000000000000000000000000000000000000000000000400000000000000000000000000000000000000000000000000000000000000000000000000000000000008000000000000000000000000000000000000000000000800020000000000000000000800000000000000000000000030000000000000000000000000000000000000000000000000000000000000000000000010000000000000000000000000000000000000000000000000000000000000000002000002000040000000000000000000000000000000000000000000000020000000000000004000000000000000000001000000000000000000000000000000",
      "type": "0x2",
      "transactionHash": "0xf007290132563d4c059c98bb4dcb3810d6aac780e0db9ea6cbad458cd0479a33",
      "transactionIndex": "0x7",
      "blockHash": "0xcee580556e9b8fb066d13e716e6d74a26f30c75376e849b297f92fca256eb47c",
      "blockNumber": "0xd9a28",
      "gasUsed": "0x10cb7",
      "effectiveGasPrice": "0x86ff52",
      "from": "0x4100a9B680B1Be1F10Cb8b5a57fE59eA77A8184e",
      "to": "0x0362C8EA52966Fb2e0E34e7D97B2f63d25869Ce0",
      "contractAddress": null
    },
    {
      "status": "0x1",
      "cumulativeGasUsed": "0x83448",
      "logs": [
        {
          "address": "0x81F51A95E18819b87059993A74102Cd8F046d296",
          "topics": [
            "0x3ea3314dd8adca61ba5ccef601f00167a9a3c43358bad8b897df2519ee6d3a6c",
            "0x42520bcaa2c2f1f82b7032778c07033f65d2f770cd8651dc69d59efc19b6edb0",
            "0x00000000000000000000000070997970c51812dc3a010c7d01b50e0d17dc79c8"
          ],
          "data": "0x00000000000000000000000000000000000000000000000000000000000d9a2f00000000000000000000000000000000000000000000000000000000000000000000000000000000000000000000000000000000000000000000000067125828",
          "blockHash": "0xcee580556e9b8fb066d13e716e6d74a26f30c75376e849b297f92fca256eb47c",
          "blockNumber": "0xd9a28",
          "transactionHash": "0x422b0468e670014738b425c20032da36349de4e576d541f7b6704c9b54f7c81b",
          "transactionIndex": "0x8",
          "logIndex": "0xa",
          "removed": false
        }
      ],
      "logsBloom": "0x00000000000000000002000000000000000000000000000000000000000000004800000000000000000000000000000000000000000000000800000000000000000000001000000000000000000000000000800000000000000000000000000000000800000000000000000000000000000000000000000000000000000000000000000000000000000000000000000000000000000000000000001000000000000000200000000000000000000000000000000000000000000000000000000000000000000000000000020000000000000000000000000000000000000800000000000000000000000000000000000001000000000000000000000000000000",
      "type": "0x2",
      "transactionHash": "0x422b0468e670014738b425c20032da36349de4e576d541f7b6704c9b54f7c81b",
      "transactionIndex": "0x8",
      "blockHash": "0xcee580556e9b8fb066d13e716e6d74a26f30c75376e849b297f92fca256eb47c",
      "blockNumber": "0xd9a28",
      "gasUsed": "0x1797b",
      "effectiveGasPrice": "0x86ff52",
      "from": "0x4100a9B680B1Be1F10Cb8b5a57fE59eA77A8184e",
      "to": "0x81F51A95E18819b87059993A74102Cd8F046d296",
      "contractAddress": null
    },
    {
      "status": "0x1",
      "cumulativeGasUsed": "0x940f3",
      "logs": [
        {
          "address": "0x0362C8EA52966Fb2e0E34e7D97B2f63d25869Ce0",
          "topics": [
            "0xddf252ad1be2c89b69c2b068fc378daa952ba7f163c4a11628f55a4df523b3ef",
            "0x0000000000000000000000000000000000000000000000000000000000000000",
            "0x0000000000000000000000003c44cdddb6a900fa2b585dd299e03d12fa4293bc",
            "0x00000000000000000000000000000000000000000000000000000000000d9a30"
          ],
          "data": "0x",
          "blockHash": "0xcee580556e9b8fb066d13e716e6d74a26f30c75376e849b297f92fca256eb47c",
          "blockNumber": "0xd9a28",
          "transactionHash": "0x4a6180ca5f9bafe38daa7c6bed0f934275cb67f852ad9a62acb8f6836376e748",
          "transactionIndex": "0x9",
          "logIndex": "0xb",
          "removed": false
        }
      ],
      "logsBloom": "0x00000000000000000000000000000000000000000000000000000000000000000000000000000000000000000000000000000000000000000000000000100000000000000000000000000008000000000000000000000000000000000000000000000000020000000000000000000a00000800000000000000000010000000000000000000000000000000000000000000000000000000000000000000000010000000000000200000000000000000000000000000000000000000000000000002000002000000000000004000000000000000000000000000000000000020000000000000004000000000000000000000000000004000000000000000000000",
      "type": "0x2",
      "transactionHash": "0x4a6180ca5f9bafe38daa7c6bed0f934275cb67f852ad9a62acb8f6836376e748",
      "transactionIndex": "0x9",
      "blockHash": "0xcee580556e9b8fb066d13e716e6d74a26f30c75376e849b297f92fca256eb47c",
      "blockNumber": "0xd9a28",
      "gasUsed": "0x10cab",
      "effectiveGasPrice": "0x86ff52",
      "from": "0x4100a9B680B1Be1F10Cb8b5a57fE59eA77A8184e",
      "to": "0x0362C8EA52966Fb2e0E34e7D97B2f63d25869Ce0",
      "contractAddress": null
    },
    {
      "status": "0x1",
      "cumulativeGasUsed": "0xb082a",
      "logs": [
        {
          "address": "0x81F51A95E18819b87059993A74102Cd8F046d296",
          "topics": [
            "0x3ea3314dd8adca61ba5ccef601f00167a9a3c43358bad8b897df2519ee6d3a6c",
            "0x1a8831a10d23fcc82bab24fc5e894588675f013a9a829eb09d6f25a84cc9891d",
            "0x0000000000000000000000003c44cdddb6a900fa2b585dd299e03d12fa4293bc"
          ],
          "data": "0x00000000000000000000000000000000000000000000000000000000000d9a3000000000000000000000000000000000000000000000000000000000000000020000000000000000000000000000000000000000000000000000000067125828",
          "blockHash": "0xcee580556e9b8fb066d13e716e6d74a26f30c75376e849b297f92fca256eb47c",
          "blockNumber": "0xd9a28",
          "transactionHash": "0x2d31c22493a0c8c6a2cd030019bf1b3bd66f7c650c2f299c49fdcd6507e592c6",
          "transactionIndex": "0xa",
          "logIndex": "0xc",
          "removed": false
        }
      ],
      "logsBloom": "0x00000000000000000000000000000000000000000000000000000000000000004800000000000000000000000000000000000000000000000000000000100000000000000000000000000000000000000000800000000000000000000000000000000000000000000000100000000000820800000000000000000000000000000000000000000000000000000000000000000000000000000000000000000000000000200000200000000000000000000000000000000000000000000000000000000000000000000000020000000000000000000000000000000000000800000000000000000000000000000000000000000000000000000000000000000000",
      "type": "0x2",
      "transactionHash": "0x2d31c22493a0c8c6a2cd030019bf1b3bd66f7c650c2f299c49fdcd6507e592c6",
      "transactionIndex": "0xa",
      "blockHash": "0xcee580556e9b8fb066d13e716e6d74a26f30c75376e849b297f92fca256eb47c",
      "blockNumber": "0xd9a28",
      "gasUsed": "0x1c737",
      "effectiveGasPrice": "0x86ff52",
      "from": "0x4100a9B680B1Be1F10Cb8b5a57fE59eA77A8184e",
      "to": "0x81F51A95E18819b87059993A74102Cd8F046d296",
      "contractAddress": null
    },
    {
      "status": "0x1",
      "cumulativeGasUsed": "0xc14e1",
      "logs": [
        {
          "address": "0x0362C8EA52966Fb2e0E34e7D97B2f63d25869Ce0",
          "topics": [
            "0xddf252ad1be2c89b69c2b068fc378daa952ba7f163c4a11628f55a4df523b3ef",
            "0x0000000000000000000000000000000000000000000000000000000000000000",
            "0x00000000000000000000000090f79bf6eb2c4f870365e785982e1f101e93b906",
            "0x00000000000000000000000000000000000000000000000000000000000d9a31"
          ],
          "data": "0x",
          "blockHash": "0xcee580556e9b8fb066d13e716e6d74a26f30c75376e849b297f92fca256eb47c",
          "blockNumber": "0xd9a28",
          "transactionHash": "0xba479017cd61466288c75146c76ae2f4d8c991730cdd3ff0d7784f18d765ecc6",
          "transactionIndex": "0xb",
          "logIndex": "0xd",
          "removed": false
        }
      ],
      "logsBloom": "0x00000000000000000000000000000000000000000000000000000000000000000000000000000000000000000000000000000000000000000080000000000000000000000000000000000008004000000000000000000000000000000000000000000000020000000000000000000800000000000000000000000010000000000000000000000000000000000000000000000000200000000400000000000010000000000000000000000000000000000000000000000000000000000000000002000002000000000000000000000000400000000000000000000000000020000000000000004000000010000000000000000000000000000000000000000000",
      "type": "0x2",
      "transactionHash": "0xba479017cd61466288c75146c76ae2f4d8c991730cdd3ff0d7784f18d765ecc6",
      "transactionIndex": "0xb",
      "blockHash": "0xcee580556e9b8fb066d13e716e6d74a26f30c75376e849b297f92fca256eb47c",
      "blockNumber": "0xd9a28",
      "gasUsed": "0x10cb7",
      "effectiveGasPrice": "0x86ff52",
      "from": "0x4100a9B680B1Be1F10Cb8b5a57fE59eA77A8184e",
      "to": "0x0362C8EA52966Fb2e0E34e7D97B2f63d25869Ce0",
      "contractAddress": null
    },
    {
      "status": "0x1",
      "cumulativeGasUsed": "0xd8e5c",
      "logs": [
        {
          "address": "0x81F51A95E18819b87059993A74102Cd8F046d296",
          "topics": [
            "0x3ea3314dd8adca61ba5ccef601f00167a9a3c43358bad8b897df2519ee6d3a6c",
            "0x72e0934075f65669ae346aa569d88ccae754450e3f65b81611c260c4d5bf6b2c",
            "0x00000000000000000000000090f79bf6eb2c4f870365e785982e1f101e93b906"
          ],
          "data": "0x00000000000000000000000000000000000000000000000000000000000d9a3100000000000000000000000000000000000000000000000000000000000000000000000000000000000000000000000000000000000000000000000067125828",
          "blockHash": "0xcee580556e9b8fb066d13e716e6d74a26f30c75376e849b297f92fca256eb47c",
          "blockNumber": "0xd9a28",
          "transactionHash": "0x393fe400a600639e11ca6f9fa450378607c561beae27d6563af6473c6273a5ed",
          "transactionIndex": "0xc",
          "logIndex": "0xe",
          "removed": false
        }
      ],
      "logsBloom": "0x00000000000000000000000000000000000000000000000000000000000001004800000000000000000000000000000000000000000000000000000000000000000000000000000000000000000000000000800000000000000000000000000000000000000000000000000000000000000000000000000000000000000000000000000000000000000000000000000000000000000000000400000000000000000000200000000000000000000000000000000000000000000000000000000020000000000000000000020000000000400000000040000000000000000800000000000000000000000010000000000000000000000000000000000000000000",
      "type": "0x2",
      "transactionHash": "0x393fe400a600639e11ca6f9fa450378607c561beae27d6563af6473c6273a5ed",
      "transactionIndex": "0xc",
      "blockHash": "0xcee580556e9b8fb066d13e716e6d74a26f30c75376e849b297f92fca256eb47c",
      "blockNumber": "0xd9a28",
      "gasUsed": "0x1797b",
      "effectiveGasPrice": "0x86ff52",
      "from": "0x4100a9B680B1Be1F10Cb8b5a57fE59eA77A8184e",
      "to": "0x81F51A95E18819b87059993A74102Cd8F046d296",
      "contractAddress": null
    },
    {
      "status": "0x1",
      "cumulativeGasUsed": "0xe9b13",
      "logs": [
        {
          "address": "0x0362C8EA52966Fb2e0E34e7D97B2f63d25869Ce0",
          "topics": [
            "0xddf252ad1be2c89b69c2b068fc378daa952ba7f163c4a11628f55a4df523b3ef",
            "0x0000000000000000000000000000000000000000000000000000000000000000",
            "0x00000000000000000000000015d34aaf54267db7d7c367839aaf71a00a2c6a65",
            "0x00000000000000000000000000000000000000000000000000000000000d9a32"
          ],
          "data": "0x",
          "blockHash": "0xcee580556e9b8fb066d13e716e6d74a26f30c75376e849b297f92fca256eb47c",
          "blockNumber": "0xd9a28",
          "transactionHash": "0xd2bfd059592860b8bf7b5508f262ad4cfdc434c075052eb7f30f622b5db83c29",
          "transactionIndex": "0xd",
          "logIndex": "0xf",
          "removed": false
        }
      ],
      "logsBloom": "0x00000000040000000000000000000000000000000000000000000000000000000000000000000000000000000000000000000200000000000000000000000000000000000000000000000008000000000000000000000000000000000000000000000000020000000000000000000800000000000000000000000010000000000000000000000000000000000000000000001000000000000000000100000010000000000000000000000000000000000000000000000000000000000000000002000002000000000000000000000000000000000000000000000000000024000000000000004000000001000000000000000000000000000000000000000000",
      "type": "0x2",
      "transactionHash": "0xd2bfd059592860b8bf7b5508f262ad4cfdc434c075052eb7f30f622b5db83c29",
      "transactionIndex": "0xd",
      "blockHash": "0xcee580556e9b8fb066d13e716e6d74a26f30c75376e849b297f92fca256eb47c",
      "blockNumber": "0xd9a28",
      "gasUsed": "0x10cb7",
      "effectiveGasPrice": "0x86ff52",
      "from": "0x4100a9B680B1Be1F10Cb8b5a57fE59eA77A8184e",
      "to": "0x0362C8EA52966Fb2e0E34e7D97B2f63d25869Ce0",
      "contractAddress": null
    },
    {
      "status": "0x1",
      "cumulativeGasUsed": "0x106256",
      "logs": [
        {
          "address": "0x81F51A95E18819b87059993A74102Cd8F046d296",
          "topics": [
            "0x3ea3314dd8adca61ba5ccef601f00167a9a3c43358bad8b897df2519ee6d3a6c",
            "0x75129e124db03f768d75a3003a7aa77c25e4389d5323569521c2e6b9a43fa289",
            "0x00000000000000000000000015d34aaf54267db7d7c367839aaf71a00a2c6a65"
          ],
          "data": "0x00000000000000000000000000000000000000000000000000000000000d9a3200000000000000000000000000000000000000000000000000000000000000010000000000000000000000000000000000000000000000000000000067125828",
          "blockHash": "0xcee580556e9b8fb066d13e716e6d74a26f30c75376e849b297f92fca256eb47c",
          "blockNumber": "0xd9a28",
          "transactionHash": "0x72dddad3b0643d47727abbf342887d0dfa83973728486b6fa699e741c18a73bc",
          "transactionIndex": "0xe",
          "logIndex": "0x10",
          "removed": false
        }
      ],
      "logsBloom": "0x00000000040000000000000000000000000000000000000000000000000000004800000000000000000000000000000000000000000000000000000000000000000000000100000000000000000000000000800000000000000000000000000000000000000000000000000000000000000000000000000000000000000000000000000000000000000000000000000000000000000000000000000100000000000000200000000000000000000000000000000000000000000000000000000000000000000000000000020000000000100000000000000000000000000804000000000000000000000000000000000000000004000000000000000000000000",
      "type": "0x2",
      "transactionHash": "0x72dddad3b0643d47727abbf342887d0dfa83973728486b6fa699e741c18a73bc",
      "transactionIndex": "0xe",
      "blockHash": "0xcee580556e9b8fb066d13e716e6d74a26f30c75376e849b297f92fca256eb47c",
      "blockNumber": "0xd9a28",
      "gasUsed": "0x1c743",
      "effectiveGasPrice": "0x86ff52",
      "from": "0x4100a9B680B1Be1F10Cb8b5a57fE59eA77A8184e",
      "to": "0x81F51A95E18819b87059993A74102Cd8F046d296",
      "contractAddress": null
    },
    {
      "status": "0x1",
      "cumulativeGasUsed": "0x116f0d",
      "logs": [
        {
          "address": "0x0362C8EA52966Fb2e0E34e7D97B2f63d25869Ce0",
          "topics": [
            "0xddf252ad1be2c89b69c2b068fc378daa952ba7f163c4a11628f55a4df523b3ef",
            "0x0000000000000000000000000000000000000000000000000000000000000000",
            "0x0000000000000000000000009965507d1a55bcc2695c58ba16fb37d819b0a4dc",
            "0x00000000000000000000000000000000000000000000000000000000000d9a33"
          ],
          "data": "0x",
          "blockHash": "0xcee580556e9b8fb066d13e716e6d74a26f30c75376e849b297f92fca256eb47c",
          "blockNumber": "0xd9a28",
          "transactionHash": "0x532cdd2c2095218aff4551a39e4b0c45691ef9cc50c17d8ddcfca99417df1fd4",
          "transactionIndex": "0xf",
          "logIndex": "0x11",
          "removed": false
        }
      ],
      "logsBloom": "0x00000004000000000000000000000000000000000000010000000000000000000000000000000000000000000000000000000000000000000000000000000000000000000000000000000008000000000000000000008000000000000000000000000000020000000000000000000800000000000000000000000010000000000000000000000000000000000000000000000000000000000000000000000010000000000000002000000000000000000000000000000000000000000000000002000002800000000000000000000000000000000000000000000000000020000000000000004000020000000000000000000000000000000000000000000000",
      "type": "0x2",
      "transactionHash": "0x532cdd2c2095218aff4551a39e4b0c45691ef9cc50c17d8ddcfca99417df1fd4",
      "transactionIndex": "0xf",
      "blockHash": "0xcee580556e9b8fb066d13e716e6d74a26f30c75376e849b297f92fca256eb47c",
      "blockNumber": "0xd9a28",
      "gasUsed": "0x10cb7",
      "effectiveGasPrice": "0x86ff52",
      "from": "0x4100a9B680B1Be1F10Cb8b5a57fE59eA77A8184e",
      "to": "0x0362C8EA52966Fb2e0E34e7D97B2f63d25869Ce0",
      "contractAddress": null
    },
    {
      "status": "0x1",
      "cumulativeGasUsed": "0x12e888",
      "logs": [
        {
          "address": "0x81F51A95E18819b87059993A74102Cd8F046d296",
          "topics": [
            "0x3ea3314dd8adca61ba5ccef601f00167a9a3c43358bad8b897df2519ee6d3a6c",
            "0x6107310fc7f3e6128c30d36d7ebf27e8711a89086c0b110de1b3cef0b89b8b74",
            "0x0000000000000000000000009965507d1a55bcc2695c58ba16fb37d819b0a4dc"
          ],
          "data": "0x00000000000000000000000000000000000000000000000000000000000d9a3300000000000000000000000000000000000000000000000000000000000000000000000000000000000000000000000000000000000000000000000067125828",
          "blockHash": "0xcee580556e9b8fb066d13e716e6d74a26f30c75376e849b297f92fca256eb47c",
          "blockNumber": "0xd9a28",
          "transactionHash": "0xde7c460ab0b4da364766d13b4348ccd526e71edd230624521361e423bc4b4848",
          "transactionIndex": "0x10",
          "logIndex": "0x12",
          "removed": false
        }
      ],
      "logsBloom": "0x00000004000000000000000000000000000000000000000000000000000000004800000000000000000000000000000000000000000000000800000000000000000000000000000000000000000000000000800000008000000000000000000000000000000000000000000000000000001000000000000000000000000000000000000000400000000000000000000000000000000000000000000000000000000000200000000000000000000000000000000000000000000000000000000000000000800000000000020000000000000000000000000000000000000800000000000000000000000000000000000000000000000000000000000000000000",
      "type": "0x2",
      "transactionHash": "0xde7c460ab0b4da364766d13b4348ccd526e71edd230624521361e423bc4b4848",
      "transactionIndex": "0x10",
      "blockHash": "0xcee580556e9b8fb066d13e716e6d74a26f30c75376e849b297f92fca256eb47c",
      "blockNumber": "0xd9a28",
      "gasUsed": "0x1797b",
      "effectiveGasPrice": "0x86ff52",
      "from": "0x4100a9B680B1Be1F10Cb8b5a57fE59eA77A8184e",
      "to": "0x81F51A95E18819b87059993A74102Cd8F046d296",
      "contractAddress": null
    },
    {
      "status": "0x1",
      "cumulativeGasUsed": "0x13f53f",
      "logs": [
        {
          "address": "0x0362C8EA52966Fb2e0E34e7D97B2f63d25869Ce0",
          "topics": [
            "0xddf252ad1be2c89b69c2b068fc378daa952ba7f163c4a11628f55a4df523b3ef",
            "0x0000000000000000000000000000000000000000000000000000000000000000",
            "0x000000000000000000000000976ea74026e726554db657fa54763abd0c3a0aa9",
            "0x00000000000000000000000000000000000000000000000000000000000d9a34"
          ],
          "data": "0x",
          "blockHash": "0xcee580556e9b8fb066d13e716e6d74a26f30c75376e849b297f92fca256eb47c",
          "blockNumber": "0xd9a28",
          "transactionHash": "0x25f9563aa8c2574d12da7ce95d1912667028c235552beafbdd0150aa7e0ce7cb",
          "transactionIndex": "0x11",
          "logIndex": "0x13",
          "removed": false
        }
      ],
      "logsBloom": "0x00000000000000000000000000000000000000040200000000000000000000000000000000000000000000000000000080000000000000000000000000000000000000000000000000000008000000000000000000000000080000000000000080000000020000000000000000000800000000000000000000000010000000000000000000000000000000000004000000000000000000000000000000000010000000000000000000000000000000000000000000000000000000000000000002000002000000000000000000000000000000000000000000000000000020000000000000004000000000000000000000000000000000000000000000000000",
      "type": "0x2",
      "transactionHash": "0x25f9563aa8c2574d12da7ce95d1912667028c235552beafbdd0150aa7e0ce7cb",
      "transactionIndex": "0x11",
      "blockHash": "0xcee580556e9b8fb066d13e716e6d74a26f30c75376e849b297f92fca256eb47c",
      "blockNumber": "0xd9a28",
      "gasUsed": "0x10cb7",
      "effectiveGasPrice": "0x86ff52",
      "from": "0x4100a9B680B1Be1F10Cb8b5a57fE59eA77A8184e",
      "to": "0x0362C8EA52966Fb2e0E34e7D97B2f63d25869Ce0",
      "contractAddress": null
    },
    {
      "status": "0x1",
      "cumulativeGasUsed": "0x15bc82",
      "logs": [
        {
          "address": "0x81F51A95E18819b87059993A74102Cd8F046d296",
          "topics": [
            "0x3ea3314dd8adca61ba5ccef601f00167a9a3c43358bad8b897df2519ee6d3a6c",
            "0xf84784353f9f8da608eead9df06f84311a0b8d88359eec87bd83e60243883fee",
            "0x000000000000000000000000976ea74026e726554db657fa54763abd0c3a0aa9"
          ],
          "data": "0x00000000000000000000000000000000000000000000000000000000000d9a3400000000000000000000000000000000000000000000000000000000000000020000000000000000000000000000000000000000000000000000000067125828",
          "blockHash": "0xcee580556e9b8fb066d13e716e6d74a26f30c75376e849b297f92fca256eb47c",
          "blockNumber": "0xd9a28",
          "transactionHash": "0x053fbac4f2c3a4cf6440329c3ecffa41937f63d012676a48358db3d2227e5552",
          "transactionIndex": "0x12",
          "logIndex": "0x14",
          "removed": false
        }
      ],
      "logsBloom": "0x00000002000000000000000000000000000000040200000000000000000000004800000000000000000000000000000000000000000000000000000000000000000000000000000000000000000000000000800000000000080000000000000000000000000000000000000000000000000000000000000000000000000000000000000000000000000000000000000000000000000000000000000000000000000000200000000000000000000000000000000000000004000000000000000000000000000000000000020000000000000000000000000000000000000800000000000000000000000000000000800000000000000000000000000000000000",
      "type": "0x2",
      "transactionHash": "0x053fbac4f2c3a4cf6440329c3ecffa41937f63d012676a48358db3d2227e5552",
      "transactionIndex": "0x12",
      "blockHash": "0xcee580556e9b8fb066d13e716e6d74a26f30c75376e849b297f92fca256eb47c",
      "blockNumber": "0xd9a28",
      "gasUsed": "0x1c743",
      "effectiveGasPrice": "0x86ff52",
      "from": "0x4100a9B680B1Be1F10Cb8b5a57fE59eA77A8184e",
      "to": "0x81F51A95E18819b87059993A74102Cd8F046d296",
      "contractAddress": null
    },
    {
      "status": "0x1",
      "cumulativeGasUsed": "0x16c939",
      "logs": [
        {
          "address": "0x0362C8EA52966Fb2e0E34e7D97B2f63d25869Ce0",
          "topics": [
            "0xddf252ad1be2c89b69c2b068fc378daa952ba7f163c4a11628f55a4df523b3ef",
            "0x0000000000000000000000000000000000000000000000000000000000000000",
            "0x00000000000000000000000014dc79964da2c08b23698b3d3cc7ca32193d9955",
            "0x00000000000000000000000000000000000000000000000000000000000d9a35"
          ],
          "data": "0x",
          "blockHash": "0xcee580556e9b8fb066d13e716e6d74a26f30c75376e849b297f92fca256eb47c",
          "blockNumber": "0xd9a28",
          "transactionHash": "0x732b22ea7edaf75aa466ee1591319c813f12aa2233cf289d5b8f947d54b19c0c",
          "transactionIndex": "0x13",
          "logIndex": "0x15",
          "removed": false
        }
      ],
      "logsBloom": "0x00000000000000000000000000000000000000000000000000000000000000000002000000000000000000000000000000000000000000000000000000000000000000000000000000000008000000000000000000000400000000000000000000000000020000000000000000000800000000000000000000000010000000000000000000000000000000000000000000000000000000000001000000000010000000000000000000000000000000002000000000000000000000000000000002000002000000000000000000000000440000000000000000000000000020000000000000004000000000000000000000000000000000000000000000000000",
      "type": "0x2",
      "transactionHash": "0x732b22ea7edaf75aa466ee1591319c813f12aa2233cf289d5b8f947d54b19c0c",
      "transactionIndex": "0x13",
      "blockHash": "0xcee580556e9b8fb066d13e716e6d74a26f30c75376e849b297f92fca256eb47c",
      "blockNumber": "0xd9a28",
      "gasUsed": "0x10cb7",
      "effectiveGasPrice": "0x86ff52",
      "from": "0x4100a9B680B1Be1F10Cb8b5a57fE59eA77A8184e",
      "to": "0x0362C8EA52966Fb2e0E34e7D97B2f63d25869Ce0",
      "contractAddress": null
    },
    {
      "status": "0x1",
      "cumulativeGasUsed": "0x1842b4",
      "logs": [
        {
          "address": "0x81F51A95E18819b87059993A74102Cd8F046d296",
          "topics": [
            "0x3ea3314dd8adca61ba5ccef601f00167a9a3c43358bad8b897df2519ee6d3a6c",
            "0xbdf1c336a9ba4a544b0e271d681eb6d99993d7f28ebf6ce7a3c8dc535cd5e1ce",
            "0x00000000000000000000000014dc79964da2c08b23698b3d3cc7ca32193d9955"
          ],
          "data": "0x00000000000000000000000000000000000000000000000000000000000d9a3500000000000000000000000000000000000000000000000000000000000000000000000000000000000000000000000000000000000000000000000067125828",
          "blockHash": "0xcee580556e9b8fb066d13e716e6d74a26f30c75376e849b297f92fca256eb47c",
          "blockNumber": "0xd9a28",
          "transactionHash": "0xd502babbd9c408b32b2004c5fef4d61b24fa6704f52b444c08aafe09d881342b",
          "transactionIndex": "0x14",
          "logIndex": "0x16",
          "removed": false
        }
      ],
      "logsBloom": "0x00000000000000000000000000000000000000000000000000000000000000004800000000000000000000000000000000000000000000000000000000000000000000000000000000000000000000000000800000000400000000000800000000000000000000000000000000000000000000000000000000000000000000000000000000000000000000000000000000000000000000000000000000000000000000200000000000000000000000002000000000000000000000000000000000000000000000000000020000000000040000000000000000000000000804000000000000000000000000000000000000000000000010000000000000000000",
      "type": "0x2",
      "transactionHash": "0xd502babbd9c408b32b2004c5fef4d61b24fa6704f52b444c08aafe09d881342b",
      "transactionIndex": "0x14",
      "blockHash": "0xcee580556e9b8fb066d13e716e6d74a26f30c75376e849b297f92fca256eb47c",
      "blockNumber": "0xd9a28",
      "gasUsed": "0x1797b",
      "effectiveGasPrice": "0x86ff52",
      "from": "0x4100a9B680B1Be1F10Cb8b5a57fE59eA77A8184e",
      "to": "0x81F51A95E18819b87059993A74102Cd8F046d296",
      "contractAddress": null
    },
    {
      "status": "0x1",
      "cumulativeGasUsed": "0x194f6b",
      "logs": [
        {
          "address": "0x0362C8EA52966Fb2e0E34e7D97B2f63d25869Ce0",
          "topics": [
            "0xddf252ad1be2c89b69c2b068fc378daa952ba7f163c4a11628f55a4df523b3ef",
            "0x0000000000000000000000000000000000000000000000000000000000000000",
            "0x00000000000000000000000023618e81e3f5cdf7f54c3d65f7fbc0abf5b21e8f",
            "0x00000000000000000000000000000000000000000000000000000000000d9a36"
          ],
          "data": "0x",
          "blockHash": "0xcee580556e9b8fb066d13e716e6d74a26f30c75376e849b297f92fca256eb47c",
          "blockNumber": "0xd9a28",
          "transactionHash": "0xacb56ae130135edaceeb5c5740d556b71751d1f4ee085fefaa83e8596d71ac33",
          "transactionIndex": "0x15",
          "logIndex": "0x17",
          "removed": false
        }
      ],
      "logsBloom": "0x00800000000000008000000000000000000000000000000000000000000000000000000000000000000000000000000000000000000000000000000000000000000000000000000000000008000000000004000000000000000000000000000000000000020000000000000000000800000000000000000000000010000000000000008000000000000000020000000000000000000000000000000000000010000000000000000000000000000000000000000000000000000000000000000002000002000000000000000000000000000000000000000000000000000020000000000000004000000000000000000000000000000000000000008000000000",
      "type": "0x2",
      "transactionHash": "0xacb56ae130135edaceeb5c5740d556b71751d1f4ee085fefaa83e8596d71ac33",
      "transactionIndex": "0x15",
      "blockHash": "0xcee580556e9b8fb066d13e716e6d74a26f30c75376e849b297f92fca256eb47c",
      "blockNumber": "0xd9a28",
      "gasUsed": "0x10cb7",
      "effectiveGasPrice": "0x86ff52",
      "from": "0x4100a9B680B1Be1F10Cb8b5a57fE59eA77A8184e",
      "to": "0x0362C8EA52966Fb2e0E34e7D97B2f63d25869Ce0",
      "contractAddress": null
    },
    {
      "status": "0x1",
      "cumulativeGasUsed": "0x1b16ae",
      "logs": [
        {
          "address": "0x81F51A95E18819b87059993A74102Cd8F046d296",
          "topics": [
            "0x3ea3314dd8adca61ba5ccef601f00167a9a3c43358bad8b897df2519ee6d3a6c",
            "0x53ec0a5b57b3d41a4d7423e20d6142f98d6505f67ae94ee8f67cf1c95f8e52b9",
            "0x00000000000000000000000023618e81e3f5cdf7f54c3d65f7fbc0abf5b21e8f"
          ],
          "data": "0x00000000000000000000000000000000000000000000000000000000000d9a3600000000000000000000000000000000000000000000000000000000000000010000000000000000000000000000000000000000000000000000000067125828",
          "blockHash": "0xcee580556e9b8fb066d13e716e6d74a26f30c75376e849b297f92fca256eb47c",
          "blockNumber": "0xd9a28",
          "transactionHash": "0xa155586747a54e03e142654d356d6c43a69727ca30ca67cf21402c4a2b5a193b",
          "transactionIndex": "0x16",
          "logIndex": "0x18",
          "removed": false
        }
      ],
      "logsBloom": "0x00800000000000000000000000000000000000000000000000000000000000004800000000000000000000000000000000000000000000000000000000000000000000000000000000000000000000000000800000000000000000000000000000000000000000000000000000000000000000000000000000000000000000000000000000000000000000020000000000000000000008000000000000000000000000200000000000000000000000000000000000000000000000180000000000000000000000000000020000000000000000000000000000000000000800000000000000000000000000000000000000000000000000000000008000000000",
      "type": "0x2",
      "transactionHash": "0xa155586747a54e03e142654d356d6c43a69727ca30ca67cf21402c4a2b5a193b",
      "transactionIndex": "0x16",
      "blockHash": "0xcee580556e9b8fb066d13e716e6d74a26f30c75376e849b297f92fca256eb47c",
      "blockNumber": "0xd9a28",
      "gasUsed": "0x1c743",
      "effectiveGasPrice": "0x86ff52",
      "from": "0x4100a9B680B1Be1F10Cb8b5a57fE59eA77A8184e",
      "to": "0x81F51A95E18819b87059993A74102Cd8F046d296",
      "contractAddress": null
    },
    {
      "status": "0x1",
      "cumulativeGasUsed": "0x1c2365",
      "logs": [
        {
          "address": "0x0362C8EA52966Fb2e0E34e7D97B2f63d25869Ce0",
          "topics": [
            "0xddf252ad1be2c89b69c2b068fc378daa952ba7f163c4a11628f55a4df523b3ef",
            "0x0000000000000000000000000000000000000000000000000000000000000000",
            "0x000000000000000000000000a0ee7a142d267c1f36714e4a8f75612f20a79720",
            "0x00000000000000000000000000000000000000000000000000000000000d9a37"
          ],
          "data": "0x",
          "blockHash": "0xcee580556e9b8fb066d13e716e6d74a26f30c75376e849b297f92fca256eb47c",
          "blockNumber": "0xd9a28",
          "transactionHash": "0x35b44b5a721bceb5c15f48dfbfb5086ece724aeb13a4c0c4e6c9ea2f93719fb4",
          "transactionIndex": "0x17",
          "logIndex": "0x19",
          "removed": false
        }
      ],
      "logsBloom": "0x00000000000480000000040000000000000000000000000000000000000000000000000000000000000000000000000000000000000000000000000000000000000000000000000000000008000000000000000000000000000008000000000000000000020000000000000000000800000000000000000000000010000000000000000000000000000000000000000000000000000000000000000080000010000000000000000000000000000000000000000000000000000000000000000002000002000000000000000000000000000000000000000000004000000020000000000000004000000000000000000000000000000000000000000000000000",
      "type": "0x2",
      "transactionHash": "0x35b44b5a721bceb5c15f48dfbfb5086ece724aeb13a4c0c4e6c9ea2f93719fb4",
      "transactionIndex": "0x17",
      "blockHash": "0xcee580556e9b8fb066d13e716e6d74a26f30c75376e849b297f92fca256eb47c",
      "blockNumber": "0xd9a28",
      "gasUsed": "0x10cb7",
      "effectiveGasPrice": "0x86ff52",
      "from": "0x4100a9B680B1Be1F10Cb8b5a57fE59eA77A8184e",
      "to": "0x0362C8EA52966Fb2e0E34e7D97B2f63d25869Ce0",
      "contractAddress": null
    },
    {
      "status": "0x1",
      "cumulativeGasUsed": "0x1deaa8",
      "logs": [
        {
          "address": "0x81F51A95E18819b87059993A74102Cd8F046d296",
          "topics": [
            "0x3ea3314dd8adca61ba5ccef601f00167a9a3c43358bad8b897df2519ee6d3a6c",
            "0xd730fa590e1aab01a6d445bf0063e58bb6ac856c4e24848fb103d7dbb5a9889b",
            "0x000000000000000000000000a0ee7a142d267c1f36714e4a8f75612f20a79720"
          ],
          "data": "0x00000000000000000000000000000000000000000000000000000000000d9a3700000000000000000000000000000000000000000000000000000000000000010000000000000000000000000000000000000000000000000000000067125828",
          "blockHash": "0xcee580556e9b8fb066d13e716e6d74a26f30c75376e849b297f92fca256eb47c",
          "blockNumber": "0xd9a28",
          "transactionHash": "0x893fed178c99ad447d2060494db06d8ddddc4e66346a59af518add8f6f927775",
          "transactionIndex": "0x18",
          "logIndex": "0x1a",
          "removed": false
        }
      ],
      "logsBloom": "0x04000000000000000000040000000000000000000000000000000000000000004800800000000000000000000000000000000000000000000000000000000000000000000000000000000000000000000000800000000000000008000000000000000000000000000000000000000020000000000000000000000000000000000000000000000000000000000000000000000000000000000000000000000000000000200000000000000000000000000000000000000000000000000000000000000000000000000000020000000000000000000000000000004000000800000000000000000000000000000000000000000000000000000000000000000000",
      "type": "0x2",
      "transactionHash": "0x893fed178c99ad447d2060494db06d8ddddc4e66346a59af518add8f6f927775",
      "transactionIndex": "0x18",
      "blockHash": "0xcee580556e9b8fb066d13e716e6d74a26f30c75376e849b297f92fca256eb47c",
      "blockNumber": "0xd9a28",
      "gasUsed": "0x1c743",
      "effectiveGasPrice": "0x86ff52",
      "from": "0x4100a9B680B1Be1F10Cb8b5a57fE59eA77A8184e",
      "to": "0x81F51A95E18819b87059993A74102Cd8F046d296",
      "contractAddress": null
    }
  ],
  "libraries": [],
  "pending": [],
  "returns": {},
  "timestamp": 1729255473,
  "chain": 167009,
  "commit": "f12d04e"
}