{
  "transactions": [
    {
      "hash": "0x89052ac9f75e69c88b848ccf61f075bd651a8e0d30f3439cf4f6bf4b5ad72758",
      "transactionType": "CALL",
      "contractName": null,
      "contractAddress": "0x0969C6Fe0d7FF1873d5AbDBf14260C987bF73735",
      "function": "mint(address,uint256)",
      "arguments": [
        "0x70997970C51812dc3A010C7d01b50e0d17dc79C8",
        "891263"
      ],
      "transaction": {
        "from": "0x4100a9B680B1Be1F10Cb8b5a57fE59eA77A8184e",
        "to": "0x0969C6Fe0d7FF1873d5AbDBf14260C987bF73735",
        "gas": "0x1274d",
        "value": "0x0",
        "input": "0x40c10f1900000000000000000000000070997970c51812dc3a010c7d01b50e0d17dc79c800000000000000000000000000000000000000000000000000000000000d997f",
        "nonce": "0x63a",
        "chainId": "0x28c61"
      },
      "additionalContracts": [],
      "isFixedGasLimit": false
    },
    {
      "hash": "0x8578d7c1149dc1c8a805d6b25a16b1296bab9b4f7886c890761f44cd1449fb61",
      "transactionType": "CALL",
      "contractName": null,
      "contractAddress": "0xD8152aaA8a2dFAFb356238B14124a9A17D2E1D24",
      "function": "registerPlayer(address,uint256,uint8)",
      "arguments": [
        "0x70997970C51812dc3A010C7d01b50e0d17dc79C8",
        "891263",
        "2"
      ],
      "transaction": {
        "from": "0x4100a9B680B1Be1F10Cb8b5a57fE59eA77A8184e",
        "to": "0xD8152aaA8a2dFAFb356238B14124a9A17D2E1D24",
        "gas": "0x2eafc",
        "value": "0x0",
        "input": "0x50ed283800000000000000000000000070997970c51812dc3a010c7d01b50e0d17dc79c800000000000000000000000000000000000000000000000000000000000d997f0000000000000000000000000000000000000000000000000000000000000002",
        "nonce": "0x63b",
        "chainId": "0x28c61"
      },
      "additionalContracts": [],
      "isFixedGasLimit": false
    },
    {
      "hash": "0xb2421f7d0f5697928d99ac239b7672effbb6f20b82cc0613623f28c31d9257ff",
      "transactionType": "CALL",
      "contractName": null,
      "contractAddress": "0x0969C6Fe0d7FF1873d5AbDBf14260C987bF73735",
      "function": "mint(address,uint256)",
      "arguments": [
        "0x3C44CdDdB6a900fa2b585dd299e03d12FA4293BC",
        "891264"
      ],
      "transaction": {
        "from": "0x4100a9B680B1Be1F10Cb8b5a57fE59eA77A8184e",
        "to": "0x0969C6Fe0d7FF1873d5AbDBf14260C987bF73735",
        "gas": "0x116d4",
        "value": "0x0",
        "input": "0x40c10f190000000000000000000000003c44cdddb6a900fa2b585dd299e03d12fa4293bc00000000000000000000000000000000000000000000000000000000000d9980",
        "nonce": "0x63c",
        "chainId": "0x28c61"
      },
      "additionalContracts": [],
      "isFixedGasLimit": false
    },
    {
      "hash": "0x0a41ee45d4d36cf3ce4a7a95421e640183237551696e75c123155a3595861b34",
      "transactionType": "CALL",
      "contractName": null,
      "contractAddress": "0xD8152aaA8a2dFAFb356238B14124a9A17D2E1D24",
      "function": "registerPlayer(address,uint256,uint8)",
      "arguments": [
        "0x3C44CdDdB6a900fa2b585dd299e03d12FA4293BC",
        "891264",
        "2"
      ],
      "transaction": {
        "from": "0x4100a9B680B1Be1F10Cb8b5a57fE59eA77A8184e",
        "to": "0xD8152aaA8a2dFAFb356238B14124a9A17D2E1D24",
        "gas": "0x316dc",
        "value": "0x0",
        "input": "0x50ed28380000000000000000000000003c44cdddb6a900fa2b585dd299e03d12fa4293bc00000000000000000000000000000000000000000000000000000000000d99800000000000000000000000000000000000000000000000000000000000000002",
        "nonce": "0x63d",
        "chainId": "0x28c61"
      },
      "additionalContracts": [],
      "isFixedGasLimit": false
    },
    {
      "hash": "0x517551dd7878f7eedfffcc01a1d414ce963a798cc4b8f404e39ddc455efbde2a",
      "transactionType": "CALL",
      "contractName": null,
      "contractAddress": "0x0969C6Fe0d7FF1873d5AbDBf14260C987bF73735",
      "function": "mint(address,uint256)",
      "arguments": [
        "0x90F79bf6EB2c4f870365E785982E1f101E93b906",
        "891265"
      ],
      "transaction": {
        "from": "0x4100a9B680B1Be1F10Cb8b5a57fE59eA77A8184e",
        "to": "0x0969C6Fe0d7FF1873d5AbDBf14260C987bF73735",
        "gas": "0x1274d",
        "value": "0x0",
        "input": "0x40c10f1900000000000000000000000090f79bf6eb2c4f870365e785982e1f101e93b90600000000000000000000000000000000000000000000000000000000000d9981",
        "nonce": "0x63e",
        "chainId": "0x28c61"
      },
      "additionalContracts": [],
      "isFixedGasLimit": false
    },
    {
      "hash": "0x3a6d7c467a5cdd5df88246dadb50f41619f85f02d5bb923d73f7415331e7ff7f",
      "transactionType": "CALL",
      "contractName": null,
      "contractAddress": "0xD8152aaA8a2dFAFb356238B14124a9A17D2E1D24",
      "function": "registerPlayer(address,uint256,uint8)",
      "arguments": [
        "0x90F79bf6EB2c4f870365E785982E1f101E93b906",
        "891265",
        "2"
      ],
      "transaction": {
        "from": "0x4100a9B680B1Be1F10Cb8b5a57fE59eA77A8184e",
        "to": "0xD8152aaA8a2dFAFb356238B14124a9A17D2E1D24",
        "gas": "0x2eafc",
        "value": "0x0",
        "input": "0x50ed283800000000000000000000000090f79bf6eb2c4f870365e785982e1f101e93b90600000000000000000000000000000000000000000000000000000000000d99810000000000000000000000000000000000000000000000000000000000000002",
        "nonce": "0x63f",
        "chainId": "0x28c61"
      },
      "additionalContracts": [],
      "isFixedGasLimit": false
    },
    {
      "hash": "0x4a9436cd7b842ceab0f26ce7f2053512ff9477c1f0baa918787c329ef5259bde",
      "transactionType": "CALL",
      "contractName": null,
      "contractAddress": "0x0969C6Fe0d7FF1873d5AbDBf14260C987bF73735",
      "function": "mint(address,uint256)",
      "arguments": [
        "0x15d34AAf54267DB7D7c367839AAf71A00a2C6A65",
        "891266"
      ],
      "transaction": {
        "from": "0x4100a9B680B1Be1F10Cb8b5a57fE59eA77A8184e",
        "to": "0x0969C6Fe0d7FF1873d5AbDBf14260C987bF73735",
        "gas": "0x1274d",
        "value": "0x0",
        "input": "0x40c10f1900000000000000000000000015d34aaf54267db7d7c367839aaf71a00a2c6a6500000000000000000000000000000000000000000000000000000000000d9982",
        "nonce": "0x640",
        "chainId": "0x28c61"
      },
      "additionalContracts": [],
      "isFixedGasLimit": false
    },
    {
      "hash": "0xfdf054c75216ed04fa0a13af05d47327b04b0f54614198b637701ecb4f024fae",
      "transactionType": "CALL",
      "contractName": null,
      "contractAddress": "0xD8152aaA8a2dFAFb356238B14124a9A17D2E1D24",
      "function": "registerPlayer(address,uint256,uint8)",
      "arguments": [
        "0x15d34AAf54267DB7D7c367839AAf71A00a2C6A65",
        "891266",
        "2"
      ],
      "transaction": {
        "from": "0x4100a9B680B1Be1F10Cb8b5a57fE59eA77A8184e",
        "to": "0xD8152aaA8a2dFAFb356238B14124a9A17D2E1D24",
        "gas": "0x2eafc",
        "value": "0x0",
        "input": "0x50ed283800000000000000000000000015d34aaf54267db7d7c367839aaf71a00a2c6a6500000000000000000000000000000000000000000000000000000000000d99820000000000000000000000000000000000000000000000000000000000000002",
        "nonce": "0x641",
        "chainId": "0x28c61"
      },
      "additionalContracts": [],
      "isFixedGasLimit": false
    },
    {
      "hash": "0xa57f65ffe2115984e6f9f6a6916f569d0c23ee888dd6125e0d5902ad03291e43",
      "transactionType": "CALL",
      "contractName": null,
      "contractAddress": "0x0969C6Fe0d7FF1873d5AbDBf14260C987bF73735",
      "function": "mint(address,uint256)",
      "arguments": [
        "0x9965507D1a55bcC2695C58ba16FB37d819B0A4dc",
        "891267"
      ],
      "transaction": {
        "from": "0x4100a9B680B1Be1F10Cb8b5a57fE59eA77A8184e",
        "to": "0x0969C6Fe0d7FF1873d5AbDBf14260C987bF73735",
        "gas": "0x1274d",
        "value": "0x0",
        "input": "0x40c10f190000000000000000000000009965507d1a55bcc2695c58ba16fb37d819b0a4dc00000000000000000000000000000000000000000000000000000000000d9983",
        "nonce": "0x642",
        "chainId": "0x28c61"
      },
      "additionalContracts": [],
      "isFixedGasLimit": false
    },
    {
      "hash": "0xbb0f89aff3505bdd9cf3516ec006115138f6d26f2201c6a8dd8bc20a37194410",
      "transactionType": "CALL",
      "contractName": null,
      "contractAddress": "0xD8152aaA8a2dFAFb356238B14124a9A17D2E1D24",
      "function": "registerPlayer(address,uint256,uint8)",
      "arguments": [
        "0x9965507D1a55bcC2695C58ba16FB37d819B0A4dc",
        "891267",
        "2"
      ],
      "transaction": {
        "from": "0x4100a9B680B1Be1F10Cb8b5a57fE59eA77A8184e",
        "to": "0xD8152aaA8a2dFAFb356238B14124a9A17D2E1D24",
        "gas": "0x2eafc",
        "value": "0x0",
        "input": "0x50ed28380000000000000000000000009965507d1a55bcc2695c58ba16fb37d819b0a4dc00000000000000000000000000000000000000000000000000000000000d99830000000000000000000000000000000000000000000000000000000000000002",
        "nonce": "0x643",
        "chainId": "0x28c61"
      },
      "additionalContracts": [],
      "isFixedGasLimit": false
    },
    {
      "hash": "0xe88d06c31ad4bbb4eebd03a4ae40a5f84f90136a83e1ecc0c4f30437dcca98c1",
      "transactionType": "CALL",
      "contractName": null,
      "contractAddress": "0x0969C6Fe0d7FF1873d5AbDBf14260C987bF73735",
      "function": "mint(address,uint256)",
      "arguments": [
        "0x976EA74026E726554dB657fA54763abd0C3a0aa9",
        "891268"
      ],
      "transaction": {
        "from": "0x4100a9B680B1Be1F10Cb8b5a57fE59eA77A8184e",
        "to": "0x0969C6Fe0d7FF1873d5AbDBf14260C987bF73735",
        "gas": "0x1274d",
        "value": "0x0",
        "input": "0x40c10f19000000000000000000000000976ea74026e726554db657fa54763abd0c3a0aa900000000000000000000000000000000000000000000000000000000000d9984",
        "nonce": "0x644",
        "chainId": "0x28c61"
      },
      "additionalContracts": [],
      "isFixedGasLimit": false
    },
    {
      "hash": "0x65527aebf7072666164686d4c516bb164ab5e7ec9371ca264a73d925d60e68e5",
      "transactionType": "CALL",
      "contractName": null,
      "contractAddress": "0xD8152aaA8a2dFAFb356238B14124a9A17D2E1D24",
      "function": "registerPlayer(address,uint256,uint8)",
      "arguments": [
        "0x976EA74026E726554dB657fA54763abd0C3a0aa9",
        "891268",
        "2"
      ],
      "transaction": {
        "from": "0x4100a9B680B1Be1F10Cb8b5a57fE59eA77A8184e",
        "to": "0xD8152aaA8a2dFAFb356238B14124a9A17D2E1D24",
        "gas": "0x2eafc",
        "value": "0x0",
        "input": "0x50ed2838000000000000000000000000976ea74026e726554db657fa54763abd0c3a0aa900000000000000000000000000000000000000000000000000000000000d99840000000000000000000000000000000000000000000000000000000000000002",
        "nonce": "0x645",
        "chainId": "0x28c61"
      },
      "additionalContracts": [],
      "isFixedGasLimit": false
    },
    {
      "hash": "0xaaa992ef25aab4e78eadf545ddc03ec9fab59705aa0a2bd382c4cb7f6788f7a6",
      "transactionType": "CALL",
      "contractName": null,
      "contractAddress": "0x0969C6Fe0d7FF1873d5AbDBf14260C987bF73735",
      "function": "mint(address,uint256)",
      "arguments": [
        "0x14dC79964da2C08b23698B3D3cc7Ca32193d9955",
        "891269"
      ],
      "transaction": {
        "from": "0x4100a9B680B1Be1F10Cb8b5a57fE59eA77A8184e",
        "to": "0x0969C6Fe0d7FF1873d5AbDBf14260C987bF73735",
        "gas": "0x1274d",
        "value": "0x0",
        "input": "0x40c10f1900000000000000000000000014dc79964da2c08b23698b3d3cc7ca32193d995500000000000000000000000000000000000000000000000000000000000d9985",
        "nonce": "0x646",
        "chainId": "0x28c61"
      },
      "additionalContracts": [],
      "isFixedGasLimit": false
    },
    {
      "hash": "0x464438d62b90d503036fb0d15a8c95d90102bce74ae51b092f56ec9cbd5156ae",
      "transactionType": "CALL",
      "contractName": null,
      "contractAddress": "0xD8152aaA8a2dFAFb356238B14124a9A17D2E1D24",
      "function": "registerPlayer(address,uint256,uint8)",
      "arguments": [
        "0x14dC79964da2C08b23698B3D3cc7Ca32193d9955",
        "891269",
        "2"
      ],
      "transaction": {
        "from": "0x4100a9B680B1Be1F10Cb8b5a57fE59eA77A8184e",
        "to": "0xD8152aaA8a2dFAFb356238B14124a9A17D2E1D24",
        "gas": "0x2eafc",
        "value": "0x0",
        "input": "0x50ed283800000000000000000000000014dc79964da2c08b23698b3d3cc7ca32193d995500000000000000000000000000000000000000000000000000000000000d99850000000000000000000000000000000000000000000000000000000000000002",
        "nonce": "0x647",
        "chainId": "0x28c61"
      },
      "additionalContracts": [],
      "isFixedGasLimit": false
    },
    {
      "hash": "0xd698f4552e175cbceda5b0c66aabe29609246a50b7d05dce98eebf167223dfb4",
      "transactionType": "CALL",
      "contractName": null,
      "contractAddress": "0x0969C6Fe0d7FF1873d5AbDBf14260C987bF73735",
      "function": "mint(address,uint256)",
      "arguments": [
        "0x23618e81E3f5cdF7f54C3d65f7FBc0aBf5B21E8f",
        "891270"
      ],
      "transaction": {
        "from": "0x4100a9B680B1Be1F10Cb8b5a57fE59eA77A8184e",
        "to": "0x0969C6Fe0d7FF1873d5AbDBf14260C987bF73735",
        "gas": "0x1274d",
        "value": "0x0",
        "input": "0x40c10f1900000000000000000000000023618e81e3f5cdf7f54c3d65f7fbc0abf5b21e8f00000000000000000000000000000000000000000000000000000000000d9986",
        "nonce": "0x648",
        "chainId": "0x28c61"
      },
      "additionalContracts": [],
      "isFixedGasLimit": false
    },
    {
      "hash": "0x904796d355de44657cbffcde62f3f9cab3eeb7fbdf3e65d16b1a4d8242bfe0bd",
      "transactionType": "CALL",
      "contractName": null,
      "contractAddress": "0xD8152aaA8a2dFAFb356238B14124a9A17D2E1D24",
      "function": "registerPlayer(address,uint256,uint8)",
      "arguments": [
        "0x23618e81E3f5cdF7f54C3d65f7FBc0aBf5B21E8f",
        "891270",
        "2"
      ],
      "transaction": {
        "from": "0x4100a9B680B1Be1F10Cb8b5a57fE59eA77A8184e",
        "to": "0xD8152aaA8a2dFAFb356238B14124a9A17D2E1D24",
        "gas": "0x2eafc",
        "value": "0x0",
        "input": "0x50ed283800000000000000000000000023618e81e3f5cdf7f54c3d65f7fbc0abf5b21e8f00000000000000000000000000000000000000000000000000000000000d99860000000000000000000000000000000000000000000000000000000000000002",
        "nonce": "0x649",
        "chainId": "0x28c61"
      },
      "additionalContracts": [],
      "isFixedGasLimit": false
    },
    {
      "hash": "0x0079bacb30df957b61276eaf28f01ce5f0f01880576a59a613b890021ee32279",
      "transactionType": "CALL",
      "contractName": null,
      "contractAddress": "0x0969C6Fe0d7FF1873d5AbDBf14260C987bF73735",
      "function": "mint(address,uint256)",
      "arguments": [
        "0xa0Ee7A142d267C1f36714E4a8F75612F20a79720",
        "891271"
      ],
      "transaction": {
        "from": "0x4100a9B680B1Be1F10Cb8b5a57fE59eA77A8184e",
        "to": "0x0969C6Fe0d7FF1873d5AbDBf14260C987bF73735",
        "gas": "0x1274d",
        "value": "0x0",
        "input": "0x40c10f19000000000000000000000000a0ee7a142d267c1f36714e4a8f75612f20a7972000000000000000000000000000000000000000000000000000000000000d9987",
        "nonce": "0x64a",
        "chainId": "0x28c61"
      },
      "additionalContracts": [],
      "isFixedGasLimit": false
    },
    {
      "hash": "0x241b10700ac63cf5aaa8a062f3d783cb93ffaa8e506bad930605fe3aa27cc2a9",
      "transactionType": "CALL",
      "contractName": null,
      "contractAddress": "0xD8152aaA8a2dFAFb356238B14124a9A17D2E1D24",
      "function": "registerPlayer(address,uint256,uint8)",
      "arguments": [
        "0xa0Ee7A142d267C1f36714E4a8F75612F20a79720",
        "891271",
        "2"
      ],
      "transaction": {
        "from": "0x4100a9B680B1Be1F10Cb8b5a57fE59eA77A8184e",
        "to": "0xD8152aaA8a2dFAFb356238B14124a9A17D2E1D24",
        "gas": "0x2eafc",
        "value": "0x0",
        "input": "0x50ed2838000000000000000000000000a0ee7a142d267c1f36714e4a8f75612f20a7972000000000000000000000000000000000000000000000000000000000000d99870000000000000000000000000000000000000000000000000000000000000002",
        "nonce": "0x64b",
        "chainId": "0x28c61"
      },
      "additionalContracts": [],
      "isFixedGasLimit": false
    }
  ],
  "receipts": [
    {
      "status": "0x1",
      "cumulativeGasUsed": "0x38191",
      "logs": [
        {
          "address": "0x0969C6Fe0d7FF1873d5AbDBf14260C987bF73735",
          "topics": [
            "0xddf252ad1be2c89b69c2b068fc378daa952ba7f163c4a11628f55a4df523b3ef",
            "0x0000000000000000000000000000000000000000000000000000000000000000",
            "0x00000000000000000000000070997970c51812dc3a010c7d01b50e0d17dc79c8",
            "0x00000000000000000000000000000000000000000000000000000000000d997f"
          ],
          "data": "0x",
          "blockHash": "0xe268f9497ea4c952817aa7ff328110aae40b279bd9b5af619a2d73ab83381868",
          "blockNumber": "0xd9978",
          "transactionHash": "0x89052ac9f75e69c88b848ccf61f075bd651a8e0d30f3439cf4f6bf4b5ad72758",
          "transactionIndex": "0x1",
          "logIndex": "0x3",
          "removed": false
        }
      ],
      "logsBloom": "0x00000000000000000002000000000000000000000000000000000000000000000000001000000000000000000000000000000000000000000000000000000040000000000000000000000008000000000000000000000000000000000000000000000800020000000000000000000800000000000000000000000010000000000000000000000000000000000000000000000000000000000000100000000000000000000000000000000000000000000000000000000200000000000000000000000002000000000000000000000000080000000000000200000000000020000000000000000000000000000000000001000000000000000000000000000000",
      "type": "0x2",
      "transactionHash": "0x89052ac9f75e69c88b848ccf61f075bd651a8e0d30f3439cf4f6bf4b5ad72758",
      "transactionIndex": "0x1",
      "blockHash": "0xe268f9497ea4c952817aa7ff328110aae40b279bd9b5af619a2d73ab83381868",
      "blockNumber": "0xd9978",
      "gasUsed": "0xc9eb",
      "effectiveGasPrice": "0x86ff52",
      "from": "0x4100a9B680B1Be1F10Cb8b5a57fE59eA77A8184e",
      "to": "0x0969C6Fe0d7FF1873d5AbDBf14260C987bF73735",
      "contractAddress": null
    },
    {
      "status": "0x1",
      "cumulativeGasUsed": "0x59e60",
      "logs": [
        {
          "address": "0xD8152aaA8a2dFAFb356238B14124a9A17D2E1D24",
          "topics": [
            "0x3ea3314dd8adca61ba5ccef601f00167a9a3c43358bad8b897df2519ee6d3a6c",
            "0xabc04fa21a23b7dce039094d22c8de311ffa5ea5d884d7c9740ac67403181b72",
            "0x00000000000000000000000070997970c51812dc3a010c7d01b50e0d17dc79c8"
          ],
          "data": "0x00000000000000000000000000000000000000000000000000000000000d997f00000000000000000000000000000000000000000000000000000000000000020000000000000000000000000000000000000000000000000000000067124424",
          "blockHash": "0xe268f9497ea4c952817aa7ff328110aae40b279bd9b5af619a2d73ab83381868",
          "blockNumber": "0xd9978",
          "transactionHash": "0x8578d7c1149dc1c8a805d6b25a16b1296bab9b4f7886c890761f44cd1449fb61",
          "transactionIndex": "0x2",
          "logIndex": "0x4",
          "removed": false
        }
      ],
      "logsBloom": "0x00000000000000000002000000000000000000000000000000000000001000000000000000000000000000000000000000000000000000000000000000000000000000000000000000000000000000000000800000000000000000000000000000000800000000000000000000000000000000000000000000200000000000000000000000000000000000000000000000000000000000000000000000000000000000000000000000000000000000001000000000000000000000000000000000000000000000000000020000800000000000000000000000000000000800000000000000000000000000000000004001000000008000000000000000000000",
      "type": "0x2",
      "transactionHash": "0x8578d7c1149dc1c8a805d6b25a16b1296bab9b4f7886c890761f44cd1449fb61",
      "transactionIndex": "0x2",
      "blockHash": "0xe268f9497ea4c952817aa7ff328110aae40b279bd9b5af619a2d73ab83381868",
      "blockNumber": "0xd9978",
      "gasUsed": "0x21ccf",
      "effectiveGasPrice": "0x86ff52",
      "from": "0x4100a9B680B1Be1F10Cb8b5a57fE59eA77A8184e",
      "to": "0xD8152aaA8a2dFAFb356238B14124a9A17D2E1D24",
      "contractAddress": null
    },
    {
      "status": "0x1",
      "cumulativeGasUsed": "0x6683f",
      "logs": [
        {
          "address": "0x0969C6Fe0d7FF1873d5AbDBf14260C987bF73735",
          "topics": [
            "0xddf252ad1be2c89b69c2b068fc378daa952ba7f163c4a11628f55a4df523b3ef",
            "0x0000000000000000000000000000000000000000000000000000000000000000",
            "0x0000000000000000000000003c44cdddb6a900fa2b585dd299e03d12fa4293bc",
            "0x00000000000000000000000000000000000000000000000000000000000d9980"
          ],
          "data": "0x",
          "blockHash": "0xe268f9497ea4c952817aa7ff328110aae40b279bd9b5af619a2d73ab83381868",
          "blockNumber": "0xd9978",
          "transactionHash": "0xb2421f7d0f5697928d99ac239b7672effbb6f20b82cc0613623f28c31d9257ff",
          "transactionIndex": "0x3",
          "logIndex": "0x5",
          "removed": false
        }
      ],
      "logsBloom": "0x00000000000000000000000000000000000000000000000000000000000000000000001000000000000000000000000000000000000000000000000000100000000000000000000000000008000000000000000000020000000000000000000000000000020000000020000000000800000800000000000000000010000000000000000001000000000000000000000000000000000000000000000000000000000000000000200000000000000000000000000000000200000000000000000000000002000000000000000000000000080000000000000000000000000020000000000000000000000000000000000000000000000000000000000000000000",
      "type": "0x2",
      "transactionHash": "0xb2421f7d0f5697928d99ac239b7672effbb6f20b82cc0613623f28c31d9257ff",
      "transactionIndex": "0x3",
      "blockHash": "0xe268f9497ea4c952817aa7ff328110aae40b279bd9b5af619a2d73ab83381868",
      "blockNumber": "0xd9978",
      "gasUsed": "0xc9df",
      "effectiveGasPrice": "0x86ff52",
      "from": "0x4100a9B680B1Be1F10Cb8b5a57fE59eA77A8184e",
      "to": "0x0969C6Fe0d7FF1873d5AbDBf14260C987bF73735",
      "contractAddress": null
    },
    {
      "status": "0x1",
      "cumulativeGasUsed": "0x88502",
      "logs": [
        {
          "address": "0xD8152aaA8a2dFAFb356238B14124a9A17D2E1D24",
          "topics": [
            "0x3ea3314dd8adca61ba5ccef601f00167a9a3c43358bad8b897df2519ee6d3a6c",
            "0x6ce5009827c24d17218f447e3489236b514c01395505debdfe2e057552b122ae",
            "0x0000000000000000000000003c44cdddb6a900fa2b585dd299e03d12fa4293bc"
          ],
          "data": "0x00000000000000000000000000000000000000000000000000000000000d998000000000000000000000000000000000000000000000000000000000000000020000000000000000000000000000000000000000000000000000000067124424",
          "blockHash": "0xe268f9497ea4c952817aa7ff328110aae40b279bd9b5af619a2d73ab83381868",
          "blockNumber": "0xd9978",
          "transactionHash": "0x0a41ee45d4d36cf3ce4a7a95421e640183237551696e75c123155a3595861b34",
          "transactionIndex": "0x4",
          "logIndex": "0x6",
          "removed": false
        }
      ],
      "logsBloom": "0x00000000000000000000000000000000000000000000000000000000001000000000000000000000000000000000000000000000000000000000000000100000000000000000000000000000000000000000800000000000000000000000000000000000000000000000020000000000000800000000000000200000000000000000000000000000000000000000000000000000000000000000000000000000000000000000200000000000000000001000000000000000000000004000000000000080000000000000020000000000000000000000000000000000000800000000000000000000000000000000000000000000000000000000000000000000",
      "type": "0x2",
      "transactionHash": "0x0a41ee45d4d36cf3ce4a7a95421e640183237551696e75c123155a3595861b34",
      "transactionIndex": "0x4",
      "blockHash": "0xe268f9497ea4c952817aa7ff328110aae40b279bd9b5af619a2d73ab83381868",
      "blockNumber": "0xd9978",
      "gasUsed": "0x21cc3",
      "effectiveGasPrice": "0x86ff52",
      "from": "0x4100a9B680B1Be1F10Cb8b5a57fE59eA77A8184e",
      "to": "0xD8152aaA8a2dFAFb356238B14124a9A17D2E1D24",
      "contractAddress": null
    },
    {
      "status": "0x1",
      "cumulativeGasUsed": "0x94eed",
      "logs": [
        {
          "address": "0x0969C6Fe0d7FF1873d5AbDBf14260C987bF73735",
          "topics": [
            "0xddf252ad1be2c89b69c2b068fc378daa952ba7f163c4a11628f55a4df523b3ef",
            "0x0000000000000000000000000000000000000000000000000000000000000000",
            "0x00000000000000000000000090f79bf6eb2c4f870365e785982e1f101e93b906",
            "0x00000000000000000000000000000000000000000000000000000000000d9981"
          ],
          "data": "0x",
          "blockHash": "0xe268f9497ea4c952817aa7ff328110aae40b279bd9b5af619a2d73ab83381868",
          "blockNumber": "0xd9978",
          "transactionHash": "0x517551dd7878f7eedfffcc01a1d414ce963a798cc4b8f404e39ddc455efbde2a",
          "transactionIndex": "0x5",
          "logIndex": "0x7",
          "removed": false
        }
      ],
      "logsBloom": "0x00000000000000000000000000000000000000000000000000000000000000000000001000000000000000000000000000000000000000000000000000000000002000000000000000000008000000000000000000000000000000000000000000000000020000000000000000000800000000000000000000000810000000000000000200000000000000000000000000000000000000000400000000000000000000000000000000000000000000000000000000000200000000000000000000000002000000000000000000000000480000000000000000000000000020000000000000000000000010000000000000000000000000000000000000000000",
      "type": "0x2",
      "transactionHash": "0x517551dd7878f7eedfffcc01a1d414ce963a798cc4b8f404e39ddc455efbde2a",
      "transactionIndex": "0x5",
      "blockHash": "0xe268f9497ea4c952817aa7ff328110aae40b279bd9b5af619a2d73ab83381868",
      "blockNumber": "0xd9978",
      "gasUsed": "0xc9eb",
      "effectiveGasPrice": "0x86ff52",
      "from": "0x4100a9B680B1Be1F10Cb8b5a57fE59eA77A8184e",
      "to": "0x0969C6Fe0d7FF1873d5AbDBf14260C987bF73735",
      "contractAddress": null
    },
    {
      "status": "0x1",
      "cumulativeGasUsed": "0xb6bbc",
      "logs": [
        {
          "address": "0xD8152aaA8a2dFAFb356238B14124a9A17D2E1D24",
          "topics": [
            "0x3ea3314dd8adca61ba5ccef601f00167a9a3c43358bad8b897df2519ee6d3a6c",
            "0xceeb1ee4dba2030b21479b674b1671cd684da463ababd72cadd546058dbe85ef",
            "0x00000000000000000000000090f79bf6eb2c4f870365e785982e1f101e93b906"
          ],
          "data": "0x00000000000000000000000000000000000000000000000000000000000d998100000000000000000000000000000000000000000000000000000000000000020000000000000000000000000000000000000000000000000000000067124424",
          "blockHash": "0xe268f9497ea4c952817aa7ff328110aae40b279bd9b5af619a2d73ab83381868",
          "blockNumber": "0xd9978",
          "transactionHash": "0x3a6d7c467a5cdd5df88246dadb50f41619f85f02d5bb923d73f7415331e7ff7f",
          "transactionIndex": "0x6",
          "logIndex": "0x8",
          "removed": false
        }
      ],
      "logsBloom": "0x00000000000000000000000000000000000000000000000000000000001000000000000000000000000000000000000000000000000000000000000000000000000000000000000000000000000000000000800000000020000000000000000000000000000000000000000000000000000000000000000000200000000000000000000000000000000000000200000000000000000000000400000000000000000000000000000000000000000000001000000000000000000000000000000000000000000000000100020000000000400000000000000000000000000800000000000000000000000010000000000000000000000000000000000000000000",
      "type": "0x2",
      "transactionHash": "0x3a6d7c467a5cdd5df88246dadb50f41619f85f02d5bb923d73f7415331e7ff7f",
      "transactionIndex": "0x6",
      "blockHash": "0xe268f9497ea4c952817aa7ff328110aae40b279bd9b5af619a2d73ab83381868",
      "blockNumber": "0xd9978",
      "gasUsed": "0x21ccf",
      "effectiveGasPrice": "0x86ff52",
      "from": "0x4100a9B680B1Be1F10Cb8b5a57fE59eA77A8184e",
      "to": "0xD8152aaA8a2dFAFb356238B14124a9A17D2E1D24",
      "contractAddress": null
    },
    {
      "status": "0x1",
      "cumulativeGasUsed": "0xc35a7",
      "logs": [
        {
          "address": "0x0969C6Fe0d7FF1873d5AbDBf14260C987bF73735",
          "topics": [
            "0xddf252ad1be2c89b69c2b068fc378daa952ba7f163c4a11628f55a4df523b3ef",
            "0x0000000000000000000000000000000000000000000000000000000000000000",
            "0x00000000000000000000000015d34aaf54267db7d7c367839aaf71a00a2c6a65",
            "0x00000000000000000000000000000000000000000000000000000000000d9982"
          ],
          "data": "0x",
          "blockHash": "0xe268f9497ea4c952817aa7ff328110aae40b279bd9b5af619a2d73ab83381868",
          "blockNumber": "0xd9978",
          "transactionHash": "0x4a9436cd7b842ceab0f26ce7f2053512ff9477c1f0baa918787c329ef5259bde",
          "transactionIndex": "0x7",
          "logIndex": "0x9",
          "removed": false
        }
      ],
      "logsBloom": "0x00000000040000000000000000000000000000000000000000000008000000000000001000000000000000000000000000000000000010000000000000000000000000000000000000000008000000000000000000000000000000000000000000000000020000000000000000000800000000000000000000000010000000000000000000000000000000000000000000000000000000000000000100000000000000000000000000000000000000000000000000000200000001000000000000000002000000000000000000000000080000000000000000000000000024000000000000000000000000000000000000000000000000000000000000000000",
      "type": "0x2",
      "transactionHash": "0x4a9436cd7b842ceab0f26ce7f2053512ff9477c1f0baa918787c329ef5259bde",
      "transactionIndex": "0x7",
      "blockHash": "0xe268f9497ea4c952817aa7ff328110aae40b279bd9b5af619a2d73ab83381868",
      "blockNumber": "0xd9978",
      "gasUsed": "0xc9eb",
      "effectiveGasPrice": "0x86ff52",
      "from": "0x4100a9B680B1Be1F10Cb8b5a57fE59eA77A8184e",
      "to": "0x0969C6Fe0d7FF1873d5AbDBf14260C987bF73735",
      "contractAddress": null
    },
    {
      "status": "0x1",
      "cumulativeGasUsed": "0xe5276",
      "logs": [
        {
          "address": "0xD8152aaA8a2dFAFb356238B14124a9A17D2E1D24",
          "topics": [
            "0x3ea3314dd8adca61ba5ccef601f00167a9a3c43358bad8b897df2519ee6d3a6c",
            "0x4133787e5f558d3789db6c030c973b67260dc3754f0b65167fbfd2a5a442c84b",
            "0x00000000000000000000000015d34aaf54267db7d7c367839aaf71a00a2c6a65"
          ],
          "data": "0x00000000000000000000000000000000000000000000000000000000000d998200000000000000000000000000000000000000000000000000000000000000020000000000000000000000000000000000000000000000000000000067124424",
          "blockHash": "0xe268f9497ea4c952817aa7ff328110aae40b279bd9b5af619a2d73ab83381868",
          "blockNumber": "0xd9978",
          "transactionHash": "0xfdf054c75216ed04fa0a13af05d47327b04b0f54614198b637701ecb4f024fae",
          "transactionIndex": "0x8",
          "logIndex": "0xa",
          "removed": false
        }
      ],
      "logsBloom": "0x00000000040000000000000000000000000000000000000000000000001000000000000000000000000000000000000000000000000000000000000080000000000000000000000000000000000000000000800000000000000000000000000000000000000000000000000000000000000000000000000000200000000000000000000000000000000000000000000000000000000000000000000100000000000000000000000000000000000000001000000000000000000000000000000000000000000000000000020000000000000000000000000000000000000804000000000000000000000000000800000000000000000010000000000000000000",
      "type": "0x2",
      "transactionHash": "0xfdf054c75216ed04fa0a13af05d47327b04b0f54614198b637701ecb4f024fae",
      "transactionIndex": "0x8",
      "blockHash": "0xe268f9497ea4c952817aa7ff328110aae40b279bd9b5af619a2d73ab83381868",
      "blockNumber": "0xd9978",
      "gasUsed": "0x21ccf",
      "effectiveGasPrice": "0x86ff52",
      "from": "0x4100a9B680B1Be1F10Cb8b5a57fE59eA77A8184e",
      "to": "0xD8152aaA8a2dFAFb356238B14124a9A17D2E1D24",
      "contractAddress": null
    },
    {
      "status": "0x1",
      "cumulativeGasUsed": "0xf1c61",
      "logs": [
        {
          "address": "0x0969C6Fe0d7FF1873d5AbDBf14260C987bF73735",
          "topics": [
            "0xddf252ad1be2c89b69c2b068fc378daa952ba7f163c4a11628f55a4df523b3ef",
            "0x0000000000000000000000000000000000000000000000000000000000000000",
            "0x0000000000000000000000009965507d1a55bcc2695c58ba16fb37d819b0a4dc",
            "0x00000000000000000000000000000000000000000000000000000000000d9983"
          ],
          "data": "0x",
          "blockHash": "0xe268f9497ea4c952817aa7ff328110aae40b279bd9b5af619a2d73ab83381868",
          "blockNumber": "0xd9978",
          "transactionHash": "0xa57f65ffe2115984e6f9f6a6916f569d0c23ee888dd6125e0d5902ad03291e43",
          "transactionIndex": "0x9",
          "logIndex": "0xb",
          "removed": false
        }
      ],
      "logsBloom": "0x00000004000000000000000000000000000000000000000000000000000000000000001000000000000000000000000000000000000001000000000000000000000000000000000000020008000000000000000000008000000000000000000000000000020000000000000000000800000000000000000000000010000000000000000000000000000000000000000000000000000000000000000000000000000000000000000000000000000000000000000000000200000000000000000000020002800000000000000000000000080000000000000000000000000020000000000000000000000000000000000000000000000000000000000000000000",
      "type": "0x2",
      "transactionHash": "0xa57f65ffe2115984e6f9f6a6916f569d0c23ee888dd6125e0d5902ad03291e43",
      "transactionIndex": "0x9",
      "blockHash": "0xe268f9497ea4c952817aa7ff328110aae40b279bd9b5af619a2d73ab83381868",
      "blockNumber": "0xd9978",
      "gasUsed": "0xc9eb",
      "effectiveGasPrice": "0x86ff52",
      "from": "0x4100a9B680B1Be1F10Cb8b5a57fE59eA77A8184e",
      "to": "0x0969C6Fe0d7FF1873d5AbDBf14260C987bF73735",
      "contractAddress": null
    },
    {
      "status": "0x1",
      "cumulativeGasUsed": "0x113930",
      "logs": [
        {
          "address": "0xD8152aaA8a2dFAFb356238B14124a9A17D2E1D24",
          "topics": [
            "0x3ea3314dd8adca61ba5ccef601f00167a9a3c43358bad8b897df2519ee6d3a6c",
            "0x1990e3be1f2520bd8a8e597498a3acae46c2a01c8281c0fbfef241702d876549",
            "0x0000000000000000000000009965507d1a55bcc2695c58ba16fb37d819b0a4dc"
          ],
          "data": "0x00000000000000000000000000000000000000000000000000000000000d998300000000000000000000000000000000000000000000000000000000000000020000000000000000000000000000000000000000000000000000000067124424",
          "blockHash": "0xe268f9497ea4c952817aa7ff328110aae40b279bd9b5af619a2d73ab83381868",
          "blockNumber": "0xd9978",
          "transactionHash": "0xbb0f89aff3505bdd9cf3516ec006115138f6d26f2201c6a8dd8bc20a37194410",
          "transactionIndex": "0xa",
          "logIndex": "0xc",
          "removed": false
        }
      ],
      "logsBloom": "0x00000004000000000000000000000000000000000000000000000000001000000000000000000000000000000000000000000000000000000000000000000000000000000000000000000000000000000000800000008000000000000000000000000000000000000000000000000000000000000000000000200000000000000000000000000800000000000000000000000000000000020000000800000000000000000000000000000000000000001000000000000000000000000000000000000000800000000000020000000000000000000000000000000000000800000000000000000000000000000000000000000000000000000000000000000000",
      "type": "0x2",
      "transactionHash": "0xbb0f89aff3505bdd9cf3516ec006115138f6d26f2201c6a8dd8bc20a37194410",
      "transactionIndex": "0xa",
      "blockHash": "0xe268f9497ea4c952817aa7ff328110aae40b279bd9b5af619a2d73ab83381868",
      "blockNumber": "0xd9978",
      "gasUsed": "0x21ccf",
      "effectiveGasPrice": "0x86ff52",
      "from": "0x4100a9B680B1Be1F10Cb8b5a57fE59eA77A8184e",
      "to": "0xD8152aaA8a2dFAFb356238B14124a9A17D2E1D24",
      "contractAddress": null
    },
    {
      "status": "0x1",
      "cumulativeGasUsed": "0x12031b",
      "logs": [
        {
          "address": "0x0969C6Fe0d7FF1873d5AbDBf14260C987bF73735",
          "topics": [
            "0xddf252ad1be2c89b69c2b068fc378daa952ba7f163c4a11628f55a4df523b3ef",
            "0x0000000000000000000000000000000000000000000000000000000000000000",
            "0x000000000000000000000000976ea74026e726554db657fa54763abd0c3a0aa9",
            "0x00000000000000000000000000000000000000000000000000000000000d9984"
          ],
          "data": "0x",
          "blockHash": "0xe268f9497ea4c952817aa7ff328110aae40b279bd9b5af619a2d73ab83381868",
          "blockNumber": "0xd9978",
          "transactionHash": "0xe88d06c31ad4bbb4eebd03a4ae40a5f84f90136a83e1ecc0c4f30437dcca98c1",
          "transactionIndex": "0xb",
          "logIndex": "0xd",
          "removed": false
        }
      ],
      "logsBloom": "0x00000000000800000000000000000000000000040200000000000000000000000000001000000000000000000000000000000000000000000000000000000000000000000000000000000008000000000000000000000000080000000000000100000000020000000000000000000800000000000000000000000010000000000000000000000000000000000000000000000000000000000000000000000000000000000000000000000000000000000000000000000200000000000000000000000002000000000000000000000000080000000000000000000000000020000000000080000000000000000000000000000000000000000000000000000000",
      "type": "0x2",
      "transactionHash": "0xe88d06c31ad4bbb4eebd03a4ae40a5f84f90136a83e1ecc0c4f30437dcca98c1",
      "transactionIndex": "0xb",
      "blockHash": "0xe268f9497ea4c952817aa7ff328110aae40b279bd9b5af619a2d73ab83381868",
      "blockNumber": "0xd9978",
      "gasUsed": "0xc9eb",
      "effectiveGasPrice": "0x86ff52",
      "from": "0x4100a9B680B1Be1F10Cb8b5a57fE59eA77A8184e",
      "to": "0x0969C6Fe0d7FF1873d5AbDBf14260C987bF73735",
      "contractAddress": null
    },
    {
      "status": "0x1",
      "cumulativeGasUsed": "0x141fea",
      "logs": [
        {
          "address": "0xD8152aaA8a2dFAFb356238B14124a9A17D2E1D24",
          "topics": [
            "0x3ea3314dd8adca61ba5ccef601f00167a9a3c43358bad8b897df2519ee6d3a6c",
            "0xed415ff4eb643a99f4bdcce89d0644719087df49c137fe3d0043feb2cf2c9338",
            "0x000000000000000000000000976ea74026e726554db657fa54763abd0c3a0aa9"
          ],
          "data": "0x00000000000000000000000000000000000000000000000000000000000d998400000000000000000000000000000000000000000000000000000000000000020000000000000000000000000000000000000000000000000000000067124424",
          "blockHash": "0xe268f9497ea4c952817aa7ff328110aae40b279bd9b5af619a2d73ab83381868",
          "blockNumber": "0xd9978",
          "transactionHash": "0x65527aebf7072666164686d4c516bb164ab5e7ec9371ca264a73d925d60e68e5",
          "transactionIndex": "0xc",
          "logIndex": "0xe",
          "removed": false
        }
      ],
      "logsBloom": "0x00000000000000000000000000000000000000040200000000000000001000000000000000000000000000200000000000000000000000000000000000000000000000000000000000000000000000000000800000000000080000000000000000000000000000000000000000000000000000000000000000200000000000000000000000000000000000000000000000000000000000000000000000000000000000000000000000000000000000001000000000000000000000000000000000000000000000000000020000000000000000000000000000000000000800000000000000020000000000000000000000000000000000000000000000000000",
      "type": "0x2",
      "transactionHash": "0x65527aebf7072666164686d4c516bb164ab5e7ec9371ca264a73d925d60e68e5",
      "transactionIndex": "0xc",
      "blockHash": "0xe268f9497ea4c952817aa7ff328110aae40b279bd9b5af619a2d73ab83381868",
      "blockNumber": "0xd9978",
      "gasUsed": "0x21ccf",
      "effectiveGasPrice": "0x86ff52",
      "from": "0x4100a9B680B1Be1F10Cb8b5a57fE59eA77A8184e",
      "to": "0xD8152aaA8a2dFAFb356238B14124a9A17D2E1D24",
      "contractAddress": null
    },
    {
      "status": "0x1",
      "cumulativeGasUsed": "0x14e9d5",
      "logs": [
        {
          "address": "0x0969C6Fe0d7FF1873d5AbDBf14260C987bF73735",
          "topics": [
            "0xddf252ad1be2c89b69c2b068fc378daa952ba7f163c4a11628f55a4df523b3ef",
            "0x0000000000000000000000000000000000000000000000000000000000000000",
            "0x00000000000000000000000014dc79964da2c08b23698b3d3cc7ca32193d9955",
            "0x00000000000000000000000000000000000000000000000000000000000d9985"
          ],
          "data": "0x",
          "blockHash": "0xe268f9497ea4c952817aa7ff328110aae40b279bd9b5af619a2d73ab83381868",
          "blockNumber": "0xd9978",
          "transactionHash": "0xaaa992ef25aab4e78eadf545ddc03ec9fab59705aa0a2bd382c4cb7f6788f7a6",
          "transactionIndex": "0xd",
          "logIndex": "0xf",
          "removed": false
        }
      ],
      "logsBloom": "0x000000000000000000000000000000000000000000000000000000000000000000000010000000000000000000000000000000000000000000000000000000000000000000000000000000080000000000000000000004000000000000000000000000000200000000000000000008000000000000000000000000100000000000000000020000000000000000000000000000000000000000000000000000000000000000000000000000000000000020000000000002000000000000000000004000020000000000000000000000000c0000000000000000000000000020000000000000000000000000000000000000000000000000000000000040000000",
      "type": "0x2",
      "transactionHash": "0xaaa992ef25aab4e78eadf545ddc03ec9fab59705aa0a2bd382c4cb7f6788f7a6",
      "transactionIndex": "0xd",
      "blockHash": "0xe268f9497ea4c952817aa7ff328110aae40b279bd9b5af619a2d73ab83381868",
      "blockNumber": "0xd9978",
      "gasUsed": "0xc9eb",
      "effectiveGasPrice": "0x86ff52",
      "from": "0x4100a9B680B1Be1F10Cb8b5a57fE59eA77A8184e",
      "to": "0x0969C6Fe0d7FF1873d5AbDBf14260C987bF73735",
      "contractAddress": null
    },
    {
      "status": "0x1",
      "cumulativeGasUsed": "0x1706a4",
      "logs": [
        {
          "address": "0xD8152aaA8a2dFAFb356238B14124a9A17D2E1D24",
          "topics": [
            "0x3ea3314dd8adca61ba5ccef601f00167a9a3c43358bad8b897df2519ee6d3a6c",
            "0x3f7b1b56207a12320334ed44d4e308ac344530cd15ebd5d3d5489e39c3a2e315",
            "0x00000000000000000000000014dc79964da2c08b23698b3d3cc7ca32193d9955"
          ],
          "data": "0x00000000000000000000000000000000000000000000000000000000000d998500000000000000000000000000000000000000000000000000000000000000020000000000000000000000000000000000000000000000000000000067124424",
          "blockHash": "0xe268f9497ea4c952817aa7ff328110aae40b279bd9b5af619a2d73ab83381868",
          "blockNumber": "0xd9978",
          "transactionHash": "0x464438d62b90d503036fb0d15a8c95d90102bce74ae51b092f56ec9cbd5156ae",
          "transactionIndex": "0xe",
          "logIndex": "0x10",
          "removed": false
        }
      ],
      "logsBloom": "0x00000000000000000000000000000000000000000000000000000000001000000000000000000000000000000000000000000000000000000000000000000004000000000000000000000000000000000000800000000400000000000000000000000000000000008000000000000000000000000000000000200000000000000000000000000000000000000000000000000000000000000000000000000000000000000000000000000000000000003000000000000000000000000000000000000000000000000000020000000000040000000020000000000000000800000000000000000000000000000000000000000000000000000000000000000000",
      "type": "0x2",
      "transactionHash": "0x464438d62b90d503036fb0d15a8c95d90102bce74ae51b092f56ec9cbd5156ae",
      "transactionIndex": "0xe",
      "blockHash": "0xe268f9497ea4c952817aa7ff328110aae40b279bd9b5af619a2d73ab83381868",
      "blockNumber": "0xd9978",
      "gasUsed": "0x21ccf",
      "effectiveGasPrice": "0x86ff52",
      "from": "0x4100a9B680B1Be1F10Cb8b5a57fE59eA77A8184e",
      "to": "0xD8152aaA8a2dFAFb356238B14124a9A17D2E1D24",
      "contractAddress": null
    },
    {
      "status": "0x1",
      "cumulativeGasUsed": "0x17d08f",
      "logs": [
        {
          "address": "0x0969C6Fe0d7FF1873d5AbDBf14260C987bF73735",
          "topics": [
            "0xddf252ad1be2c89b69c2b068fc378daa952ba7f163c4a11628f55a4df523b3ef",
            "0x0000000000000000000000000000000000000000000000000000000000000000",
            "0x00000000000000000000000023618e81e3f5cdf7f54c3d65f7fbc0abf5b21e8f",
            "0x00000000000000000000000000000000000000000000000000000000000d9986"
          ],
          "data": "0x",
          "blockHash": "0xe268f9497ea4c952817aa7ff328110aae40b279bd9b5af619a2d73ab83381868",
          "blockNumber": "0xd9978",
          "transactionHash": "0xd698f4552e175cbceda5b0c66aabe29609246a50b7d05dce98eebf167223dfb4",
          "transactionIndex": "0xf",
          "logIndex": "0x11",
          "removed": false
        }
      ],
      "logsBloom": "0x00800000000000000000000000000000000000000000000000000001000000000000001000000000000000000000000000000000000000000000004000000000000000000000000000000008000000000000000000000000000000000000000000000000020000000000000000000800000000000000000000000010000000000000000000000000000000020000000000000800000000000000000000000000000000000000000000000000000000000000000000000200000000000000000000000002000000000000000000000000080000000000000000000000000020000000000000000000000000000000000000000000000000000000008000000000",
      "type": "0x2",
      "transactionHash": "0xd698f4552e175cbceda5b0c66aabe29609246a50b7d05dce98eebf167223dfb4",
      "transactionIndex": "0xf",
      "blockHash": "0xe268f9497ea4c952817aa7ff328110aae40b279bd9b5af619a2d73ab83381868",
      "blockNumber": "0xd9978",
      "gasUsed": "0xc9eb",
      "effectiveGasPrice": "0x86ff52",
      "from": "0x4100a9B680B1Be1F10Cb8b5a57fE59eA77A8184e",
      "to": "0x0969C6Fe0d7FF1873d5AbDBf14260C987bF73735",
      "contractAddress": null
    },
    {
      "status": "0x1",
      "cumulativeGasUsed": "0x19ed5e",
      "logs": [
        {
          "address": "0xD8152aaA8a2dFAFb356238B14124a9A17D2E1D24",
          "topics": [
            "0x3ea3314dd8adca61ba5ccef601f00167a9a3c43358bad8b897df2519ee6d3a6c",
            "0xcc771cc3cd1435d0e92f45e50446948ce5c9e1512c80d24058e2a1e105187ad3",
            "0x00000000000000000000000023618e81e3f5cdf7f54c3d65f7fbc0abf5b21e8f"
          ],
          "data": "0x00000000000000000000000000000000000000000000000000000000000d998600000000000000000000000000000000000000000000000000000000000000020000000000000000000000000000000000000000000000000000000067124424",
          "blockHash": "0xe268f9497ea4c952817aa7ff328110aae40b279bd9b5af619a2d73ab83381868",
          "blockNumber": "0xd9978",
          "transactionHash": "0x904796d355de44657cbffcde62f3f9cab3eeb7fbdf3e65d16b1a4d8242bfe0bd",
          "transactionIndex": "0x10",
          "logIndex": "0x12",
          "removed": false
        }
      ],
      "logsBloom": "0x00800000000000000000000000000000000000000000000000000000001000000000000000000000000000000000000000000000000000000000000000000000000000000000000000000000000000000000800000000001000000000000000000000000000000000000000000000000000000000000000000200000000000000000000000000000000000020000000000000000000000000000000000000000000000000000000000000000000000001000000000000000000000000000000000000000000000000000020000000000000000000000000000000000000800000000000000000000080080000000000000000000000000000000008000000000",
      "type": "0x2",
      "transactionHash": "0x904796d355de44657cbffcde62f3f9cab3eeb7fbdf3e65d16b1a4d8242bfe0bd",
      "transactionIndex": "0x10",
      "blockHash": "0xe268f9497ea4c952817aa7ff328110aae40b279bd9b5af619a2d73ab83381868",
      "blockNumber": "0xd9978",
      "gasUsed": "0x21ccf",
      "effectiveGasPrice": "0x86ff52",
      "from": "0x4100a9B680B1Be1F10Cb8b5a57fE59eA77A8184e",
      "to": "0xD8152aaA8a2dFAFb356238B14124a9A17D2E1D24",
      "contractAddress": null
    },
    {
      "status": "0x1",
      "cumulativeGasUsed": "0x1ab749",
      "logs": [
        {
          "address": "0x0969C6Fe0d7FF1873d5AbDBf14260C987bF73735",
          "topics": [
            "0xddf252ad1be2c89b69c2b068fc378daa952ba7f163c4a11628f55a4df523b3ef",
            "0x0000000000000000000000000000000000000000000000000000000000000000",
            "0x000000000000000000000000a0ee7a142d267c1f36714e4a8f75612f20a79720",
            "0x00000000000000000000000000000000000000000000000000000000000d9987"
          ],
          "data": "0x",
          "blockHash": "0xe268f9497ea4c952817aa7ff328110aae40b279bd9b5af619a2d73ab83381868",
          "blockNumber": "0xd9978",
          "transactionHash": "0x0079bacb30df957b61276eaf28f01ce5f0f01880576a59a613b890021ee32279",
          "transactionIndex": "0x11",
          "logIndex": "0x13",
          "removed": false
        }
      ],
      "logsBloom": "0x00000000000000080000040000000000000000000000000000000000000000000000001000000000000000000000000000000000000000000000000000000000000000000000000000000008000000000000000000000000000008000004000000000000020000000000000000000800000000000000000000000010000000000000000000000000000000000000000000000000000000000000000000000000000000000000000000000000000000000000000000000200000000000000000000000002001000000000000000000000080000000000000000004000000020000000000000000000000000000000000000000000000000000000000000000000",
      "type": "0x2",
      "transactionHash": "0x0079bacb30df957b61276eaf28f01ce5f0f01880576a59a613b890021ee32279",
      "transactionIndex": "0x11",
      "blockHash": "0xe268f9497ea4c952817aa7ff328110aae40b279bd9b5af619a2d73ab83381868",
      "blockNumber": "0xd9978",
      "gasUsed": "0xc9eb",
      "effectiveGasPrice": "0x86ff52",
      "from": "0x4100a9B680B1Be1F10Cb8b5a57fE59eA77A8184e",
      "to": "0x0969C6Fe0d7FF1873d5AbDBf14260C987bF73735",
      "contractAddress": null
    },
    {
      "status": "0x1",
      "cumulativeGasUsed": "0x1cd418",
      "logs": [
        {
          "address": "0xD8152aaA8a2dFAFb356238B14124a9A17D2E1D24",
          "topics": [
            "0x3ea3314dd8adca61ba5ccef601f00167a9a3c43358bad8b897df2519ee6d3a6c",
            "0x9b41082f200cf78f1e1ca14a48c83c0c8b5460701edf71fb7f49942b1c792e4e",
            "0x000000000000000000000000a0ee7a142d267c1f36714e4a8f75612f20a79720"
          ],
          "data": "0x00000000000000000000000000000000000000000000000000000000000d998700000000000000000000000000000000000000000000000000000000000000020000000000000000000000000000000000000000000000000000000067124424",
          "blockHash": "0xe268f9497ea4c952817aa7ff328110aae40b279bd9b5af619a2d73ab83381868",
          "blockNumber": "0xd9978",
          "transactionHash": "0x241b10700ac63cf5aaa8a062f3d783cb93ffaa8e506bad930605fe3aa27cc2a9",
          "transactionIndex": "0x12",
          "logIndex": "0x14",
          "removed": false
        }
      ],
      "logsBloom": "0x00000000000000000000040000000000000000000000000000000000001000010000000000000000000000000000000040000000000000000000000000000000000000000000000000000000000000000000800000000000000008000000000000000000000000000000000000000000000000000000000000200000000000000000000000000000000000000000000000000000000000000000000000000000000000000000000000000000000000001000000000000000000000000000000000000000000000000000020000000000000000000000000000004000000800000000000000000000000400000000000000000000000000000000000000000000",
      "type": "0x2",
      "transactionHash": "0x241b10700ac63cf5aaa8a062f3d783cb93ffaa8e506bad930605fe3aa27cc2a9",
      "transactionIndex": "0x12",
      "blockHash": "0xe268f9497ea4c952817aa7ff328110aae40b279bd9b5af619a2d73ab83381868",
      "blockNumber": "0xd9978",
      "gasUsed": "0x21ccf",
      "effectiveGasPrice": "0x86ff52",
      "from": "0x4100a9B680B1Be1F10Cb8b5a57fE59eA77A8184e",
      "to": "0xD8152aaA8a2dFAFb356238B14124a9A17D2E1D24",
      "contractAddress": null
    }
  ],
  "libraries": [],
  "pending": [],
  "returns": {},
  "timestamp": 1729250348,
  "chain": 167009,
  "commit": "ffaac9d"
}