{
  "transactions": [
    {
      "hash": "0x365557153a11b7336f87db132caef1b3774e84e5587b8f6d3b550f51122b74c7",
      "transactionType": "CALL",
      "contractName": null,
      "contractAddress": "0x5a50e6E1092b63227548D6EC648f2ccb604a87B0",
      "function": "mint(address,uint256)",
      "arguments": [
        "0x70997970C51812dc3A010C7d01b50e0d17dc79C8",
        "891295"
      ],
      "transaction": {
        "from": "0x4100a9B680B1Be1F10Cb8b5a57fE59eA77A8184e",
        "to": "0x5a50e6E1092b63227548D6EC648f2ccb604a87B0",
        "gas": "0x17329",
        "value": "0x0",
        "input": "0x40c10f1900000000000000000000000070997970c51812dc3a010c7d01b50e0d17dc79c800000000000000000000000000000000000000000000000000000000000d999f",
        "nonce": "0x677",
        "chainId": "0x28c61"
      },
      "additionalContracts": [],
      "isFixedGasLimit": false
    },
    {
      "hash": "0xb0f45042e46d42b445852306ed77b0fe897b28d2628bb5093112f7a373ff277b",
      "transactionType": "CALL",
      "contractName": null,
      "contractAddress": "0xdE17cb08ae4Aa50bd5E8D34eD9c53d93ec36C7b4",
      "function": "registerPlayer(address,uint256,uint8)",
      "arguments": [
        "0x70997970C51812dc3A010C7d01b50e0d17dc79C8",
        "891295",
        "0"
      ],
      "transaction": {
        "from": "0x4100a9B680B1Be1F10Cb8b5a57fE59eA77A8184e",
        "to": "0xdE17cb08ae4Aa50bd5E8D34eD9c53d93ec36C7b4",
        "gas": "0x27f8d",
        "value": "0x0",
        "input": "0x50ed283800000000000000000000000070997970c51812dc3a010c7d01b50e0d17dc79c800000000000000000000000000000000000000000000000000000000000d999f0000000000000000000000000000000000000000000000000000000000000000",
        "nonce": "0x678",
        "chainId": "0x28c61"
      },
      "additionalContracts": [],
      "isFixedGasLimit": false
    },
    {
      "hash": "0xb33754f7450fa5156c2e9dab1a73b93ad20f0dceb4179e6276e46480340bf281",
      "transactionType": "CALL",
      "contractName": null,
      "contractAddress": "0x5a50e6E1092b63227548D6EC648f2ccb604a87B0",
      "function": "mint(address,uint256)",
      "arguments": [
        "0x3C44CdDdB6a900fa2b585dd299e03d12FA4293BC",
        "891296"
      ],
      "transaction": {
        "from": "0x4100a9B680B1Be1F10Cb8b5a57fE59eA77A8184e",
        "to": "0x5a50e6E1092b63227548D6EC648f2ccb604a87B0",
        "gas": "0x188ec",
        "value": "0x0",
        "input": "0x40c10f190000000000000000000000003c44cdddb6a900fa2b585dd299e03d12fa4293bc00000000000000000000000000000000000000000000000000000000000d99a0",
        "nonce": "0x679",
        "chainId": "0x28c61"
      },
      "additionalContracts": [],
      "isFixedGasLimit": false
    },
    {
      "hash": "0xdcf78e62d697b97377dfa77a80421498623d44d77bf7366bb83eac7cffd18782",
      "transactionType": "CALL",
      "contractName": null,
      "contractAddress": "0xdE17cb08ae4Aa50bd5E8D34eD9c53d93ec36C7b4",
      "function": "registerPlayer(address,uint256,uint8)",
      "arguments": [
        "0x3C44CdDdB6a900fa2b585dd299e03d12FA4293BC",
        "891296",
        "2"
      ],
      "transaction": {
        "from": "0x4100a9B680B1Be1F10Cb8b5a57fE59eA77A8184e",
        "to": "0xdE17cb08ae4Aa50bd5E8D34eD9c53d93ec36C7b4",
        "gas": "0x316dc",
        "value": "0x0",
        "input": "0x50ed28380000000000000000000000003c44cdddb6a900fa2b585dd299e03d12fa4293bc00000000000000000000000000000000000000000000000000000000000d99a00000000000000000000000000000000000000000000000000000000000000002",
        "nonce": "0x67a",
        "chainId": "0x28c61"
      },
      "additionalContracts": [],
      "isFixedGasLimit": false
    },
    {
      "hash": "0xfbcdf9505f37664298703dfd2cf39fc7763b79b2357ed3308a02c53d85c84202",
      "transactionType": "CALL",
      "contractName": null,
      "contractAddress": "0x5a50e6E1092b63227548D6EC648f2ccb604a87B0",
      "function": "mint(address,uint256)",
      "arguments": [
        "0x90F79bf6EB2c4f870365E785982E1f101E93b906",
        "891297"
      ],
      "transaction": {
        "from": "0x4100a9B680B1Be1F10Cb8b5a57fE59eA77A8184e",
        "to": "0x5a50e6E1092b63227548D6EC648f2ccb604a87B0",
        "gas": "0x17329",
        "value": "0x0",
        "input": "0x40c10f1900000000000000000000000090f79bf6eb2c4f870365e785982e1f101e93b90600000000000000000000000000000000000000000000000000000000000d99a1",
        "nonce": "0x67b",
        "chainId": "0x28c61"
      },
      "additionalContracts": [],
      "isFixedGasLimit": false
    },
    {
      "hash": "0x35b82883e7319af9a4918a61fb488963703d15d02b9e44ffcca196fa81097f60",
      "transactionType": "CALL",
      "contractName": null,
      "contractAddress": "0xdE17cb08ae4Aa50bd5E8D34eD9c53d93ec36C7b4",
      "function": "registerPlayer(address,uint256,uint8)",
      "arguments": [
        "0x90F79bf6EB2c4f870365E785982E1f101E93b906",
        "891297",
        "0"
      ],
      "transaction": {
        "from": "0x4100a9B680B1Be1F10Cb8b5a57fE59eA77A8184e",
        "to": "0xdE17cb08ae4Aa50bd5E8D34eD9c53d93ec36C7b4",
        "gas": "0x27f8d",
        "value": "0x0",
        "input": "0x50ed283800000000000000000000000090f79bf6eb2c4f870365e785982e1f101e93b90600000000000000000000000000000000000000000000000000000000000d99a10000000000000000000000000000000000000000000000000000000000000000",
        "nonce": "0x67c",
        "chainId": "0x28c61"
      },
      "additionalContracts": [],
      "isFixedGasLimit": false
    },
    {
      "hash": "0xf743014ef7d09f309a40eb9c6d9c5d600e95552f10de4573384812a831088da9",
      "transactionType": "CALL",
      "contractName": null,
      "contractAddress": "0x5a50e6E1092b63227548D6EC648f2ccb604a87B0",
      "function": "mint(address,uint256)",
      "arguments": [
        "0x15d34AAf54267DB7D7c367839AAf71A00a2C6A65",
        "891298"
      ],
      "transaction": {
        "from": "0x4100a9B680B1Be1F10Cb8b5a57fE59eA77A8184e",
        "to": "0x5a50e6E1092b63227548D6EC648f2ccb604a87B0",
        "gas": "0x17329",
        "value": "0x0",
        "input": "0x40c10f1900000000000000000000000015d34aaf54267db7d7c367839aaf71a00a2c6a6500000000000000000000000000000000000000000000000000000000000d99a2",
        "nonce": "0x67d",
        "chainId": "0x28c61"
      },
      "additionalContracts": [],
      "isFixedGasLimit": false
    },
    {
      "hash": "0x3012ace583b1d40ac3640bb4fff235a859db42b67bda581b6a73b76236e9c67c",
      "transactionType": "CALL",
      "contractName": null,
      "contractAddress": "0xdE17cb08ae4Aa50bd5E8D34eD9c53d93ec36C7b4",
      "function": "registerPlayer(address,uint256,uint8)",
      "arguments": [
        "0x15d34AAf54267DB7D7c367839AAf71A00a2C6A65",
        "891298",
        "1"
      ],
      "transaction": {
        "from": "0x4100a9B680B1Be1F10Cb8b5a57fE59eA77A8184e",
        "to": "0xdE17cb08ae4Aa50bd5E8D34eD9c53d93ec36C7b4",
        "gas": "0x2eafc",
        "value": "0x0",
        "input": "0x50ed283800000000000000000000000015d34aaf54267db7d7c367839aaf71a00a2c6a6500000000000000000000000000000000000000000000000000000000000d99a20000000000000000000000000000000000000000000000000000000000000001",
        "nonce": "0x67e",
        "chainId": "0x28c61"
      },
      "additionalContracts": [],
      "isFixedGasLimit": false
    },
    {
      "hash": "0xcafa08131386d6497221e540aa31007806597506444b4d1e2a0430ab25fa193f",
      "transactionType": "CALL",
      "contractName": null,
      "contractAddress": "0x5a50e6E1092b63227548D6EC648f2ccb604a87B0",
      "function": "mint(address,uint256)",
      "arguments": [
        "0x9965507D1a55bcC2695C58ba16FB37d819B0A4dc",
        "891299"
      ],
      "transaction": {
        "from": "0x4100a9B680B1Be1F10Cb8b5a57fE59eA77A8184e",
        "to": "0x5a50e6E1092b63227548D6EC648f2ccb604a87B0",
        "gas": "0x17329",
        "value": "0x0",
        "input": "0x40c10f190000000000000000000000009965507d1a55bcc2695c58ba16fb37d819b0a4dc00000000000000000000000000000000000000000000000000000000000d99a3",
        "nonce": "0x67f",
        "chainId": "0x28c61"
      },
      "additionalContracts": [],
      "isFixedGasLimit": false
    },
    {
      "hash": "0x28e3baa297ebcf875071543fa0d366315939779779c97993fc44a843ced6ee47",
      "transactionType": "CALL",
      "contractName": null,
      "contractAddress": "0xdE17cb08ae4Aa50bd5E8D34eD9c53d93ec36C7b4",
      "function": "registerPlayer(address,uint256,uint8)",
      "arguments": [
        "0x9965507D1a55bcC2695C58ba16FB37d819B0A4dc",
        "891299",
        "0"
      ],
      "transaction": {
        "from": "0x4100a9B680B1Be1F10Cb8b5a57fE59eA77A8184e",
        "to": "0xdE17cb08ae4Aa50bd5E8D34eD9c53d93ec36C7b4",
        "gas": "0x27f8d",
        "value": "0x0",
        "input": "0x50ed28380000000000000000000000009965507d1a55bcc2695c58ba16fb37d819b0a4dc00000000000000000000000000000000000000000000000000000000000d99a30000000000000000000000000000000000000000000000000000000000000000",
        "nonce": "0x680",
        "chainId": "0x28c61"
      },
      "additionalContracts": [],
      "isFixedGasLimit": false
    },
    {
      "hash": "0x3b4447325d3b3b345c52c6dd4bc44ff85b008d61a591a1134220e844e2f5ab64",
      "transactionType": "CALL",
      "contractName": null,
      "contractAddress": "0x5a50e6E1092b63227548D6EC648f2ccb604a87B0",
      "function": "mint(address,uint256)",
      "arguments": [
        "0x976EA74026E726554dB657fA54763abd0C3a0aa9",
        "891300"
      ],
      "transaction": {
        "from": "0x4100a9B680B1Be1F10Cb8b5a57fE59eA77A8184e",
        "to": "0x5a50e6E1092b63227548D6EC648f2ccb604a87B0",
        "gas": "0x17329",
        "value": "0x0",
        "input": "0x40c10f19000000000000000000000000976ea74026e726554db657fa54763abd0c3a0aa900000000000000000000000000000000000000000000000000000000000d99a4",
        "nonce": "0x681",
        "chainId": "0x28c61"
      },
      "additionalContracts": [],
      "isFixedGasLimit": false
    },
    {
      "hash": "0xbffea578569f4061699599a87c000fe60b21a578748fc20e3a9fa09ee3838713",
      "transactionType": "CALL",
      "contractName": null,
      "contractAddress": "0xdE17cb08ae4Aa50bd5E8D34eD9c53d93ec36C7b4",
      "function": "registerPlayer(address,uint256,uint8)",
      "arguments": [
        "0x976EA74026E726554dB657fA54763abd0C3a0aa9",
        "891300",
        "2"
      ],
      "transaction": {
        "from": "0x4100a9B680B1Be1F10Cb8b5a57fE59eA77A8184e",
        "to": "0xdE17cb08ae4Aa50bd5E8D34eD9c53d93ec36C7b4",
        "gas": "0x2eafc",
        "value": "0x0",
        "input": "0x50ed2838000000000000000000000000976ea74026e726554db657fa54763abd0c3a0aa900000000000000000000000000000000000000000000000000000000000d99a40000000000000000000000000000000000000000000000000000000000000002",
        "nonce": "0x682",
        "chainId": "0x28c61"
      },
      "additionalContracts": [],
      "isFixedGasLimit": false
    },
    {
      "hash": "0x11b79d6acead85a8c56e1880e536c6a9b031c91633a16e37e4573ec9d976051f",
      "transactionType": "CALL",
      "contractName": null,
      "contractAddress": "0x5a50e6E1092b63227548D6EC648f2ccb604a87B0",
      "function": "mint(address,uint256)",
      "arguments": [
        "0x14dC79964da2C08b23698B3D3cc7Ca32193d9955",
        "891301"
      ],
      "transaction": {
        "from": "0x4100a9B680B1Be1F10Cb8b5a57fE59eA77A8184e",
        "to": "0x5a50e6E1092b63227548D6EC648f2ccb604a87B0",
        "gas": "0x17329",
        "value": "0x0",
        "input": "0x40c10f1900000000000000000000000014dc79964da2c08b23698b3d3cc7ca32193d995500000000000000000000000000000000000000000000000000000000000d99a5",
        "nonce": "0x683",
        "chainId": "0x28c61"
      },
      "additionalContracts": [],
      "isFixedGasLimit": false
    },
    {
      "hash": "0x0220017d349c20277ea606e4d8458905ce005b59ae24c7b01b1e62ef7cf55fdf",
      "transactionType": "CALL",
      "contractName": null,
      "contractAddress": "0xdE17cb08ae4Aa50bd5E8D34eD9c53d93ec36C7b4",
      "function": "registerPlayer(address,uint256,uint8)",
      "arguments": [
        "0x14dC79964da2C08b23698B3D3cc7Ca32193d9955",
        "891301",
        "0"
      ],
      "transaction": {
        "from": "0x4100a9B680B1Be1F10Cb8b5a57fE59eA77A8184e",
        "to": "0xdE17cb08ae4Aa50bd5E8D34eD9c53d93ec36C7b4",
        "gas": "0x27f8d",
        "value": "0x0",
        "input": "0x50ed283800000000000000000000000014dc79964da2c08b23698b3d3cc7ca32193d995500000000000000000000000000000000000000000000000000000000000d99a50000000000000000000000000000000000000000000000000000000000000000",
        "nonce": "0x684",
        "chainId": "0x28c61"
      },
      "additionalContracts": [],
      "isFixedGasLimit": false
    },
    {
      "hash": "0xbb5d99c930709954b7dbd83001a68d550dc4ae49209444e8e778c0fca2693d6a",
      "transactionType": "CALL",
      "contractName": null,
      "contractAddress": "0x5a50e6E1092b63227548D6EC648f2ccb604a87B0",
      "function": "mint(address,uint256)",
      "arguments": [
        "0x23618e81E3f5cdF7f54C3d65f7FBc0aBf5B21E8f",
        "891302"
      ],
      "transaction": {
        "from": "0x4100a9B680B1Be1F10Cb8b5a57fE59eA77A8184e",
        "to": "0x5a50e6E1092b63227548D6EC648f2ccb604a87B0",
        "gas": "0x17329",
        "value": "0x0",
        "input": "0x40c10f1900000000000000000000000023618e81e3f5cdf7f54c3d65f7fbc0abf5b21e8f00000000000000000000000000000000000000000000000000000000000d99a6",
        "nonce": "0x685",
        "chainId": "0x28c61"
      },
      "additionalContracts": [],
      "isFixedGasLimit": false
    },
    {
      "hash": "0x6ea06590f2a291b9e456a4264c10d33a4013d14ab37b63ce0ef5a24d4a8508a6",
      "transactionType": "CALL",
      "contractName": null,
      "contractAddress": "0xdE17cb08ae4Aa50bd5E8D34eD9c53d93ec36C7b4",
      "function": "registerPlayer(address,uint256,uint8)",
      "arguments": [
        "0x23618e81E3f5cdF7f54C3d65f7FBc0aBf5B21E8f",
        "891302",
        "1"
      ],
      "transaction": {
        "from": "0x4100a9B680B1Be1F10Cb8b5a57fE59eA77A8184e",
        "to": "0xdE17cb08ae4Aa50bd5E8D34eD9c53d93ec36C7b4",
        "gas": "0x2eafc",
        "value": "0x0",
        "input": "0x50ed283800000000000000000000000023618e81e3f5cdf7f54c3d65f7fbc0abf5b21e8f00000000000000000000000000000000000000000000000000000000000d99a60000000000000000000000000000000000000000000000000000000000000001",
        "nonce": "0x686",
        "chainId": "0x28c61"
      },
      "additionalContracts": [],
      "isFixedGasLimit": false
    },
    {
      "hash": "0xb60509703a2cea6a4b3cd71ce794227550068cc85e2c97e3b23eba4214a35a80",
      "transactionType": "CALL",
      "contractName": null,
      "contractAddress": "0x5a50e6E1092b63227548D6EC648f2ccb604a87B0",
      "function": "mint(address,uint256)",
      "arguments": [
        "0xa0Ee7A142d267C1f36714E4a8F75612F20a79720",
        "891303"
      ],
      "transaction": {
        "from": "0x4100a9B680B1Be1F10Cb8b5a57fE59eA77A8184e",
        "to": "0x5a50e6E1092b63227548D6EC648f2ccb604a87B0",
        "gas": "0x17329",
        "value": "0x0",
        "input": "0x40c10f19000000000000000000000000a0ee7a142d267c1f36714e4a8f75612f20a7972000000000000000000000000000000000000000000000000000000000000d99a7",
        "nonce": "0x687",
        "chainId": "0x28c61"
      },
      "additionalContracts": [],
      "isFixedGasLimit": false
    },
    {
      "hash": "0xf6fe56a78ecc38ff7e0d05e47c084ff5e202bcda817ce0eed23ca0e50434eb66",
      "transactionType": "CALL",
      "contractName": null,
      "contractAddress": "0xdE17cb08ae4Aa50bd5E8D34eD9c53d93ec36C7b4",
      "function": "registerPlayer(address,uint256,uint8)",
      "arguments": [
        "0xa0Ee7A142d267C1f36714E4a8F75612F20a79720",
        "891303",
        "1"
      ],
      "transaction": {
        "from": "0x4100a9B680B1Be1F10Cb8b5a57fE59eA77A8184e",
        "to": "0xdE17cb08ae4Aa50bd5E8D34eD9c53d93ec36C7b4",
        "gas": "0x2eafc",
        "value": "0x0",
        "input": "0x50ed2838000000000000000000000000a0ee7a142d267c1f36714e4a8f75612f20a7972000000000000000000000000000000000000000000000000000000000000d99a70000000000000000000000000000000000000000000000000000000000000001",
        "nonce": "0x688",
        "chainId": "0x28c61"
      },
      "additionalContracts": [],
      "isFixedGasLimit": false
    }
  ],
  "receipts": [
    {
      "status": "0x1",
      "cumulativeGasUsed": "0x3c45d",
      "logs": [
        {
          "address": "0x5a50e6E1092b63227548D6EC648f2ccb604a87B0",
          "topics": [
            "0xddf252ad1be2c89b69c2b068fc378daa952ba7f163c4a11628f55a4df523b3ef",
            "0x0000000000000000000000000000000000000000000000000000000000000000",
            "0x00000000000000000000000070997970c51812dc3a010c7d01b50e0d17dc79c8",
            "0x00000000000000000000000000000000000000000000000000000000000d999f"
          ],
          "data": "0x",
          "blockHash": "0xa3d9840acd51deb3f05ee918ecfb60f806011cb404d67780854ac26284286135",
          "blockNumber": "0xd9998",
          "transactionHash": "0x365557153a11b7336f87db132caef1b3774e84e5587b8f6d3b550f51122b74c7",
          "transactionIndex": "0x1",
          "logIndex": "0x3",
          "removed": false
        }
      ],
      "logsBloom": "0x00000000000080000002000000000000000000000000001000000000000000000000000000000000000000000000000000000000010000000000000000000000000000000000000000000008000000000000000000000000000000000000000000000800020000000000000000000810000000000000000000000010000000000000000000000000000000000000000004000000000000000000000000000000002000000000000000000000000000000000000000000000000000000000000000000002000000000000000000000000000000000000000000000000000020000000000000000000000000000000000001000000000000000000000000000000",
      "type": "0x2",
      "transactionHash": "0x365557153a11b7336f87db132caef1b3774e84e5587b8f6d3b550f51122b74c7",
      "transactionIndex": "0x1",
      "blockHash": "0xa3d9840acd51deb3f05ee918ecfb60f806011cb404d67780854ac26284286135",
      "blockNumber": "0xd9998",
      "gasUsed": "0x10cb7",
      "effectiveGasPrice": "0x176fde87",
      "from": "0x4100a9B680B1Be1F10Cb8b5a57fE59eA77A8184e",
      "to": "0x5a50e6E1092b63227548D6EC648f2ccb604a87B0",
      "contractAddress": null
    },
    {
      "status": "0x1",
      "cumulativeGasUsed": "0x59364",
      "logs": [
        {
          "address": "0xdE17cb08ae4Aa50bd5E8D34eD9c53d93ec36C7b4",
          "topics": [
            "0x3ea3314dd8adca61ba5ccef601f00167a9a3c43358bad8b897df2519ee6d3a6c",
            "0x6a3968c3a0aa541466e26ced6beaf9a980edb3b9a25c1f63dfb48fa264cec4e5",
            "0x00000000000000000000000070997970c51812dc3a010c7d01b50e0d17dc79c8"
          ],
          "data": "0x00000000000000000000000000000000000000000000000000000000000d999f00000000000000000000000000000000000000000000000000000000000000000000000000000000000000000000000000000000000000000000000067124814",
          "blockHash": "0xa3d9840acd51deb3f05ee918ecfb60f806011cb404d67780854ac26284286135",
          "blockNumber": "0xd9998",
          "transactionHash": "0xb0f45042e46d42b445852306ed77b0fe897b28d2628bb5093112f7a373ff277b",
          "transactionIndex": "0x2",
          "logIndex": "0x4",
          "removed": false
        }
      ],
      "logsBloom": "0x00000000000000000002000000000000000000000000000000000000000000000000000000000000000000000000000000004000000000000000000080000000000000000000000000000000000000000000800000000000000000000000000000000800000000000000000000000000000000000000000000000000000000000000000000000000000000000000000000000000000000000000000000000002000000000000000000000000000000000000000000000000000000000000000000000000200000000000020000000000000000000000000020000000000800000000000000000000000000000000000001000000000000000000000000000200",
      "type": "0x2",
      "transactionHash": "0xb0f45042e46d42b445852306ed77b0fe897b28d2628bb5093112f7a373ff277b",
      "transactionIndex": "0x2",
      "blockHash": "0xa3d9840acd51deb3f05ee918ecfb60f806011cb404d67780854ac26284286135",
      "blockNumber": "0xd9998",
      "gasUsed": "0x1cf07",
      "effectiveGasPrice": "0x176fde87",
      "from": "0x4100a9B680B1Be1F10Cb8b5a57fE59eA77A8184e",
      "to": "0xdE17cb08ae4Aa50bd5E8D34eD9c53d93ec36C7b4",
      "contractAddress": null
    },
    {
      "status": "0x1",
      "cumulativeGasUsed": "0x6a00f",
      "logs": [
        {
          "address": "0x5a50e6E1092b63227548D6EC648f2ccb604a87B0",
          "topics": [
            "0xddf252ad1be2c89b69c2b068fc378daa952ba7f163c4a11628f55a4df523b3ef",
            "0x0000000000000000000000000000000000000000000000000000000000000000",
            "0x0000000000000000000000003c44cdddb6a900fa2b585dd299e03d12fa4293bc",
            "0x00000000000000000000000000000000000000000000000000000000000d99a0"
          ],
          "data": "0x",
          "blockHash": "0xa3d9840acd51deb3f05ee918ecfb60f806011cb404d67780854ac26284286135",
          "blockNumber": "0xd9998",
          "transactionHash": "0xb33754f7450fa5156c2e9dab1a73b93ad20f0dceb4179e6276e46480340bf281",
          "transactionIndex": "0x3",
          "logIndex": "0x5",
          "removed": false
        }
      ],
      "logsBloom": "0x00000000000080000000000000000000000000000000000000000000000000000000000000000000000000000000000000000000010000000000000000100000000000000000000000000008000000000000000000000000000000000000000000000000020000000000000000000800000800000000000000000010000000000000000000000000000000000000000000000000000000000000000000000000002000000000200000000000000400000000000000000000000000000000000000008002000000000000000000000000000000000000000000000000000020000000000000000000000000000000000000000010000000000000000000000000",
      "type": "0x2",
      "transactionHash": "0xb33754f7450fa5156c2e9dab1a73b93ad20f0dceb4179e6276e46480340bf281",
      "transactionIndex": "0x3",
      "blockHash": "0xa3d9840acd51deb3f05ee918ecfb60f806011cb404d67780854ac26284286135",
      "blockNumber": "0xd9998",
      "gasUsed": "0x10cab",
      "effectiveGasPrice": "0x176fde87",
      "from": "0x4100a9B680B1Be1F10Cb8b5a57fE59eA77A8184e",
      "to": "0x5a50e6E1092b63227548D6EC648f2ccb604a87B0",
      "contractAddress": null
    },
    {
      "status": "0x1",
      "cumulativeGasUsed": "0x8bcd2",
      "logs": [
        {
          "address": "0xdE17cb08ae4Aa50bd5E8D34eD9c53d93ec36C7b4",
          "topics": [
            "0x3ea3314dd8adca61ba5ccef601f00167a9a3c43358bad8b897df2519ee6d3a6c",
            "0xb81c3babb02222bfbc2c291fab6112117a63ce4c5b46a3221a6c915925f04333",
            "0x0000000000000000000000003c44cdddb6a900fa2b585dd299e03d12fa4293bc"
          ],
          "data": "0x00000000000000000000000000000000000000000000000000000000000d99a000000000000000000000000000000000000000000000000000000000000000020000000000000000000000000000000000000000000000000000000067124814",
          "blockHash": "0xa3d9840acd51deb3f05ee918ecfb60f806011cb404d67780854ac26284286135",
          "blockNumber": "0xd9998",
          "transactionHash": "0xdcf78e62d697b97377dfa77a80421498623d44d77bf7366bb83eac7cffd18782",
          "transactionIndex": "0x4",
          "logIndex": "0x6",
          "removed": false
        }
      ],
      "logsBloom": "0x00000000000000000000000000000000000000000000000000000000000000001000000000000000000000000000000000000000000000000000000080100000000000000000000000000000000000000000800000000000000000000000000000000000000000000000000000000000000800000000000000000000000000000000000000000000000000000000000001000000000000100000000000000000000000000000200000000000000000000000000000000000000000000000000000000000000000000000020000000000000000000000000020000000000800000000000000000000000000000000000000000000000000000000000000000200",
      "type": "0x2",
      "transactionHash": "0xdcf78e62d697b97377dfa77a80421498623d44d77bf7366bb83eac7cffd18782",
      "transactionIndex": "0x4",
      "blockHash": "0xa3d9840acd51deb3f05ee918ecfb60f806011cb404d67780854ac26284286135",
      "blockNumber": "0xd9998",
      "gasUsed": "0x21cc3",
      "effectiveGasPrice": "0x176fde87",
      "from": "0x4100a9B680B1Be1F10Cb8b5a57fE59eA77A8184e",
      "to": "0xdE17cb08ae4Aa50bd5E8D34eD9c53d93ec36C7b4",
      "contractAddress": null
    },
    {
      "status": "0x1",
      "cumulativeGasUsed": "0x9c989",
      "logs": [
        {
          "address": "0x5a50e6E1092b63227548D6EC648f2ccb604a87B0",
          "topics": [
            "0xddf252ad1be2c89b69c2b068fc378daa952ba7f163c4a11628f55a4df523b3ef",
            "0x0000000000000000000000000000000000000000000000000000000000000000",
            "0x00000000000000000000000090f79bf6eb2c4f870365e785982e1f101e93b906",
            "0x00000000000000000000000000000000000000000000000000000000000d99a1"
          ],
          "data": "0x",
          "blockHash": "0xa3d9840acd51deb3f05ee918ecfb60f806011cb404d67780854ac26284286135",
          "blockNumber": "0xd9998",
          "transactionHash": "0xfbcdf9505f37664298703dfd2cf39fc7763b79b2357ed3308a02c53d85c84202",
          "transactionIndex": "0x5",
          "logIndex": "0x7",
          "removed": false
        }
      ],
      "logsBloom": "0x00000000000080000000000000000000000000000000000000000000000000000000000000000000000000000000000000000000010000000000000000000000000000000000000080000008000000000000000000000000000000000000000000000000020000000000000000000800000000000000000000000010000000000000000000000000000000000000000000000000000000000400000000000000002000000000000000000000000100000000000000000000000000000000000000000002000000000000000000000000400000000000000000000000100020000000000000000000000010000000000000000000000000000000000000000000",
      "type": "0x2",
      "transactionHash": "0xfbcdf9505f37664298703dfd2cf39fc7763b79b2357ed3308a02c53d85c84202",
      "transactionIndex": "0x5",
      "blockHash": "0xa3d9840acd51deb3f05ee918ecfb60f806011cb404d67780854ac26284286135",
      "blockNumber": "0xd9998",
      "gasUsed": "0x10cb7",
      "effectiveGasPrice": "0x176fde87",
      "from": "0x4100a9B680B1Be1F10Cb8b5a57fE59eA77A8184e",
      "to": "0x5a50e6E1092b63227548D6EC648f2ccb604a87B0",
      "contractAddress": null
    },
    {
      "status": "0x1",
      "cumulativeGasUsed": "0xb9890",
      "logs": [
        {
          "address": "0xdE17cb08ae4Aa50bd5E8D34eD9c53d93ec36C7b4",
          "topics": [
            "0x3ea3314dd8adca61ba5ccef601f00167a9a3c43358bad8b897df2519ee6d3a6c",
            "0x8532db9d2966fcad10c2a1918762adee24f5fbe5681a05f9528eb9db85c418dc",
            "0x00000000000000000000000090f79bf6eb2c4f870365e785982e1f101e93b906"
          ],
          "data": "0x00000000000000000000000000000000000000000000000000000000000d99a100000000000000000000000000000000000000000000000000000000000000000000000000000000000000000000000000000000000000000000000067124814",
          "blockHash": "0xa3d9840acd51deb3f05ee918ecfb60f806011cb404d67780854ac26284286135",
          "blockNumber": "0xd9998",
          "transactionHash": "0x35b82883e7319af9a4918a61fb488963703d15d02b9e44ffcca196fa81097f60",
          "transactionIndex": "0x6",
          "logIndex": "0x8",
          "removed": false
        }
      ],
      "logsBloom": "0x00000000000000000000000000000000000000000000000000000000000000000000000000000000000000000000000000004000000000000000000080000000000000000000000000000000000000000000800000000000000000000000000000000000000000000000000000000000000000000000000000000000000000000000000000020000000000000000000000000000000000000400000000000000000000000000000000000000000000000000000000000000000000000000000000000000000000000000020000000000400000000000000020000000000800000000000000000000000010000000000000000000000020000000000000000200",
      "type": "0x2",
      "transactionHash": "0x35b82883e7319af9a4918a61fb488963703d15d02b9e44ffcca196fa81097f60",
      "transactionIndex": "0x6",
      "blockHash": "0xa3d9840acd51deb3f05ee918ecfb60f806011cb404d67780854ac26284286135",
      "blockNumber": "0xd9998",
      "gasUsed": "0x1cf07",
      "effectiveGasPrice": "0x176fde87",
      "from": "0x4100a9B680B1Be1F10Cb8b5a57fE59eA77A8184e",
      "to": "0xdE17cb08ae4Aa50bd5E8D34eD9c53d93ec36C7b4",
      "contractAddress": null
    },
    {
      "status": "0x1",
      "cumulativeGasUsed": "0xca547",
      "logs": [
        {
          "address": "0x5a50e6E1092b63227548D6EC648f2ccb604a87B0",
          "topics": [
            "0xddf252ad1be2c89b69c2b068fc378daa952ba7f163c4a11628f55a4df523b3ef",
            "0x0000000000000000000000000000000000000000000000000000000000000000",
            "0x00000000000000000000000015d34aaf54267db7d7c367839aaf71a00a2c6a65",
            "0x00000000000000000000000000000000000000000000000000000000000d99a2"
          ],
          "data": "0x",
          "blockHash": "0xa3d9840acd51deb3f05ee918ecfb60f806011cb404d67780854ac26284286135",
          "blockNumber": "0xd9998",
          "transactionHash": "0xf743014ef7d09f309a40eb9c6d9c5d600e95552f10de4573384812a831088da9",
          "transactionIndex": "0x7",
          "logIndex": "0x9",
          "removed": false
        }
      ],
      "logsBloom": "0x00000000040080000000000000000000000000000000000000000000000000000000000000000000000000000000000000000000010000000000000000000000000000000000000000000008000000000000000000000100000000000000000000000000020000000000000000000800000080000000000000000010020000000000000000000000000000000000000000000000000000000000000100000000002000000000000000000000000000000000000000000000000000000000000000000002000000000000000000000000000000000000000000000000000024000000000000000000000000000000000000000000000000000000000000000000",
      "type": "0x2",
      "transactionHash": "0xf743014ef7d09f309a40eb9c6d9c5d600e95552f10de4573384812a831088da9",
      "transactionIndex": "0x7",
      "blockHash": "0xa3d9840acd51deb3f05ee918ecfb60f806011cb404d67780854ac26284286135",
      "blockNumber": "0xd9998",
      "gasUsed": "0x10cb7",
      "effectiveGasPrice": "0x176fde87",
      "from": "0x4100a9B680B1Be1F10Cb8b5a57fE59eA77A8184e",
      "to": "0x5a50e6E1092b63227548D6EC648f2ccb604a87B0",
      "contractAddress": null
    },
    {
      "status": "0x1",
      "cumulativeGasUsed": "0xec216",
      "logs": [
        {
          "address": "0xdE17cb08ae4Aa50bd5E8D34eD9c53d93ec36C7b4",
          "topics": [
            "0x3ea3314dd8adca61ba5ccef601f00167a9a3c43358bad8b897df2519ee6d3a6c",
            "0x4d8ded69db6b32b4da755047ed7136bfea03e8f5c1490d80fcb18bd002cf2c92",
            "0x00000000000000000000000015d34aaf54267db7d7c367839aaf71a00a2c6a65"
          ],
          "data": "0x00000000000000000000000000000000000000000000000000000000000d99a200000000000000000000000000000000000000000000000000000000000000010000000000000000000000000000000000000000000000000000000067124814",
          "blockHash": "0xa3d9840acd51deb3f05ee918ecfb60f806011cb404d67780854ac26284286135",
          "blockNumber": "0xd9998",
          "transactionHash": "0x3012ace583b1d40ac3640bb4fff235a859db42b67bda581b6a73b76236e9c67c",
          "transactionIndex": "0x8",
          "logIndex": "0xa",
          "removed": false
        }
      ],
      "logsBloom": "0x00000000040000000000000000000000000000000000000000000000000000000000000000000000000000000000000000000000000000100000000080000000000000000000000000000000000000000000800000000000000000000000000000000000000000000000000000000000000000000000000000002000000000000000000000000000000000000000000000000000000000000000000100000000000000000000000000000004000000000000000000000000000000000000000000000000000000000000020000000000000000000000000020000000000804000000000000000000000000000000000000000000000000000000000000000200",
      "type": "0x2",
      "transactionHash": "0x3012ace583b1d40ac3640bb4fff235a859db42b67bda581b6a73b76236e9c67c",
      "transactionIndex": "0x8",
      "blockHash": "0xa3d9840acd51deb3f05ee918ecfb60f806011cb404d67780854ac26284286135",
      "blockNumber": "0xd9998",
      "gasUsed": "0x21ccf",
      "effectiveGasPrice": "0x176fde87",
      "from": "0x4100a9B680B1Be1F10Cb8b5a57fE59eA77A8184e",
      "to": "0xdE17cb08ae4Aa50bd5E8D34eD9c53d93ec36C7b4",
      "contractAddress": null
    },
    {
      "status": "0x1",
      "cumulativeGasUsed": "0xfcecd",
      "logs": [
        {
          "address": "0x5a50e6E1092b63227548D6EC648f2ccb604a87B0",
          "topics": [
            "0xddf252ad1be2c89b69c2b068fc378daa952ba7f163c4a11628f55a4df523b3ef",
            "0x0000000000000000000000000000000000000000000000000000000000000000",
            "0x0000000000000000000000009965507d1a55bcc2695c58ba16fb37d819b0a4dc",
            "0x00000000000000000000000000000000000000000000000000000000000d99a3"
          ],
          "data": "0x",
          "blockHash": "0xa3d9840acd51deb3f05ee918ecfb60f806011cb404d67780854ac26284286135",
          "blockNumber": "0xd9998",
          "transactionHash": "0xcafa08131386d6497221e540aa31007806597506444b4d1e2a0430ab25fa193f",
          "transactionIndex": "0x9",
          "logIndex": "0xb",
          "removed": false
        }
      ],
      "logsBloom": "0x00000004000080000000000000000000000000000000000000000000000000000000000000000000000000000000000000000000010000400000000000000000000000000000000000000008000000000000000000008000000000000000000000000000020000000000000000000800000000000000000000000010000001000000000008000000000000000000000000000000000000000000000000000000002000000000000000000000000000000000000000000000000000000000000000000002800000000000000000000000000000000000000000000000000020000000000000000000000000000000000000000000000000000000000000000000",
      "type": "0x2",
      "transactionHash": "0xcafa08131386d6497221e540aa31007806597506444b4d1e2a0430ab25fa193f",
      "transactionIndex": "0x9",
      "blockHash": "0xa3d9840acd51deb3f05ee918ecfb60f806011cb404d67780854ac26284286135",
      "blockNumber": "0xd9998",
      "gasUsed": "0x10cb7",
      "effectiveGasPrice": "0x176fde87",
      "from": "0x4100a9B680B1Be1F10Cb8b5a57fE59eA77A8184e",
      "to": "0x5a50e6E1092b63227548D6EC648f2ccb604a87B0",
      "contractAddress": null
    },
    {
      "status": "0x1",
      "cumulativeGasUsed": "0x119dd4",
      "logs": [
        {
          "address": "0xdE17cb08ae4Aa50bd5E8D34eD9c53d93ec36C7b4",
          "topics": [
            "0x3ea3314dd8adca61ba5ccef601f00167a9a3c43358bad8b897df2519ee6d3a6c",
            "0x71c8f876daa57d719aeea1848218038b9ff91763253423d3b6cc7aa3e6b9d850",
            "0x0000000000000000000000009965507d1a55bcc2695c58ba16fb37d819b0a4dc"
          ],
          "data": "0x00000000000000000000000000000000000000000000000000000000000d99a300000000000000000000000000000000000000000000000000000000000000000000000000000000000000000000000000000000000000000000000067124814",
          "blockHash": "0xa3d9840acd51deb3f05ee918ecfb60f806011cb404d67780854ac26284286135",
          "blockNumber": "0xd9998",
          "transactionHash": "0x28e3baa297ebcf875071543fa0d366315939779779c97993fc44a843ced6ee47",
          "transactionIndex": "0xa",
          "logIndex": "0xc",
          "removed": false
        }
      ],
      "logsBloom": "0x00000004000000000000000000000000000000000000000000000000000800000000000000000000000000000000000000000000000000000000000080000000000000000000000000000000000000000000800000008000000000000008000000000000000000000000000000000000000000000000000000000000000000000000000000000000000000000000000000000000000000000000000000000000000000000000000000000000000000000000000000000000000000000000000000000000800000000000028000000000000000000000000020000000000800000000000000000000000000000000000000000000000000000000000000000200",
      "type": "0x2",
      "transactionHash": "0x28e3baa297ebcf875071543fa0d366315939779779c97993fc44a843ced6ee47",
      "transactionIndex": "0xa",
      "blockHash": "0xa3d9840acd51deb3f05ee918ecfb60f806011cb404d67780854ac26284286135",
      "blockNumber": "0xd9998",
      "gasUsed": "0x1cf07",
      "effectiveGasPrice": "0x176fde87",
      "from": "0x4100a9B680B1Be1F10Cb8b5a57fE59eA77A8184e",
      "to": "0xdE17cb08ae4Aa50bd5E8D34eD9c53d93ec36C7b4",
      "contractAddress": null
    },
    {
      "status": "0x1",
      "cumulativeGasUsed": "0x12aa8b",
      "logs": [
        {
          "address": "0x5a50e6E1092b63227548D6EC648f2ccb604a87B0",
          "topics": [
            "0xddf252ad1be2c89b69c2b068fc378daa952ba7f163c4a11628f55a4df523b3ef",
            "0x0000000000000000000000000000000000000000000000000000000000000000",
            "0x000000000000000000000000976ea74026e726554db657fa54763abd0c3a0aa9",
            "0x00000000000000000000000000000000000000000000000000000000000d99a4"
          ],
          "data": "0x",
          "blockHash": "0xa3d9840acd51deb3f05ee918ecfb60f806011cb404d67780854ac26284286135",
          "blockNumber": "0xd9998",
          "transactionHash": "0x3b4447325d3b3b345c52c6dd4bc44ff85b008d61a591a1134220e844e2f5ab64",
          "transactionIndex": "0xb",
          "logIndex": "0xd",
          "removed": false
        }
      ],
      "logsBloom": "0x00000000000080000000000000000000000000040200000000000000000000000000000000000000000000000000000000000000010000000000000000000000000000000000000000000008000000000000000000000000080000000000000000000000020000000000000000000800000000000000000000001010000000000000000000000000800000000000000000000000000000000000000000000000002080000000000000000000000000000000000000000000000000000000000000000002000000000000000000000000000000000000000000000000000020000000000000000000000000000000000000000000000000000000000000000000",
      "type": "0x2",
      "transactionHash": "0x3b4447325d3b3b345c52c6dd4bc44ff85b008d61a591a1134220e844e2f5ab64",
      "transactionIndex": "0xb",
      "blockHash": "0xa3d9840acd51deb3f05ee918ecfb60f806011cb404d67780854ac26284286135",
      "blockNumber": "0xd9998",
      "gasUsed": "0x10cb7",
      "effectiveGasPrice": "0x176fde87",
      "from": "0x4100a9B680B1Be1F10Cb8b5a57fE59eA77A8184e",
      "to": "0x5a50e6E1092b63227548D6EC648f2ccb604a87B0",
      "contractAddress": null
    },
    {
      "status": "0x1",
      "cumulativeGasUsed": "0x14c75a",
      "logs": [
        {
          "address": "0xdE17cb08ae4Aa50bd5E8D34eD9c53d93ec36C7b4",
          "topics": [
            "0x3ea3314dd8adca61ba5ccef601f00167a9a3c43358bad8b897df2519ee6d3a6c",
            "0x626b5edea6bee9f7184a3c6247f79ef154aeaf7b4bea1b0c6f8f397ac487ee32",
            "0x000000000000000000000000976ea74026e726554db657fa54763abd0c3a0aa9"
          ],
          "data": "0x00000000000000000000000000000000000000000000000000000000000d99a400000000000000000000000000000000000000000000000000000000000000020000000000000000000000000000000000000000000000000000000067124814",
          "blockHash": "0xa3d9840acd51deb3f05ee918ecfb60f806011cb404d67780854ac26284286135",
          "blockNumber": "0xd9998",
          "transactionHash": "0xbffea578569f4061699599a87c000fe60b21a578748fc20e3a9fa09ee3838713",
          "transactionIndex": "0xc",
          "logIndex": "0xe",
          "removed": false
        }
      ],
      "logsBloom": "0x00000000000000000000000000000000000000040200000000000000000000000000000000000000000000000000000000000000000000000000000080000008000000000000000000000000000000000000800000000000080001000000000000000000000000000000000000000000000000000000000000000000000000000000000000000000000000000000000000000000000000000000000000000000000000000000000000000000000000000000000000000000000000000000000000000800000000000000020000000000000000000000000020000000000800000000000000000000000000000000000000000000000000000000000000000200",
      "type": "0x2",
      "transactionHash": "0xbffea578569f4061699599a87c000fe60b21a578748fc20e3a9fa09ee3838713",
      "transactionIndex": "0xc",
      "blockHash": "0xa3d9840acd51deb3f05ee918ecfb60f806011cb404d67780854ac26284286135",
      "blockNumber": "0xd9998",
      "gasUsed": "0x21ccf",
      "effectiveGasPrice": "0x176fde87",
      "from": "0x4100a9B680B1Be1F10Cb8b5a57fE59eA77A8184e",
      "to": "0xdE17cb08ae4Aa50bd5E8D34eD9c53d93ec36C7b4",
      "contractAddress": null
    },
    {
      "status": "0x1",
      "cumulativeGasUsed": "0x15d411",
      "logs": [
        {
          "address": "0x5a50e6E1092b63227548D6EC648f2ccb604a87B0",
          "topics": [
            "0xddf252ad1be2c89b69c2b068fc378daa952ba7f163c4a11628f55a4df523b3ef",
            "0x0000000000000000000000000000000000000000000000000000000000000000",
            "0x00000000000000000000000014dc79964da2c08b23698b3d3cc7ca32193d9955",
            "0x00000000000000000000000000000000000000000000000000000000000d99a5"
          ],
          "data": "0x",
          "blockHash": "0xa3d9840acd51deb3f05ee918ecfb60f806011cb404d67780854ac26284286135",
          "blockNumber": "0xd9998",
          "transactionHash": "0x11b79d6acead85a8c56e1880e536c6a9b031c91633a16e37e4573ec9d976051f",
          "transactionIndex": "0xd",
          "logIndex": "0xf",
          "removed": false
        }
      ],
      "logsBloom": "0x00000000000080000000000000000000000000000000000000000000000000000000000000000000000000000000000000000000010000000000000000000000000000000000000000000008000000001000000000000400000000000000000000000000020000000000000000000800000000000000000000000010000000000000000000000000000000000000000000000000000000000000000000000000002000000000000000000000000000002000000000000000000000000000000000000002000000000000002000000000040000000000000000000000000020000000000000000000000000000000000000000000000000000040000000000000",
      "type": "0x2",
      "transactionHash": "0x11b79d6acead85a8c56e1880e536c6a9b031c91633a16e37e4573ec9d976051f",
      "transactionIndex": "0xd",
      "blockHash": "0xa3d9840acd51deb3f05ee918ecfb60f806011cb404d67780854ac26284286135",
      "blockNumber": "0xd9998",
      "gasUsed": "0x10cb7",
      "effectiveGasPrice": "0x176fde87",
      "from": "0x4100a9B680B1Be1F10Cb8b5a57fE59eA77A8184e",
      "to": "0x5a50e6E1092b63227548D6EC648f2ccb604a87B0",
      "contractAddress": null
    },
    {
      "status": "0x1",
      "cumulativeGasUsed": "0x17a318",
      "logs": [
        {
          "address": "0xdE17cb08ae4Aa50bd5E8D34eD9c53d93ec36C7b4",
          "topics": [
            "0x3ea3314dd8adca61ba5ccef601f00167a9a3c43358bad8b897df2519ee6d3a6c",
            "0x7fde6821cceb5d1cddb53797b1953b634eeb75a2c27931ed08f0bae5720a5641",
            "0x00000000000000000000000014dc79964da2c08b23698b3d3cc7ca32193d9955"
          ],
          "data": "0x00000000000000000000000000000000000000000000000000000000000d99a500000000000000000000000000000000000000000000000000000000000000000000000000000000000000000000000000000000000000000000000067124814",
          "blockHash": "0xa3d9840acd51deb3f05ee918ecfb60f806011cb404d67780854ac26284286135",
          "blockNumber": "0xd9998",
          "transactionHash": "0x0220017d349c20277ea606e4d8458905ce005b59ae24c7b01b1e62ef7cf55fdf",
          "transactionIndex": "0xe",
          "logIndex": "0x10",
          "removed": false
        }
      ],
      "logsBloom": "0x00000000000000000000000000000000000000000000000000000000000000000000000000000000000000000000000040000000000000000000000080000000000000000000000000000000000000000000800000000400000000000000000000000000000000000000000000000000000000000000000000000000000000000000000000000000000000000000000000000000000000000000000000000000000000000000000000000000000000002000000000000000000000000000000000000000000000000000020000200000040000000000000020000000000802000000000000000000000000000000000000000000000000000000000000000200",
      "type": "0x2",
      "transactionHash": "0x0220017d349c20277ea606e4d8458905ce005b59ae24c7b01b1e62ef7cf55fdf",
      "transactionIndex": "0xe",
      "blockHash": "0xa3d9840acd51deb3f05ee918ecfb60f806011cb404d67780854ac26284286135",
      "blockNumber": "0xd9998",
      "gasUsed": "0x1cf07",
      "effectiveGasPrice": "0x176fde87",
      "from": "0x4100a9B680B1Be1F10Cb8b5a57fE59eA77A8184e",
      "to": "0xdE17cb08ae4Aa50bd5E8D34eD9c53d93ec36C7b4",
      "contractAddress": null
    },
    {
      "status": "0x1",
      "cumulativeGasUsed": "0x18afcf",
      "logs": [
        {
          "address": "0x5a50e6E1092b63227548D6EC648f2ccb604a87B0",
          "topics": [
            "0xddf252ad1be2c89b69c2b068fc378daa952ba7f163c4a11628f55a4df523b3ef",
            "0x0000000000000000000000000000000000000000000000000000000000000000",
            "0x00000000000000000000000023618e81e3f5cdf7f54c3d65f7fbc0abf5b21e8f",
            "0x00000000000000000000000000000000000000000000000000000000000d99a6"
          ],
          "data": "0x",
          "blockHash": "0xa3d9840acd51deb3f05ee918ecfb60f806011cb404d67780854ac26284286135",
          "blockNumber": "0xd9998",
          "transactionHash": "0xbb5d99c930709954b7dbd83001a68d550dc4ae49209444e8e778c0fca2693d6a",
          "transactionIndex": "0xf",
          "logIndex": "0x11",
          "removed": false
        }
      ],
      "logsBloom": "0x00800000400080000000000000000000000000000000000000000000200000000000000000000000000000000000000000000000010000000000000000000000000000000000000000000008002000000000000000000000000000000000000000000000020000000000000000000800000000000000000000000010000000000000000000000000000000020000000000000000000000000000000000000000002000000000000000000000000000000000000000000000000000000000000000000002000000000000000000000000000000000000000000000000000020000000000000000000000000000000000000000000000000000000008000000000",
      "type": "0x2",
      "transactionHash": "0xbb5d99c930709954b7dbd83001a68d550dc4ae49209444e8e778c0fca2693d6a",
      "transactionIndex": "0xf",
      "blockHash": "0xa3d9840acd51deb3f05ee918ecfb60f806011cb404d67780854ac26284286135",
      "blockNumber": "0xd9998",
      "gasUsed": "0x10cb7",
      "effectiveGasPrice": "0x176fde87",
      "from": "0x4100a9B680B1Be1F10Cb8b5a57fE59eA77A8184e",
      "to": "0x5a50e6E1092b63227548D6EC648f2ccb604a87B0",
      "contractAddress": null
    },
    {
      "status": "0x1",
      "cumulativeGasUsed": "0x1acc9e",
      "logs": [
        {
          "address": "0xdE17cb08ae4Aa50bd5E8D34eD9c53d93ec36C7b4",
          "topics": [
            "0x3ea3314dd8adca61ba5ccef601f00167a9a3c43358bad8b897df2519ee6d3a6c",
            "0x61ef290f25edf1267af7e5a592973f86356d0ea32b0d6e398442b85f63a9d6cc",
            "0x00000000000000000000000023618e81e3f5cdf7f54c3d65f7fbc0abf5b21e8f"
          ],
          "data": "0x00000000000000000000000000000000000000000000000000000000000d99a600000000000000000000000000000000000000000000000000000000000000010000000000000000000000000000000000000000000000000000000067124814",
          "blockHash": "0xa3d9840acd51deb3f05ee918ecfb60f806011cb404d67780854ac26284286135",
          "blockNumber": "0xd9998",
          "transactionHash": "0x6ea06590f2a291b9e456a4264c10d33a4013d14ab37b63ce0ef5a24d4a8508a6",
          "transactionIndex": "0x10",
          "logIndex": "0x12",
          "removed": false
        }
      ],
      "logsBloom": "0x00800000000000000000000000000000000000000000000000000000000000000000000000000000000000000000000000000000000000000000000080000040000000000000000000000000000000000000800000000000000000000000000000000000000000000000000000000000000000000080000000000000000000000000000000000000000000020000000000000000000000000000000000000000000000000000000000000000000000000000000000000000000000000000000000000000004000000000020000000000000000000000000020000000000800000000000000000000000000000000000000000000000000000000008000000200",
      "type": "0x2",
      "transactionHash": "0x6ea06590f2a291b9e456a4264c10d33a4013d14ab37b63ce0ef5a24d4a8508a6",
      "transactionIndex": "0x10",
      "blockHash": "0xa3d9840acd51deb3f05ee918ecfb60f806011cb404d67780854ac26284286135",
      "blockNumber": "0xd9998",
      "gasUsed": "0x21ccf",
      "effectiveGasPrice": "0x176fde87",
      "from": "0x4100a9B680B1Be1F10Cb8b5a57fE59eA77A8184e",
      "to": "0xdE17cb08ae4Aa50bd5E8D34eD9c53d93ec36C7b4",
      "contractAddress": null
    },
    {
      "status": "0x1",
      "cumulativeGasUsed": "0x1bd955",
      "logs": [
        {
          "address": "0x5a50e6E1092b63227548D6EC648f2ccb604a87B0",
          "topics": [
            "0xddf252ad1be2c89b69c2b068fc378daa952ba7f163c4a11628f55a4df523b3ef",
            "0x0000000000000000000000000000000000000000000000000000000000000000",
            "0x000000000000000000000000a0ee7a142d267c1f36714e4a8f75612f20a79720",
            "0x00000000000000000000000000000000000000000000000000000000000d99a7"
          ],
          "data": "0x",
          "blockHash": "0xa3d9840acd51deb3f05ee918ecfb60f806011cb404d67780854ac26284286135",
          "blockNumber": "0xd9998",
          "transactionHash": "0xb60509703a2cea6a4b3cd71ce794227550068cc85e2c97e3b23eba4214a35a80",
          "transactionIndex": "0x11",
          "logIndex": "0x13",
          "removed": false
        }
      ],
      "logsBloom": "0x00000000000080000000040000000000000000000000000000000000000000000000000000000000000000000000000000000000010000000000000042000000000000000000000000000008000000000000000000000000000008000000000000000000020000000000000000000800000000000000000000000010000000000000000000000000000000000000000000000000000000000000000000000000002000000000000000000000000040000000000000000000000000000000000000000002000000000000000000000000000000000000000000004000000020000000000000000000000000000000000000000000000000000000000000000000",
      "type": "0x2",
      "transactionHash": "0xb60509703a2cea6a4b3cd71ce794227550068cc85e2c97e3b23eba4214a35a80",
      "transactionIndex": "0x11",
      "blockHash": "0xa3d9840acd51deb3f05ee918ecfb60f806011cb404d67780854ac26284286135",
      "blockNumber": "0xd9998",
      "gasUsed": "0x10cb7",
      "effectiveGasPrice": "0x176fde87",
      "from": "0x4100a9B680B1Be1F10Cb8b5a57fE59eA77A8184e",
      "to": "0x5a50e6E1092b63227548D6EC648f2ccb604a87B0",
      "contractAddress": null
    },
    {
      "status": "0x1",
      "cumulativeGasUsed": "0x1df624",
      "logs": [
        {
          "address": "0xdE17cb08ae4Aa50bd5E8D34eD9c53d93ec36C7b4",
          "topics": [
            "0x3ea3314dd8adca61ba5ccef601f00167a9a3c43358bad8b897df2519ee6d3a6c",
            "0xd68566fc95916a02201d11f312f83d2f862e2412350ea5c977bbbc385901e51e",
            "0x000000000000000000000000a0ee7a142d267c1f36714e4a8f75612f20a79720"
          ],
          "data": "0x00000000000000000000000000000000000000000000000000000000000d99a700000000000000000000000000000000000000000000000000000000000000010000000000000000000000000000000000000000000000000000000067124814",
          "blockHash": "0xa3d9840acd51deb3f05ee918ecfb60f806011cb404d67780854ac26284286135",
          "blockNumber": "0xd9998",
          "transactionHash": "0xf6fe56a78ecc38ff7e0d05e47c084ff5e202bcda817ce0eed23ca0e50434eb66",
          "transactionIndex": "0x12",
          "logIndex": "0x14",
          "removed": false
        }
      ],
      "logsBloom": "0x00000000000000000000040000000000000000000000000000000000000000000000000000000000000000000000000000000000000000000000000080000000000000000000000000000000000000000000800000000000000008000000000000000000000000000000000000000000002000000000000000000000000000000000000000000000000000020000000000000000000000000000000000000000000000000000000000000000000000000000000000000000000000000000000000000000000000000000020000000000000000000000000020004000000800000000000000000000000000000000000000008000000000000000000000000200",
      "type": "0x2",
      "transactionHash": "0xf6fe56a78ecc38ff7e0d05e47c084ff5e202bcda817ce0eed23ca0e50434eb66",
      "transactionIndex": "0x12",
      "blockHash": "0xa3d9840acd51deb3f05ee918ecfb60f806011cb404d67780854ac26284286135",
      "blockNumber": "0xd9998",
      "gasUsed": "0x21ccf",
      "effectiveGasPrice": "0x176fde87",
      "from": "0x4100a9B680B1Be1F10Cb8b5a57fE59eA77A8184e",
      "to": "0xdE17cb08ae4Aa50bd5E8D34eD9c53d93ec36C7b4",
      "contractAddress": null
    }
  ],
  "libraries": [],
  "pending": [],
  "returns": {},
  "timestamp": 1729251352,
  "chain": 167009,
  "commit": "ffaac9d"
}