{
  "transactions": [
    {
      "hash": "0x543d34fad488d07f924be67952be03a16f2957155fa2a5a6fd9e84c9ac5acaf5",
      "transactionType": "CALL",
      "contractName": null,
      "contractAddress": "0xC5aDfe955ECF6783551357efA4D0F92949dE8Ed3",
      "function": "mint(address,uint256)",
      "arguments": [
        "0x70997970C51812dc3A010C7d01b50e0d17dc79C8",
        "891608"
      ],
      "transaction": {
        "from": "0x4100a9B680B1Be1F10Cb8b5a57fE59eA77A8184e",
        "to": "0xC5aDfe955ECF6783551357efA4D0F92949dE8Ed3",
        "gas": "0x17329",
        "value": "0x0",
        "input": "0x40c10f1900000000000000000000000070997970c51812dc3a010c7d01b50e0d17dc79c800000000000000000000000000000000000000000000000000000000000d9ad8",
        "nonce": "0x6cc",
        "chainId": "0x28c61"
      },
      "additionalContracts": [],
      "isFixedGasLimit": false
    },
    {
      "hash": "0xb191b5ee9d5b8acf9f9430b346a36df1f8b18b77e13e5397a59087d6a8ad3fd5",
      "transactionType": "CALL",
      "contractName": null,
      "contractAddress": "0xe276dC810A8a79a441E1744bd4c5aDB9f494CB9B",
      "function": "registerPlayer(address,uint256,uint8)",
      "arguments": [
        "0x70997970C51812dc3A010C7d01b50e0d17dc79C8",
        "891608",
        "0"
      ],
      "transaction": {
        "from": "0x4100a9B680B1Be1F10Cb8b5a57fE59eA77A8184e",
        "to": "0xe276dC810A8a79a441E1744bd4c5aDB9f494CB9B",
        "gas": "0x22810",
        "value": "0x0",
        "input": "0x50ed283800000000000000000000000070997970c51812dc3a010c7d01b50e0d17dc79c800000000000000000000000000000000000000000000000000000000000d9ad80000000000000000000000000000000000000000000000000000000000000000",
        "nonce": "0x6cd",
        "chainId": "0x28c61"
      },
      "additionalContracts": [],
      "isFixedGasLimit": false
    },
    {
      "hash": "0xd38bbbcc4f0a3d5e8d68d9c9f4e45693b3354e323830ca25bf78b8c1876c5947",
      "transactionType": "CALL",
      "contractName": null,
      "contractAddress": "0xC5aDfe955ECF6783551357efA4D0F92949dE8Ed3",
      "function": "mint(address,uint256)",
      "arguments": [
        "0x3C44CdDdB6a900fa2b585dd299e03d12FA4293BC",
        "891609"
      ],
      "transaction": {
        "from": "0x4100a9B680B1Be1F10Cb8b5a57fE59eA77A8184e",
        "to": "0xC5aDfe955ECF6783551357efA4D0F92949dE8Ed3",
        "gas": "0x188ec",
        "value": "0x0",
        "input": "0x40c10f190000000000000000000000003c44cdddb6a900fa2b585dd299e03d12fa4293bc00000000000000000000000000000000000000000000000000000000000d9ad9",
        "nonce": "0x6ce",
        "chainId": "0x28c61"
      },
      "additionalContracts": [],
      "isFixedGasLimit": false
    },
    {
      "hash": "0xac41e4a934a1cc1f849e258c3c52644b854729e017236072fefa8d8e4873ea1c",
      "transactionType": "CALL",
      "contractName": null,
      "contractAddress": "0xe276dC810A8a79a441E1744bd4c5aDB9f494CB9B",
      "function": "registerPlayer(address,uint256,uint8)",
      "arguments": [
        "0x3C44CdDdB6a900fa2b585dd299e03d12FA4293BC",
        "891609",
        "2"
      ],
      "transaction": {
        "from": "0x4100a9B680B1Be1F10Cb8b5a57fE59eA77A8184e",
        "to": "0xe276dC810A8a79a441E1744bd4c5aDB9f494CB9B",
        "gas": "0x274c3",
        "value": "0x0",
        "input": "0x50ed28380000000000000000000000003c44cdddb6a900fa2b585dd299e03d12fa4293bc00000000000000000000000000000000000000000000000000000000000d9ad90000000000000000000000000000000000000000000000000000000000000002",
        "nonce": "0x6cf",
        "chainId": "0x28c61"
      },
      "additionalContracts": [],
      "isFixedGasLimit": false
    },
    {
      "hash": "0xc10f3a2e7ce480519bab973fec880baca5ea1575df95a79b989c12b87112ae62",
      "transactionType": "CALL",
      "contractName": null,
      "contractAddress": "0xC5aDfe955ECF6783551357efA4D0F92949dE8Ed3",
      "function": "mint(address,uint256)",
      "arguments": [
        "0x90F79bf6EB2c4f870365E785982E1f101E93b906",
        "891610"
      ],
      "transaction": {
        "from": "0x4100a9B680B1Be1F10Cb8b5a57fE59eA77A8184e",
        "to": "0xC5aDfe955ECF6783551357efA4D0F92949dE8Ed3",
        "gas": "0x17329",
        "value": "0x0",
        "input": "0x40c10f1900000000000000000000000090f79bf6eb2c4f870365e785982e1f101e93b90600000000000000000000000000000000000000000000000000000000000d9ada",
        "nonce": "0x6d0",
        "chainId": "0x28c61"
      },
      "additionalContracts": [],
      "isFixedGasLimit": false
    },
    {
      "hash": "0x51f3dd6c3ccfa143574fc9ef60a9d3bdc21d234a63849acc6360ae8285943285",
      "transactionType": "CALL",
      "contractName": null,
      "contractAddress": "0xe276dC810A8a79a441E1744bd4c5aDB9f494CB9B",
      "function": "registerPlayer(address,uint256,uint8)",
      "arguments": [
        "0x90F79bf6EB2c4f870365E785982E1f101E93b906",
        "891610",
        "0"
      ],
      "transaction": {
        "from": "0x4100a9B680B1Be1F10Cb8b5a57fE59eA77A8184e",
        "to": "0xe276dC810A8a79a441E1744bd4c5aDB9f494CB9B",
        "gas": "0x22810",
        "value": "0x0",
        "input": "0x50ed283800000000000000000000000090f79bf6eb2c4f870365e785982e1f101e93b90600000000000000000000000000000000000000000000000000000000000d9ada0000000000000000000000000000000000000000000000000000000000000000",
        "nonce": "0x6d1",
        "chainId": "0x28c61"
      },
      "additionalContracts": [],
      "isFixedGasLimit": false
    },
    {
      "hash": "0x719958079015f24b35ace91feaac98ee2b2b7a60eeff9052df051fe6867302f0",
      "transactionType": "CALL",
      "contractName": null,
      "contractAddress": "0xC5aDfe955ECF6783551357efA4D0F92949dE8Ed3",
      "function": "mint(address,uint256)",
      "arguments": [
        "0x15d34AAf54267DB7D7c367839AAf71A00a2C6A65",
        "891611"
      ],
      "transaction": {
        "from": "0x4100a9B680B1Be1F10Cb8b5a57fE59eA77A8184e",
        "to": "0xC5aDfe955ECF6783551357efA4D0F92949dE8Ed3",
        "gas": "0x17329",
        "value": "0x0",
        "input": "0x40c10f1900000000000000000000000015d34aaf54267db7d7c367839aaf71a00a2c6a6500000000000000000000000000000000000000000000000000000000000d9adb",
        "nonce": "0x6d2",
        "chainId": "0x28c61"
      },
      "additionalContracts": [],
      "isFixedGasLimit": false
    },
    {
      "hash": "0xb1fb30c45481778e81833fd890584cc8ac294a91ffd4771c73672044f05149df",
      "transactionType": "CALL",
      "contractName": null,
      "contractAddress": "0xe276dC810A8a79a441E1744bd4c5aDB9f494CB9B",
      "function": "registerPlayer(address,uint256,uint8)",
      "arguments": [
        "0x15d34AAf54267DB7D7c367839AAf71A00a2C6A65",
        "891611",
        "1"
      ],
      "transaction": {
        "from": "0x4100a9B680B1Be1F10Cb8b5a57fE59eA77A8184e",
        "to": "0xe276dC810A8a79a441E1744bd4c5aDB9f494CB9B",
        "gas": "0x299d1",
        "value": "0x0",
        "input": "0x50ed283800000000000000000000000015d34aaf54267db7d7c367839aaf71a00a2c6a6500000000000000000000000000000000000000000000000000000000000d9adb0000000000000000000000000000000000000000000000000000000000000001",
        "nonce": "0x6d3",
        "chainId": "0x28c61"
      },
      "additionalContracts": [],
      "isFixedGasLimit": false
    },
    {
      "hash": "0xf6a30f0678f1edaf7ffefc2c75230999702b67486f7a7e25ee7652e9e2701361",
      "transactionType": "CALL",
      "contractName": null,
      "contractAddress": "0xC5aDfe955ECF6783551357efA4D0F92949dE8Ed3",
      "function": "mint(address,uint256)",
      "arguments": [
        "0x9965507D1a55bcC2695C58ba16FB37d819B0A4dc",
        "891612"
      ],
      "transaction": {
        "from": "0x4100a9B680B1Be1F10Cb8b5a57fE59eA77A8184e",
        "to": "0xC5aDfe955ECF6783551357efA4D0F92949dE8Ed3",
        "gas": "0x17329",
        "value": "0x0",
        "input": "0x40c10f190000000000000000000000009965507d1a55bcc2695c58ba16fb37d819b0a4dc00000000000000000000000000000000000000000000000000000000000d9adc",
        "nonce": "0x6d4",
        "chainId": "0x28c61"
      },
      "additionalContracts": [],
      "isFixedGasLimit": false
    },
    {
      "hash": "0xc3b0df9ee422a1fdab0162c4cd026ed20e2317a5622de9857235b0d764b708e9",
      "transactionType": "CALL",
      "contractName": null,
      "contractAddress": "0xe276dC810A8a79a441E1744bd4c5aDB9f494CB9B",
      "function": "registerPlayer(address,uint256,uint8)",
      "arguments": [
        "0x9965507D1a55bcC2695C58ba16FB37d819B0A4dc",
        "891612",
        "0"
      ],
      "transaction": {
        "from": "0x4100a9B680B1Be1F10Cb8b5a57fE59eA77A8184e",
        "to": "0xe276dC810A8a79a441E1744bd4c5aDB9f494CB9B",
        "gas": "0x22810",
        "value": "0x0",
        "input": "0x50ed28380000000000000000000000009965507d1a55bcc2695c58ba16fb37d819b0a4dc00000000000000000000000000000000000000000000000000000000000d9adc0000000000000000000000000000000000000000000000000000000000000000",
        "nonce": "0x6d5",
        "chainId": "0x28c61"
      },
      "additionalContracts": [],
      "isFixedGasLimit": false
    },
    {
      "hash": "0xa42e2807fef85d496f47eaf4ccd646d4321ebd6fdd49b34acb82bd1a522dade6",
      "transactionType": "CALL",
      "contractName": null,
      "contractAddress": "0xC5aDfe955ECF6783551357efA4D0F92949dE8Ed3",
      "function": "mint(address,uint256)",
      "arguments": [
        "0x976EA74026E726554dB657fA54763abd0C3a0aa9",
        "891613"
      ],
      "transaction": {
        "from": "0x4100a9B680B1Be1F10Cb8b5a57fE59eA77A8184e",
        "to": "0xC5aDfe955ECF6783551357efA4D0F92949dE8Ed3",
        "gas": "0x17329",
        "value": "0x0",
        "input": "0x40c10f19000000000000000000000000976ea74026e726554db657fa54763abd0c3a0aa900000000000000000000000000000000000000000000000000000000000d9add",
        "nonce": "0x6d6",
        "chainId": "0x28c61"
      },
      "additionalContracts": [],
      "isFixedGasLimit": false
    },
    {
      "hash": "0xc75dd8dfe4ea8f49b36b78b0a7f819fc14ad383c4d4cf1b7cfdd948575ce327a",
      "transactionType": "CALL",
      "contractName": null,
      "contractAddress": "0xe276dC810A8a79a441E1744bd4c5aDB9f494CB9B",
      "function": "registerPlayer(address,uint256,uint8)",
      "arguments": [
        "0x976EA74026E726554dB657fA54763abd0C3a0aa9",
        "891613",
        "2"
      ],
      "transaction": {
        "from": "0x4100a9B680B1Be1F10Cb8b5a57fE59eA77A8184e",
        "to": "0xe276dC810A8a79a441E1744bd4c5aDB9f494CB9B",
        "gas": "0x299d1",
        "value": "0x0",
        "input": "0x50ed2838000000000000000000000000976ea74026e726554db657fa54763abd0c3a0aa900000000000000000000000000000000000000000000000000000000000d9add0000000000000000000000000000000000000000000000000000000000000002",
        "nonce": "0x6d7",
        "chainId": "0x28c61"
      },
      "additionalContracts": [],
      "isFixedGasLimit": false
    },
    {
      "hash": "0x6e971fbbf56ad3a056e16594f73920d4205b28fa5cb0508c8a0739b0adc3d960",
      "transactionType": "CALL",
      "contractName": null,
      "contractAddress": "0xC5aDfe955ECF6783551357efA4D0F92949dE8Ed3",
      "function": "mint(address,uint256)",
      "arguments": [
        "0x14dC79964da2C08b23698B3D3cc7Ca32193d9955",
        "891614"
      ],
      "transaction": {
        "from": "0x4100a9B680B1Be1F10Cb8b5a57fE59eA77A8184e",
        "to": "0xC5aDfe955ECF6783551357efA4D0F92949dE8Ed3",
        "gas": "0x17329",
        "value": "0x0",
        "input": "0x40c10f1900000000000000000000000014dc79964da2c08b23698b3d3cc7ca32193d995500000000000000000000000000000000000000000000000000000000000d9ade",
        "nonce": "0x6d8",
        "chainId": "0x28c61"
      },
      "additionalContracts": [],
      "isFixedGasLimit": false
    },
    {
      "hash": "0xef62dd71edbf23f008f9b8bc0df1752a22b9cf6f6232cb78312e7df16ebe6a61",
      "transactionType": "CALL",
      "contractName": null,
      "contractAddress": "0xe276dC810A8a79a441E1744bd4c5aDB9f494CB9B",
      "function": "registerPlayer(address,uint256,uint8)",
      "arguments": [
        "0x14dC79964da2C08b23698B3D3cc7Ca32193d9955",
        "891614",
        "0"
      ],
      "transaction": {
        "from": "0x4100a9B680B1Be1F10Cb8b5a57fE59eA77A8184e",
        "to": "0xe276dC810A8a79a441E1744bd4c5aDB9f494CB9B",
        "gas": "0x22810",
        "value": "0x0",
        "input": "0x50ed283800000000000000000000000014dc79964da2c08b23698b3d3cc7ca32193d995500000000000000000000000000000000000000000000000000000000000d9ade0000000000000000000000000000000000000000000000000000000000000000",
        "nonce": "0x6d9",
        "chainId": "0x28c61"
      },
      "additionalContracts": [],
      "isFixedGasLimit": false
    },
    {
      "hash": "0x546a7e213aa321ac69380096266f8256dc93270060281083b00936e5c3205896",
      "transactionType": "CALL",
      "contractName": null,
      "contractAddress": "0xC5aDfe955ECF6783551357efA4D0F92949dE8Ed3",
      "function": "mint(address,uint256)",
      "arguments": [
        "0x23618e81E3f5cdF7f54C3d65f7FBc0aBf5B21E8f",
        "891615"
      ],
      "transaction": {
        "from": "0x4100a9B680B1Be1F10Cb8b5a57fE59eA77A8184e",
        "to": "0xC5aDfe955ECF6783551357efA4D0F92949dE8Ed3",
        "gas": "0x17329",
        "value": "0x0",
        "input": "0x40c10f1900000000000000000000000023618e81e3f5cdf7f54c3d65f7fbc0abf5b21e8f00000000000000000000000000000000000000000000000000000000000d9adf",
        "nonce": "0x6da",
        "chainId": "0x28c61"
      },
      "additionalContracts": [],
      "isFixedGasLimit": false
    },
    {
      "hash": "0xe8c958a40476cb2db7809228f554dfc271c64089ec16dc8076a2db4e4ef4c3cc",
      "transactionType": "CALL",
      "contractName": null,
      "contractAddress": "0xe276dC810A8a79a441E1744bd4c5aDB9f494CB9B",
      "function": "registerPlayer(address,uint256,uint8)",
      "arguments": [
        "0x23618e81E3f5cdF7f54C3d65f7FBc0aBf5B21E8f",
        "891615",
        "1"
      ],
      "transaction": {
        "from": "0x4100a9B680B1Be1F10Cb8b5a57fE59eA77A8184e",
        "to": "0xe276dC810A8a79a441E1744bd4c5aDB9f494CB9B",
        "gas": "0x299d1",
        "value": "0x0",
        "input": "0x50ed283800000000000000000000000023618e81e3f5cdf7f54c3d65f7fbc0abf5b21e8f00000000000000000000000000000000000000000000000000000000000d9adf0000000000000000000000000000000000000000000000000000000000000001",
        "nonce": "0x6db",
        "chainId": "0x28c61"
      },
      "additionalContracts": [],
      "isFixedGasLimit": false
    },
    {
      "hash": "0xef8d8e9a38575a1a103410b391f89a6237af8151dc8f691571afee45dfd910ba",
      "transactionType": "CALL",
      "contractName": null,
      "contractAddress": "0xC5aDfe955ECF6783551357efA4D0F92949dE8Ed3",
      "function": "mint(address,uint256)",
      "arguments": [
        "0xa0Ee7A142d267C1f36714E4a8F75612F20a79720",
        "891616"
      ],
      "transaction": {
        "from": "0x4100a9B680B1Be1F10Cb8b5a57fE59eA77A8184e",
        "to": "0xC5aDfe955ECF6783551357efA4D0F92949dE8Ed3",
        "gas": "0x17329",
        "value": "0x0",
        "input": "0x40c10f19000000000000000000000000a0ee7a142d267c1f36714e4a8f75612f20a7972000000000000000000000000000000000000000000000000000000000000d9ae0",
        "nonce": "0x6dc",
        "chainId": "0x28c61"
      },
      "additionalContracts": [],
      "isFixedGasLimit": false
    },
    {
      "hash": "0x2313d15cc3015c2c11700eb506d639537a91ed30fece3f72be9a64f89b7375c4",
      "transactionType": "CALL",
      "contractName": null,
      "contractAddress": "0xe276dC810A8a79a441E1744bd4c5aDB9f494CB9B",
      "function": "registerPlayer(address,uint256,uint8)",
      "arguments": [
        "0xa0Ee7A142d267C1f36714E4a8F75612F20a79720",
        "891616",
        "1"
      ],
      "transaction": {
        "from": "0x4100a9B680B1Be1F10Cb8b5a57fE59eA77A8184e",
        "to": "0xe276dC810A8a79a441E1744bd4c5aDB9f494CB9B",
        "gas": "0x299d1",
        "value": "0x0",
        "input": "0x50ed2838000000000000000000000000a0ee7a142d267c1f36714e4a8f75612f20a7972000000000000000000000000000000000000000000000000000000000000d9ae00000000000000000000000000000000000000000000000000000000000000001",
        "nonce": "0x6dd",
        "chainId": "0x28c61"
      },
      "additionalContracts": [],
      "isFixedGasLimit": false
    }
  ],
  "receipts": [
    {
      "status": "0x1",
      "cumulativeGasUsed": "0x7a637",
      "logs": [
        {
          "address": "0xC5aDfe955ECF6783551357efA4D0F92949dE8Ed3",
          "topics": [
            "0xddf252ad1be2c89b69c2b068fc378daa952ba7f163c4a11628f55a4df523b3ef",
            "0x0000000000000000000000000000000000000000000000000000000000000000",
            "0x00000000000000000000000070997970c51812dc3a010c7d01b50e0d17dc79c8",
            "0x00000000000000000000000000000000000000000000000000000000000d9ad8"
          ],
          "data": "0x",
          "blockHash": "0xb800bf4fe07a3e573a3d5f0246fa35e701754c5abd832145560ba48e2a55ca6b",
          "blockNumber": "0xd9ad1",
          "transactionHash": "0x543d34fad488d07f924be67952be03a16f2957155fa2a5a6fd9e84c9ac5acaf5",
          "transactionIndex": "0x9",
          "logIndex": "0xb",
          "removed": false
        }
      ],
      "logsBloom": "0x00000000000000000002000000000000000000000000000000000000000000040000000000001000000000000000000000000000000000000000000000000000000000000000000000000008000000000000000000000000000000000000000000000800020000000000000000000800800000000000000000000010000000000000000000000000000000000000000000000000000000080000000000000000000000000000000000000000000000000000000000000000000000000000000000000002000800000000000000000000000000000000000000000000000020000000000000000000000000000000000001000004000000000000000000000000",
      "type": "0x2",
      "transactionHash": "0x543d34fad488d07f924be67952be03a16f2957155fa2a5a6fd9e84c9ac5acaf5",
      "transactionIndex": "0x9",
      "blockHash": "0xb800bf4fe07a3e573a3d5f0246fa35e701754c5abd832145560ba48e2a55ca6b",
      "blockNumber": "0xd9ad1",
      "gasUsed": "0x10cb7",
      "effectiveGasPrice": "0x86ff52",
      "from": "0x4100a9B680B1Be1F10Cb8b5a57fE59eA77A8184e",
      "to": "0xC5aDfe955ECF6783551357efA4D0F92949dE8Ed3",
      "contractAddress": null
    },
    {
      "status": "0x1",
      "cumulativeGasUsed": "0x91fb2",
      "logs": [
        {
          "address": "0xe276dC810A8a79a441E1744bd4c5aDB9f494CB9B",
          "topics": [
            "0x3ea3314dd8adca61ba5ccef601f00167a9a3c43358bad8b897df2519ee6d3a6c",
            "0x886a0a19e1b8bacbd587a93eb8045279b42aeae404bb7128d90c963e24ba9c92",
            "0x00000000000000000000000070997970c51812dc3a010c7d01b50e0d17dc79c8"
          ],
          "data": "0x00000000000000000000000000000000000000000000000000000000000d9ad800000000000000000000000000000000000000000000000000000000000000000000000000000000000000000000000000000000000000000000000067126608",
          "blockHash": "0xb800bf4fe07a3e573a3d5f0246fa35e701754c5abd832145560ba48e2a55ca6b",
          "blockNumber": "0xd9ad1",
          "transactionHash": "0xb191b5ee9d5b8acf9f9430b346a36df1f8b18b77e13e5397a59087d6a8ad3fd5",
          "transactionIndex": "0xa",
          "logIndex": "0xc",
          "removed": false
        }
      ],
      "logsBloom": "0x00000000000000400002000000000000000000000000000000000000000000000000000000000000000800000000000000000000000000000000000000000000000000000000000000200000000000000000800000000000000000000000000000000800000000000000000000000000000000000000000000000000000000000000000000000000000020000000000000000000000000000000000008000000000000000000000000000000000000000000000000000000000000000000000000000000000000000000020000000000000000000000000000000000000800000000000000000000000000000000000001000000000000000000000000000010",
      "type": "0x2",
      "transactionHash": "0xb191b5ee9d5b8acf9f9430b346a36df1f8b18b77e13e5397a59087d6a8ad3fd5",
      "transactionIndex": "0xa",
      "blockHash": "0xb800bf4fe07a3e573a3d5f0246fa35e701754c5abd832145560ba48e2a55ca6b",
      "blockNumber": "0xd9ad1",
      "gasUsed": "0x1797b",
      "effectiveGasPrice": "0x86ff52",
      "from": "0x4100a9B680B1Be1F10Cb8b5a57fE59eA77A8184e",
      "to": "0xe276dC810A8a79a441E1744bd4c5aDB9f494CB9B",
      "contractAddress": null
    },
    {
      "status": "0x1",
      "cumulativeGasUsed": "0xa2c5d",
      "logs": [
        {
          "address": "0xC5aDfe955ECF6783551357efA4D0F92949dE8Ed3",
          "topics": [
            "0xddf252ad1be2c89b69c2b068fc378daa952ba7f163c4a11628f55a4df523b3ef",
            "0x0000000000000000000000000000000000000000000000000000000000000000",
            "0x0000000000000000000000003c44cdddb6a900fa2b585dd299e03d12fa4293bc",
            "0x00000000000000000000000000000000000000000000000000000000000d9ad9"
          ],
          "data": "0x",
          "blockHash": "0xb800bf4fe07a3e573a3d5f0246fa35e701754c5abd832145560ba48e2a55ca6b",
          "blockNumber": "0xd9ad1",
          "transactionHash": "0xd38bbbcc4f0a3d5e8d68d9c9f4e45693b3354e323830ca25bf78b8c1876c5947",
          "transactionIndex": "0xb",
          "logIndex": "0xd",
          "removed": false
        }
      ],
      "logsBloom": "0x00000000000000000000000000000000000000000000000000000000000400040000000000000000000000000000000000000000000000000000000000100000000000000000000000000008000000000000000000000000000000000000000000000000020000000000000000000800800800000000000000000010000000000000000000000000000000000000000000000000000000000000000000000000000000000000200000000000000000000200000000000000000000000000000000000002000000000000000000000000000000000000000000000000000020000000004000000000000000000000000000000004000000000000000000000000",
      "type": "0x2",
      "transactionHash": "0xd38bbbcc4f0a3d5e8d68d9c9f4e45693b3354e323830ca25bf78b8c1876c5947",
      "transactionIndex": "0xb",
      "blockHash": "0xb800bf4fe07a3e573a3d5f0246fa35e701754c5abd832145560ba48e2a55ca6b",
      "blockNumber": "0xd9ad1",
      "gasUsed": "0x10cab",
      "effectiveGasPrice": "0x86ff52",
      "from": "0x4100a9B680B1Be1F10Cb8b5a57fE59eA77A8184e",
      "to": "0xC5aDfe955ECF6783551357efA4D0F92949dE8Ed3",
      "contractAddress": null
    },
    {
      "status": "0x1",
      "cumulativeGasUsed": "0xbf394",
      "logs": [
        {
          "address": "0xe276dC810A8a79a441E1744bd4c5aDB9f494CB9B",
          "topics": [
            "0x3ea3314dd8adca61ba5ccef601f00167a9a3c43358bad8b897df2519ee6d3a6c",
            "0xcd02ee3f90e1e9e482663f666b26dc75ee595a1dcae4dca398a6cc19354bf910",
            "0x0000000000000000000000003c44cdddb6a900fa2b585dd299e03d12fa4293bc"
          ],
          "data": "0x00000000000000000000000000000000000000000000000000000000000d9ad900000000000000000000000000000000000000000000000000000000000000020000000000000000000000000000000000000000000000000000000067126608",
          "blockHash": "0xb800bf4fe07a3e573a3d5f0246fa35e701754c5abd832145560ba48e2a55ca6b",
          "blockNumber": "0xd9ad1",
          "transactionHash": "0xac41e4a934a1cc1f849e258c3c52644b854729e017236072fefa8d8e4873ea1c",
          "transactionIndex": "0xc",
          "logIndex": "0xe",
          "removed": false
        }
      ],
      "logsBloom": "0x00000000000000000000000000000000000000000000000000000000000000000000000000000000000800000000000000000000000000000000000000100000000000000000000000000000000000000000800000000000000000000000000000000000000000000000000000000000000800000000000000000000000000000000000080000000000020000000000000000400000000000000000000000000000000000000200000000000000000000000000000000000000000000000000000000000000000000000020000000000000000000000000000040000000800000000000000000000000000000000000000000000000000000000000000000010",
      "type": "0x2",
      "transactionHash": "0xac41e4a934a1cc1f849e258c3c52644b854729e017236072fefa8d8e4873ea1c",
      "transactionIndex": "0xc",
      "blockHash": "0xb800bf4fe07a3e573a3d5f0246fa35e701754c5abd832145560ba48e2a55ca6b",
      "blockNumber": "0xd9ad1",
      "gasUsed": "0x1c737",
      "effectiveGasPrice": "0x86ff52",
      "from": "0x4100a9B680B1Be1F10Cb8b5a57fE59eA77A8184e",
      "to": "0xe276dC810A8a79a441E1744bd4c5aDB9f494CB9B",
      "contractAddress": null
    },
    {
      "status": "0x1",
      "cumulativeGasUsed": "0xd004b",
      "logs": [
        {
          "address": "0xC5aDfe955ECF6783551357efA4D0F92949dE8Ed3",
          "topics": [
            "0xddf252ad1be2c89b69c2b068fc378daa952ba7f163c4a11628f55a4df523b3ef",
            "0x0000000000000000000000000000000000000000000000000000000000000000",
            "0x00000000000000000000000090f79bf6eb2c4f870365e785982e1f101e93b906",
            "0x00000000000000000000000000000000000000000000000000000000000d9ada"
          ],
          "data": "0x",
          "blockHash": "0xb800bf4fe07a3e573a3d5f0246fa35e701754c5abd832145560ba48e2a55ca6b",
          "blockNumber": "0xd9ad1",
          "transactionHash": "0xc10f3a2e7ce480519bab973fec880baca5ea1575df95a79b989c12b87112ae62",
          "transactionIndex": "0xd",
          "logIndex": "0xf",
          "removed": false
        }
      ],
      "logsBloom": "0x00000000000000000000000000000004000000000000000000000000000000040000000000000000000000000000000000000000000000000000000000000000000000000000000000000008000000000000000000000000000000000000000000000000020000000000000000000800800000000000000000000010000000000000000000000000000000000000000000000000000000000400000000000008000000000000000000000000000000000000000000000000000010000000000000000002000000000000000000000000400000000000000000000000000020000000000000000000000010000000000000000004000000000000000000000000",
      "type": "0x2",
      "transactionHash": "0xc10f3a2e7ce480519bab973fec880baca5ea1575df95a79b989c12b87112ae62",
      "transactionIndex": "0xd",
      "blockHash": "0xb800bf4fe07a3e573a3d5f0246fa35e701754c5abd832145560ba48e2a55ca6b",
      "blockNumber": "0xd9ad1",
      "gasUsed": "0x10cb7",
      "effectiveGasPrice": "0x86ff52",
      "from": "0x4100a9B680B1Be1F10Cb8b5a57fE59eA77A8184e",
      "to": "0xC5aDfe955ECF6783551357efA4D0F92949dE8Ed3",
      "contractAddress": null
    },
    {
      "status": "0x1",
      "cumulativeGasUsed": "0xe79c6",
      "logs": [
        {
          "address": "0xe276dC810A8a79a441E1744bd4c5aDB9f494CB9B",
          "topics": [
            "0x3ea3314dd8adca61ba5ccef601f00167a9a3c43358bad8b897df2519ee6d3a6c",
            "0xdac8c2e07c2489e99b01ddbd237d56bbac0f21ec3f8e8b3fa175c2a634f3cc64",
            "0x00000000000000000000000090f79bf6eb2c4f870365e785982e1f101e93b906"
          ],
          "data": "0x00000000000000000000000000000000000000000000000000000000000d9ada00000000000000000000000000000000000000000000000000000000000000000000000000000000000000000000000000000000000000000000000067126608",
          "blockHash": "0xb800bf4fe07a3e573a3d5f0246fa35e701754c5abd832145560ba48e2a55ca6b",
          "blockNumber": "0xd9ad1",
          "transactionHash": "0x51f3dd6c3ccfa143574fc9ef60a9d3bdc21d234a63849acc6360ae8285943285",
          "transactionIndex": "0xe",
          "logIndex": "0x10",
          "removed": false
        }
      ],
      "logsBloom": "0x00000000000000400000000000000000000000000000000000000000000000000000000000000000000800000000000000000000000000000000000000000000000000000000000000000000000000000000800000000000000000000000000000000000000000000000000000000000000000000000000000000000000000000000000000000000000020000000000000000000000000000400000000000000000000000000000000000000000000000000000000000000000000000000000000000000000000020000020000000000400000000010000000000000000800000000000000000000000010000000000000000000000000000000000000000010",
      "type": "0x2",
      "transactionHash": "0x51f3dd6c3ccfa143574fc9ef60a9d3bdc21d234a63849acc6360ae8285943285",
      "transactionIndex": "0xe",
      "blockHash": "0xb800bf4fe07a3e573a3d5f0246fa35e701754c5abd832145560ba48e2a55ca6b",
      "blockNumber": "0xd9ad1",
      "gasUsed": "0x1797b",
      "effectiveGasPrice": "0x86ff52",
      "from": "0x4100a9B680B1Be1F10Cb8b5a57fE59eA77A8184e",
      "to": "0xe276dC810A8a79a441E1744bd4c5aDB9f494CB9B",
      "contractAddress": null
    },
    {
      "status": "0x1",
      "cumulativeGasUsed": "0xf867d",
      "logs": [
        {
          "address": "0xC5aDfe955ECF6783551357efA4D0F92949dE8Ed3",
          "topics": [
            "0xddf252ad1be2c89b69c2b068fc378daa952ba7f163c4a11628f55a4df523b3ef",
            "0x0000000000000000000000000000000000000000000000000000000000000000",
            "0x00000000000000000000000015d34aaf54267db7d7c367839aaf71a00a2c6a65",
            "0x00000000000000000000000000000000000000000000000000000000000d9adb"
          ],
          "data": "0x",
          "blockHash": "0xb800bf4fe07a3e573a3d5f0246fa35e701754c5abd832145560ba48e2a55ca6b",
          "blockNumber": "0xd9ad1",
          "transactionHash": "0x719958079015f24b35ace91feaac98ee2b2b7a60eeff9052df051fe6867302f0",
          "transactionIndex": "0xf",
          "logIndex": "0x11",
          "removed": false
        }
      ],
      "logsBloom": "0x00000000040000000000000000000000000000000000000000000000000000040000000000000000000000000000000000000000000000000000000000000000000000000000000000000008000000000000000000000000000000000000000000000000020000000000000000000800800000000000000000000010000000000000000000000000000000000000000000000000000000000000000100000000000200000000000000000000000000020000000000000000000000000000000000000002000000000000000000000000000000000000000000000000000024000000000000000000000000000000000000000004000000000000000400000000",
      "type": "0x2",
      "transactionHash": "0x719958079015f24b35ace91feaac98ee2b2b7a60eeff9052df051fe6867302f0",
      "transactionIndex": "0xf",
      "blockHash": "0xb800bf4fe07a3e573a3d5f0246fa35e701754c5abd832145560ba48e2a55ca6b",
      "blockNumber": "0xd9ad1",
      "gasUsed": "0x10cb7",
      "effectiveGasPrice": "0x86ff52",
      "from": "0x4100a9B680B1Be1F10Cb8b5a57fE59eA77A8184e",
      "to": "0xC5aDfe955ECF6783551357efA4D0F92949dE8Ed3",
      "contractAddress": null
    },
    {
      "status": "0x1",
      "cumulativeGasUsed": "0x114dc0",
      "logs": [
        {
          "address": "0xe276dC810A8a79a441E1744bd4c5aDB9f494CB9B",
          "topics": [
            "0x3ea3314dd8adca61ba5ccef601f00167a9a3c43358bad8b897df2519ee6d3a6c",
            "0x6dd6ab372962e64b3914c1c87840a044d6c6510fb6ea9f1ad2c245eead4092c4",
            "0x00000000000000000000000015d34aaf54267db7d7c367839aaf71a00a2c6a65"
          ],
          "data": "0x00000000000000000000000000000000000000000000000000000000000d9adb00000000000000000000000000000000000000000000000000000000000000010000000000000000000000000000000000000000000000000000000067126608",
          "blockHash": "0xb800bf4fe07a3e573a3d5f0246fa35e701754c5abd832145560ba48e2a55ca6b",
          "blockNumber": "0xd9ad1",
          "transactionHash": "0xb1fb30c45481778e81833fd890584cc8ac294a91ffd4771c73672044f05149df",
          "transactionIndex": "0x10",
          "logIndex": "0x12",
          "removed": false
        }
      ],
      "logsBloom": "0x00000000040000000000000000000000000000000000000000000000000000000000000000000000000800000000000000000000000000000000000000000000000000000000000000000000000000000000800000000000000000000000000000000000000000000000000000000000000000000000000000000000000000001000000000000000000020000000000000000000000000000000000100000000000000000000000000000000000000000000000000000000000000000000000000000000000000000000020000000000000000000000000000000000000804000080000000000000000000000000000000000000000000020000000000000010",
      "type": "0x2",
      "transactionHash": "0xb1fb30c45481778e81833fd890584cc8ac294a91ffd4771c73672044f05149df",
      "transactionIndex": "0x10",
      "blockHash": "0xb800bf4fe07a3e573a3d5f0246fa35e701754c5abd832145560ba48e2a55ca6b",
      "blockNumber": "0xd9ad1",
      "gasUsed": "0x1c743",
      "effectiveGasPrice": "0x86ff52",
      "from": "0x4100a9B680B1Be1F10Cb8b5a57fE59eA77A8184e",
      "to": "0xe276dC810A8a79a441E1744bd4c5aDB9f494CB9B",
      "contractAddress": null
    },
    {
      "status": "0x1",
      "cumulativeGasUsed": "0x125a77",
      "logs": [
        {
          "address": "0xC5aDfe955ECF6783551357efA4D0F92949dE8Ed3",
          "topics": [
            "0xddf252ad1be2c89b69c2b068fc378daa952ba7f163c4a11628f55a4df523b3ef",
            "0x0000000000000000000000000000000000000000000000000000000000000000",
            "0x0000000000000000000000009965507d1a55bcc2695c58ba16fb37d819b0a4dc",
            "0x00000000000000000000000000000000000000000000000000000000000d9adc"
          ],
          "data": "0x",
          "blockHash": "0xb800bf4fe07a3e573a3d5f0246fa35e701754c5abd832145560ba48e2a55ca6b",
          "blockNumber": "0xd9ad1",
          "transactionHash": "0xf6a30f0678f1edaf7ffefc2c75230999702b67486f7a7e25ee7652e9e2701361",
          "transactionIndex": "0x11",
          "logIndex": "0x13",
          "removed": false
        }
      ],
      "logsBloom": "0x00000004000000000000010000000000000000000000000000000000000000040000000000000000000000000000000000000000000000000000000000000000000000000000000000000008000000000000000000008000000000000000000000000000020000000000000000000800800000000000000000000010000000000000000000000000000000000000000000000000000400000000000000000000000000000000000000000000000000000000000000000000000000000000000000000002800002000000000000000000000000000000000000000000000020000000000000000000000000000000000000000004000000000000000000000000",
      "type": "0x2",
      "transactionHash": "0xf6a30f0678f1edaf7ffefc2c75230999702b67486f7a7e25ee7652e9e2701361",
      "transactionIndex": "0x11",
      "blockHash": "0xb800bf4fe07a3e573a3d5f0246fa35e701754c5abd832145560ba48e2a55ca6b",
      "blockNumber": "0xd9ad1",
      "gasUsed": "0x10cb7",
      "effectiveGasPrice": "0x86ff52",
      "from": "0x4100a9B680B1Be1F10Cb8b5a57fE59eA77A8184e",
      "to": "0xC5aDfe955ECF6783551357efA4D0F92949dE8Ed3",
      "contractAddress": null
    },
    {
      "status": "0x1",
      "cumulativeGasUsed": "0x13d3f2",
      "logs": [
        {
          "address": "0xe276dC810A8a79a441E1744bd4c5aDB9f494CB9B",
          "topics": [
            "0x3ea3314dd8adca61ba5ccef601f00167a9a3c43358bad8b897df2519ee6d3a6c",
            "0x707e386d7fb7abd4f13b0b6385d056028336f7127d5036a8a822b3b3b7678035",
            "0x0000000000000000000000009965507d1a55bcc2695c58ba16fb37d819b0a4dc"
          ],
          "data": "0x00000000000000000000000000000000000000000000000000000000000d9adc00000000000000000000000000000000000000000000000000000000000000000000000000000000000000000000000000000000000000000000000067126608",
          "blockHash": "0xb800bf4fe07a3e573a3d5f0246fa35e701754c5abd832145560ba48e2a55ca6b",
          "blockNumber": "0xd9ad1",
          "transactionHash": "0xc3b0df9ee422a1fdab0162c4cd026ed20e2317a5622de9857235b0d764b708e9",
          "transactionIndex": "0x12",
          "logIndex": "0x14",
          "removed": false
        }
      ],
      "logsBloom": "0x00000004000000000000000000000000000000000000000000000000000000000000000000000000000800000000000000000000000000000000000000000000000000000010000000000000000000000000800000008000000000000000000000000000000000000000000000000000000000000000000000000000000000000000000000000000080020000000000000000000000000000000000000000000000000000000000000000000000000000000000000000000000000000000000000000000800000000000020000000000000000000000000000000000000800000000000000000000000000000000001000000000000000000000000000000010",
      "type": "0x2",
      "transactionHash": "0xc3b0df9ee422a1fdab0162c4cd026ed20e2317a5622de9857235b0d764b708e9",
      "transactionIndex": "0x12",
      "blockHash": "0xb800bf4fe07a3e573a3d5f0246fa35e701754c5abd832145560ba48e2a55ca6b",
      "blockNumber": "0xd9ad1",
      "gasUsed": "0x1797b",
      "effectiveGasPrice": "0x86ff52",
      "from": "0x4100a9B680B1Be1F10Cb8b5a57fE59eA77A8184e",
      "to": "0xe276dC810A8a79a441E1744bd4c5aDB9f494CB9B",
      "contractAddress": null
    },
    {
      "status": "0x1",
      "cumulativeGasUsed": "0x14e0a9",
      "logs": [
        {
          "address": "0xC5aDfe955ECF6783551357efA4D0F92949dE8Ed3",
          "topics": [
            "0xddf252ad1be2c89b69c2b068fc378daa952ba7f163c4a11628f55a4df523b3ef",
            "0x0000000000000000000000000000000000000000000000000000000000000000",
            "0x000000000000000000000000976ea74026e726554db657fa54763abd0c3a0aa9",
            "0x00000000000000000000000000000000000000000000000000000000000d9add"
          ],
          "data": "0x",
          "blockHash": "0xb800bf4fe07a3e573a3d5f0246fa35e701754c5abd832145560ba48e2a55ca6b",
          "blockNumber": "0xd9ad1",
          "transactionHash": "0xa42e2807fef85d496f47eaf4ccd646d4321ebd6fdd49b34acb82bd1a522dade6",
          "transactionIndex": "0x13",
          "logIndex": "0x15",
          "removed": false
        }
      ],
      "logsBloom": "0x00000000000000000000000000000000000000040200000000000000000000040000000000000000000000000000000000000000000000000000000000000000000000000000000000010008000000000000000000000000080000000000000000000000020000000000000000000800800000000000000000000010000000000000000000000000000000000000000000000000000000000000000000000000000000000000000000000000000000000000000000000000000000000000000000000002000000000000000000000000000000000000000000000000000020000000000000000000000000000010000000000004000000100000000000000000",
      "type": "0x2",
      "transactionHash": "0xa42e2807fef85d496f47eaf4ccd646d4321ebd6fdd49b34acb82bd1a522dade6",
      "transactionIndex": "0x13",
      "blockHash": "0xb800bf4fe07a3e573a3d5f0246fa35e701754c5abd832145560ba48e2a55ca6b",
      "blockNumber": "0xd9ad1",
      "gasUsed": "0x10cb7",
      "effectiveGasPrice": "0x86ff52",
      "from": "0x4100a9B680B1Be1F10Cb8b5a57fE59eA77A8184e",
      "to": "0xC5aDfe955ECF6783551357efA4D0F92949dE8Ed3",
      "contractAddress": null
    },
    {
      "status": "0x1",
      "cumulativeGasUsed": "0x16a7ec",
      "logs": [
        {
          "address": "0xe276dC810A8a79a441E1744bd4c5aDB9f494CB9B",
          "topics": [
            "0x3ea3314dd8adca61ba5ccef601f00167a9a3c43358bad8b897df2519ee6d3a6c",
            "0x67d96690e8801ec2636173c619faabf2ff3b8dc8d915302f80ed44b316c2d585",
            "0x000000000000000000000000976ea74026e726554db657fa54763abd0c3a0aa9"
          ],
          "data": "0x00000000000000000000000000000000000000000000000000000000000d9add00000000000000000000000000000000000000000000000000000000000000020000000000000000000000000000000000000000000000000000000067126608",
          "blockHash": "0xb800bf4fe07a3e573a3d5f0246fa35e701754c5abd832145560ba48e2a55ca6b",
          "blockNumber": "0xd9ad1",
          "transactionHash": "0xc75dd8dfe4ea8f49b36b78b0a7f819fc14ad383c4d4cf1b7cfdd948575ce327a",
          "transactionIndex": "0x14",
          "logIndex": "0x16",
          "removed": false
        }
      ],
      "logsBloom": "0x00000000000000000000000000000000000000040200000000000000000000000000000000000000000800000000000000000000000000010000000000000000000000000000000000000000000000000000800000000000080000000000000000000000000000000000000000000000000000000000000000000000000000000000000000000000000020000000000000000000002000000000000000000002000000000000000000000000000000000000000000000000000000000000000000000000000000000000020000000000000000000000000000000000000800000000000000000000000000000000000000000000000000000000000000000010",
      "type": "0x2",
      "transactionHash": "0xc75dd8dfe4ea8f49b36b78b0a7f819fc14ad383c4d4cf1b7cfdd948575ce327a",
      "transactionIndex": "0x14",
      "blockHash": "0xb800bf4fe07a3e573a3d5f0246fa35e701754c5abd832145560ba48e2a55ca6b",
      "blockNumber": "0xd9ad1",
      "gasUsed": "0x1c743",
      "effectiveGasPrice": "0x86ff52",
      "from": "0x4100a9B680B1Be1F10Cb8b5a57fE59eA77A8184e",
      "to": "0xe276dC810A8a79a441E1744bd4c5aDB9f494CB9B",
      "contractAddress": null
    },
    {
      "status": "0x1",
      "cumulativeGasUsed": "0x17b4a3",
      "logs": [
        {
          "address": "0xC5aDfe955ECF6783551357efA4D0F92949dE8Ed3",
          "topics": [
            "0xddf252ad1be2c89b69c2b068fc378daa952ba7f163c4a11628f55a4df523b3ef",
            "0x0000000000000000000000000000000000000000000000000000000000000000",
            "0x00000000000000000000000014dc79964da2c08b23698b3d3cc7ca32193d9955",
            "0x00000000000000000000000000000000000000000000000000000000000d9ade"
          ],
          "data": "0x",
          "blockHash": "0xb800bf4fe07a3e573a3d5f0246fa35e701754c5abd832145560ba48e2a55ca6b",
          "blockNumber": "0xd9ad1",
          "transactionHash": "0x6e971fbbf56ad3a056e16594f73920d4205b28fa5cb0508c8a0739b0adc3d960",
          "transactionIndex": "0x15",
          "logIndex": "0x17",
          "removed": false
        }
      ],
      "logsBloom": "0x00000000000000000000000000000000000000000000000000000000000000040000000000000000000000000000000000000000000000000000000000000100000000000000000000000008000000000000000000000400000000000000020000000000020000000000000000000800800100000000000000000010000000000000000000000000000000000000000000000000000000000000000000000000000000000000000000000000000000002000000000000000000000000000000000000002000000000000000000000000040000000000000000000000000020000000000000000000000000000000000000000004000000000000000000000000",
      "type": "0x2",
      "transactionHash": "0x6e971fbbf56ad3a056e16594f73920d4205b28fa5cb0508c8a0739b0adc3d960",
      "transactionIndex": "0x15",
      "blockHash": "0xb800bf4fe07a3e573a3d5f0246fa35e701754c5abd832145560ba48e2a55ca6b",
      "blockNumber": "0xd9ad1",
      "gasUsed": "0x10cb7",
      "effectiveGasPrice": "0x86ff52",
      "from": "0x4100a9B680B1Be1F10Cb8b5a57fE59eA77A8184e",
      "to": "0xC5aDfe955ECF6783551357efA4D0F92949dE8Ed3",
      "contractAddress": null
    },
    {
      "status": "0x1",
      "cumulativeGasUsed": "0x192e1e",
      "logs": [
        {
          "address": "0xe276dC810A8a79a441E1744bd4c5aDB9f494CB9B",
          "topics": [
            "0x3ea3314dd8adca61ba5ccef601f00167a9a3c43358bad8b897df2519ee6d3a6c",
            "0xe50205700a24438f7fc1bf270f28347def27df2d00339047fd79e8442594c5cb",
            "0x00000000000000000000000014dc79964da2c08b23698b3d3cc7ca32193d9955"
          ],
          "data": "0x00000000000000000000000000000000000000000000000000000000000d9ade00000000000000000000000000000000000000000000000000000000000000000000000000000000000000000000000000000000000000000000000067126608",
          "blockHash": "0xb800bf4fe07a3e573a3d5f0246fa35e701754c5abd832145560ba48e2a55ca6b",
          "blockNumber": "0xd9ad1",
          "transactionHash": "0xef62dd71edbf23f008f9b8bc0df1752a22b9cf6f6232cb78312e7df16ebe6a61",
          "transactionIndex": "0x16",
          "logIndex": "0x18",
          "removed": false
        }
      ],
      "logsBloom": "0x00000000000000000000000000000000000000000000400000000000000000000000000000000000000800000000000000000000000000000000000000000000000000000000000000000000000000000000800000000400000000000000000000000000000000000000000000000000000000000000000000000000000000000000000000000000000028000000000000000000000000000000000000000000000000000000000000000000000000002000000000000040000000000000000000000000000000000000020000000000040000000000000000000000000800000000000000000000000000000000000000000000000000000000000000000010",
      "type": "0x2",
      "transactionHash": "0xef62dd71edbf23f008f9b8bc0df1752a22b9cf6f6232cb78312e7df16ebe6a61",
      "transactionIndex": "0x16",
      "blockHash": "0xb800bf4fe07a3e573a3d5f0246fa35e701754c5abd832145560ba48e2a55ca6b",
      "blockNumber": "0xd9ad1",
      "gasUsed": "0x1797b",
      "effectiveGasPrice": "0x86ff52",
      "from": "0x4100a9B680B1Be1F10Cb8b5a57fE59eA77A8184e",
      "to": "0xe276dC810A8a79a441E1744bd4c5aDB9f494CB9B",
      "contractAddress": null
    },
    {
      "status": "0x1",
      "cumulativeGasUsed": "0x1a3ad5",
      "logs": [
        {
          "address": "0xC5aDfe955ECF6783551357efA4D0F92949dE8Ed3",
          "topics": [
            "0xddf252ad1be2c89b69c2b068fc378daa952ba7f163c4a11628f55a4df523b3ef",
            "0x0000000000000000000000000000000000000000000000000000000000000000",
            "0x00000000000000000000000023618e81e3f5cdf7f54c3d65f7fbc0abf5b21e8f",
            "0x00000000000000000000000000000000000000000000000000000000000d9adf"
          ],
          "data": "0x",
          "blockHash": "0xb800bf4fe07a3e573a3d5f0246fa35e701754c5abd832145560ba48e2a55ca6b",
          "blockNumber": "0xd9ad1",
          "transactionHash": "0x546a7e213aa321ac69380096266f8256dc93270060281083b00936e5c3205896",
          "transactionIndex": "0x17",
          "logIndex": "0x19",
          "removed": false
        }
      ],
      "logsBloom": "0x00800000000000000000000000000000000000000000000000000000000000040000000000000000000000000000800000000000000000000000000000000000000000000000000000000008000000000000000000000000000000000000000000000000020000000000000000000800800000000000000000000010000000000000000000100000000000020000000000000000000000000000000000000000000000000000000000000000000000000000000000000000000000000000000000000002000000000000100000000000000000000000000000000000000020000000000000000000000000000000000000000004000000000000008000000000",
      "type": "0x2",
      "transactionHash": "0x546a7e213aa321ac69380096266f8256dc93270060281083b00936e5c3205896",
      "transactionIndex": "0x17",
      "blockHash": "0xb800bf4fe07a3e573a3d5f0246fa35e701754c5abd832145560ba48e2a55ca6b",
      "blockNumber": "0xd9ad1",
      "gasUsed": "0x10cb7",
      "effectiveGasPrice": "0x86ff52",
      "from": "0x4100a9B680B1Be1F10Cb8b5a57fE59eA77A8184e",
      "to": "0xC5aDfe955ECF6783551357efA4D0F92949dE8Ed3",
      "contractAddress": null
    },
    {
      "status": "0x1",
      "cumulativeGasUsed": "0x1c0218",
      "logs": [
        {
          "address": "0xe276dC810A8a79a441E1744bd4c5aDB9f494CB9B",
          "topics": [
            "0x3ea3314dd8adca61ba5ccef601f00167a9a3c43358bad8b897df2519ee6d3a6c",
            "0x30ffb9f9546bfe7e98abf51cc4c55c78cdcf881e117bc62555af06c90e467b9f",
            "0x00000000000000000000000023618e81e3f5cdf7f54c3d65f7fbc0abf5b21e8f"
          ],
          "data": "0x00000000000000000000000000000000000000000000000000000000000d9adf00000000000000000000000000000000000000000000000000000000000000010000000000000000000000000000000000000000000000000000000067126608",
          "blockHash": "0xb800bf4fe07a3e573a3d5f0246fa35e701754c5abd832145560ba48e2a55ca6b",
          "blockNumber": "0xd9ad1",
          "transactionHash": "0xe8c958a40476cb2db7809228f554dfc271c64089ec16dc8076a2db4e4ef4c3cc",
          "transactionIndex": "0x18",
          "logIndex": "0x1a",
          "removed": false
        }
      ],
      "logsBloom": "0x00800000000000000000000000000000000000000000000000000000000000000000000000000000000800000100000000000000000000000000000000000000000000000000000000000000000000000000800000000000000000000000000000000000000000000000000000000000000000000000000000000000000000000000000000000000000020020000000080000000000000000000000000000000000000000000000000000000000000000000000000000000000000000000000000000000000000000000020000000000000000000000000000000000000800000000000000000000000000040000000000000000000000000000008000000010",
      "type": "0x2",
      "transactionHash": "0xe8c958a40476cb2db7809228f554dfc271c64089ec16dc8076a2db4e4ef4c3cc",
      "transactionIndex": "0x18",
      "blockHash": "0xb800bf4fe07a3e573a3d5f0246fa35e701754c5abd832145560ba48e2a55ca6b",
      "blockNumber": "0xd9ad1",
      "gasUsed": "0x1c743",
      "effectiveGasPrice": "0x86ff52",
      "from": "0x4100a9B680B1Be1F10Cb8b5a57fE59eA77A8184e",
      "to": "0xe276dC810A8a79a441E1744bd4c5aDB9f494CB9B",
      "contractAddress": null
    },
    {
      "status": "0x1",
      "cumulativeGasUsed": "0x1d0ecf",
      "logs": [
        {
          "address": "0xC5aDfe955ECF6783551357efA4D0F92949dE8Ed3",
          "topics": [
            "0xddf252ad1be2c89b69c2b068fc378daa952ba7f163c4a11628f55a4df523b3ef",
            "0x0000000000000000000000000000000000000000000000000000000000000000",
            "0x000000000000000000000000a0ee7a142d267c1f36714e4a8f75612f20a79720",
            "0x00000000000000000000000000000000000000000000000000000000000d9ae0"
          ],
          "data": "0x",
          "blockHash": "0xb800bf4fe07a3e573a3d5f0246fa35e701754c5abd832145560ba48e2a55ca6b",
          "blockNumber": "0xd9ad1",
          "transactionHash": "0xef8d8e9a38575a1a103410b391f89a6237af8151dc8f691571afee45dfd910ba",
          "transactionIndex": "0x19",
          "logIndex": "0x1b",
          "removed": false
        }
      ],
      "logsBloom": "0x00000000000000000000040000000000000000000000000000000000000000040000000000800000000000000000000000000000000000000000000000000000000000000000000000000008000000000000000000000000000008000000000000000000020000000000000000000800800000000000000000000010000000000000000000000000000000000000000000000000000000000000000000000000000000000000000000000000000000004000000000000000000000000000000000000002000000000000000000000000000000000000000000004000000020000000000000000000000000000000000000000004000000000000000000000000",
      "type": "0x2",
      "transactionHash": "0xef8d8e9a38575a1a103410b391f89a6237af8151dc8f691571afee45dfd910ba",
      "transactionIndex": "0x19",
      "blockHash": "0xb800bf4fe07a3e573a3d5f0246fa35e701754c5abd832145560ba48e2a55ca6b",
      "blockNumber": "0xd9ad1",
      "gasUsed": "0x10cb7",
      "effectiveGasPrice": "0x86ff52",
      "from": "0x4100a9B680B1Be1F10Cb8b5a57fE59eA77A8184e",
      "to": "0xC5aDfe955ECF6783551357efA4D0F92949dE8Ed3",
      "contractAddress": null
    },
    {
      "status": "0x1",
      "cumulativeGasUsed": "0x1ed612",
      "logs": [
        {
          "address": "0xe276dC810A8a79a441E1744bd4c5aDB9f494CB9B",
          "topics": [
            "0x3ea3314dd8adca61ba5ccef601f00167a9a3c43358bad8b897df2519ee6d3a6c",
            "0x234264f432464648c7bda077766ede62d84ad53a97c5753584aa9c955d53a841",
            "0x000000000000000000000000a0ee7a142d267c1f36714e4a8f75612f20a79720"
          ],
          "data": "0x00000000000000000000000000000000000000000000000000000000000d9ae000000000000000000000000000000000000000000000000000000000000000010000000000000000000000000000000000000000000000000000000067126608",
          "blockHash": "0xb800bf4fe07a3e573a3d5f0246fa35e701754c5abd832145560ba48e2a55ca6b",
          "blockNumber": "0xd9ad1",
          "transactionHash": "0x2313d15cc3015c2c11700eb506d639537a91ed30fece3f72be9a64f89b7375c4",
          "transactionIndex": "0x1a",
          "logIndex": "0x1c",
          "removed": false
        }
      ],
      "logsBloom": "0x00000000000000010000040000000000000000000000000000000000000000000000000000000000000800000000000000000000000000000000000000000000000000000000000000000000000000000000800000000000000008000000000000000000000000000000000000000000200000000000000000000000000000000000000000000000000020000000000000000000000000000000000000000000000000000000000000000000000000000000000000000000000000000000000000000000000000000000020000000000000000000000000000004000000800000000000000000000000000000001000000000000000000000000000000000010",
      "type": "0x2",
      "transactionHash": "0x2313d15cc3015c2c11700eb506d639537a91ed30fece3f72be9a64f89b7375c4",
      "transactionIndex": "0x1a",
      "blockHash": "0xb800bf4fe07a3e573a3d5f0246fa35e701754c5abd832145560ba48e2a55ca6b",
      "blockNumber": "0xd9ad1",
      "gasUsed": "0x1c743",
      "effectiveGasPrice": "0x86ff52",
      "from": "0x4100a9B680B1Be1F10Cb8b5a57fE59eA77A8184e",
      "to": "0xe276dC810A8a79a441E1744bd4c5aDB9f494CB9B",
      "contractAddress": null
    }
  ],
  "libraries": [],
  "pending": [],
  "returns": {},
  "timestamp": 1729259022,
  "chain": 167009,
  "commit": "03851e6"
}