{
  "transactions": [
    {
      "hash": null,
      "transactionType": "CALL",
      "contractName": null,
      "contractAddress": "0x345ddA0F1C094d394627a664082f697A3591B464",
      "function": "mint(address,uint256)",
      "arguments": [
        "0x70997970C51812dc3A010C7d01b50e0d17dc79C8",
        "891004"
      ],
      "transaction": {
        "from": "0x70997970C51812dc3A010C7d01b50e0d17dc79C8",
        "to": "0x345ddA0F1C094d394627a664082f697A3591B464",
        "gas": "0x17329",
        "value": "0x0",
        "input": "0x40c10f1900000000000000000000000070997970c51812dc3a010c7d01b50e0d17dc79c800000000000000000000000000000000000000000000000000000000000d987c",
        "nonce": "0x3",
        "chainId": "0x28c61"
      },
      "additionalContracts": [],
      "isFixedGasLimit": false
    },
    {
      "hash": null,
      "transactionType": "CALL",
      "contractName": null,
      "contractAddress": "0xcd3070AA9ec610f883bf40482751F21E0E0F2c10",
      "function": "register(uint256,uint8)",
      "arguments": [
        "891004",
        "0"
      ],
      "transaction": {
        "from": "0x70997970C51812dc3A010C7d01b50e0d17dc79C8",
        "to": "0xcd3070AA9ec610f883bf40482751F21E0E0F2c10",
        "gas": "0x2a195",
        "value": "0x0",
        "input": "0x23afeb6000000000000000000000000000000000000000000000000000000000000d987c0000000000000000000000000000000000000000000000000000000000000000",
        "nonce": "0x4",
        "chainId": "0x28c61"
      },
      "additionalContracts": [],
      "isFixedGasLimit": false
    },
    {
      "hash": null,
      "transactionType": "CALL",
      "contractName": null,
      "contractAddress": "0x345ddA0F1C094d394627a664082f697A3591B464",
      "function": "mint(address,uint256)",
      "arguments": [
        "0x3C44CdDdB6a900fa2b585dd299e03d12FA4293BC",
        "891005"
      ],
      "transaction": {
        "from": "0x3C44CdDdB6a900fa2b585dd299e03d12FA4293BC",
        "to": "0x345ddA0F1C094d394627a664082f697A3591B464",
        "gas": "0x188ec",
        "value": "0x0",
        "input": "0x40c10f190000000000000000000000003c44cdddb6a900fa2b585dd299e03d12fa4293bc00000000000000000000000000000000000000000000000000000000000d987d",
        "nonce": "0x0",
        "chainId": "0x28c61"
      },
      "additionalContracts": [],
      "isFixedGasLimit": false
    },
    {
      "hash": null,
      "transactionType": "CALL",
      "contractName": null,
      "contractAddress": "0xcd3070AA9ec610f883bf40482751F21E0E0F2c10",
      "function": "register(uint256,uint8)",
      "arguments": [
        "891005",
        "1"
      ],
      "transaction": {
        "from": "0x3C44CdDdB6a900fa2b585dd299e03d12FA4293BC",
        "to": "0xcd3070AA9ec610f883bf40482751F21E0E0F2c10",
        "gas": "0x31356",
        "value": "0x0",
        "input": "0x23afeb6000000000000000000000000000000000000000000000000000000000000d987d0000000000000000000000000000000000000000000000000000000000000001",
        "nonce": "0x1",
        "chainId": "0x28c61"
      },
      "additionalContracts": [],
      "isFixedGasLimit": false
    },
    {
      "hash": null,
      "transactionType": "CALL",
      "contractName": null,
      "contractAddress": "0x345ddA0F1C094d394627a664082f697A3591B464",
      "function": "mint(address,uint256)",
      "arguments": [
        "0x90F79bf6EB2c4f870365E785982E1f101E93b906",
        "891006"
      ],
      "transaction": {
        "from": "0x90F79bf6EB2c4f870365E785982E1f101E93b906",
        "to": "0x345ddA0F1C094d394627a664082f697A3591B464",
        "gas": "0x17329",
        "value": "0x0",
        "input": "0x40c10f1900000000000000000000000090f79bf6eb2c4f870365e785982e1f101e93b90600000000000000000000000000000000000000000000000000000000000d987e",
        "nonce": "0x0",
        "chainId": "0x28c61"
      },
      "additionalContracts": [],
      "isFixedGasLimit": false
    },
    {
      "hash": null,
      "transactionType": "CALL",
      "contractName": null,
      "contractAddress": "0xcd3070AA9ec610f883bf40482751F21E0E0F2c10",
      "function": "register(uint256,uint8)",
      "arguments": [
        "891006",
        "2"
      ],
      "transaction": {
        "from": "0x90F79bf6EB2c4f870365E785982E1f101E93b906",
        "to": "0xcd3070AA9ec610f883bf40482751F21E0E0F2c10",
        "gas": "0x31356",
        "value": "0x0",
        "input": "0x23afeb6000000000000000000000000000000000000000000000000000000000000d987e0000000000000000000000000000000000000000000000000000000000000002",
        "nonce": "0x1",
        "chainId": "0x28c61"
      },
      "additionalContracts": [],
      "isFixedGasLimit": false
    },
    {
      "hash": null,
      "transactionType": "CALL",
      "contractName": null,
      "contractAddress": "0x345ddA0F1C094d394627a664082f697A3591B464",
      "function": "mint(address,uint256)",
      "arguments": [
        "0x15d34AAf54267DB7D7c367839AAf71A00a2C6A65",
        "891007"
      ],
      "transaction": {
        "from": "0x15d34AAf54267DB7D7c367839AAf71A00a2C6A65",
        "to": "0x345ddA0F1C094d394627a664082f697A3591B464",
        "gas": "0x17329",
        "value": "0x0",
        "input": "0x40c10f1900000000000000000000000015d34aaf54267db7d7c367839aaf71a00a2c6a6500000000000000000000000000000000000000000000000000000000000d987f",
        "nonce": "0x0",
        "chainId": "0x28c61"
      },
      "additionalContracts": [],
      "isFixedGasLimit": false
    },
    {
      "hash": null,
      "transactionType": "CALL",
      "contractName": null,
      "contractAddress": "0xcd3070AA9ec610f883bf40482751F21E0E0F2c10",
      "function": "register(uint256,uint8)",
      "arguments": [
        "891007",
        "0"
      ],
      "transaction": {
        "from": "0x15d34AAf54267DB7D7c367839AAf71A00a2C6A65",
        "to": "0xcd3070AA9ec610f883bf40482751F21E0E0F2c10",
        "gas": "0x2a195",
        "value": "0x0",
        "input": "0x23afeb6000000000000000000000000000000000000000000000000000000000000d987f0000000000000000000000000000000000000000000000000000000000000000",
        "nonce": "0x1",
        "chainId": "0x28c61"
      },
      "additionalContracts": [],
      "isFixedGasLimit": false
    },
    {
      "hash": null,
      "transactionType": "CALL",
      "contractName": null,
      "contractAddress": "0x345ddA0F1C094d394627a664082f697A3591B464",
      "function": "mint(address,uint256)",
      "arguments": [
        "0x9965507D1a55bcC2695C58ba16FB37d819B0A4dc",
        "891008"
      ],
      "transaction": {
        "from": "0x9965507D1a55bcC2695C58ba16FB37d819B0A4dc",
        "to": "0x345ddA0F1C094d394627a664082f697A3591B464",
        "gas": "0x17329",
        "value": "0x0",
        "input": "0x40c10f190000000000000000000000009965507d1a55bcc2695c58ba16fb37d819b0a4dc00000000000000000000000000000000000000000000000000000000000d9880",
        "nonce": "0x0",
        "chainId": "0x28c61"
      },
      "additionalContracts": [],
      "isFixedGasLimit": false
    },
    {
      "hash": null,
      "transactionType": "CALL",
      "contractName": null,
      "contractAddress": "0xcd3070AA9ec610f883bf40482751F21E0E0F2c10",
      "function": "register(uint256,uint8)",
      "arguments": [
        "891008",
        "1"
      ],
      "transaction": {
        "from": "0x9965507D1a55bcC2695C58ba16FB37d819B0A4dc",
        "to": "0xcd3070AA9ec610f883bf40482751F21E0E0F2c10",
        "gas": "0x31356",
        "value": "0x0",
        "input": "0x23afeb6000000000000000000000000000000000000000000000000000000000000d98800000000000000000000000000000000000000000000000000000000000000001",
        "nonce": "0x1",
        "chainId": "0x28c61"
      },
      "additionalContracts": [],
      "isFixedGasLimit": false
    },
    {
      "hash": null,
      "transactionType": "CALL",
      "contractName": null,
      "contractAddress": "0x345ddA0F1C094d394627a664082f697A3591B464",
      "function": "mint(address,uint256)",
      "arguments": [
        "0x976EA74026E726554dB657fA54763abd0C3a0aa9",
        "891009"
      ],
      "transaction": {
        "from": "0x976EA74026E726554dB657fA54763abd0C3a0aa9",
        "to": "0x345ddA0F1C094d394627a664082f697A3591B464",
        "gas": "0x17329",
        "value": "0x0",
        "input": "0x40c10f19000000000000000000000000976ea74026e726554db657fa54763abd0c3a0aa900000000000000000000000000000000000000000000000000000000000d9881",
        "nonce": "0x0",
        "chainId": "0x28c61"
      },
      "additionalContracts": [],
      "isFixedGasLimit": false
    },
    {
      "hash": null,
      "transactionType": "CALL",
      "contractName": null,
      "contractAddress": "0xcd3070AA9ec610f883bf40482751F21E0E0F2c10",
      "function": "register(uint256,uint8)",
      "arguments": [
        "891009",
        "2"
      ],
      "transaction": {
        "from": "0x976EA74026E726554dB657fA54763abd0C3a0aa9",
        "to": "0xcd3070AA9ec610f883bf40482751F21E0E0F2c10",
        "gas": "0x31356",
        "value": "0x0",
        "input": "0x23afeb6000000000000000000000000000000000000000000000000000000000000d98810000000000000000000000000000000000000000000000000000000000000002",
        "nonce": "0x1",
        "chainId": "0x28c61"
      },
      "additionalContracts": [],
      "isFixedGasLimit": false
    },
    {
      "hash": null,
      "transactionType": "CALL",
      "contractName": null,
      "contractAddress": "0x345ddA0F1C094d394627a664082f697A3591B464",
      "function": "mint(address,uint256)",
      "arguments": [
        "0x14dC79964da2C08b23698B3D3cc7Ca32193d9955",
        "891010"
      ],
      "transaction": {
        "from": "0x14dC79964da2C08b23698B3D3cc7Ca32193d9955",
        "to": "0x345ddA0F1C094d394627a664082f697A3591B464",
        "gas": "0x17329",
        "value": "0x0",
        "input": "0x40c10f1900000000000000000000000014dc79964da2c08b23698b3d3cc7ca32193d995500000000000000000000000000000000000000000000000000000000000d9882",
        "nonce": "0x0",
        "chainId": "0x28c61"
      },
      "additionalContracts": [],
      "isFixedGasLimit": false
    },
    {
      "hash": null,
      "transactionType": "CALL",
      "contractName": null,
      "contractAddress": "0xcd3070AA9ec610f883bf40482751F21E0E0F2c10",
      "function": "register(uint256,uint8)",
      "arguments": [
        "891010",
        "0"
      ],
      "transaction": {
        "from": "0x14dC79964da2C08b23698B3D3cc7Ca32193d9955",
        "to": "0xcd3070AA9ec610f883bf40482751F21E0E0F2c10",
        "gas": "0x2a195",
        "value": "0x0",
        "input": "0x23afeb6000000000000000000000000000000000000000000000000000000000000d98820000000000000000000000000000000000000000000000000000000000000000",
        "nonce": "0x1",
        "chainId": "0x28c61"
      },
      "additionalContracts": [],
      "isFixedGasLimit": false
    },
    {
      "hash": null,
      "transactionType": "CALL",
      "contractName": null,
      "contractAddress": "0x345ddA0F1C094d394627a664082f697A3591B464",
      "function": "mint(address,uint256)",
      "arguments": [
        "0x23618e81E3f5cdF7f54C3d65f7FBc0aBf5B21E8f",
        "891011"
      ],
      "transaction": {
        "from": "0x23618e81E3f5cdF7f54C3d65f7FBc0aBf5B21E8f",
        "to": "0x345ddA0F1C094d394627a664082f697A3591B464",
        "gas": "0x17329",
        "value": "0x0",
        "input": "0x40c10f1900000000000000000000000023618e81e3f5cdf7f54c3d65f7fbc0abf5b21e8f00000000000000000000000000000000000000000000000000000000000d9883",
        "nonce": "0x0",
        "chainId": "0x28c61"
      },
      "additionalContracts": [],
      "isFixedGasLimit": false
    },
    {
      "hash": null,
      "transactionType": "CALL",
      "contractName": null,
      "contractAddress": "0xcd3070AA9ec610f883bf40482751F21E0E0F2c10",
      "function": "register(uint256,uint8)",
      "arguments": [
        "891011",
        "1"
      ],
      "transaction": {
        "from": "0x23618e81E3f5cdF7f54C3d65f7FBc0aBf5B21E8f",
        "to": "0xcd3070AA9ec610f883bf40482751F21E0E0F2c10",
        "gas": "0x31356",
        "value": "0x0",
        "input": "0x23afeb6000000000000000000000000000000000000000000000000000000000000d98830000000000000000000000000000000000000000000000000000000000000001",
        "nonce": "0x1",
        "chainId": "0x28c61"
      },
      "additionalContracts": [],
      "isFixedGasLimit": false
    },
    {
      "hash": null,
      "transactionType": "CALL",
      "contractName": null,
      "contractAddress": "0x345ddA0F1C094d394627a664082f697A3591B464",
      "function": "mint(address,uint256)",
      "arguments": [
        "0xa0Ee7A142d267C1f36714E4a8F75612F20a79720",
        "891012"
      ],
      "transaction": {
        "from": "0xa0Ee7A142d267C1f36714E4a8F75612F20a79720",
        "to": "0x345ddA0F1C094d394627a664082f697A3591B464",
        "gas": "0x17329",
        "value": "0x0",
        "input": "0x40c10f19000000000000000000000000a0ee7a142d267c1f36714e4a8f75612f20a7972000000000000000000000000000000000000000000000000000000000000d9884",
        "nonce": "0x0",
        "chainId": "0x28c61"
      },
      "additionalContracts": [],
      "isFixedGasLimit": false
    },
    {
      "hash": null,
      "transactionType": "CALL",
      "contractName": null,
      "contractAddress": "0xcd3070AA9ec610f883bf40482751F21E0E0F2c10",
      "function": "register(uint256,uint8)",
      "arguments": [
        "891012",
        "2"
      ],
      "transaction": {
        "from": "0xa0Ee7A142d267C1f36714E4a8F75612F20a79720",
        "to": "0xcd3070AA9ec610f883bf40482751F21E0E0F2c10",
        "gas": "0x31356",
        "value": "0x0",
        "input": "0x23afeb6000000000000000000000000000000000000000000000000000000000000d98840000000000000000000000000000000000000000000000000000000000000002",
        "nonce": "0x1",
        "chainId": "0x28c61"
      },
      "additionalContracts": [],
      "isFixedGasLimit": false
    }
  ],
  "receipts": [],
  "libraries": [],
  "pending": [],
  "returns": {},
  "timestamp": 1729241981,
  "chain": 167009,
  "commit": "5f559d0"
}