{
  "transactions": [
    {
      "hash": "0x047cedf16f35de9b379291118e23a9ba67d2be88e69b72665f6333c357982a8f",
      "transactionType": "CALL",
      "contractName": null,
      "contractAddress": "0x0969C6Fe0d7FF1873d5AbDBf14260C987bF73735",
      "function": "mint(address,uint256)",
      "arguments": [
        "0x70997970C51812dc3A010C7d01b50e0d17dc79C8",
        "891017"
      ],
      "transaction": {
        "from": "0x4100a9B680B1Be1F10Cb8b5a57fE59eA77A8184e",
        "to": "0x0969C6Fe0d7FF1873d5AbDBf14260C987bF73735",
        "gas": "0x17329",
        "value": "0x0",
        "input": "0x40c10f1900000000000000000000000070997970c51812dc3a010c7d01b50e0d17dc79c800000000000000000000000000000000000000000000000000000000000d9889",
        "nonce": "0x627",
        "chainId": "0x28c61"
      },
      "additionalContracts": [],
      "isFixedGasLimit": false
    },
    {
      "hash": "0x43170d6560737040061dad6dc80f7955f2bd0e9c4f0faa2d773641a7f7acade7",
      "transactionType": "CALL",
      "contractName": null,
      "contractAddress": "0xD8152aaA8a2dFAFb356238B14124a9A17D2E1D24",
      "function": "registerPlayer(address,uint256,uint8)",
      "arguments": [
        "0x70997970C51812dc3A010C7d01b50e0d17dc79C8",
        "891017",
        "0"
      ],
      "transaction": {
        "from": "0x4100a9B680B1Be1F10Cb8b5a57fE59eA77A8184e",
        "to": "0xD8152aaA8a2dFAFb356238B14124a9A17D2E1D24",
        "gas": "0x27f8d",
        "value": "0x0",
        "input": "0x50ed283800000000000000000000000070997970c51812dc3a010c7d01b50e0d17dc79c800000000000000000000000000000000000000000000000000000000000d98890000000000000000000000000000000000000000000000000000000000000000",
        "nonce": "0x628",
        "chainId": "0x28c61"
      },
      "additionalContracts": [],
      "isFixedGasLimit": false
    },
    {
      "hash": "0xf7bd6e779360a584620aea1e345da4548e29d1cac2d6a0f9ab04ccb1a40822ad",
      "transactionType": "CALL",
      "contractName": null,
      "contractAddress": "0x0969C6Fe0d7FF1873d5AbDBf14260C987bF73735",
      "function": "mint(address,uint256)",
      "arguments": [
        "0x3C44CdDdB6a900fa2b585dd299e03d12FA4293BC",
        "891018"
      ],
      "transaction": {
        "from": "0x4100a9B680B1Be1F10Cb8b5a57fE59eA77A8184e",
        "to": "0x0969C6Fe0d7FF1873d5AbDBf14260C987bF73735",
        "gas": "0x188ec",
        "value": "0x0",
        "input": "0x40c10f190000000000000000000000003c44cdddb6a900fa2b585dd299e03d12fa4293bc00000000000000000000000000000000000000000000000000000000000d988a",
        "nonce": "0x629",
        "chainId": "0x28c61"
      },
      "additionalContracts": [],
      "isFixedGasLimit": false
    },
    {
      "hash": "0x982bc702a4b68bcfbd7a599ee40ac2e0ae471328e6ad50be7301d41305675ef8",
      "transactionType": "CALL",
      "contractName": null,
      "contractAddress": "0xD8152aaA8a2dFAFb356238B14124a9A17D2E1D24",
      "function": "registerPlayer(address,uint256,uint8)",
      "arguments": [
        "0x3C44CdDdB6a900fa2b585dd299e03d12FA4293BC",
        "891018",
        "1"
      ],
      "transaction": {
        "from": "0x4100a9B680B1Be1F10Cb8b5a57fE59eA77A8184e",
        "to": "0xD8152aaA8a2dFAFb356238B14124a9A17D2E1D24",
        "gas": "0x316dc",
        "value": "0x0",
        "input": "0x50ed28380000000000000000000000003c44cdddb6a900fa2b585dd299e03d12fa4293bc00000000000000000000000000000000000000000000000000000000000d988a0000000000000000000000000000000000000000000000000000000000000001",
        "nonce": "0x62a",
        "chainId": "0x28c61"
      },
      "additionalContracts": [],
      "isFixedGasLimit": false
    },
    {
      "hash": "0xcebfbb9ca031aed36c0b2a400d7450787b63ce3976d263289c3830ff91942053",
      "transactionType": "CALL",
      "contractName": null,
      "contractAddress": "0x0969C6Fe0d7FF1873d5AbDBf14260C987bF73735",
      "function": "mint(address,uint256)",
      "arguments": [
        "0x90F79bf6EB2c4f870365E785982E1f101E93b906",
        "891019"
      ],
      "transaction": {
        "from": "0x4100a9B680B1Be1F10Cb8b5a57fE59eA77A8184e",
        "to": "0x0969C6Fe0d7FF1873d5AbDBf14260C987bF73735",
        "gas": "0x17329",
        "value": "0x0",
        "input": "0x40c10f1900000000000000000000000090f79bf6eb2c4f870365e785982e1f101e93b90600000000000000000000000000000000000000000000000000000000000d988b",
        "nonce": "0x62b",
        "chainId": "0x28c61"
      },
      "additionalContracts": [],
      "isFixedGasLimit": false
    },
    {
      "hash": "0xbdb0f545606831fc08f15a199dcf79719b8a39ec9eb93b7fb0c4479002ce82c4",
      "transactionType": "CALL",
      "contractName": null,
      "contractAddress": "0xD8152aaA8a2dFAFb356238B14124a9A17D2E1D24",
      "function": "registerPlayer(address,uint256,uint8)",
      "arguments": [
        "0x90F79bf6EB2c4f870365E785982E1f101E93b906",
        "891019",
        "2"
      ],
      "transaction": {
        "from": "0x4100a9B680B1Be1F10Cb8b5a57fE59eA77A8184e",
        "to": "0xD8152aaA8a2dFAFb356238B14124a9A17D2E1D24",
        "gas": "0x2eafc",
        "value": "0x0",
        "input": "0x50ed283800000000000000000000000090f79bf6eb2c4f870365e785982e1f101e93b90600000000000000000000000000000000000000000000000000000000000d988b0000000000000000000000000000000000000000000000000000000000000002",
        "nonce": "0x62c",
        "chainId": "0x28c61"
      },
      "additionalContracts": [],
      "isFixedGasLimit": false
    },
    {
      "hash": "0x2c132b80c8eacf4d37f96debaa22a1503dfebf50bddb720763d0a7715463661c",
      "transactionType": "CALL",
      "contractName": null,
      "contractAddress": "0x0969C6Fe0d7FF1873d5AbDBf14260C987bF73735",
      "function": "mint(address,uint256)",
      "arguments": [
        "0x15d34AAf54267DB7D7c367839AAf71A00a2C6A65",
        "891020"
      ],
      "transaction": {
        "from": "0x4100a9B680B1Be1F10Cb8b5a57fE59eA77A8184e",
        "to": "0x0969C6Fe0d7FF1873d5AbDBf14260C987bF73735",
        "gas": "0x17329",
        "value": "0x0",
        "input": "0x40c10f1900000000000000000000000015d34aaf54267db7d7c367839aaf71a00a2c6a6500000000000000000000000000000000000000000000000000000000000d988c",
        "nonce": "0x62d",
        "chainId": "0x28c61"
      },
      "additionalContracts": [],
      "isFixedGasLimit": false
    },
    {
      "hash": "0xdac653818bcccc7ebe441f03607ff62755e006693c0ac84d9a89e0d802acb5cc",
      "transactionType": "CALL",
      "contractName": null,
      "contractAddress": "0xD8152aaA8a2dFAFb356238B14124a9A17D2E1D24",
      "function": "registerPlayer(address,uint256,uint8)",
      "arguments": [
        "0x15d34AAf54267DB7D7c367839AAf71A00a2C6A65",
        "891020",
        "0"
      ],
      "transaction": {
        "from": "0x4100a9B680B1Be1F10Cb8b5a57fE59eA77A8184e",
        "to": "0xD8152aaA8a2dFAFb356238B14124a9A17D2E1D24",
        "gas": "0x27f8d",
        "value": "0x0",
        "input": "0x50ed283800000000000000000000000015d34aaf54267db7d7c367839aaf71a00a2c6a6500000000000000000000000000000000000000000000000000000000000d988c0000000000000000000000000000000000000000000000000000000000000000",
        "nonce": "0x62e",
        "chainId": "0x28c61"
      },
      "additionalContracts": [],
      "isFixedGasLimit": false
    },
    {
      "hash": "0x8bb3021da372a5e44fd84aa0e2fe92c6b0780d1a9ac91d8a97c8f8204abf233d",
      "transactionType": "CALL",
      "contractName": null,
      "contractAddress": "0x0969C6Fe0d7FF1873d5AbDBf14260C987bF73735",
      "function": "mint(address,uint256)",
      "arguments": [
        "0x9965507D1a55bcC2695C58ba16FB37d819B0A4dc",
        "891021"
      ],
      "transaction": {
        "from": "0x4100a9B680B1Be1F10Cb8b5a57fE59eA77A8184e",
        "to": "0x0969C6Fe0d7FF1873d5AbDBf14260C987bF73735",
        "gas": "0x17329",
        "value": "0x0",
        "input": "0x40c10f190000000000000000000000009965507d1a55bcc2695c58ba16fb37d819b0a4dc00000000000000000000000000000000000000000000000000000000000d988d",
        "nonce": "0x62f",
        "chainId": "0x28c61"
      },
      "additionalContracts": [],
      "isFixedGasLimit": false
    },
    {
      "hash": "0x6f8bcbd72a4c7f21aecc57682920a23018ee2ed50600d45f41d7e274255b6af0",
      "transactionType": "CALL",
      "contractName": null,
      "contractAddress": "0xD8152aaA8a2dFAFb356238B14124a9A17D2E1D24",
      "function": "registerPlayer(address,uint256,uint8)",
      "arguments": [
        "0x9965507D1a55bcC2695C58ba16FB37d819B0A4dc",
        "891021",
        "1"
      ],
      "transaction": {
        "from": "0x4100a9B680B1Be1F10Cb8b5a57fE59eA77A8184e",
        "to": "0xD8152aaA8a2dFAFb356238B14124a9A17D2E1D24",
        "gas": "0x2eafc",
        "value": "0x0",
        "input": "0x50ed28380000000000000000000000009965507d1a55bcc2695c58ba16fb37d819b0a4dc00000000000000000000000000000000000000000000000000000000000d988d0000000000000000000000000000000000000000000000000000000000000001",
        "nonce": "0x630",
        "chainId": "0x28c61"
      },
      "additionalContracts": [],
      "isFixedGasLimit": false
    },
    {
      "hash": "0x6619886380c291df2d44f2ec4deb4974f031dae48a6a35cdf5984871e6783764",
      "transactionType": "CALL",
      "contractName": null,
      "contractAddress": "0x0969C6Fe0d7FF1873d5AbDBf14260C987bF73735",
      "function": "mint(address,uint256)",
      "arguments": [
        "0x976EA74026E726554dB657fA54763abd0C3a0aa9",
        "891022"
      ],
      "transaction": {
        "from": "0x4100a9B680B1Be1F10Cb8b5a57fE59eA77A8184e",
        "to": "0x0969C6Fe0d7FF1873d5AbDBf14260C987bF73735",
        "gas": "0x17329",
        "value": "0x0",
        "input": "0x40c10f19000000000000000000000000976ea74026e726554db657fa54763abd0c3a0aa900000000000000000000000000000000000000000000000000000000000d988e",
        "nonce": "0x631",
        "chainId": "0x28c61"
      },
      "additionalContracts": [],
      "isFixedGasLimit": false
    },
    {
      "hash": "0x6d0b4e869f8fad9238c2c9a90d427e9cc01d1ffcb5336ef106af0f0a590b7b04",
      "transactionType": "CALL",
      "contractName": null,
      "contractAddress": "0xD8152aaA8a2dFAFb356238B14124a9A17D2E1D24",
      "function": "registerPlayer(address,uint256,uint8)",
      "arguments": [
        "0x976EA74026E726554dB657fA54763abd0C3a0aa9",
        "891022",
        "2"
      ],
      "transaction": {
        "from": "0x4100a9B680B1Be1F10Cb8b5a57fE59eA77A8184e",
        "to": "0xD8152aaA8a2dFAFb356238B14124a9A17D2E1D24",
        "gas": "0x2eafc",
        "value": "0x0",
        "input": "0x50ed2838000000000000000000000000976ea74026e726554db657fa54763abd0c3a0aa900000000000000000000000000000000000000000000000000000000000d988e0000000000000000000000000000000000000000000000000000000000000002",
        "nonce": "0x632",
        "chainId": "0x28c61"
      },
      "additionalContracts": [],
      "isFixedGasLimit": false
    },
    {
      "hash": "0x0e8558c87e391f71a87560cc392e76d6ecb1c24c944c13895f49dc26351047a1",
      "transactionType": "CALL",
      "contractName": null,
      "contractAddress": "0x0969C6Fe0d7FF1873d5AbDBf14260C987bF73735",
      "function": "mint(address,uint256)",
      "arguments": [
        "0x14dC79964da2C08b23698B3D3cc7Ca32193d9955",
        "891023"
      ],
      "transaction": {
        "from": "0x4100a9B680B1Be1F10Cb8b5a57fE59eA77A8184e",
        "to": "0x0969C6Fe0d7FF1873d5AbDBf14260C987bF73735",
        "gas": "0x17329",
        "value": "0x0",
        "input": "0x40c10f1900000000000000000000000014dc79964da2c08b23698b3d3cc7ca32193d995500000000000000000000000000000000000000000000000000000000000d988f",
        "nonce": "0x633",
        "chainId": "0x28c61"
      },
      "additionalContracts": [],
      "isFixedGasLimit": false
    },
    {
      "hash": "0x7c6336d5c6c38ac65ebc9b75e044598cae648a5e98ccb3c72eed7ce82db48d8d",
      "transactionType": "CALL",
      "contractName": null,
      "contractAddress": "0xD8152aaA8a2dFAFb356238B14124a9A17D2E1D24",
      "function": "registerPlayer(address,uint256,uint8)",
      "arguments": [
        "0x14dC79964da2C08b23698B3D3cc7Ca32193d9955",
        "891023",
        "0"
      ],
      "transaction": {
        "from": "0x4100a9B680B1Be1F10Cb8b5a57fE59eA77A8184e",
        "to": "0xD8152aaA8a2dFAFb356238B14124a9A17D2E1D24",
        "gas": "0x27f8d",
        "value": "0x0",
        "input": "0x50ed283800000000000000000000000014dc79964da2c08b23698b3d3cc7ca32193d995500000000000000000000000000000000000000000000000000000000000d988f0000000000000000000000000000000000000000000000000000000000000000",
        "nonce": "0x634",
        "chainId": "0x28c61"
      },
      "additionalContracts": [],
      "isFixedGasLimit": false
    },
    {
      "hash": "0x0a4ba807d541b16cfa4ec63f592aa176c40bfe26af2255a46df894b7a447995f",
      "transactionType": "CALL",
      "contractName": null,
      "contractAddress": "0x0969C6Fe0d7FF1873d5AbDBf14260C987bF73735",
      "function": "mint(address,uint256)",
      "arguments": [
        "0x23618e81E3f5cdF7f54C3d65f7FBc0aBf5B21E8f",
        "891024"
      ],
      "transaction": {
        "from": "0x4100a9B680B1Be1F10Cb8b5a57fE59eA77A8184e",
        "to": "0x0969C6Fe0d7FF1873d5AbDBf14260C987bF73735",
        "gas": "0x17329",
        "value": "0x0",
        "input": "0x40c10f1900000000000000000000000023618e81e3f5cdf7f54c3d65f7fbc0abf5b21e8f00000000000000000000000000000000000000000000000000000000000d9890",
        "nonce": "0x635",
        "chainId": "0x28c61"
      },
      "additionalContracts": [],
      "isFixedGasLimit": false
    },
    {
      "hash": "0x962e5e61ad4d1e9999bf882d83bedf4e4f932c4b75b356a4f8cb86a92bf71edc",
      "transactionType": "CALL",
      "contractName": null,
      "contractAddress": "0xD8152aaA8a2dFAFb356238B14124a9A17D2E1D24",
      "function": "registerPlayer(address,uint256,uint8)",
      "arguments": [
        "0x23618e81E3f5cdF7f54C3d65f7FBc0aBf5B21E8f",
        "891024",
        "1"
      ],
      "transaction": {
        "from": "0x4100a9B680B1Be1F10Cb8b5a57fE59eA77A8184e",
        "to": "0xD8152aaA8a2dFAFb356238B14124a9A17D2E1D24",
        "gas": "0x2eafc",
        "value": "0x0",
        "input": "0x50ed283800000000000000000000000023618e81e3f5cdf7f54c3d65f7fbc0abf5b21e8f00000000000000000000000000000000000000000000000000000000000d98900000000000000000000000000000000000000000000000000000000000000001",
        "nonce": "0x636",
        "chainId": "0x28c61"
      },
      "additionalContracts": [],
      "isFixedGasLimit": false
    },
    {
      "hash": "0x6a97233a1c1215e3a2ba768e3231b2272f8d1f4dca3db7911c11fb4cd7c63155",
      "transactionType": "CALL",
      "contractName": null,
      "contractAddress": "0x0969C6Fe0d7FF1873d5AbDBf14260C987bF73735",
      "function": "mint(address,uint256)",
      "arguments": [
        "0xa0Ee7A142d267C1f36714E4a8F75612F20a79720",
        "891025"
      ],
      "transaction": {
        "from": "0x4100a9B680B1Be1F10Cb8b5a57fE59eA77A8184e",
        "to": "0x0969C6Fe0d7FF1873d5AbDBf14260C987bF73735",
        "gas": "0x17329",
        "value": "0x0",
        "input": "0x40c10f19000000000000000000000000a0ee7a142d267c1f36714e4a8f75612f20a7972000000000000000000000000000000000000000000000000000000000000d9891",
        "nonce": "0x637",
        "chainId": "0x28c61"
      },
      "additionalContracts": [],
      "isFixedGasLimit": false
    },
    {
      "hash": "0xbf35cf10762682c36f76c1606495c88c7c4e674fc4e2de761d937f96f12add92",
      "transactionType": "CALL",
      "contractName": null,
      "contractAddress": "0xD8152aaA8a2dFAFb356238B14124a9A17D2E1D24",
      "function": "registerPlayer(address,uint256,uint8)",
      "arguments": [
        "0xa0Ee7A142d267C1f36714E4a8F75612F20a79720",
        "891025",
        "2"
      ],
      "transaction": {
        "from": "0x4100a9B680B1Be1F10Cb8b5a57fE59eA77A8184e",
        "to": "0xD8152aaA8a2dFAFb356238B14124a9A17D2E1D24",
        "gas": "0x2eafc",
        "value": "0x0",
        "input": "0x50ed2838000000000000000000000000a0ee7a142d267c1f36714e4a8f75612f20a7972000000000000000000000000000000000000000000000000000000000000d98910000000000000000000000000000000000000000000000000000000000000002",
        "nonce": "0x638",
        "chainId": "0x28c61"
      },
      "additionalContracts": [],
      "isFixedGasLimit": false
    }
  ],
  "receipts": [
    {
      "status": "0x1",
      "cumulativeGasUsed": "0x3c45d",
      "logs": [
        {
          "address": "0x0969C6Fe0d7FF1873d5AbDBf14260C987bF73735",
          "topics": [
            "0xddf252ad1be2c89b69c2b068fc378daa952ba7f163c4a11628f55a4df523b3ef",
            "0x0000000000000000000000000000000000000000000000000000000000000000",
            "0x00000000000000000000000070997970c51812dc3a010c7d01b50e0d17dc79c8",
            "0x00000000000000000000000000000000000000000000000000000000000d9889"
          ],
          "data": "0x",
          "blockHash": "0xe93a4ac9aa53d71e230ab83a793d8b1af79e74a4b7d3da96383fe137e539d9ed",
          "blockNumber": "0xd9882",
          "transactionHash": "0x047cedf16f35de9b379291118e23a9ba67d2be88e69b72665f6333c357982a8f",
          "transactionIndex": "0x1",
          "logIndex": "0x3",
          "removed": false
        }
      ],
      "logsBloom": "0x00000000000000000002000000000000000000000000000000000000000000000000001000000000000000000000000000000000000000000000000000000000000000000000000000000008000000000000020000000000000000000000000000000800020000000000000000000800004000000000000000000010000000000000000000000000000000000000000000000000000020000000000000000000000000000000000000000000000000000000000000000200000000000000000000000002000000000000000000000000080000000000000000000000000020000000000000000000000000000000000001000000000000000000000000000000",
      "type": "0x2",
      "transactionHash": "0x047cedf16f35de9b379291118e23a9ba67d2be88e69b72665f6333c357982a8f",
      "transactionIndex": "0x1",
      "blockHash": "0xe93a4ac9aa53d71e230ab83a793d8b1af79e74a4b7d3da96383fe137e539d9ed",
      "blockNumber": "0xd9882",
      "gasUsed": "0x10cb7",
      "effectiveGasPrice": "0x86ff52",
      "from": "0x4100a9B680B1Be1F10Cb8b5a57fE59eA77A8184e",
      "to": "0x0969C6Fe0d7FF1873d5AbDBf14260C987bF73735",
      "contractAddress": null
    },
    {
      "status": "0x1",
      "cumulativeGasUsed": "0x59364",
      "logs": [
        {
          "address": "0xD8152aaA8a2dFAFb356238B14124a9A17D2E1D24",
          "topics": [
            "0x3ea3314dd8adca61ba5ccef601f00167a9a3c43358bad8b897df2519ee6d3a6c",
            "0xff8ea359550dad8b350ccb0fb5465a291e710c874b4183b79f682096e4100ae4",
            "0x00000000000000000000000070997970c51812dc3a010c7d01b50e0d17dc79c8"
          ],
          "data": "0x00000000000000000000000000000000000000000000000000000000000d988900000000000000000000000000000000000000000000000000000000000000000000000000000000000000000000000000000000000000000000000067122558",
          "blockHash": "0xe93a4ac9aa53d71e230ab83a793d8b1af79e74a4b7d3da96383fe137e539d9ed",
          "blockNumber": "0xd9882",
          "transactionHash": "0x43170d6560737040061dad6dc80f7955f2bd0e9c4f0faa2d773641a7f7acade7",
          "transactionIndex": "0x2",
          "logIndex": "0x4",
          "removed": false
        }
      ],
      "logsBloom": "0x00000000000000000002000000000000000000000000000000000000001000000000000000000000000000000000000000000000000000000000000000000000000000000000000000000000000000000000800000000000000000000000000000000800000008000000000000000000000000008000000000200000000000000000000000000000040000000000000000000000000000000000000000000000000000000000000000000000000000001000000000000000000000000000000000000000000000000000020000000000000000000000000000000000000800000000000000000000000000000000000001000000000000000000000000000000",
      "type": "0x2",
      "transactionHash": "0x43170d6560737040061dad6dc80f7955f2bd0e9c4f0faa2d773641a7f7acade7",
      "transactionIndex": "0x2",
      "blockHash": "0xe93a4ac9aa53d71e230ab83a793d8b1af79e74a4b7d3da96383fe137e539d9ed",
      "blockNumber": "0xd9882",
      "gasUsed": "0x1cf07",
      "effectiveGasPrice": "0x86ff52",
      "from": "0x4100a9B680B1Be1F10Cb8b5a57fE59eA77A8184e",
      "to": "0xD8152aaA8a2dFAFb356238B14124a9A17D2E1D24",
      "contractAddress": null
    },
    {
      "status": "0x1",
      "cumulativeGasUsed": "0x6a00f",
      "logs": [
        {
          "address": "0x0969C6Fe0d7FF1873d5AbDBf14260C987bF73735",
          "topics": [
            "0xddf252ad1be2c89b69c2b068fc378daa952ba7f163c4a11628f55a4df523b3ef",
            "0x0000000000000000000000000000000000000000000000000000000000000000",
            "0x0000000000000000000000003c44cdddb6a900fa2b585dd299e03d12fa4293bc",
            "0x00000000000000000000000000000000000000000000000000000000000d988a"
          ],
          "data": "0x",
          "blockHash": "0xe93a4ac9aa53d71e230ab83a793d8b1af79e74a4b7d3da96383fe137e539d9ed",
          "blockNumber": "0xd9882",
          "transactionHash": "0xf7bd6e779360a584620aea1e345da4548e29d1cac2d6a0f9ab04ccb1a40822ad",
          "transactionIndex": "0x3",
          "logIndex": "0x5",
          "removed": false
        }
      ],
      "logsBloom": "0x00000000000000000000000000000000000000000000000000000000000000000000001000000000000000000000000000000010000000000000000000100000000000000000000000000008000000000000000000000000000000000000000000000000020000000000000000000800000800000000000000000010000000000000000000000000000000000000000000000000000000000000000000000000000000100000200000000000000000000000000000000200000000000000000000000002000000000000000100000000080000000000000000000000000020000000000000000000000000000000000000000000000000000000000000000000",
      "type": "0x2",
      "transactionHash": "0xf7bd6e779360a584620aea1e345da4548e29d1cac2d6a0f9ab04ccb1a40822ad",
      "transactionIndex": "0x3",
      "blockHash": "0xe93a4ac9aa53d71e230ab83a793d8b1af79e74a4b7d3da96383fe137e539d9ed",
      "blockNumber": "0xd9882",
      "gasUsed": "0x10cab",
      "effectiveGasPrice": "0x86ff52",
      "from": "0x4100a9B680B1Be1F10Cb8b5a57fE59eA77A8184e",
      "to": "0x0969C6Fe0d7FF1873d5AbDBf14260C987bF73735",
      "contractAddress": null
    },
    {
      "status": "0x1",
      "cumulativeGasUsed": "0x8bcd2",
      "logs": [
        {
          "address": "0xD8152aaA8a2dFAFb356238B14124a9A17D2E1D24",
          "topics": [
            "0x3ea3314dd8adca61ba5ccef601f00167a9a3c43358bad8b897df2519ee6d3a6c",
            "0x4e7cd9c2921befd647a688585a1d04bcfb12707ba448af8f71804577537fbf9a",
            "0x0000000000000000000000003c44cdddb6a900fa2b585dd299e03d12fa4293bc"
          ],
          "data": "0x00000000000000000000000000000000000000000000000000000000000d988a00000000000000000000000000000000000000000000000000000000000000010000000000000000000000000000000000000000000000000000000067122558",
          "blockHash": "0xe93a4ac9aa53d71e230ab83a793d8b1af79e74a4b7d3da96383fe137e539d9ed",
          "blockNumber": "0xd9882",
          "transactionHash": "0x982bc702a4b68bcfbd7a599ee40ac2e0ae471328e6ad50be7301d41305675ef8",
          "transactionIndex": "0x4",
          "logIndex": "0x6",
          "removed": false
        }
      ],
      "logsBloom": "0x00000000000000000000000000000000000000000000000000000000001000000000000000000000000000000000000000000000000000000000000000100000000000000000000000000000000000000000800000000000000000000000000000000000000000000000100000000000000800000000000000200040000000000000000000000000000000000000000000000000000000000000000000000000000000000000200000000000000000001000000000000000000000000000000000000000000000000000020000000000000000000000000000000000000800000000000000000000000000000000000100000000000000000000000000000000",
      "type": "0x2",
      "transactionHash": "0x982bc702a4b68bcfbd7a599ee40ac2e0ae471328e6ad50be7301d41305675ef8",
      "transactionIndex": "0x4",
      "blockHash": "0xe93a4ac9aa53d71e230ab83a793d8b1af79e74a4b7d3da96383fe137e539d9ed",
      "blockNumber": "0xd9882",
      "gasUsed": "0x21cc3",
      "effectiveGasPrice": "0x86ff52",
      "from": "0x4100a9B680B1Be1F10Cb8b5a57fE59eA77A8184e",
      "to": "0xD8152aaA8a2dFAFb356238B14124a9A17D2E1D24",
      "contractAddress": null
    },
    {
      "status": "0x1",
      "cumulativeGasUsed": "0x9c989",
      "logs": [
        {
          "address": "0x0969C6Fe0d7FF1873d5AbDBf14260C987bF73735",
          "topics": [
            "0xddf252ad1be2c89b69c2b068fc378daa952ba7f163c4a11628f55a4df523b3ef",
            "0x0000000000000000000000000000000000000000000000000000000000000000",
            "0x00000000000000000000000090f79bf6eb2c4f870365e785982e1f101e93b906",
            "0x00000000000000000000000000000000000000000000000000000000000d988b"
          ],
          "data": "0x",
          "blockHash": "0xe93a4ac9aa53d71e230ab83a793d8b1af79e74a4b7d3da96383fe137e539d9ed",
          "blockNumber": "0xd9882",
          "transactionHash": "0xcebfbb9ca031aed36c0b2a400d7450787b63ce3976d263289c3830ff91942053",
          "transactionIndex": "0x5",
          "logIndex": "0x7",
          "removed": false
        }
      ],
      "logsBloom": "0x00002000000000000000000000000000000000000000000000000000000000000000001000000000000000000000000000000000000008000000000000000000000000000000000000000008000000000000000000000000000000000000000000000000020000000000000000000800000000000000000000000010000000000000000000001000000000000000000000000000000000000400000000000000000000000000000000000000000000000000000000000200000000000000000000000002000000000000000000000000480000000000000000000000000020000000000000000000000010000000000000000000000000000000000000000000",
      "type": "0x2",
      "transactionHash": "0xcebfbb9ca031aed36c0b2a400d7450787b63ce3976d263289c3830ff91942053",
      "transactionIndex": "0x5",
      "blockHash": "0xe93a4ac9aa53d71e230ab83a793d8b1af79e74a4b7d3da96383fe137e539d9ed",
      "blockNumber": "0xd9882",
      "gasUsed": "0x10cb7",
      "effectiveGasPrice": "0x86ff52",
      "from": "0x4100a9B680B1Be1F10Cb8b5a57fE59eA77A8184e",
      "to": "0x0969C6Fe0d7FF1873d5AbDBf14260C987bF73735",
      "contractAddress": null
    },
    {
      "status": "0x1",
      "cumulativeGasUsed": "0xbe658",
      "logs": [
        {
          "address": "0xD8152aaA8a2dFAFb356238B14124a9A17D2E1D24",
          "topics": [
            "0x3ea3314dd8adca61ba5ccef601f00167a9a3c43358bad8b897df2519ee6d3a6c",
            "0x56c551863630090846bf7f5cf0c33829720fbda03df507622332cb6e42054664",
            "0x00000000000000000000000090f79bf6eb2c4f870365e785982e1f101e93b906"
          ],
          "data": "0x00000000000000000000000000000000000000000000000000000000000d988b00000000000000000000000000000000000000000000000000000000000000020000000000000000000000000000000000000000000000000000000067122558",
          "blockHash": "0xe93a4ac9aa53d71e230ab83a793d8b1af79e74a4b7d3da96383fe137e539d9ed",
          "blockNumber": "0xd9882",
          "transactionHash": "0xbdb0f545606831fc08f15a199dcf79719b8a39ec9eb93b7fb0c4479002ce82c4",
          "transactionIndex": "0x6",
          "logIndex": "0x8",
          "removed": false
        }
      ],
      "logsBloom": "0x00000000000000000000000000000000000000000000000000000000001000000000000000000000000000000000000000000000000000000000000000000000000000000000000000000000000000000000800000000000000000000000000000000000000000000000000000000000000000000000000000200000000000000600000000000000000000000000000000000000000000000400000000000000000000000000000000000000000000001000000000000000000000000000000040000000000000000000020000000000400000000000000000000000000800000000000000000000000010000000000000000000000000000000000000000000",
      "type": "0x2",
      "transactionHash": "0xbdb0f545606831fc08f15a199dcf79719b8a39ec9eb93b7fb0c4479002ce82c4",
      "transactionIndex": "0x6",
      "blockHash": "0xe93a4ac9aa53d71e230ab83a793d8b1af79e74a4b7d3da96383fe137e539d9ed",
      "blockNumber": "0xd9882",
      "gasUsed": "0x21ccf",
      "effectiveGasPrice": "0x86ff52",
      "from": "0x4100a9B680B1Be1F10Cb8b5a57fE59eA77A8184e",
      "to": "0xD8152aaA8a2dFAFb356238B14124a9A17D2E1D24",
      "contractAddress": null
    },
    {
      "status": "0x1",
      "cumulativeGasUsed": "0xcf30f",
      "logs": [
        {
          "address": "0x0969C6Fe0d7FF1873d5AbDBf14260C987bF73735",
          "topics": [
            "0xddf252ad1be2c89b69c2b068fc378daa952ba7f163c4a11628f55a4df523b3ef",
            "0x0000000000000000000000000000000000000000000000000000000000000000",
            "0x00000000000000000000000015d34aaf54267db7d7c367839aaf71a00a2c6a65",
            "0x00000000000000000000000000000000000000000000000000000000000d988c"
          ],
          "data": "0x",
          "blockHash": "0xe93a4ac9aa53d71e230ab83a793d8b1af79e74a4b7d3da96383fe137e539d9ed",
          "blockNumber": "0xd9882",
          "transactionHash": "0x2c132b80c8eacf4d37f96debaa22a1503dfebf50bddb720763d0a7715463661c",
          "transactionIndex": "0x7",
          "logIndex": "0x9",
          "removed": false
        }
      ],
      "logsBloom": "0x00000000040000000000000000000000000000000000000000000000000000000000001000000000000000000000000000000000000000000000000000000000000000000000000000000008000000000000000000000000000000000000000000000000020000000000000000000800000000000000000000000010000000000000000000000000000000000000000000000000000000000000000100000000000000000000000000200000000000000000000000000200000040080000000000000002000000000000000000000000080000000000000000000000000024000000000000000000000000000000000000000000000000000000000000000000",
      "type": "0x2",
      "transactionHash": "0x2c132b80c8eacf4d37f96debaa22a1503dfebf50bddb720763d0a7715463661c",
      "transactionIndex": "0x7",
      "blockHash": "0xe93a4ac9aa53d71e230ab83a793d8b1af79e74a4b7d3da96383fe137e539d9ed",
      "blockNumber": "0xd9882",
      "gasUsed": "0x10cb7",
      "effectiveGasPrice": "0x86ff52",
      "from": "0x4100a9B680B1Be1F10Cb8b5a57fE59eA77A8184e",
      "to": "0x0969C6Fe0d7FF1873d5AbDBf14260C987bF73735",
      "contractAddress": null
    },
    {
      "status": "0x1",
      "cumulativeGasUsed": "0xec216",
      "logs": [
        {
          "address": "0xD8152aaA8a2dFAFb356238B14124a9A17D2E1D24",
          "topics": [
            "0x3ea3314dd8adca61ba5ccef601f00167a9a3c43358bad8b897df2519ee6d3a6c",
            "0x25bb660ed2f03a9dc7cacc09f219cb53d167a8d8569c83fa8d7b9ce3481f7f01",
            "0x00000000000000000000000015d34aaf54267db7d7c367839aaf71a00a2c6a65"
          ],
          "data": "0x00000000000000000000000000000000000000000000000000000000000d988c00000000000000000000000000000000000000000000000000000000000000000000000000000000000000000000000000000000000000000000000067122558",
          "blockHash": "0xe93a4ac9aa53d71e230ab83a793d8b1af79e74a4b7d3da96383fe137e539d9ed",
          "blockNumber": "0xd9882",
          "transactionHash": "0xdac653818bcccc7ebe441f03607ff62755e006693c0ac84d9a89e0d802acb5cc",
          "transactionIndex": "0x8",
          "logIndex": "0xa",
          "removed": false
        }
      ],
      "logsBloom": "0x00000000040000000008000000000000000000000000000000000000001000000000000000000000000000000000000000000000000000000000000000000000000000000000000000000400000000000000800000000000100000000000000000000000000000000000000000000000000000000000000000200000000000000000000000000000000000000000000000000000000000000000000100000000000000000000000000000000000000001000000000000000000000000000000000000000000000000000020000000000000000000000000000000000000804000000000000000000000000000000000000000000000000000000000000000000",
      "type": "0x2",
      "transactionHash": "0xdac653818bcccc7ebe441f03607ff62755e006693c0ac84d9a89e0d802acb5cc",
      "transactionIndex": "0x8",
      "blockHash": "0xe93a4ac9aa53d71e230ab83a793d8b1af79e74a4b7d3da96383fe137e539d9ed",
      "blockNumber": "0xd9882",
      "gasUsed": "0x1cf07",
      "effectiveGasPrice": "0x86ff52",
      "from": "0x4100a9B680B1Be1F10Cb8b5a57fE59eA77A8184e",
      "to": "0xD8152aaA8a2dFAFb356238B14124a9A17D2E1D24",
      "contractAddress": null
    },
    {
      "status": "0x1",
      "cumulativeGasUsed": "0xfcecd",
      "logs": [
        {
          "address": "0x0969C6Fe0d7FF1873d5AbDBf14260C987bF73735",
          "topics": [
            "0xddf252ad1be2c89b69c2b068fc378daa952ba7f163c4a11628f55a4df523b3ef",
            "0x0000000000000000000000000000000000000000000000000000000000000000",
            "0x0000000000000000000000009965507d1a55bcc2695c58ba16fb37d819b0a4dc",
            "0x00000000000000000000000000000000000000000000000000000000000d988d"
          ],
          "data": "0x",
          "blockHash": "0xe93a4ac9aa53d71e230ab83a793d8b1af79e74a4b7d3da96383fe137e539d9ed",
          "blockNumber": "0xd9882",
          "transactionHash": "0x8bb3021da372a5e44fd84aa0e2fe92c6b0780d1a9ac91d8a97c8f8204abf233d",
          "transactionIndex": "0x9",
          "logIndex": "0xb",
          "removed": false
        }
      ],
      "logsBloom": "0x00000004000000000000000000000000000100000000000000000000000000000000001000000000000000000000000000000000000000000000200000000000000000000000000000000008000000000000000000008000000000000000000000000000020000000000000000000800000000000000000000000010000000000000000000000000000000000000000000000000000000000000000000000000000000000000000000000000000000000000000000000200000000000000000000000002800000000000000400000000080000000000000000000000000020000000000000000000000000000000000000000000000000000000000000000000",
      "type": "0x2",
      "transactionHash": "0x8bb3021da372a5e44fd84aa0e2fe92c6b0780d1a9ac91d8a97c8f8204abf233d",
      "transactionIndex": "0x9",
      "blockHash": "0xe93a4ac9aa53d71e230ab83a793d8b1af79e74a4b7d3da96383fe137e539d9ed",
      "blockNumber": "0xd9882",
      "gasUsed": "0x10cb7",
      "effectiveGasPrice": "0x86ff52",
      "from": "0x4100a9B680B1Be1F10Cb8b5a57fE59eA77A8184e",
      "to": "0x0969C6Fe0d7FF1873d5AbDBf14260C987bF73735",
      "contractAddress": null
    },
    {
      "status": "0x1",
      "cumulativeGasUsed": "0x11eb9c",
      "logs": [
        {
          "address": "0xD8152aaA8a2dFAFb356238B14124a9A17D2E1D24",
          "topics": [
            "0x3ea3314dd8adca61ba5ccef601f00167a9a3c43358bad8b897df2519ee6d3a6c",
            "0x3f4d21e71be684e7fe0f1bb0926a8147337d25f29436a08cadd91674395ea3ad",
            "0x0000000000000000000000009965507d1a55bcc2695c58ba16fb37d819b0a4dc"
          ],
          "data": "0x00000000000000000000000000000000000000000000000000000000000d988d00000000000000000000000000000000000000000000000000000000000000010000000000000000000000000000000000000000000000000000000067122558",
          "blockHash": "0xe93a4ac9aa53d71e230ab83a793d8b1af79e74a4b7d3da96383fe137e539d9ed",
          "blockNumber": "0xd9882",
          "transactionHash": "0x6f8bcbd72a4c7f21aecc57682920a23018ee2ed50600d45f41d7e274255b6af0",
          "transactionIndex": "0xa",
          "logIndex": "0xc",
          "removed": false
        }
      ],
      "logsBloom": "0x0000000c000000000000000000000000000000000000000000000000001000000000000000000000000000000000000000000000000000000000000000000000000000000000000000000000000000000000800000008010000000000000000000000000000000000000000000000000000000000000000000200000000000000000000000000000000000000000000000000000000000000000000000000000000000000000000000000000000000001000000000000000000000000000000000000000800000000000020000000000000000000000000000000000000800000000000000000000000000000000000004000000000000000000000000000000",
      "type": "0x2",
      "transactionHash": "0x6f8bcbd72a4c7f21aecc57682920a23018ee2ed50600d45f41d7e274255b6af0",
      "transactionIndex": "0xa",
      "blockHash": "0xe93a4ac9aa53d71e230ab83a793d8b1af79e74a4b7d3da96383fe137e539d9ed",
      "blockNumber": "0xd9882",
      "gasUsed": "0x21ccf",
      "effectiveGasPrice": "0x86ff52",
      "from": "0x4100a9B680B1Be1F10Cb8b5a57fE59eA77A8184e",
      "to": "0xD8152aaA8a2dFAFb356238B14124a9A17D2E1D24",
      "contractAddress": null
    },
    {
      "status": "0x1",
      "cumulativeGasUsed": "0x12f853",
      "logs": [
        {
          "address": "0x0969C6Fe0d7FF1873d5AbDBf14260C987bF73735",
          "topics": [
            "0xddf252ad1be2c89b69c2b068fc378daa952ba7f163c4a11628f55a4df523b3ef",
            "0x0000000000000000000000000000000000000000000000000000000000000000",
            "0x000000000000000000000000976ea74026e726554db657fa54763abd0c3a0aa9",
            "0x00000000000000000000000000000000000000000000000000000000000d988e"
          ],
          "data": "0x",
          "blockHash": "0xe93a4ac9aa53d71e230ab83a793d8b1af79e74a4b7d3da96383fe137e539d9ed",
          "blockNumber": "0xd9882",
          "transactionHash": "0x6619886380c291df2d44f2ec4deb4974f031dae48a6a35cdf5984871e6783764",
          "transactionIndex": "0xb",
          "logIndex": "0xd",
          "removed": false
        }
      ],
      "logsBloom": "0x00000000000000000000000000000000000000040200000000000000000000000000001000000000000000000000000000000000000000000000000000000000000000000000000000000008000000000000000000000000080000000000000000000000020000000000000000000800000000000000000000000010000000000080000000000000000000000000000000000000000000000000000000000000000000000000000000000000000000000000000000000200000000000000000000000002000000000000000000000000082000000000800000000000000020000000000000000000000000000000000000000000000000000000000000000000",
      "type": "0x2",
      "transactionHash": "0x6619886380c291df2d44f2ec4deb4974f031dae48a6a35cdf5984871e6783764",
      "transactionIndex": "0xb",
      "blockHash": "0xe93a4ac9aa53d71e230ab83a793d8b1af79e74a4b7d3da96383fe137e539d9ed",
      "blockNumber": "0xd9882",
      "gasUsed": "0x10cb7",
      "effectiveGasPrice": "0x86ff52",
      "from": "0x4100a9B680B1Be1F10Cb8b5a57fE59eA77A8184e",
      "to": "0x0969C6Fe0d7FF1873d5AbDBf14260C987bF73735",
      "contractAddress": null
    },
    {
      "status": "0x1",
      "cumulativeGasUsed": "0x151522",
      "logs": [
        {
          "address": "0xD8152aaA8a2dFAFb356238B14124a9A17D2E1D24",
          "topics": [
            "0x3ea3314dd8adca61ba5ccef601f00167a9a3c43358bad8b897df2519ee6d3a6c",
            "0x54495dc1edbdec05a4861ac78c90803e0a0a644fe46de2711658ee9db98f8622",
            "0x000000000000000000000000976ea74026e726554db657fa54763abd0c3a0aa9"
          ],
          "data": "0x00000000000000000000000000000000000000000000000000000000000d988e00000000000000000000000000000000000000000000000000000000000000020000000000000000000000000000000000000000000000000000000067122558",
          "blockHash": "0xe93a4ac9aa53d71e230ab83a793d8b1af79e74a4b7d3da96383fe137e539d9ed",
          "blockNumber": "0xd9882",
          "transactionHash": "0x6d0b4e869f8fad9238c2c9a90d427e9cc01d1ffcb5336ef106af0f0a590b7b04",
          "transactionIndex": "0xc",
          "logIndex": "0xe",
          "removed": false
        }
      ],
      "logsBloom": "0x00000000000000000000000000000000000000040200000002000000003000000000000000000000000000000000000000000000000000000000000000000000000000000000000000000000000000000000800000000000080000000000000000000000000000000000000000000000000000000000000000200000000000000000000000000000000000000000000000000000000000000000000000000000000000000000000001000000000000001000000000000000000000000000000000000000000000000000020000000000000000000000000000000000000800000000000000000000000000000000000000000000000000000000000000000000",
      "type": "0x2",
      "transactionHash": "0x6d0b4e869f8fad9238c2c9a90d427e9cc01d1ffcb5336ef106af0f0a590b7b04",
      "transactionIndex": "0xc",
      "blockHash": "0xe93a4ac9aa53d71e230ab83a793d8b1af79e74a4b7d3da96383fe137e539d9ed",
      "blockNumber": "0xd9882",
      "gasUsed": "0x21ccf",
      "effectiveGasPrice": "0x86ff52",
      "from": "0x4100a9B680B1Be1F10Cb8b5a57fE59eA77A8184e",
      "to": "0xD8152aaA8a2dFAFb356238B14124a9A17D2E1D24",
      "contractAddress": null
    },
    {
      "status": "0x1",
      "cumulativeGasUsed": "0x1621d9",
      "logs": [
        {
          "address": "0x0969C6Fe0d7FF1873d5AbDBf14260C987bF73735",
          "topics": [
            "0xddf252ad1be2c89b69c2b068fc378daa952ba7f163c4a11628f55a4df523b3ef",
            "0x0000000000000000000000000000000000000000000000000000000000000000",
            "0x00000000000000000000000014dc79964da2c08b23698b3d3cc7ca32193d9955",
            "0x00000000000000000000000000000000000000000000000000000000000d988f"
          ],
          "data": "0x",
          "blockHash": "0xe93a4ac9aa53d71e230ab83a793d8b1af79e74a4b7d3da96383fe137e539d9ed",
          "blockNumber": "0xd9882",
          "transactionHash": "0x0e8558c87e391f71a87560cc392e76d6ecb1c24c944c13895f49dc26351047a1",
          "transactionIndex": "0xd",
          "logIndex": "0xf",
          "removed": false
        }
      ],
      "logsBloom": "0x000000000000000020000000000000000000000000000000000002000000000000000010000000000000000000000000000000000000000000000000000000000000000000000000000000080000000000000000000004000000000000000000000000000200000000000000000008000000000000000000000000100000000000000000000000000000000000000000000000000000000000000000000000000000000000000000000000000000000020000000000002000000000000000000000000020000000000000000000000000c0000000000000000000000000020000000000000000000000000000000100000000000000000000000000000000000",
      "type": "0x2",
      "transactionHash": "0x0e8558c87e391f71a87560cc392e76d6ecb1c24c944c13895f49dc26351047a1",
      "transactionIndex": "0xd",
      "blockHash": "0xe93a4ac9aa53d71e230ab83a793d8b1af79e74a4b7d3da96383fe137e539d9ed",
      "blockNumber": "0xd9882",
      "gasUsed": "0x10cb7",
      "effectiveGasPrice": "0x86ff52",
      "from": "0x4100a9B680B1Be1F10Cb8b5a57fE59eA77A8184e",
      "to": "0x0969C6Fe0d7FF1873d5AbDBf14260C987bF73735",
      "contractAddress": null
    },
    {
      "status": "0x1",
      "cumulativeGasUsed": "0x17f0e0",
      "logs": [
        {
          "address": "0xD8152aaA8a2dFAFb356238B14124a9A17D2E1D24",
          "topics": [
            "0x3ea3314dd8adca61ba5ccef601f00167a9a3c43358bad8b897df2519ee6d3a6c",
            "0xd81abec2cf73a320bc51d93d4b8a03efb28a5e991a779cb2d57c417c5500c988",
            "0x00000000000000000000000014dc79964da2c08b23698b3d3cc7ca32193d9955"
          ],
          "data": "0x00000000000000000000000000000000000000000000000000000000000d988f00000000000000000000000000000000000000000000000000000000000000000000000000000000000000000000000000000000000000000000000067122558",
          "blockHash": "0xe93a4ac9aa53d71e230ab83a793d8b1af79e74a4b7d3da96383fe137e539d9ed",
          "blockNumber": "0xd9882",
          "transactionHash": "0x7c6336d5c6c38ac65ebc9b75e044598cae648a5e98ccb3c72eed7ce82db48d8d",
          "transactionIndex": "0xe",
          "logIndex": "0x10",
          "removed": false
        }
      ],
      "logsBloom": "0x00000000000000000000000000000000000000000000000000000000001000000000000000000000000000000000000000000000008000000000000000000000000000000000000000000000000000000000800000000400000000000000000000000000000000000000000000000000000000000000000000200000000200000000000000000000000000000000000000000000000000000000000000000000000000000000000000000000000000003000000000000000000000000000000000000000000000000000020000000000040000000000000000000000000800000000000000000000000000000000000000200000000000000000000000000000",
      "type": "0x2",
      "transactionHash": "0x7c6336d5c6c38ac65ebc9b75e044598cae648a5e98ccb3c72eed7ce82db48d8d",
      "transactionIndex": "0xe",
      "blockHash": "0xe93a4ac9aa53d71e230ab83a793d8b1af79e74a4b7d3da96383fe137e539d9ed",
      "blockNumber": "0xd9882",
      "gasUsed": "0x1cf07",
      "effectiveGasPrice": "0x86ff52",
      "from": "0x4100a9B680B1Be1F10Cb8b5a57fE59eA77A8184e",
      "to": "0xD8152aaA8a2dFAFb356238B14124a9A17D2E1D24",
      "contractAddress": null
    },
    {
      "status": "0x1",
      "cumulativeGasUsed": "0x18fd97",
      "logs": [
        {
          "address": "0x0969C6Fe0d7FF1873d5AbDBf14260C987bF73735",
          "topics": [
            "0xddf252ad1be2c89b69c2b068fc378daa952ba7f163c4a11628f55a4df523b3ef",
            "0x0000000000000000000000000000000000000000000000000000000000000000",
            "0x00000000000000000000000023618e81e3f5cdf7f54c3d65f7fbc0abf5b21e8f",
            "0x00000000000000000000000000000000000000000000000000000000000d9890"
          ],
          "data": "0x",
          "blockHash": "0xe93a4ac9aa53d71e230ab83a793d8b1af79e74a4b7d3da96383fe137e539d9ed",
          "blockNumber": "0xd9882",
          "transactionHash": "0x0a4ba807d541b16cfa4ec63f592aa176c40bfe26af2255a46df894b7a447995f",
          "transactionIndex": "0xf",
          "logIndex": "0x11",
          "removed": false
        }
      ],
      "logsBloom": "0x00800000000000000000000000000000000000000000000000000000000000000000001000000000000000000000000000000000000000000000000000000000000000000000000000000008000000000000000000000000000000000000000000000000020000000000000000000800000000000000000000000010000000000000000000000000000000020000000000000000000000000000000002000000000000200000000000000000000000000000000000000200000000000000000000000002000000000000000000000000080000000000000000000000000020000000000000000000000000000000000000000000000000000000008000000000",
      "type": "0x2",
      "transactionHash": "0x0a4ba807d541b16cfa4ec63f592aa176c40bfe26af2255a46df894b7a447995f",
      "transactionIndex": "0xf",
      "blockHash": "0xe93a4ac9aa53d71e230ab83a793d8b1af79e74a4b7d3da96383fe137e539d9ed",
      "blockNumber": "0xd9882",
      "gasUsed": "0x10cb7",
      "effectiveGasPrice": "0x86ff52",
      "from": "0x4100a9B680B1Be1F10Cb8b5a57fE59eA77A8184e",
      "to": "0x0969C6Fe0d7FF1873d5AbDBf14260C987bF73735",
      "contractAddress": null
    },
    {
      "status": "0x1",
      "cumulativeGasUsed": "0x1b1a66",
      "logs": [
        {
          "address": "0xD8152aaA8a2dFAFb356238B14124a9A17D2E1D24",
          "topics": [
            "0x3ea3314dd8adca61ba5ccef601f00167a9a3c43358bad8b897df2519ee6d3a6c",
            "0x87f57c0440d317c2730e096926d270f56665940c98dd5b4e0d1632bd45d845b7",
            "0x00000000000000000000000023618e81e3f5cdf7f54c3d65f7fbc0abf5b21e8f"
          ],
          "data": "0x00000000000000000000000000000000000000000000000000000000000d989000000000000000000000000000000000000000000000000000000000000000010000000000000000000000000000000000000000000000000000000067122558",
          "blockHash": "0xe93a4ac9aa53d71e230ab83a793d8b1af79e74a4b7d3da96383fe137e539d9ed",
          "blockNumber": "0xd9882",
          "transactionHash": "0x962e5e61ad4d1e9999bf882d83bedf4e4f932c4b75b356a4f8cb86a92bf71edc",
          "transactionIndex": "0x10",
          "logIndex": "0x12",
          "removed": false
        }
      ],
      "logsBloom": "0x00800000000000000000000000000000000000000000000000000000001000000000000000000000000000000000000000000000000000000000000000000000000000000000000000000000000000000000800000000000000020000000000000000000000000000000000000000000000000000000000000200000000000000000000000000000000000020000000000000000000000000000200000000000000000000000000000800000000000001000000000000000000000000000000000000000000000000000020000000000000000000000000000000000000800000000000000000000000000000000000000000000000000000000008000000000",
      "type": "0x2",
      "transactionHash": "0x962e5e61ad4d1e9999bf882d83bedf4e4f932c4b75b356a4f8cb86a92bf71edc",
      "transactionIndex": "0x10",
      "blockHash": "0xe93a4ac9aa53d71e230ab83a793d8b1af79e74a4b7d3da96383fe137e539d9ed",
      "blockNumber": "0xd9882",
      "gasUsed": "0x21ccf",
      "effectiveGasPrice": "0x86ff52",
      "from": "0x4100a9B680B1Be1F10Cb8b5a57fE59eA77A8184e",
      "to": "0xD8152aaA8a2dFAFb356238B14124a9A17D2E1D24",
      "contractAddress": null
    },
    {
      "status": "0x1",
      "cumulativeGasUsed": "0x1c271d",
      "logs": [
        {
          "address": "0x0969C6Fe0d7FF1873d5AbDBf14260C987bF73735",
          "topics": [
            "0xddf252ad1be2c89b69c2b068fc378daa952ba7f163c4a11628f55a4df523b3ef",
            "0x0000000000000000000000000000000000000000000000000000000000000000",
            "0x000000000000000000000000a0ee7a142d267c1f36714e4a8f75612f20a79720",
            "0x00000000000000000000000000000000000000000000000000000000000d9891"
          ],
          "data": "0x",
          "blockHash": "0xe93a4ac9aa53d71e230ab83a793d8b1af79e74a4b7d3da96383fe137e539d9ed",
          "blockNumber": "0xd9882",
          "transactionHash": "0x6a97233a1c1215e3a2ba768e3231b2272f8d1f4dca3db7911c11fb4cd7c63155",
          "transactionIndex": "0x11",
          "logIndex": "0x13",
          "removed": false
        }
      ],
      "logsBloom": "0x00000000000000000000040000000000000000000000000000000000000000000000001000000000000000000000000000000000000000000000000000000000000000000000000000000008000000000000000000000000000008000000000000000000020000000000000000000800000000000000000000000010000000000000000000000000010000000000000000000000000000000000000000000000000000000000000000000000000000008000000000000200000000000000000000000002000000000000000000000000080000000000000000004000000020000000000000000000000000000000000000200000000000000000000000000000",
      "type": "0x2",
      "transactionHash": "0x6a97233a1c1215e3a2ba768e3231b2272f8d1f4dca3db7911c11fb4cd7c63155",
      "transactionIndex": "0x11",
      "blockHash": "0xe93a4ac9aa53d71e230ab83a793d8b1af79e74a4b7d3da96383fe137e539d9ed",
      "blockNumber": "0xd9882",
      "gasUsed": "0x10cb7",
      "effectiveGasPrice": "0x86ff52",
      "from": "0x4100a9B680B1Be1F10Cb8b5a57fE59eA77A8184e",
      "to": "0x0969C6Fe0d7FF1873d5AbDBf14260C987bF73735",
      "contractAddress": null
    },
    {
      "status": "0x1",
      "cumulativeGasUsed": "0x1e43ec",
      "logs": [
        {
          "address": "0xD8152aaA8a2dFAFb356238B14124a9A17D2E1D24",
          "topics": [
            "0x3ea3314dd8adca61ba5ccef601f00167a9a3c43358bad8b897df2519ee6d3a6c",
            "0xf43118303efb67a881188f7543651765b612a0d0042cea508b7644d1ba9fd063",
            "0x000000000000000000000000a0ee7a142d267c1f36714e4a8f75612f20a79720"
          ],
          "data": "0x00000000000000000000000000000000000000000000000000000000000d989100000000000000000000000000000000000000000000000000000000000000020000000000000000000000000000000000000000000000000000000067122558",
          "blockHash": "0xe93a4ac9aa53d71e230ab83a793d8b1af79e74a4b7d3da96383fe137e539d9ed",
          "blockNumber": "0xd9882",
          "transactionHash": "0xbf35cf10762682c36f76c1606495c88c7c4e674fc4e2de761d937f96f12add92",
          "transactionIndex": "0x12",
          "logIndex": "0x14",
          "removed": false
        }
      ],
      "logsBloom": "0x00000000000000000000040000000000000000000000000000000000001000000000000000000000000000000000000000000000000000000000000000000000000000000000000000004000000000000000800000000020000008000000000000000000000000000000000000000000000000000000000000200000000000000000000000000000000000000000000000000000000000000000000000000000000000000000000000000000000000001000000000000000000000000000000000000000000000000000020000400000000000000000000000004000000800000000000000000000000000000000000000000000000000000000000000000000",
      "type": "0x2",
      "transactionHash": "0xbf35cf10762682c36f76c1606495c88c7c4e674fc4e2de761d937f96f12add92",
      "transactionIndex": "0x12",
      "blockHash": "0xe93a4ac9aa53d71e230ab83a793d8b1af79e74a4b7d3da96383fe137e539d9ed",
      "blockNumber": "0xd9882",
      "gasUsed": "0x21ccf",
      "effectiveGasPrice": "0x86ff52",
      "from": "0x4100a9B680B1Be1F10Cb8b5a57fE59eA77A8184e",
      "to": "0xD8152aaA8a2dFAFb356238B14124a9A17D2E1D24",
      "contractAddress": null
    }
  ],
  "libraries": [],
  "pending": [],
  "returns": {},
  "timestamp": 1729242464,
  "chain": 167009,
  "commit": "5f559d0"
}