{
  "transactions": [
    {
      "hash": "0xb4b273d106ae63288877c0a390f60839e3c6f74b41e736fb47066057b34adfc5",
      "transactionType": "CALL",
      "contractName": null,
      "contractAddress": "0xE8a7fdf07e95B0087dFB42f63FA91B15Ec0B9954",
      "function": "mint(address,uint256)",
      "arguments": [
        "0x70997970C51812dc3A010C7d01b50e0d17dc79C8",
        "891402"
      ],
      "transaction": {
        "from": "0x4100a9B680B1Be1F10Cb8b5a57fE59eA77A8184e",
        "to": "0xE8a7fdf07e95B0087dFB42f63FA91B15Ec0B9954",
        "gas": "0x17329",
        "value": "0x0",
        "input": "0x40c10f1900000000000000000000000070997970c51812dc3a010c7d01b50e0d17dc79c800000000000000000000000000000000000000000000000000000000000d9a0a",
        "nonce": "0x6a2",
        "chainId": "0x28c61"
      },
      "additionalContracts": [],
      "isFixedGasLimit": false
    },
    {
      "hash": "0x0a5899e501f235dab82eb4e616175c0491a0789208a872b600b1e5f59081b07f",
      "transactionType": "CALL",
      "contractName": null,
      "contractAddress": "0xd21316257130d01DC8A49Da8A0Cba947f83acfC8",
      "function": "registerPlayer(address,uint256,uint8)",
      "arguments": [
        "0x70997970C51812dc3A010C7d01b50e0d17dc79C8",
        "891402",
        "0"
      ],
      "transaction": {
        "from": "0x4100a9B680B1Be1F10Cb8b5a57fE59eA77A8184e",
        "to": "0xd21316257130d01DC8A49Da8A0Cba947f83acfC8",
        "gas": "0x27f8d",
        "value": "0x0",
        "input": "0x50ed283800000000000000000000000070997970c51812dc3a010c7d01b50e0d17dc79c800000000000000000000000000000000000000000000000000000000000d9a0a0000000000000000000000000000000000000000000000000000000000000000",
        "nonce": "0x6a3",
        "chainId": "0x28c61"
      },
      "additionalContracts": [],
      "isFixedGasLimit": false
    },
    {
      "hash": "0x5c34b82472b99f41265bb23ba3e62b97ef7242599d4cfa98bd1651e8e9dc5949",
      "transactionType": "CALL",
      "contractName": null,
      "contractAddress": "0xE8a7fdf07e95B0087dFB42f63FA91B15Ec0B9954",
      "function": "mint(address,uint256)",
      "arguments": [
        "0x3C44CdDdB6a900fa2b585dd299e03d12FA4293BC",
        "891403"
      ],
      "transaction": {
        "from": "0x4100a9B680B1Be1F10Cb8b5a57fE59eA77A8184e",
        "to": "0xE8a7fdf07e95B0087dFB42f63FA91B15Ec0B9954",
        "gas": "0x188ec",
        "value": "0x0",
        "input": "0x40c10f190000000000000000000000003c44cdddb6a900fa2b585dd299e03d12fa4293bc00000000000000000000000000000000000000000000000000000000000d9a0b",
        "nonce": "0x6a4",
        "chainId": "0x28c61"
      },
      "additionalContracts": [],
      "isFixedGasLimit": false
    },
    {
      "hash": "0x59f40e9547956a9594dd9c11ccfbfe2bb6823c74f0d650b3307e07a91bd25976",
      "transactionType": "CALL",
      "contractName": null,
      "contractAddress": "0xd21316257130d01DC8A49Da8A0Cba947f83acfC8",
      "function": "registerPlayer(address,uint256,uint8)",
      "arguments": [
        "0x3C44CdDdB6a900fa2b585dd299e03d12FA4293BC",
        "891403",
        "2"
      ],
      "transaction": {
        "from": "0x4100a9B680B1Be1F10Cb8b5a57fE59eA77A8184e",
        "to": "0xd21316257130d01DC8A49Da8A0Cba947f83acfC8",
        "gas": "0x316dc",
        "value": "0x0",
        "input": "0x50ed28380000000000000000000000003c44cdddb6a900fa2b585dd299e03d12fa4293bc00000000000000000000000000000000000000000000000000000000000d9a0b0000000000000000000000000000000000000000000000000000000000000002",
        "nonce": "0x6a5",
        "chainId": "0x28c61"
      },
      "additionalContracts": [],
      "isFixedGasLimit": false
    },
    {
      "hash": "0x9148046f4550a4e52faf9f662b6d31441ea8e877f5048468ab7f7d341e1a8a1a",
      "transactionType": "CALL",
      "contractName": null,
      "contractAddress": "0xE8a7fdf07e95B0087dFB42f63FA91B15Ec0B9954",
      "function": "mint(address,uint256)",
      "arguments": [
        "0x90F79bf6EB2c4f870365E785982E1f101E93b906",
        "891404"
      ],
      "transaction": {
        "from": "0x4100a9B680B1Be1F10Cb8b5a57fE59eA77A8184e",
        "to": "0xE8a7fdf07e95B0087dFB42f63FA91B15Ec0B9954",
        "gas": "0x17329",
        "value": "0x0",
        "input": "0x40c10f1900000000000000000000000090f79bf6eb2c4f870365e785982e1f101e93b90600000000000000000000000000000000000000000000000000000000000d9a0c",
        "nonce": "0x6a6",
        "chainId": "0x28c61"
      },
      "additionalContracts": [],
      "isFixedGasLimit": false
    },
    {
      "hash": "0x14a6e02060161dc8e73487a27389635d6ccff2e64ce0d714698ce4012c1922fe",
      "transactionType": "CALL",
      "contractName": null,
      "contractAddress": "0xd21316257130d01DC8A49Da8A0Cba947f83acfC8",
      "function": "registerPlayer(address,uint256,uint8)",
      "arguments": [
        "0x90F79bf6EB2c4f870365E785982E1f101E93b906",
        "891404",
        "0"
      ],
      "transaction": {
        "from": "0x4100a9B680B1Be1F10Cb8b5a57fE59eA77A8184e",
        "to": "0xd21316257130d01DC8A49Da8A0Cba947f83acfC8",
        "gas": "0x27f8d",
        "value": "0x0",
        "input": "0x50ed283800000000000000000000000090f79bf6eb2c4f870365e785982e1f101e93b90600000000000000000000000000000000000000000000000000000000000d9a0c0000000000000000000000000000000000000000000000000000000000000000",
        "nonce": "0x6a7",
        "chainId": "0x28c61"
      },
      "additionalContracts": [],
      "isFixedGasLimit": false
    },
    {
      "hash": "0xc1ae9ebf89b040b7ebdaea82fca4a3fd6ba2aa15f296c0664ddd85b77fe88ebd",
      "transactionType": "CALL",
      "contractName": null,
      "contractAddress": "0xE8a7fdf07e95B0087dFB42f63FA91B15Ec0B9954",
      "function": "mint(address,uint256)",
      "arguments": [
        "0x15d34AAf54267DB7D7c367839AAf71A00a2C6A65",
        "891405"
      ],
      "transaction": {
        "from": "0x4100a9B680B1Be1F10Cb8b5a57fE59eA77A8184e",
        "to": "0xE8a7fdf07e95B0087dFB42f63FA91B15Ec0B9954",
        "gas": "0x17329",
        "value": "0x0",
        "input": "0x40c10f1900000000000000000000000015d34aaf54267db7d7c367839aaf71a00a2c6a6500000000000000000000000000000000000000000000000000000000000d9a0d",
        "nonce": "0x6a8",
        "chainId": "0x28c61"
      },
      "additionalContracts": [],
      "isFixedGasLimit": false
    },
    {
      "hash": "0x8ec0c12dee899d8a005fd1a8ac313aba4200d9e350a9cdacfe90d3965031ecaf",
      "transactionType": "CALL",
      "contractName": null,
      "contractAddress": "0xd21316257130d01DC8A49Da8A0Cba947f83acfC8",
      "function": "registerPlayer(address,uint256,uint8)",
      "arguments": [
        "0x15d34AAf54267DB7D7c367839AAf71A00a2C6A65",
        "891405",
        "1"
      ],
      "transaction": {
        "from": "0x4100a9B680B1Be1F10Cb8b5a57fE59eA77A8184e",
        "to": "0xd21316257130d01DC8A49Da8A0Cba947f83acfC8",
        "gas": "0x2eafc",
        "value": "0x0",
        "input": "0x50ed283800000000000000000000000015d34aaf54267db7d7c367839aaf71a00a2c6a6500000000000000000000000000000000000000000000000000000000000d9a0d0000000000000000000000000000000000000000000000000000000000000001",
        "nonce": "0x6a9",
        "chainId": "0x28c61"
      },
      "additionalContracts": [],
      "isFixedGasLimit": false
    },
    {
      "hash": "0xd3ecbd654421823a90556f5425d848d8edbe62b1964a58b6e67894887808f3f1",
      "transactionType": "CALL",
      "contractName": null,
      "contractAddress": "0xE8a7fdf07e95B0087dFB42f63FA91B15Ec0B9954",
      "function": "mint(address,uint256)",
      "arguments": [
        "0x9965507D1a55bcC2695C58ba16FB37d819B0A4dc",
        "891406"
      ],
      "transaction": {
        "from": "0x4100a9B680B1Be1F10Cb8b5a57fE59eA77A8184e",
        "to": "0xE8a7fdf07e95B0087dFB42f63FA91B15Ec0B9954",
        "gas": "0x17329",
        "value": "0x0",
        "input": "0x40c10f190000000000000000000000009965507d1a55bcc2695c58ba16fb37d819b0a4dc00000000000000000000000000000000000000000000000000000000000d9a0e",
        "nonce": "0x6aa",
        "chainId": "0x28c61"
      },
      "additionalContracts": [],
      "isFixedGasLimit": false
    },
    {
      "hash": "0x59a20386abb8d1b0e47ff913edd07f0660a900252f38a9fba079ebb16ef85cf7",
      "transactionType": "CALL",
      "contractName": null,
      "contractAddress": "0xd21316257130d01DC8A49Da8A0Cba947f83acfC8",
      "function": "registerPlayer(address,uint256,uint8)",
      "arguments": [
        "0x9965507D1a55bcC2695C58ba16FB37d819B0A4dc",
        "891406",
        "0"
      ],
      "transaction": {
        "from": "0x4100a9B680B1Be1F10Cb8b5a57fE59eA77A8184e",
        "to": "0xd21316257130d01DC8A49Da8A0Cba947f83acfC8",
        "gas": "0x27f8d",
        "value": "0x0",
        "input": "0x50ed28380000000000000000000000009965507d1a55bcc2695c58ba16fb37d819b0a4dc00000000000000000000000000000000000000000000000000000000000d9a0e0000000000000000000000000000000000000000000000000000000000000000",
        "nonce": "0x6ab",
        "chainId": "0x28c61"
      },
      "additionalContracts": [],
      "isFixedGasLimit": false
    },
    {
      "hash": "0xbaaf58d7f87006f46888a0e163512d38b0e1b463c4bf418fb8416eef22ad44d1",
      "transactionType": "CALL",
      "contractName": null,
      "contractAddress": "0xE8a7fdf07e95B0087dFB42f63FA91B15Ec0B9954",
      "function": "mint(address,uint256)",
      "arguments": [
        "0x976EA74026E726554dB657fA54763abd0C3a0aa9",
        "891407"
      ],
      "transaction": {
        "from": "0x4100a9B680B1Be1F10Cb8b5a57fE59eA77A8184e",
        "to": "0xE8a7fdf07e95B0087dFB42f63FA91B15Ec0B9954",
        "gas": "0x17329",
        "value": "0x0",
        "input": "0x40c10f19000000000000000000000000976ea74026e726554db657fa54763abd0c3a0aa900000000000000000000000000000000000000000000000000000000000d9a0f",
        "nonce": "0x6ac",
        "chainId": "0x28c61"
      },
      "additionalContracts": [],
      "isFixedGasLimit": false
    },
    {
      "hash": "0x8e762050d048f9fc75f458d0e95dfdd5e4d5d679d19149bb03a216f2d6542eb1",
      "transactionType": "CALL",
      "contractName": null,
      "contractAddress": "0xd21316257130d01DC8A49Da8A0Cba947f83acfC8",
      "function": "registerPlayer(address,uint256,uint8)",
      "arguments": [
        "0x976EA74026E726554dB657fA54763abd0C3a0aa9",
        "891407",
        "2"
      ],
      "transaction": {
        "from": "0x4100a9B680B1Be1F10Cb8b5a57fE59eA77A8184e",
        "to": "0xd21316257130d01DC8A49Da8A0Cba947f83acfC8",
        "gas": "0x2eafc",
        "value": "0x0",
        "input": "0x50ed2838000000000000000000000000976ea74026e726554db657fa54763abd0c3a0aa900000000000000000000000000000000000000000000000000000000000d9a0f0000000000000000000000000000000000000000000000000000000000000002",
        "nonce": "0x6ad",
        "chainId": "0x28c61"
      },
      "additionalContracts": [],
      "isFixedGasLimit": false
    },
    {
      "hash": "0xb1bd1849c397c0b53a8c1f783a9fb8e21616fc1d84d5697b894745408655f77f",
      "transactionType": "CALL",
      "contractName": null,
      "contractAddress": "0xE8a7fdf07e95B0087dFB42f63FA91B15Ec0B9954",
      "function": "mint(address,uint256)",
      "arguments": [
        "0x14dC79964da2C08b23698B3D3cc7Ca32193d9955",
        "891408"
      ],
      "transaction": {
        "from": "0x4100a9B680B1Be1F10Cb8b5a57fE59eA77A8184e",
        "to": "0xE8a7fdf07e95B0087dFB42f63FA91B15Ec0B9954",
        "gas": "0x17329",
        "value": "0x0",
        "input": "0x40c10f1900000000000000000000000014dc79964da2c08b23698b3d3cc7ca32193d995500000000000000000000000000000000000000000000000000000000000d9a10",
        "nonce": "0x6ae",
        "chainId": "0x28c61"
      },
      "additionalContracts": [],
      "isFixedGasLimit": false
    },
    {
      "hash": "0xb09776456d699f586fc1fa1698f074a2afa40a621827f6e217fb4b6579455ac1",
      "transactionType": "CALL",
      "contractName": null,
      "contractAddress": "0xd21316257130d01DC8A49Da8A0Cba947f83acfC8",
      "function": "registerPlayer(address,uint256,uint8)",
      "arguments": [
        "0x14dC79964da2C08b23698B3D3cc7Ca32193d9955",
        "891408",
        "0"
      ],
      "transaction": {
        "from": "0x4100a9B680B1Be1F10Cb8b5a57fE59eA77A8184e",
        "to": "0xd21316257130d01DC8A49Da8A0Cba947f83acfC8",
        "gas": "0x27f8d",
        "value": "0x0",
        "input": "0x50ed283800000000000000000000000014dc79964da2c08b23698b3d3cc7ca32193d995500000000000000000000000000000000000000000000000000000000000d9a100000000000000000000000000000000000000000000000000000000000000000",
        "nonce": "0x6af",
        "chainId": "0x28c61"
      },
      "additionalContracts": [],
      "isFixedGasLimit": false
    },
    {
      "hash": "0x9fe17b3a8056461e684aeb217cdb79c88b97282c1c8602be6fdb2f426bfd8d06",
      "transactionType": "CALL",
      "contractName": null,
      "contractAddress": "0xE8a7fdf07e95B0087dFB42f63FA91B15Ec0B9954",
      "function": "mint(address,uint256)",
      "arguments": [
        "0x23618e81E3f5cdF7f54C3d65f7FBc0aBf5B21E8f",
        "891409"
      ],
      "transaction": {
        "from": "0x4100a9B680B1Be1F10Cb8b5a57fE59eA77A8184e",
        "to": "0xE8a7fdf07e95B0087dFB42f63FA91B15Ec0B9954",
        "gas": "0x17329",
        "value": "0x0",
        "input": "0x40c10f1900000000000000000000000023618e81e3f5cdf7f54c3d65f7fbc0abf5b21e8f00000000000000000000000000000000000000000000000000000000000d9a11",
        "nonce": "0x6b0",
        "chainId": "0x28c61"
      },
      "additionalContracts": [],
      "isFixedGasLimit": false
    },
    {
      "hash": "0x6490e91a79ec412da334f15cd60c86f0ca86e6915e2bf5807f27cb547e16d9f5",
      "transactionType": "CALL",
      "contractName": null,
      "contractAddress": "0xd21316257130d01DC8A49Da8A0Cba947f83acfC8",
      "function": "registerPlayer(address,uint256,uint8)",
      "arguments": [
        "0x23618e81E3f5cdF7f54C3d65f7FBc0aBf5B21E8f",
        "891409",
        "1"
      ],
      "transaction": {
        "from": "0x4100a9B680B1Be1F10Cb8b5a57fE59eA77A8184e",
        "to": "0xd21316257130d01DC8A49Da8A0Cba947f83acfC8",
        "gas": "0x2eafc",
        "value": "0x0",
        "input": "0x50ed283800000000000000000000000023618e81e3f5cdf7f54c3d65f7fbc0abf5b21e8f00000000000000000000000000000000000000000000000000000000000d9a110000000000000000000000000000000000000000000000000000000000000001",
        "nonce": "0x6b1",
        "chainId": "0x28c61"
      },
      "additionalContracts": [],
      "isFixedGasLimit": false
    },
    {
      "hash": "0x95c93d1fb97813c3536e7633d2ccbe3c340263e68323930daf5e077d8ed80a61",
      "transactionType": "CALL",
      "contractName": null,
      "contractAddress": "0xE8a7fdf07e95B0087dFB42f63FA91B15Ec0B9954",
      "function": "mint(address,uint256)",
      "arguments": [
        "0xa0Ee7A142d267C1f36714E4a8F75612F20a79720",
        "891410"
      ],
      "transaction": {
        "from": "0x4100a9B680B1Be1F10Cb8b5a57fE59eA77A8184e",
        "to": "0xE8a7fdf07e95B0087dFB42f63FA91B15Ec0B9954",
        "gas": "0x17329",
        "value": "0x0",
        "input": "0x40c10f19000000000000000000000000a0ee7a142d267c1f36714e4a8f75612f20a7972000000000000000000000000000000000000000000000000000000000000d9a12",
        "nonce": "0x6b2",
        "chainId": "0x28c61"
      },
      "additionalContracts": [],
      "isFixedGasLimit": false
    },
    {
      "hash": "0x0b68530bad868b5e717aaea88978462b7bb5fd9172b56e4f5d415f4d7b856da3",
      "transactionType": "CALL",
      "contractName": null,
      "contractAddress": "0xd21316257130d01DC8A49Da8A0Cba947f83acfC8",
      "function": "registerPlayer(address,uint256,uint8)",
      "arguments": [
        "0xa0Ee7A142d267C1f36714E4a8F75612F20a79720",
        "891410",
        "1"
      ],
      "transaction": {
        "from": "0x4100a9B680B1Be1F10Cb8b5a57fE59eA77A8184e",
        "to": "0xd21316257130d01DC8A49Da8A0Cba947f83acfC8",
        "gas": "0x2eafc",
        "value": "0x0",
        "input": "0x50ed2838000000000000000000000000a0ee7a142d267c1f36714e4a8f75612f20a7972000000000000000000000000000000000000000000000000000000000000d9a120000000000000000000000000000000000000000000000000000000000000001",
        "nonce": "0x6b3",
        "chainId": "0x28c61"
      },
      "additionalContracts": [],
      "isFixedGasLimit": false
    }
  ],
  "receipts": [
    {
      "status": "0x1",
      "cumulativeGasUsed": "0xbaadd",
      "logs": [
        {
          "address": "0xE8a7fdf07e95B0087dFB42f63FA91B15Ec0B9954",
          "topics": [
            "0xddf252ad1be2c89b69c2b068fc378daa952ba7f163c4a11628f55a4df523b3ef",
            "0x0000000000000000000000000000000000000000000000000000000000000000",
            "0x00000000000000000000000070997970c51812dc3a010c7d01b50e0d17dc79c8",
            "0x00000000000000000000000000000000000000000000000000000000000d9a0a"
          ],
          "data": "0x",
          "blockHash": "0x200b922f5898b1cd6913648b4c5d267bbdab16b75a4db530c5208c31656fece4",
          "blockNumber": "0xd9a03",
          "transactionHash": "0xb4b273d106ae63288877c0a390f60839e3c6f74b41e736fb47066057b34adfc5",
          "transactionIndex": "0x11",
          "logIndex": "0x13",
          "removed": false
        }
      ],
      "logsBloom": "0x00000000000000000002000002000000000000000000000000000000000000000000000000000000000000000000000000000000000000000000000000000000000000000000000000000008000000040000000000000000800000000000000000000800020000000000000000000800000000000000000000000010000000000800000000000000000000000000000000000000000000000000000000000000000000000000000020000000000000000000000000000000000000000000000000000002000000000000000000001000000000000000000000000000000020000000000000000000000000000000000001000000000000000000000000000000",
      "type": "0x2",
      "transactionHash": "0xb4b273d106ae63288877c0a390f60839e3c6f74b41e736fb47066057b34adfc5",
      "transactionIndex": "0x11",
      "blockHash": "0x200b922f5898b1cd6913648b4c5d267bbdab16b75a4db530c5208c31656fece4",
      "blockNumber": "0xd9a03",
      "gasUsed": "0x10cb7",
      "effectiveGasPrice": "0x67ce051",
      "from": "0x4100a9B680B1Be1F10Cb8b5a57fE59eA77A8184e",
      "to": "0xE8a7fdf07e95B0087dFB42f63FA91B15Ec0B9954",
      "contractAddress": null
    },
    {
      "status": "0x1",
      "cumulativeGasUsed": "0xd79e4",
      "logs": [
        {
          "address": "0xd21316257130d01DC8A49Da8A0Cba947f83acfC8",
          "topics": [
            "0x3ea3314dd8adca61ba5ccef601f00167a9a3c43358bad8b897df2519ee6d3a6c",
            "0x0cb7acf2a3f468f919ab2b8d28ad54b4239bcf388afa05fc9fd8f177d13e6257",
            "0x00000000000000000000000070997970c51812dc3a010c7d01b50e0d17dc79c8"
          ],
          "data": "0x00000000000000000000000000000000000000000000000000000000000d9a0a00000000000000000000000000000000000000000000000000000000000000000000000000000000000000000000000000000000000000000000000067125558",
          "blockHash": "0x200b922f5898b1cd6913648b4c5d267bbdab16b75a4db530c5208c31656fece4",
          "blockNumber": "0xd9a03",
          "transactionHash": "0x0a5899e501f235dab82eb4e616175c0491a0789208a872b600b1e5f59081b07f",
          "transactionIndex": "0x12",
          "logIndex": "0x14",
          "removed": false
        }
      ],
      "logsBloom": "0x00000000200000000002020000000000000000000000000000000000000000000200000000000000000000000000000000000000000000000000000000004000000000000000000000000000000000000000800000000000000000000000000000000800000080000000000000000000000000000000000000000000000000000000000000000000000000000000000000000000000000000000000000000000000000000000000000000000000000000000000000000000000000000000000000000000000000000000020000000000000000000000000000000000000800000000000000000000000000000020000001000000000000000000000000000000",
      "type": "0x2",
      "transactionHash": "0x0a5899e501f235dab82eb4e616175c0491a0789208a872b600b1e5f59081b07f",
      "transactionIndex": "0x12",
      "blockHash": "0x200b922f5898b1cd6913648b4c5d267bbdab16b75a4db530c5208c31656fece4",
      "blockNumber": "0xd9a03",
      "gasUsed": "0x1cf07",
      "effectiveGasPrice": "0x67ce051",
      "from": "0x4100a9B680B1Be1F10Cb8b5a57fE59eA77A8184e",
      "to": "0xd21316257130d01DC8A49Da8A0Cba947f83acfC8",
      "contractAddress": null
    },
    {
      "status": "0x1",
      "cumulativeGasUsed": "0xe868f",
      "logs": [
        {
          "address": "0xE8a7fdf07e95B0087dFB42f63FA91B15Ec0B9954",
          "topics": [
            "0xddf252ad1be2c89b69c2b068fc378daa952ba7f163c4a11628f55a4df523b3ef",
            "0x0000000000000000000000000000000000000000000000000000000000000000",
            "0x0000000000000000000000003c44cdddb6a900fa2b585dd299e03d12fa4293bc",
            "0x00000000000000000000000000000000000000000000000000000000000d9a0b"
          ],
          "data": "0x",
          "blockHash": "0x200b922f5898b1cd6913648b4c5d267bbdab16b75a4db530c5208c31656fece4",
          "blockNumber": "0xd9a03",
          "transactionHash": "0x5c34b82472b99f41265bb23ba3e62b97ef7242599d4cfa98bd1651e8e9dc5949",
          "transactionIndex": "0x13",
          "logIndex": "0x15",
          "removed": false
        }
      ],
      "logsBloom": "0x00000000000000000000000002000000000000000000000000000000000000000000000000000000000000000400000008000000000000000000000000100000000000000000000000000008000000040001000000000000000000000000000000000000020000000000000000000800000800000000000000000010000000000000000000000000000000000000000000000000000000000000000000000000000000000000200020000000000000000000000000000000000000000000000000000002000000000000000000000000000000000000000000000000000020000000000000000000000000000000000000000000000000000000000000000000",
      "type": "0x2",
      "transactionHash": "0x5c34b82472b99f41265bb23ba3e62b97ef7242599d4cfa98bd1651e8e9dc5949",
      "transactionIndex": "0x13",
      "blockHash": "0x200b922f5898b1cd6913648b4c5d267bbdab16b75a4db530c5208c31656fece4",
      "blockNumber": "0xd9a03",
      "gasUsed": "0x10cab",
      "effectiveGasPrice": "0x67ce051",
      "from": "0x4100a9B680B1Be1F10Cb8b5a57fE59eA77A8184e",
      "to": "0xE8a7fdf07e95B0087dFB42f63FA91B15Ec0B9954",
      "contractAddress": null
    },
    {
      "status": "0x1",
      "cumulativeGasUsed": "0x10a352",
      "logs": [
        {
          "address": "0xd21316257130d01DC8A49Da8A0Cba947f83acfC8",
          "topics": [
            "0x3ea3314dd8adca61ba5ccef601f00167a9a3c43358bad8b897df2519ee6d3a6c",
            "0xbad7d3a9a74f9b29aa1c9de051f5d4fe8325cc5126f56a4620670f4cd066b573",
            "0x0000000000000000000000003c44cdddb6a900fa2b585dd299e03d12fa4293bc"
          ],
          "data": "0x00000000000000000000000000000000000000000000000000000000000d9a0b00000000000000000000000000000000000000000000000000000000000000020000000000000000000000000000000000000000000000000000000067125558",
          "blockHash": "0x200b922f5898b1cd6913648b4c5d267bbdab16b75a4db530c5208c31656fece4",
          "blockNumber": "0xd9a03",
          "transactionHash": "0x59f40e9547956a9594dd9c11ccfbfe2bb6823c74f0d650b3307e07a91bd25976",
          "transactionIndex": "0x14",
          "logIndex": "0x16",
          "removed": false
        }
      ],
      "logsBloom": "0x00000000000000000000020000000000000000000000000000000000000000000200000000000000000000080000000000000000000000000000000000100000000000000000000000000000000000000000800000000000000000000000000000000000000000000000000000000000000800000000004000000000000000000000000000000000000000000000000000000000000000000000000000000000000000000000200000000000000000000000000000000000000000000000000000000000000000000000020000000000000000000000000000000000000800000000000000000000000000000020001000000000000000000000000000000000",
      "type": "0x2",
      "transactionHash": "0x59f40e9547956a9594dd9c11ccfbfe2bb6823c74f0d650b3307e07a91bd25976",
      "transactionIndex": "0x14",
      "blockHash": "0x200b922f5898b1cd6913648b4c5d267bbdab16b75a4db530c5208c31656fece4",
      "blockNumber": "0xd9a03",
      "gasUsed": "0x21cc3",
      "effectiveGasPrice": "0x67ce051",
      "from": "0x4100a9B680B1Be1F10Cb8b5a57fE59eA77A8184e",
      "to": "0xd21316257130d01DC8A49Da8A0Cba947f83acfC8",
      "contractAddress": null
    },
    {
      "status": "0x1",
      "cumulativeGasUsed": "0x11b009",
      "logs": [
        {
          "address": "0xE8a7fdf07e95B0087dFB42f63FA91B15Ec0B9954",
          "topics": [
            "0xddf252ad1be2c89b69c2b068fc378daa952ba7f163c4a11628f55a4df523b3ef",
            "0x0000000000000000000000000000000000000000000000000000000000000000",
            "0x00000000000000000000000090f79bf6eb2c4f870365e785982e1f101e93b906",
            "0x00000000000000000000000000000000000000000000000000000000000d9a0c"
          ],
          "data": "0x",
          "blockHash": "0x200b922f5898b1cd6913648b4c5d267bbdab16b75a4db530c5208c31656fece4",
          "blockNumber": "0xd9a03",
          "transactionHash": "0x9148046f4550a4e52faf9f662b6d31441ea8e877f5048468ab7f7d341e1a8a1a",
          "transactionIndex": "0x15",
          "logIndex": "0x17",
          "removed": false
        }
      ],
      "logsBloom": "0x00000000000000000000000002000000000000000000000000000000000000000000000000000000000000000000000000000000000000000000000000000000000000000000000000008008000000040000000000000000000000400000000000000000020000000000000000000800000000000000000000000010000000000000000000000000000000000000000000000000000000000400000000000000000000000000000020000000000000000000000000000004000000000000000000000002000000000000000000000000400000000000000000000000000020000000000000000000000010000000000000000000000000000000000000000000",
      "type": "0x2",
      "transactionHash": "0x9148046f4550a4e52faf9f662b6d31441ea8e877f5048468ab7f7d341e1a8a1a",
      "transactionIndex": "0x15",
      "blockHash": "0x200b922f5898b1cd6913648b4c5d267bbdab16b75a4db530c5208c31656fece4",
      "blockNumber": "0xd9a03",
      "gasUsed": "0x10cb7",
      "effectiveGasPrice": "0x67ce051",
      "from": "0x4100a9B680B1Be1F10Cb8b5a57fE59eA77A8184e",
      "to": "0xE8a7fdf07e95B0087dFB42f63FA91B15Ec0B9954",
      "contractAddress": null
    },
    {
      "status": "0x1",
      "cumulativeGasUsed": "0x137f10",
      "logs": [
        {
          "address": "0xd21316257130d01DC8A49Da8A0Cba947f83acfC8",
          "topics": [
            "0x3ea3314dd8adca61ba5ccef601f00167a9a3c43358bad8b897df2519ee6d3a6c",
            "0xf7329c479309c9c9e15b75ea4449f2db2bf2b0fd60aaa7d8967971eb0845b1b8",
            "0x00000000000000000000000090f79bf6eb2c4f870365e785982e1f101e93b906"
          ],
          "data": "0x00000000000000000000000000000000000000000000000000000000000d9a0c00000000000000000000000000000000000000000000000000000000000000000000000000000000000000000000000000000000000000000000000067125558",
          "blockHash": "0x200b922f5898b1cd6913648b4c5d267bbdab16b75a4db530c5208c31656fece4",
          "blockNumber": "0xd9a03",
          "transactionHash": "0x14a6e02060161dc8e73487a27389635d6ccff2e64ce0d714698ce4012c1922fe",
          "transactionIndex": "0x16",
          "logIndex": "0x18",
          "removed": false
        }
      ],
      "logsBloom": "0x00000000000000000000020000000000000000000000000000100000000000000200000000000000000000000000000000000000000000000000000000000000000000000000000000000000000000000000808000000000000000000100000000000000000000000000000000000000000000000000000000000000000000000000000000000000000000000000000000000000000000000400000000000000000000000000000000000000000000000000000000000000000000000000000000000000000000000000020000000000400000000000000000000000000800000000000000000000000010000020000000000000000000000000000000000000",
      "type": "0x2",
      "transactionHash": "0x14a6e02060161dc8e73487a27389635d6ccff2e64ce0d714698ce4012c1922fe",
      "transactionIndex": "0x16",
      "blockHash": "0x200b922f5898b1cd6913648b4c5d267bbdab16b75a4db530c5208c31656fece4",
      "blockNumber": "0xd9a03",
      "gasUsed": "0x1cf07",
      "effectiveGasPrice": "0x67ce051",
      "from": "0x4100a9B680B1Be1F10Cb8b5a57fE59eA77A8184e",
      "to": "0xd21316257130d01DC8A49Da8A0Cba947f83acfC8",
      "contractAddress": null
    },
    {
      "status": "0x1",
      "cumulativeGasUsed": "0x148bc7",
      "logs": [
        {
          "address": "0xE8a7fdf07e95B0087dFB42f63FA91B15Ec0B9954",
          "topics": [
            "0xddf252ad1be2c89b69c2b068fc378daa952ba7f163c4a11628f55a4df523b3ef",
            "0x0000000000000000000000000000000000000000000000000000000000000000",
            "0x00000000000000000000000015d34aaf54267db7d7c367839aaf71a00a2c6a65",
            "0x00000000000000000000000000000000000000000000000000000000000d9a0d"
          ],
          "data": "0x",
          "blockHash": "0x200b922f5898b1cd6913648b4c5d267bbdab16b75a4db530c5208c31656fece4",
          "blockNumber": "0xd9a03",
          "transactionHash": "0xc1ae9ebf89b040b7ebdaea82fca4a3fd6ba2aa15f296c0664ddd85b77fe88ebd",
          "transactionIndex": "0x17",
          "logIndex": "0x19",
          "removed": false
        }
      ],
      "logsBloom": "0x00000000040000000000000002000000000000000000000000000000000000000000000000000000000000000000000000000000000000000000000000000000000000000000000000000008000000040000000008000000000000000000000000000000020000000000000000000800000000000000000000000010000000000000000000000000000000000000800000000000000000000000000100100000000000000000000020000000000000000000000000000000000000000000000000000002000000000000000000000000000000000000000000000000000024000000000000000000000000000000000000000000000000000000000000000000",
      "type": "0x2",
      "transactionHash": "0xc1ae9ebf89b040b7ebdaea82fca4a3fd6ba2aa15f296c0664ddd85b77fe88ebd",
      "transactionIndex": "0x17",
      "blockHash": "0x200b922f5898b1cd6913648b4c5d267bbdab16b75a4db530c5208c31656fece4",
      "blockNumber": "0xd9a03",
      "gasUsed": "0x10cb7",
      "effectiveGasPrice": "0x67ce051",
      "from": "0x4100a9B680B1Be1F10Cb8b5a57fE59eA77A8184e",
      "to": "0xE8a7fdf07e95B0087dFB42f63FA91B15Ec0B9954",
      "contractAddress": null
    },
    {
      "status": "0x1",
      "cumulativeGasUsed": "0x16a896",
      "logs": [
        {
          "address": "0xd21316257130d01DC8A49Da8A0Cba947f83acfC8",
          "topics": [
            "0x3ea3314dd8adca61ba5ccef601f00167a9a3c43358bad8b897df2519ee6d3a6c",
            "0xdd5d5143a588cf2e6da7d6c17d4a0d52a4e0f413ce769e218e081a706f3bf799",
            "0x00000000000000000000000015d34aaf54267db7d7c367839aaf71a00a2c6a65"
          ],
          "data": "0x00000000000000000000000000000000000000000000000000000000000d9a0d00000000000000000000000000000000000000000000000000000000000000010000000000000000000000000000000000000000000000000000000067125558",
          "blockHash": "0x200b922f5898b1cd6913648b4c5d267bbdab16b75a4db530c5208c31656fece4",
          "blockNumber": "0xd9a03",
          "transactionHash": "0x8ec0c12dee899d8a005fd1a8ac313aba4200d9e350a9cdacfe90d3965031ecaf",
          "transactionIndex": "0x18",
          "logIndex": "0x1a",
          "removed": false
        }
      ],
      "logsBloom": "0x00000000040000000004020000000000000000000000000000000000000000000200000000200000000000000000000000000000000000000000000000000000000000000000000000000000000000000000800000000000000000000000000000000000000000000000000000000000000000000000000000000000000000000000000000000000000000000000000000000000000000000000000100000000000000000000000000000000000000000000000000000000000000000000000000000000000000000000020000000000000000000000000000000000000804000000000000000000000000000020000000000000000000004000000000000000",
      "type": "0x2",
      "transactionHash": "0x8ec0c12dee899d8a005fd1a8ac313aba4200d9e350a9cdacfe90d3965031ecaf",
      "transactionIndex": "0x18",
      "blockHash": "0x200b922f5898b1cd6913648b4c5d267bbdab16b75a4db530c5208c31656fece4",
      "blockNumber": "0xd9a03",
      "gasUsed": "0x21ccf",
      "effectiveGasPrice": "0x67ce051",
      "from": "0x4100a9B680B1Be1F10Cb8b5a57fE59eA77A8184e",
      "to": "0xd21316257130d01DC8A49Da8A0Cba947f83acfC8",
      "contractAddress": null
    },
    {
      "status": "0x1",
      "cumulativeGasUsed": "0x17b54d",
      "logs": [
        {
          "address": "0xE8a7fdf07e95B0087dFB42f63FA91B15Ec0B9954",
          "topics": [
            "0xddf252ad1be2c89b69c2b068fc378daa952ba7f163c4a11628f55a4df523b3ef",
            "0x0000000000000000000000000000000000000000000000000000000000000000",
            "0x0000000000000000000000009965507d1a55bcc2695c58ba16fb37d819b0a4dc",
            "0x00000000000000000000000000000000000000000000000000000000000d9a0e"
          ],
          "data": "0x",
          "blockHash": "0x200b922f5898b1cd6913648b4c5d267bbdab16b75a4db530c5208c31656fece4",
          "blockNumber": "0xd9a03",
          "transactionHash": "0xd3ecbd654421823a90556f5425d848d8edbe62b1964a58b6e67894887808f3f1",
          "transactionIndex": "0x19",
          "logIndex": "0x1b",
          "removed": false
        }
      ],
      "logsBloom": "0x0000000400000000000000000200000000000000000000000000000000000000000000000000000000000000000000000000000000000400000000000000000000000000000000000000000800000004000000000000800000000000000000000000000002000000000000000000080000000000000000002000001000000000000000000000000000000000000000000000000000000000000000000000000000000000000000002000000000000000000000000000000000000000000000000000000a800000000000000000000000000000000000000000000000000020000000000000000000000000000000000000000000000000000000000000000000",
      "type": "0x2",
      "transactionHash": "0xd3ecbd654421823a90556f5425d848d8edbe62b1964a58b6e67894887808f3f1",
      "transactionIndex": "0x19",
      "blockHash": "0x200b922f5898b1cd6913648b4c5d267bbdab16b75a4db530c5208c31656fece4",
      "blockNumber": "0xd9a03",
      "gasUsed": "0x10cb7",
      "effectiveGasPrice": "0x67ce051",
      "from": "0x4100a9B680B1Be1F10Cb8b5a57fE59eA77A8184e",
      "to": "0xE8a7fdf07e95B0087dFB42f63FA91B15Ec0B9954",
      "contractAddress": null
    },
    {
      "status": "0x1",
      "cumulativeGasUsed": "0x198454",
      "logs": [
        {
          "address": "0xd21316257130d01DC8A49Da8A0Cba947f83acfC8",
          "topics": [
            "0x3ea3314dd8adca61ba5ccef601f00167a9a3c43358bad8b897df2519ee6d3a6c",
            "0x04636260b0449cc0e86d71d577180dedceba93f92648425bce2f78433006ca9d",
            "0x0000000000000000000000009965507d1a55bcc2695c58ba16fb37d819b0a4dc"
          ],
          "data": "0x00000000000000000000000000000000000000000000000000000000000d9a0e00000000000000000000000000000000000000000000000000000000000000000000000000000000000000000000000000000000000000000000000067125558",
          "blockHash": "0x200b922f5898b1cd6913648b4c5d267bbdab16b75a4db530c5208c31656fece4",
          "blockNumber": "0xd9a03",
          "transactionHash": "0x59a20386abb8d1b0e47ff913edd07f0660a900252f38a9fba079ebb16ef85cf7",
          "transactionIndex": "0x1a",
          "logIndex": "0x1c",
          "removed": false
        }
      ],
      "logsBloom": "0x00000004000000000000020000000000000000000000000000000000000000000200000000000000000000000000000000000000000000000000000000000000000000000000000000000000000000000000800000008000000000000000000000000000000000000000000000000000000000000000000000000000000080000000000000000000000000000000000000000000000000000000000000000400000000000000000000000000000000000000000000000000000000000000000000000000800000000000020000000000000000000000000000000000000800000000000000000000000000000020000000000000000080000000000000000000",
      "type": "0x2",
      "transactionHash": "0x59a20386abb8d1b0e47ff913edd07f0660a900252f38a9fba079ebb16ef85cf7",
      "transactionIndex": "0x1a",
      "blockHash": "0x200b922f5898b1cd6913648b4c5d267bbdab16b75a4db530c5208c31656fece4",
      "blockNumber": "0xd9a03",
      "gasUsed": "0x1cf07",
      "effectiveGasPrice": "0x67ce051",
      "from": "0x4100a9B680B1Be1F10Cb8b5a57fE59eA77A8184e",
      "to": "0xd21316257130d01DC8A49Da8A0Cba947f83acfC8",
      "contractAddress": null
    },
    {
      "status": "0x1",
      "cumulativeGasUsed": "0x1a910b",
      "logs": [
        {
          "address": "0xE8a7fdf07e95B0087dFB42f63FA91B15Ec0B9954",
          "topics": [
            "0xddf252ad1be2c89b69c2b068fc378daa952ba7f163c4a11628f55a4df523b3ef",
            "0x0000000000000000000000000000000000000000000000000000000000000000",
            "0x000000000000000000000000976ea74026e726554db657fa54763abd0c3a0aa9",
            "0x00000000000000000000000000000000000000000000000000000000000d9a0f"
          ],
          "data": "0x",
          "blockHash": "0x200b922f5898b1cd6913648b4c5d267bbdab16b75a4db530c5208c31656fece4",
          "blockNumber": "0xd9a03",
          "transactionHash": "0xbaaf58d7f87006f46888a0e163512d38b0e1b463c4bf418fb8416eef22ad44d1",
          "transactionIndex": "0x1b",
          "logIndex": "0x1d",
          "removed": false
        }
      ],
      "logsBloom": "0x00000000000000000000000002000000000000040200000000000000000000000000000000000000000000000000000000000000000000000000000000000000000000000000000000000018000000040000000000000000080000000000000000000000020004000000000000000800000000000000000000000010000000000000000000000000000000000000000000000000000000000000000000000000000000000000000020000000000000000000000000000000000000000000000000000002000000000000000000000000000000000000000000000000000020000000000000000000000000000000000000000000000000000000000040000000",
      "type": "0x2",
      "transactionHash": "0xbaaf58d7f87006f46888a0e163512d38b0e1b463c4bf418fb8416eef22ad44d1",
      "transactionIndex": "0x1b",
      "blockHash": "0x200b922f5898b1cd6913648b4c5d267bbdab16b75a4db530c5208c31656fece4",
      "blockNumber": "0xd9a03",
      "gasUsed": "0x10cb7",
      "effectiveGasPrice": "0x67ce051",
      "from": "0x4100a9B680B1Be1F10Cb8b5a57fE59eA77A8184e",
      "to": "0xE8a7fdf07e95B0087dFB42f63FA91B15Ec0B9954",
      "contractAddress": null
    },
    {
      "status": "0x1",
      "cumulativeGasUsed": "0x1cadda",
      "logs": [
        {
          "address": "0xd21316257130d01DC8A49Da8A0Cba947f83acfC8",
          "topics": [
            "0x3ea3314dd8adca61ba5ccef601f00167a9a3c43358bad8b897df2519ee6d3a6c",
            "0xd1d6ade0cae9765b17f68dfe5982490c4ae2d2e2e902a8b481a3ff98b6e697d8",
            "0x000000000000000000000000976ea74026e726554db657fa54763abd0c3a0aa9"
          ],
          "data": "0x00000000000000000000000000000000000000000000000000000000000d9a0f00000000000000000000000000000000000000000000000000000000000000020000000000000000000000000000000000000000000000000000000067125558",
          "blockHash": "0x200b922f5898b1cd6913648b4c5d267bbdab16b75a4db530c5208c31656fece4",
          "blockNumber": "0xd9a03",
          "transactionHash": "0x8e762050d048f9fc75f458d0e95dfdd5e4d5d679d19149bb03a216f2d6542eb1",
          "transactionIndex": "0x1c",
          "logIndex": "0x1e",
          "removed": false
        }
      ],
      "logsBloom": "0x00000000000000000000020004000000000000040200000000000000000000000200000000000000000000000000000000000000000000000000000000000000000000000000000000000000000000000000800000000000080000000000000000000000000000000000000000000000000000000000000000000000000000000000000000000000000000000000000000000000000000000000000000000000000000000000000000000000000000000000000000000000000000000000000000000000000000000000020000000000000000000000000000000000000800000000000000000000000000000021400000000000000000000000000000000000",
      "type": "0x2",
      "transactionHash": "0x8e762050d048f9fc75f458d0e95dfdd5e4d5d679d19149bb03a216f2d6542eb1",
      "transactionIndex": "0x1c",
      "blockHash": "0x200b922f5898b1cd6913648b4c5d267bbdab16b75a4db530c5208c31656fece4",
      "blockNumber": "0xd9a03",
      "gasUsed": "0x21ccf",
      "effectiveGasPrice": "0x67ce051",
      "from": "0x4100a9B680B1Be1F10Cb8b5a57fE59eA77A8184e",
      "to": "0xd21316257130d01DC8A49Da8A0Cba947f83acfC8",
      "contractAddress": null
    },
    {
      "status": "0x1",
      "cumulativeGasUsed": "0x1dba91",
      "logs": [
        {
          "address": "0xE8a7fdf07e95B0087dFB42f63FA91B15Ec0B9954",
          "topics": [
            "0xddf252ad1be2c89b69c2b068fc378daa952ba7f163c4a11628f55a4df523b3ef",
            "0x0000000000000000000000000000000000000000000000000000000000000000",
            "0x00000000000000000000000014dc79964da2c08b23698b3d3cc7ca32193d9955",
            "0x00000000000000000000000000000000000000000000000000000000000d9a10"
          ],
          "data": "0x",
          "blockHash": "0x200b922f5898b1cd6913648b4c5d267bbdab16b75a4db530c5208c31656fece4",
          "blockNumber": "0xd9a03",
          "transactionHash": "0xb1bd1849c397c0b53a8c1f783a9fb8e21616fc1d84d5697b894745408655f77f",
          "transactionIndex": "0x1d",
          "logIndex": "0x1f",
          "removed": false
        }
      ],
      "logsBloom": "0x00000000000000000000000002000000000000000000000000000000000000000000000000000000000000000000000000000000000000000000000000000000000000000000000000000048000000040000000000000400000000000000000008000000020000000000000000000800000000000000000000000010000000000000000000000000000000008000000000000000000000000000000000000000000000000000000020000000000000002000000000000000000000000000000000000002000000000000000000000000040000000000000000000000000020000000000000000000000000000000000000000000000000000000000000000000",
      "type": "0x2",
      "transactionHash": "0xb1bd1849c397c0b53a8c1f783a9fb8e21616fc1d84d5697b894745408655f77f",
      "transactionIndex": "0x1d",
      "blockHash": "0x200b922f5898b1cd6913648b4c5d267bbdab16b75a4db530c5208c31656fece4",
      "blockNumber": "0xd9a03",
      "gasUsed": "0x10cb7",
      "effectiveGasPrice": "0x67ce051",
      "from": "0x4100a9B680B1Be1F10Cb8b5a57fE59eA77A8184e",
      "to": "0xE8a7fdf07e95B0087dFB42f63FA91B15Ec0B9954",
      "contractAddress": null
    },
    {
      "status": "0x1",
      "cumulativeGasUsed": "0x1f8998",
      "logs": [
        {
          "address": "0xd21316257130d01DC8A49Da8A0Cba947f83acfC8",
          "topics": [
            "0x3ea3314dd8adca61ba5ccef601f00167a9a3c43358bad8b897df2519ee6d3a6c",
            "0x73eda594e5a5f289b9238eff50f0594e61f3e4809850d8f930f4bf249e7c8a2f",
            "0x00000000000000000000000014dc79964da2c08b23698b3d3cc7ca32193d9955"
          ],
          "data": "0x00000000000000000000000000000000000000000000000000000000000d9a1000000000000000000000000000000000000000000000000000000000000000000000000000000000000000000000000000000000000000000000000067125558",
          "blockHash": "0x200b922f5898b1cd6913648b4c5d267bbdab16b75a4db530c5208c31656fece4",
          "blockNumber": "0xd9a03",
          "transactionHash": "0xb09776456d699f586fc1fa1698f074a2afa40a621827f6e217fb4b6579455ac1",
          "transactionIndex": "0x1e",
          "logIndex": "0x20",
          "removed": false
        }
      ],
      "logsBloom": "0x00000000000000000000020000000000000000000000000000000000000000000200000000000000000000000000000000000000000000000000000000000000000000000000000000000000000000000000800000000400000000000000000000000000000000000000000000000000000000000040000000000000000000000000000000000000000000000000000000000000000000000000000000000000000000000000000000100000000000002000000000000001000000000000000000000000000000000000020000000000040000000000000000000000000800000000000000000000000000000020000000000000000000000000000000000000",
      "type": "0x2",
      "transactionHash": "0xb09776456d699f586fc1fa1698f074a2afa40a621827f6e217fb4b6579455ac1",
      "transactionIndex": "0x1e",
      "blockHash": "0x200b922f5898b1cd6913648b4c5d267bbdab16b75a4db530c5208c31656fece4",
      "blockNumber": "0xd9a03",
      "gasUsed": "0x1cf07",
      "effectiveGasPrice": "0x67ce051",
      "from": "0x4100a9B680B1Be1F10Cb8b5a57fE59eA77A8184e",
      "to": "0xd21316257130d01DC8A49Da8A0Cba947f83acfC8",
      "contractAddress": null
    },
    {
      "status": "0x1",
      "cumulativeGasUsed": "0x20964f",
      "logs": [
        {
          "address": "0xE8a7fdf07e95B0087dFB42f63FA91B15Ec0B9954",
          "topics": [
            "0xddf252ad1be2c89b69c2b068fc378daa952ba7f163c4a11628f55a4df523b3ef",
            "0x0000000000000000000000000000000000000000000000000000000000000000",
            "0x00000000000000000000000023618e81e3f5cdf7f54c3d65f7fbc0abf5b21e8f",
            "0x00000000000000000000000000000000000000000000000000000000000d9a11"
          ],
          "data": "0x",
          "blockHash": "0x200b922f5898b1cd6913648b4c5d267bbdab16b75a4db530c5208c31656fece4",
          "blockNumber": "0xd9a03",
          "transactionHash": "0x9fe17b3a8056461e684aeb217cdb79c88b97282c1c8602be6fdb2f426bfd8d06",
          "transactionIndex": "0x1f",
          "logIndex": "0x21",
          "removed": false
        }
      ],
      "logsBloom": "0x00800000000000000000000002000000000000000000000000000000000000000000000000000000000000000000000000000200000000000000000000000000000000000000000000000008000000040000000000000000000000000000000000000000020000000000000000000800000000000000000000000010000000000000000000000000000000020000000000000000000200000000000000000000000000000000000020000000000000000000000000000000000000000000000000000002000000000000000000000000000000000000000000000000000020000000000000000000000000000000000000000000000000000008008000000000",
      "type": "0x2",
      "transactionHash": "0x9fe17b3a8056461e684aeb217cdb79c88b97282c1c8602be6fdb2f426bfd8d06",
      "transactionIndex": "0x1f",
      "blockHash": "0x200b922f5898b1cd6913648b4c5d267bbdab16b75a4db530c5208c31656fece4",
      "blockNumber": "0xd9a03",
      "gasUsed": "0x10cb7",
      "effectiveGasPrice": "0x67ce051",
      "from": "0x4100a9B680B1Be1F10Cb8b5a57fE59eA77A8184e",
      "to": "0xE8a7fdf07e95B0087dFB42f63FA91B15Ec0B9954",
      "contractAddress": null
    },
    {
      "status": "0x1",
      "cumulativeGasUsed": "0x22b31e",
      "logs": [
        {
          "address": "0xd21316257130d01DC8A49Da8A0Cba947f83acfC8",
          "topics": [
            "0x3ea3314dd8adca61ba5ccef601f00167a9a3c43358bad8b897df2519ee6d3a6c",
            "0x03b7cb7ccd317663e92b211eb21cf13d331d91a5646a82fc60a4817b8d5a349b",
            "0x00000000000000000000000023618e81e3f5cdf7f54c3d65f7fbc0abf5b21e8f"
          ],
          "data": "0x00000000000000000000000000000000000000000000000000000000000d9a1100000000000000000000000000000000000000000000000000000000000000010000000000000000000000000000000000000000000000000000000067125558",
          "blockHash": "0x200b922f5898b1cd6913648b4c5d267bbdab16b75a4db530c5208c31656fece4",
          "blockNumber": "0xd9a03",
          "transactionHash": "0x6490e91a79ec412da334f15cd60c86f0ca86e6915e2bf5807f27cb547e16d9f5",
          "transactionIndex": "0x20",
          "logIndex": "0x22",
          "removed": false
        }
      ],
      "logsBloom": "0x00800000000000000000020000000000000000000000000040000000000000000200000000000000000000000000000000000000000000000000000000000000000000000000000000000000020000000000800000000000000000000000000000000000000000000000000000000000000000000000000004000000000000000000000000000000000000020000000000000000000000000000000000000000000000000000000000000000000000000000000000000000000000000000000000000000000000000000020000000000000000000000000000000000000800000000000000000000000000000020000000000000000000000000008000000000",
      "type": "0x2",
      "transactionHash": "0x6490e91a79ec412da334f15cd60c86f0ca86e6915e2bf5807f27cb547e16d9f5",
      "transactionIndex": "0x20",
      "blockHash": "0x200b922f5898b1cd6913648b4c5d267bbdab16b75a4db530c5208c31656fece4",
      "blockNumber": "0xd9a03",
      "gasUsed": "0x21ccf",
      "effectiveGasPrice": "0x67ce051",
      "from": "0x4100a9B680B1Be1F10Cb8b5a57fE59eA77A8184e",
      "to": "0xd21316257130d01DC8A49Da8A0Cba947f83acfC8",
      "contractAddress": null
    },
    {
      "status": "0x1",
      "cumulativeGasUsed": "0x23bfd5",
      "logs": [
        {
          "address": "0xE8a7fdf07e95B0087dFB42f63FA91B15Ec0B9954",
          "topics": [
            "0xddf252ad1be2c89b69c2b068fc378daa952ba7f163c4a11628f55a4df523b3ef",
            "0x0000000000000000000000000000000000000000000000000000000000000000",
            "0x000000000000000000000000a0ee7a142d267c1f36714e4a8f75612f20a79720",
            "0x00000000000000000000000000000000000000000000000000000000000d9a12"
          ],
          "data": "0x",
          "blockHash": "0x200b922f5898b1cd6913648b4c5d267bbdab16b75a4db530c5208c31656fece4",
          "blockNumber": "0xd9a03",
          "transactionHash": "0x95c93d1fb97813c3536e7633d2ccbe3c340263e68323930daf5e077d8ed80a61",
          "transactionIndex": "0x21",
          "logIndex": "0x23",
          "removed": false
        }
      ],
      "logsBloom": "0x00000000000000000000040002000000000000004000000000000000000000000000000000000000000000000000000000000000000000000000000000000080000000000000000000000008000000040000000000000000000008000000000000000000020000000000000000000800000000000000000000000010000000000000000000000000000000000000000000000000000000000000000000000000000000000000000020000000000000000000000000000000000000000000000000000002000000000000000000000000000000000000000000004000000020000000000000000000000000000000000000000000000000000000000040000000",
      "type": "0x2",
      "transactionHash": "0x95c93d1fb97813c3536e7633d2ccbe3c340263e68323930daf5e077d8ed80a61",
      "transactionIndex": "0x21",
      "blockHash": "0x200b922f5898b1cd6913648b4c5d267bbdab16b75a4db530c5208c31656fece4",
      "blockNumber": "0xd9a03",
      "gasUsed": "0x10cb7",
      "effectiveGasPrice": "0x67ce051",
      "from": "0x4100a9B680B1Be1F10Cb8b5a57fE59eA77A8184e",
      "to": "0xE8a7fdf07e95B0087dFB42f63FA91B15Ec0B9954",
      "contractAddress": null
    },
    {
      "status": "0x1",
      "cumulativeGasUsed": "0x25dca4",
      "logs": [
        {
          "address": "0xd21316257130d01DC8A49Da8A0Cba947f83acfC8",
          "topics": [
            "0x3ea3314dd8adca61ba5ccef601f00167a9a3c43358bad8b897df2519ee6d3a6c",
            "0xde9c22d4a874af53c186ee94064c384fa401596b652370c951c5ca1ec68e4aa2",
            "0x000000000000000000000000a0ee7a142d267c1f36714e4a8f75612f20a79720"
          ],
          "data": "0x00000000000000000000000000000000000000000000000000000000000d9a1200000000000000000000000000000000000000000000000000000000000000010000000000000000000000000000000000000000000000000000000067125558",
          "blockHash": "0x200b922f5898b1cd6913648b4c5d267bbdab16b75a4db530c5208c31656fece4",
          "blockNumber": "0xd9a03",
          "transactionHash": "0x0b68530bad868b5e717aaea88978462b7bb5fd9172b56e4f5d415f4d7b856da3",
          "transactionIndex": "0x22",
          "logIndex": "0x24",
          "removed": false
        }
      ],
      "logsBloom": "0x00000000000000000000060000000000000000000000000000000000000000000200000000800000000000000000000000000000000000000000000000000000000000000000000000000000000000000000800000000000000008020080000000000000000000000000000000000000000000000000000000000000000000000000000000000000000000000000000000000000000000000000000000000000000000000000000000000000000000000000000000000000000000000000000000000000000000000000020000000000000000000000000000004000000800000000000000000000000000000020000000000000000000000000000000000000",
      "type": "0x2",
      "transactionHash": "0x0b68530bad868b5e717aaea88978462b7bb5fd9172b56e4f5d415f4d7b856da3",
      "transactionIndex": "0x22",
      "blockHash": "0x200b922f5898b1cd6913648b4c5d267bbdab16b75a4db530c5208c31656fece4",
      "blockNumber": "0xd9a03",
      "gasUsed": "0x21ccf",
      "effectiveGasPrice": "0x67ce051",
      "from": "0x4100a9B680B1Be1F10Cb8b5a57fE59eA77A8184e",
      "to": "0xd21316257130d01DC8A49Da8A0Cba947f83acfC8",
      "contractAddress": null
    }
  ],
  "libraries": [],
  "pending": [],
  "returns": {},
  "timestamp": 1729254753,
  "chain": 167009,
  "commit": "f12d04e"
}