{
  "transactions": [
    {
      "hash": "0xad2b4e23bafb09fc53c2081cf9e35402f09a8827f3881b4598b5a5aa72421579",
      "transactionType": "CALL",
      "contractName": null,
      "contractAddress": "0x5a50e6E1092b63227548D6EC648f2ccb604a87B0",
      "function": "mint(address,uint256)",
      "arguments": [
        "0x70997970C51812dc3A010C7d01b50e0d17dc79C8",
        "891371"
      ],
      "transaction": {
        "from": "0x4100a9B680B1Be1F10Cb8b5a57fE59eA77A8184e",
        "to": "0x5a50e6E1092b63227548D6EC648f2ccb604a87B0",
        "gas": "0x1274d",
        "value": "0x0",
        "input": "0x40c10f1900000000000000000000000070997970c51812dc3a010c7d01b50e0d17dc79c800000000000000000000000000000000000000000000000000000000000d99eb",
        "nonce": "0x68e",
        "chainId": "0x28c61"
      },
      "additionalContracts": [],
      "isFixedGasLimit": false
    },
    {
      "hash": "0x9052f6f6aae24640416f23b2cbbd9266dd5251559259187814e5477538c3b0c8",
      "transactionType": "CALL",
      "contractName": null,
      "contractAddress": "0xdE17cb08ae4Aa50bd5E8D34eD9c53d93ec36C7b4",
      "function": "registerPlayer(address,uint256,uint8)",
      "arguments": [
        "0x70997970C51812dc3A010C7d01b50e0d17dc79C8",
        "891371",
        "0"
      ],
      "transaction": {
        "from": "0x4100a9B680B1Be1F10Cb8b5a57fE59eA77A8184e",
        "to": "0xdE17cb08ae4Aa50bd5E8D34eD9c53d93ec36C7b4",
        "gas": "0x27f8d",
        "value": "0x0",
        "input": "0x50ed283800000000000000000000000070997970c51812dc3a010c7d01b50e0d17dc79c800000000000000000000000000000000000000000000000000000000000d99eb0000000000000000000000000000000000000000000000000000000000000000",
        "nonce": "0x68f",
        "chainId": "0x28c61"
      },
      "additionalContracts": [],
      "isFixedGasLimit": false
    },
    {
      "hash": "0x09746caa965f25f157852511dc052a7d6baa97b16a48dc4dda7f0fa60b3ddc25",
      "transactionType": "CALL",
      "contractName": null,
      "contractAddress": "0x5a50e6E1092b63227548D6EC648f2ccb604a87B0",
      "function": "mint(address,uint256)",
      "arguments": [
        "0x3C44CdDdB6a900fa2b585dd299e03d12FA4293BC",
        "891372"
      ],
      "transaction": {
        "from": "0x4100a9B680B1Be1F10Cb8b5a57fE59eA77A8184e",
        "to": "0x5a50e6E1092b63227548D6EC648f2ccb604a87B0",
        "gas": "0x116d4",
        "value": "0x0",
        "input": "0x40c10f190000000000000000000000003c44cdddb6a900fa2b585dd299e03d12fa4293bc00000000000000000000000000000000000000000000000000000000000d99ec",
        "nonce": "0x690",
        "chainId": "0x28c61"
      },
      "additionalContracts": [],
      "isFixedGasLimit": false
    },
    {
      "hash": "0x8b66711af07be77b346601558dee271d0d8507b62e48b991cfe988f2f0ff12a7",
      "transactionType": "CALL",
      "contractName": null,
      "contractAddress": "0xdE17cb08ae4Aa50bd5E8D34eD9c53d93ec36C7b4",
      "function": "registerPlayer(address,uint256,uint8)",
      "arguments": [
        "0x3C44CdDdB6a900fa2b585dd299e03d12FA4293BC",
        "891372",
        "2"
      ],
      "transaction": {
        "from": "0x4100a9B680B1Be1F10Cb8b5a57fE59eA77A8184e",
        "to": "0xdE17cb08ae4Aa50bd5E8D34eD9c53d93ec36C7b4",
        "gas": "0x316dc",
        "value": "0x0",
        "input": "0x50ed28380000000000000000000000003c44cdddb6a900fa2b585dd299e03d12fa4293bc00000000000000000000000000000000000000000000000000000000000d99ec0000000000000000000000000000000000000000000000000000000000000002",
        "nonce": "0x691",
        "chainId": "0x28c61"
      },
      "additionalContracts": [],
      "isFixedGasLimit": false
    },
    {
      "hash": "0xca023825430680eda656b70c5ab20b8e809328bc8f8ba9acb20f3cc97536288a",
      "transactionType": "CALL",
      "contractName": null,
      "contractAddress": "0x5a50e6E1092b63227548D6EC648f2ccb604a87B0",
      "function": "mint(address,uint256)",
      "arguments": [
        "0x90F79bf6EB2c4f870365E785982E1f101E93b906",
        "891373"
      ],
      "transaction": {
        "from": "0x4100a9B680B1Be1F10Cb8b5a57fE59eA77A8184e",
        "to": "0x5a50e6E1092b63227548D6EC648f2ccb604a87B0",
        "gas": "0x1274d",
        "value": "0x0",
        "input": "0x40c10f1900000000000000000000000090f79bf6eb2c4f870365e785982e1f101e93b90600000000000000000000000000000000000000000000000000000000000d99ed",
        "nonce": "0x692",
        "chainId": "0x28c61"
      },
      "additionalContracts": [],
      "isFixedGasLimit": false
    },
    {
      "hash": "0x7e1318c90799b95a318ca6f8b19b94ac7acdcf185a7ca17f11692aa76ff1ed6e",
      "transactionType": "CALL",
      "contractName": null,
      "contractAddress": "0xdE17cb08ae4Aa50bd5E8D34eD9c53d93ec36C7b4",
      "function": "registerPlayer(address,uint256,uint8)",
      "arguments": [
        "0x90F79bf6EB2c4f870365E785982E1f101E93b906",
        "891373",
        "0"
      ],
      "transaction": {
        "from": "0x4100a9B680B1Be1F10Cb8b5a57fE59eA77A8184e",
        "to": "0xdE17cb08ae4Aa50bd5E8D34eD9c53d93ec36C7b4",
        "gas": "0x27f8d",
        "value": "0x0",
        "input": "0x50ed283800000000000000000000000090f79bf6eb2c4f870365e785982e1f101e93b90600000000000000000000000000000000000000000000000000000000000d99ed0000000000000000000000000000000000000000000000000000000000000000",
        "nonce": "0x693",
        "chainId": "0x28c61"
      },
      "additionalContracts": [],
      "isFixedGasLimit": false
    },
    {
      "hash": "0x91a2ad29b8f69abe527fe2390c185fa36de9a3d5b2e9f5f8466d65f1062729bf",
      "transactionType": "CALL",
      "contractName": null,
      "contractAddress": "0x5a50e6E1092b63227548D6EC648f2ccb604a87B0",
      "function": "mint(address,uint256)",
      "arguments": [
        "0x15d34AAf54267DB7D7c367839AAf71A00a2C6A65",
        "891374"
      ],
      "transaction": {
        "from": "0x4100a9B680B1Be1F10Cb8b5a57fE59eA77A8184e",
        "to": "0x5a50e6E1092b63227548D6EC648f2ccb604a87B0",
        "gas": "0x1274d",
        "value": "0x0",
        "input": "0x40c10f1900000000000000000000000015d34aaf54267db7d7c367839aaf71a00a2c6a6500000000000000000000000000000000000000000000000000000000000d99ee",
        "nonce": "0x694",
        "chainId": "0x28c61"
      },
      "additionalContracts": [],
      "isFixedGasLimit": false
    },
    {
      "hash": "0x8003444e41114e055181e9954192c84a05daa2b8b1b367e7c6e951d4fda29a05",
      "transactionType": "CALL",
      "contractName": null,
      "contractAddress": "0xdE17cb08ae4Aa50bd5E8D34eD9c53d93ec36C7b4",
      "function": "registerPlayer(address,uint256,uint8)",
      "arguments": [
        "0x15d34AAf54267DB7D7c367839AAf71A00a2C6A65",
        "891374",
        "1"
      ],
      "transaction": {
        "from": "0x4100a9B680B1Be1F10Cb8b5a57fE59eA77A8184e",
        "to": "0xdE17cb08ae4Aa50bd5E8D34eD9c53d93ec36C7b4",
        "gas": "0x2eafc",
        "value": "0x0",
        "input": "0x50ed283800000000000000000000000015d34aaf54267db7d7c367839aaf71a00a2c6a6500000000000000000000000000000000000000000000000000000000000d99ee0000000000000000000000000000000000000000000000000000000000000001",
        "nonce": "0x695",
        "chainId": "0x28c61"
      },
      "additionalContracts": [],
      "isFixedGasLimit": false
    },
    {
      "hash": "0x1ec44c79d630ff71fa3c88c5025a1c2ac4dbc37f1494c19093de98e53317e557",
      "transactionType": "CALL",
      "contractName": null,
      "contractAddress": "0x5a50e6E1092b63227548D6EC648f2ccb604a87B0",
      "function": "mint(address,uint256)",
      "arguments": [
        "0x9965507D1a55bcC2695C58ba16FB37d819B0A4dc",
        "891375"
      ],
      "transaction": {
        "from": "0x4100a9B680B1Be1F10Cb8b5a57fE59eA77A8184e",
        "to": "0x5a50e6E1092b63227548D6EC648f2ccb604a87B0",
        "gas": "0x1274d",
        "value": "0x0",
        "input": "0x40c10f190000000000000000000000009965507d1a55bcc2695c58ba16fb37d819b0a4dc00000000000000000000000000000000000000000000000000000000000d99ef",
        "nonce": "0x696",
        "chainId": "0x28c61"
      },
      "additionalContracts": [],
      "isFixedGasLimit": false
    },
    {
      "hash": "0xe8c467735133423c295a555bbee33dadbddd4479ec8d3d5c6be66a27f0eeba02",
      "transactionType": "CALL",
      "contractName": null,
      "contractAddress": "0xdE17cb08ae4Aa50bd5E8D34eD9c53d93ec36C7b4",
      "function": "registerPlayer(address,uint256,uint8)",
      "arguments": [
        "0x9965507D1a55bcC2695C58ba16FB37d819B0A4dc",
        "891375",
        "0"
      ],
      "transaction": {
        "from": "0x4100a9B680B1Be1F10Cb8b5a57fE59eA77A8184e",
        "to": "0xdE17cb08ae4Aa50bd5E8D34eD9c53d93ec36C7b4",
        "gas": "0x27f8d",
        "value": "0x0",
        "input": "0x50ed28380000000000000000000000009965507d1a55bcc2695c58ba16fb37d819b0a4dc00000000000000000000000000000000000000000000000000000000000d99ef0000000000000000000000000000000000000000000000000000000000000000",
        "nonce": "0x697",
        "chainId": "0x28c61"
      },
      "additionalContracts": [],
      "isFixedGasLimit": false
    },
    {
      "hash": "0xc5a0472637caa271fb6c62341114faf7373b77a24af7cad8d136c9db34708611",
      "transactionType": "CALL",
      "contractName": null,
      "contractAddress": "0x5a50e6E1092b63227548D6EC648f2ccb604a87B0",
      "function": "mint(address,uint256)",
      "arguments": [
        "0x976EA74026E726554dB657fA54763abd0C3a0aa9",
        "891376"
      ],
      "transaction": {
        "from": "0x4100a9B680B1Be1F10Cb8b5a57fE59eA77A8184e",
        "to": "0x5a50e6E1092b63227548D6EC648f2ccb604a87B0",
        "gas": "0x1274d",
        "value": "0x0",
        "input": "0x40c10f19000000000000000000000000976ea74026e726554db657fa54763abd0c3a0aa900000000000000000000000000000000000000000000000000000000000d99f0",
        "nonce": "0x698",
        "chainId": "0x28c61"
      },
      "additionalContracts": [],
      "isFixedGasLimit": false
    },
    {
      "hash": "0x43fa638b722992492e0ab692d4f807d5daac0a1bce61750eb3ec5a2e74e9c853",
      "transactionType": "CALL",
      "contractName": null,
      "contractAddress": "0xdE17cb08ae4Aa50bd5E8D34eD9c53d93ec36C7b4",
      "function": "registerPlayer(address,uint256,uint8)",
      "arguments": [
        "0x976EA74026E726554dB657fA54763abd0C3a0aa9",
        "891376",
        "2"
      ],
      "transaction": {
        "from": "0x4100a9B680B1Be1F10Cb8b5a57fE59eA77A8184e",
        "to": "0xdE17cb08ae4Aa50bd5E8D34eD9c53d93ec36C7b4",
        "gas": "0x2eafc",
        "value": "0x0",
        "input": "0x50ed2838000000000000000000000000976ea74026e726554db657fa54763abd0c3a0aa900000000000000000000000000000000000000000000000000000000000d99f00000000000000000000000000000000000000000000000000000000000000002",
        "nonce": "0x699",
        "chainId": "0x28c61"
      },
      "additionalContracts": [],
      "isFixedGasLimit": false
    },
    {
      "hash": "0x2b58bc1f184e3c4635cf2b5067aa7263067f227575becf59b30b8ecd77d14f88",
      "transactionType": "CALL",
      "contractName": null,
      "contractAddress": "0x5a50e6E1092b63227548D6EC648f2ccb604a87B0",
      "function": "mint(address,uint256)",
      "arguments": [
        "0x14dC79964da2C08b23698B3D3cc7Ca32193d9955",
        "891377"
      ],
      "transaction": {
        "from": "0x4100a9B680B1Be1F10Cb8b5a57fE59eA77A8184e",
        "to": "0x5a50e6E1092b63227548D6EC648f2ccb604a87B0",
        "gas": "0x1274d",
        "value": "0x0",
        "input": "0x40c10f1900000000000000000000000014dc79964da2c08b23698b3d3cc7ca32193d995500000000000000000000000000000000000000000000000000000000000d99f1",
        "nonce": "0x69a",
        "chainId": "0x28c61"
      },
      "additionalContracts": [],
      "isFixedGasLimit": false
    },
    {
      "hash": "0x7350df1c327090ca8fdd48692bee59c7d144cb8aa7f4dc22947a64f88a0ba2a4",
      "transactionType": "CALL",
      "contractName": null,
      "contractAddress": "0xdE17cb08ae4Aa50bd5E8D34eD9c53d93ec36C7b4",
      "function": "registerPlayer(address,uint256,uint8)",
      "arguments": [
        "0x14dC79964da2C08b23698B3D3cc7Ca32193d9955",
        "891377",
        "0"
      ],
      "transaction": {
        "from": "0x4100a9B680B1Be1F10Cb8b5a57fE59eA77A8184e",
        "to": "0xdE17cb08ae4Aa50bd5E8D34eD9c53d93ec36C7b4",
        "gas": "0x27f8d",
        "value": "0x0",
        "input": "0x50ed283800000000000000000000000014dc79964da2c08b23698b3d3cc7ca32193d995500000000000000000000000000000000000000000000000000000000000d99f10000000000000000000000000000000000000000000000000000000000000000",
        "nonce": "0x69b",
        "chainId": "0x28c61"
      },
      "additionalContracts": [],
      "isFixedGasLimit": false
    },
    {
      "hash": "0x2767d450382cb52ce4e77b3008d0c83b93fbca428d235dc2f17b2daaf46a12bf",
      "transactionType": "CALL",
      "contractName": null,
      "contractAddress": "0x5a50e6E1092b63227548D6EC648f2ccb604a87B0",
      "function": "mint(address,uint256)",
      "arguments": [
        "0x23618e81E3f5cdF7f54C3d65f7FBc0aBf5B21E8f",
        "891378"
      ],
      "transaction": {
        "from": "0x4100a9B680B1Be1F10Cb8b5a57fE59eA77A8184e",
        "to": "0x5a50e6E1092b63227548D6EC648f2ccb604a87B0",
        "gas": "0x1274d",
        "value": "0x0",
        "input": "0x40c10f1900000000000000000000000023618e81e3f5cdf7f54c3d65f7fbc0abf5b21e8f00000000000000000000000000000000000000000000000000000000000d99f2",
        "nonce": "0x69c",
        "chainId": "0x28c61"
      },
      "additionalContracts": [],
      "isFixedGasLimit": false
    },
    {
      "hash": "0x05572fadfde94060e9ce228e08e18bf2a0511ee509d05462225865e9da9a5c37",
      "transactionType": "CALL",
      "contractName": null,
      "contractAddress": "0xdE17cb08ae4Aa50bd5E8D34eD9c53d93ec36C7b4",
      "function": "registerPlayer(address,uint256,uint8)",
      "arguments": [
        "0x23618e81E3f5cdF7f54C3d65f7FBc0aBf5B21E8f",
        "891378",
        "1"
      ],
      "transaction": {
        "from": "0x4100a9B680B1Be1F10Cb8b5a57fE59eA77A8184e",
        "to": "0xdE17cb08ae4Aa50bd5E8D34eD9c53d93ec36C7b4",
        "gas": "0x2eafc",
        "value": "0x0",
        "input": "0x50ed283800000000000000000000000023618e81e3f5cdf7f54c3d65f7fbc0abf5b21e8f00000000000000000000000000000000000000000000000000000000000d99f20000000000000000000000000000000000000000000000000000000000000001",
        "nonce": "0x69d",
        "chainId": "0x28c61"
      },
      "additionalContracts": [],
      "isFixedGasLimit": false
    },
    {
      "hash": "0x3886e135b06d24e6a1764517734631a737c5d75a1af07358809160d5a266026a",
      "transactionType": "CALL",
      "contractName": null,
      "contractAddress": "0x5a50e6E1092b63227548D6EC648f2ccb604a87B0",
      "function": "mint(address,uint256)",
      "arguments": [
        "0xa0Ee7A142d267C1f36714E4a8F75612F20a79720",
        "891379"
      ],
      "transaction": {
        "from": "0x4100a9B680B1Be1F10Cb8b5a57fE59eA77A8184e",
        "to": "0x5a50e6E1092b63227548D6EC648f2ccb604a87B0",
        "gas": "0x1274d",
        "value": "0x0",
        "input": "0x40c10f19000000000000000000000000a0ee7a142d267c1f36714e4a8f75612f20a7972000000000000000000000000000000000000000000000000000000000000d99f3",
        "nonce": "0x69e",
        "chainId": "0x28c61"
      },
      "additionalContracts": [],
      "isFixedGasLimit": false
    },
    {
      "hash": "0xebed8531eedc2c4be96e3c08e13721903a3c62ee767b4ea6bf25e05800a1cf67",
      "transactionType": "CALL",
      "contractName": null,
      "contractAddress": "0xdE17cb08ae4Aa50bd5E8D34eD9c53d93ec36C7b4",
      "function": "registerPlayer(address,uint256,uint8)",
      "arguments": [
        "0xa0Ee7A142d267C1f36714E4a8F75612F20a79720",
        "891379",
        "1"
      ],
      "transaction": {
        "from": "0x4100a9B680B1Be1F10Cb8b5a57fE59eA77A8184e",
        "to": "0xdE17cb08ae4Aa50bd5E8D34eD9c53d93ec36C7b4",
        "gas": "0x2eafc",
        "value": "0x0",
        "input": "0x50ed2838000000000000000000000000a0ee7a142d267c1f36714e4a8f75612f20a7972000000000000000000000000000000000000000000000000000000000000d99f30000000000000000000000000000000000000000000000000000000000000001",
        "nonce": "0x69f",
        "chainId": "0x28c61"
      },
      "additionalContracts": [],
      "isFixedGasLimit": false
    }
  ],
  "receipts": [
    {
      "status": "0x1",
      "cumulativeGasUsed": "0x38185",
      "logs": [
        {
          "address": "0x5a50e6E1092b63227548D6EC648f2ccb604a87B0",
          "topics": [
            "0xddf252ad1be2c89b69c2b068fc378daa952ba7f163c4a11628f55a4df523b3ef",
            "0x0000000000000000000000000000000000000000000000000000000000000000",
            "0x00000000000000000000000070997970c51812dc3a010c7d01b50e0d17dc79c8",
            "0x00000000000000000000000000000000000000000000000000000000000d99eb"
          ],
          "data": "0x",
          "blockHash": "0x0c4ca6cb1446885d006bb29ca7801150a0949996191b1ac56eca63cb2a098127",
          "blockNumber": "0xd99e4",
          "transactionHash": "0xad2b4e23bafb09fc53c2081cf9e35402f09a8827f3881b4598b5a5aa72421579",
          "transactionIndex": "0x1",
          "logIndex": "0x3",
          "removed": false
        }
      ],
      "logsBloom": "0x00000000000080040002000000000000000000000000000000000000000000000040000000000000000000000000020000000000010000000000000000000000000000000000000000000008000000000000000000000000000000000000000000000800020000000000000000000800000000000000000000000010000000000000000000000000000000000000000000000000000000000000000000000000002000000000000000000000000000000000000000000000000000000000000000000002000000000000000000000000000000000000000000000000000020000000000000000000000000000000000001000000000000000000000000000000",
      "type": "0x2",
      "transactionHash": "0xad2b4e23bafb09fc53c2081cf9e35402f09a8827f3881b4598b5a5aa72421579",
      "transactionIndex": "0x1",
      "blockHash": "0x0c4ca6cb1446885d006bb29ca7801150a0949996191b1ac56eca63cb2a098127",
      "blockNumber": "0xd99e4",
      "gasUsed": "0xc9eb",
      "effectiveGasPrice": "0x86ff52",
      "from": "0x4100a9B680B1Be1F10Cb8b5a57fE59eA77A8184e",
      "to": "0x5a50e6E1092b63227548D6EC648f2ccb604a87B0",
      "contractAddress": null
    },
    {
      "status": "0x1",
      "cumulativeGasUsed": "0x5508c",
      "logs": [
        {
          "address": "0xdE17cb08ae4Aa50bd5E8D34eD9c53d93ec36C7b4",
          "topics": [
            "0x3ea3314dd8adca61ba5ccef601f00167a9a3c43358bad8b897df2519ee6d3a6c",
            "0xf4e79851645872fec1c5d361071cdf1eb1654a53e5ffecd535baf47380a0b680",
            "0x00000000000000000000000070997970c51812dc3a010c7d01b50e0d17dc79c8"
          ],
          "data": "0x00000000000000000000000000000000000000000000000000000000000d99eb000000000000000000000000000000000000000000000000000000000000000000000000000000000000000000000000000000000000000000000000671251f8",
          "blockHash": "0x0c4ca6cb1446885d006bb29ca7801150a0949996191b1ac56eca63cb2a098127",
          "blockNumber": "0xd99e4",
          "transactionHash": "0x9052f6f6aae24640416f23b2cbbd9266dd5251559259187814e5477538c3b0c8",
          "transactionIndex": "0x2",
          "logIndex": "0x4",
          "removed": false
        }
      ],
      "logsBloom": "0x00000000000000000002000000000000000000000000000000000000000000000000000000000000000000000000000000000000000000000000000080000000000000000000000000000000000000000000800000000000000000000000000000000800000000000000040000000000000000000000000000000000000000000000000000000000000000000000000000040000000000000000000000000000000000000000000000000000000000000000000000000000000000000000000000000000000000000000020040000000000000000000000020000000000800000000000000000000000000000000000001000000000000000000000000000200",
      "type": "0x2",
      "transactionHash": "0x9052f6f6aae24640416f23b2cbbd9266dd5251559259187814e5477538c3b0c8",
      "transactionIndex": "0x2",
      "blockHash": "0x0c4ca6cb1446885d006bb29ca7801150a0949996191b1ac56eca63cb2a098127",
      "blockNumber": "0xd99e4",
      "gasUsed": "0x1cf07",
      "effectiveGasPrice": "0x86ff52",
      "from": "0x4100a9B680B1Be1F10Cb8b5a57fE59eA77A8184e",
      "to": "0xdE17cb08ae4Aa50bd5E8D34eD9c53d93ec36C7b4",
      "contractAddress": null
    },
    {
      "status": "0x1",
      "cumulativeGasUsed": "0x61a6b",
      "logs": [
        {
          "address": "0x5a50e6E1092b63227548D6EC648f2ccb604a87B0",
          "topics": [
            "0xddf252ad1be2c89b69c2b068fc378daa952ba7f163c4a11628f55a4df523b3ef",
            "0x0000000000000000000000000000000000000000000000000000000000000000",
            "0x0000000000000000000000003c44cdddb6a900fa2b585dd299e03d12fa4293bc",
            "0x00000000000000000000000000000000000000000000000000000000000d99ec"
          ],
          "data": "0x",
          "blockHash": "0x0c4ca6cb1446885d006bb29ca7801150a0949996191b1ac56eca63cb2a098127",
          "blockNumber": "0xd99e4",
          "transactionHash": "0x09746caa965f25f157852511dc052a7d6baa97b16a48dc4dda7f0fa60b3ddc25",
          "transactionIndex": "0x3",
          "logIndex": "0x5",
          "removed": false
        }
      ],
      "logsBloom": "0x00000000000080000000000000000000000000000000000000000001000000000000000000000000000000000100000000000000010000000000000000140000000000000000000000000008000000000000000000000000000000000000000000000000020000000000000000000800000800000000000000000010000000000000000000000000000000000000000000000000000000000000000000000000002000000000200000000000000000000000000000000000000000000000000000000002000000000000000000000000000000000000000000000000000020000000000000000000000000000000000000000000000000000000000000000000",
      "type": "0x2",
      "transactionHash": "0x09746caa965f25f157852511dc052a7d6baa97b16a48dc4dda7f0fa60b3ddc25",
      "transactionIndex": "0x3",
      "blockHash": "0x0c4ca6cb1446885d006bb29ca7801150a0949996191b1ac56eca63cb2a098127",
      "blockNumber": "0xd99e4",
      "gasUsed": "0xc9df",
      "effectiveGasPrice": "0x86ff52",
      "from": "0x4100a9B680B1Be1F10Cb8b5a57fE59eA77A8184e",
      "to": "0x5a50e6E1092b63227548D6EC648f2ccb604a87B0",
      "contractAddress": null
    },
    {
      "status": "0x1",
      "cumulativeGasUsed": "0x8372e",
      "logs": [
        {
          "address": "0xdE17cb08ae4Aa50bd5E8D34eD9c53d93ec36C7b4",
          "topics": [
            "0x3ea3314dd8adca61ba5ccef601f00167a9a3c43358bad8b897df2519ee6d3a6c",
            "0xb27d5db27c0fd48398f149552ffc3df265dc912025d626318584e75f2185d7f9",
            "0x0000000000000000000000003c44cdddb6a900fa2b585dd299e03d12fa4293bc"
          ],
          "data": "0x00000000000000000000000000000000000000000000000000000000000d99ec000000000000000000000000000000000000000000000000000000000000000200000000000000000000000000000000000000000000000000000000671251f8",
          "blockHash": "0x0c4ca6cb1446885d006bb29ca7801150a0949996191b1ac56eca63cb2a098127",
          "blockNumber": "0xd99e4",
          "transactionHash": "0x8b66711af07be77b346601558dee271d0d8507b62e48b991cfe988f2f0ff12a7",
          "transactionIndex": "0x4",
          "logIndex": "0x6",
          "removed": false
        }
      ],
      "logsBloom": "0x00000000000000000000000000000000000000000000000000000000000000000000000000000000000000000000000000000000000000000000000080100000000000000000000000000000000000000000800000000000000000000000000000000000000000000000000000000000000800000000000000400000000000000000000000020000000000000000000000000000000000000000000000000000000000000000200000000000000000000000000000000000000000000000000000001000000000000000020000000000000000000000000020000000000800000000000000000000000000000000000000000000000000000000000000000200",
      "type": "0x2",
      "transactionHash": "0x8b66711af07be77b346601558dee271d0d8507b62e48b991cfe988f2f0ff12a7",
      "transactionIndex": "0x4",
      "blockHash": "0x0c4ca6cb1446885d006bb29ca7801150a0949996191b1ac56eca63cb2a098127",
      "blockNumber": "0xd99e4",
      "gasUsed": "0x21cc3",
      "effectiveGasPrice": "0x86ff52",
      "from": "0x4100a9B680B1Be1F10Cb8b5a57fE59eA77A8184e",
      "to": "0xdE17cb08ae4Aa50bd5E8D34eD9c53d93ec36C7b4",
      "contractAddress": null
    },
    {
      "status": "0x1",
      "cumulativeGasUsed": "0x90119",
      "logs": [
        {
          "address": "0x5a50e6E1092b63227548D6EC648f2ccb604a87B0",
          "topics": [
            "0xddf252ad1be2c89b69c2b068fc378daa952ba7f163c4a11628f55a4df523b3ef",
            "0x0000000000000000000000000000000000000000000000000000000000000000",
            "0x00000000000000000000000090f79bf6eb2c4f870365e785982e1f101e93b906",
            "0x00000000000000000000000000000000000000000000000000000000000d99ed"
          ],
          "data": "0x",
          "blockHash": "0x0c4ca6cb1446885d006bb29ca7801150a0949996191b1ac56eca63cb2a098127",
          "blockNumber": "0xd99e4",
          "transactionHash": "0xca023825430680eda656b70c5ab20b8e809328bc8f8ba9acb20f3cc97536288a",
          "transactionIndex": "0x5",
          "logIndex": "0x7",
          "removed": false
        }
      ],
      "logsBloom": "0x00000000000080000000000000000000000000000000000000000000000000000000000800000000000000000000000000000000010000000000000000000000000000000000001000000008000000000000000000000000000000000000000000000000020000000000000000000800000000000000000000000010000000000000000000000000000000000000000000000000000000000400000000000000002000000000000000000000000000000000000000000000000000000000000000000002000000000000000000000000400000000000000000000000000020010000000000000000000010000000000000000000000000000000000000000000",
      "type": "0x2",
      "transactionHash": "0xca023825430680eda656b70c5ab20b8e809328bc8f8ba9acb20f3cc97536288a",
      "transactionIndex": "0x5",
      "blockHash": "0x0c4ca6cb1446885d006bb29ca7801150a0949996191b1ac56eca63cb2a098127",
      "blockNumber": "0xd99e4",
      "gasUsed": "0xc9eb",
      "effectiveGasPrice": "0x86ff52",
      "from": "0x4100a9B680B1Be1F10Cb8b5a57fE59eA77A8184e",
      "to": "0x5a50e6E1092b63227548D6EC648f2ccb604a87B0",
      "contractAddress": null
    },
    {
      "status": "0x1",
      "cumulativeGasUsed": "0xad020",
      "logs": [
        {
          "address": "0xdE17cb08ae4Aa50bd5E8D34eD9c53d93ec36C7b4",
          "topics": [
            "0x3ea3314dd8adca61ba5ccef601f00167a9a3c43358bad8b897df2519ee6d3a6c",
            "0x8e5691f429168d8121acbfebea6a16112d619d7a9e92b1413486ff5081e83f65",
            "0x00000000000000000000000090f79bf6eb2c4f870365e785982e1f101e93b906"
          ],
          "data": "0x00000000000000000000000000000000000000000000000000000000000d99ed000000000000000000000000000000000000000000000000000000000000000000000000000000000000000000000000000000000000000000000000671251f8",
          "blockHash": "0x0c4ca6cb1446885d006bb29ca7801150a0949996191b1ac56eca63cb2a098127",
          "blockNumber": "0xd99e4",
          "transactionHash": "0x7e1318c90799b95a318ca6f8b19b94ac7acdcf185a7ca17f11692aa76ff1ed6e",
          "transactionIndex": "0x6",
          "logIndex": "0x8",
          "removed": false
        }
      ],
      "logsBloom": "0x00000000000000000000000000000000000000000000000000000000000100000000000000000000000000000000000000000000000000000000000080000000000000000000000000000000000000100000800000000000000000000000000000000000000000000000000000000000000000000000000000000000000000000000000000000000000000000000000000000000000000000400000000000000000000000000000000000000000000000000000000000000000000000000000000000000000000040000020000000000400000000000000020000000000800000000000000000000000010000000000000000000000000000000000000000200",
      "type": "0x2",
      "transactionHash": "0x7e1318c90799b95a318ca6f8b19b94ac7acdcf185a7ca17f11692aa76ff1ed6e",
      "transactionIndex": "0x6",
      "blockHash": "0x0c4ca6cb1446885d006bb29ca7801150a0949996191b1ac56eca63cb2a098127",
      "blockNumber": "0xd99e4",
      "gasUsed": "0x1cf07",
      "effectiveGasPrice": "0x86ff52",
      "from": "0x4100a9B680B1Be1F10Cb8b5a57fE59eA77A8184e",
      "to": "0xdE17cb08ae4Aa50bd5E8D34eD9c53d93ec36C7b4",
      "contractAddress": null
    },
    {
      "status": "0x1",
      "cumulativeGasUsed": "0xb9a0b",
      "logs": [
        {
          "address": "0x5a50e6E1092b63227548D6EC648f2ccb604a87B0",
          "topics": [
            "0xddf252ad1be2c89b69c2b068fc378daa952ba7f163c4a11628f55a4df523b3ef",
            "0x0000000000000000000000000000000000000000000000000000000000000000",
            "0x00000000000000000000000015d34aaf54267db7d7c367839aaf71a00a2c6a65",
            "0x00000000000000000000000000000000000000000000000000000000000d99ee"
          ],
          "data": "0x",
          "blockHash": "0x0c4ca6cb1446885d006bb29ca7801150a0949996191b1ac56eca63cb2a098127",
          "blockNumber": "0xd99e4",
          "transactionHash": "0x91a2ad29b8f69abe527fe2390c185fa36de9a3d5b2e9f5f8466d65f1062729bf",
          "transactionIndex": "0x7",
          "logIndex": "0x9",
          "removed": false
        }
      ],
      "logsBloom": "0x00000000040080000000000000000000000000000000000000000000006000000000000000000000000000000000000000000000010000000000000000000000000000000000000000000008000000000000000000000000000000000000000000000000020000000000000000000800000000000000000000000010000000000000000000000000000000000000000000000000000000000000000100000000002000000000000000000000000000000000000000000000000000000000000000000002000000000000000000000000000000000000000000040000000024000000000000000000000000000000000000000000000000000000000000000000",
      "type": "0x2",
      "transactionHash": "0x91a2ad29b8f69abe527fe2390c185fa36de9a3d5b2e9f5f8466d65f1062729bf",
      "transactionIndex": "0x7",
      "blockHash": "0x0c4ca6cb1446885d006bb29ca7801150a0949996191b1ac56eca63cb2a098127",
      "blockNumber": "0xd99e4",
      "gasUsed": "0xc9eb",
      "effectiveGasPrice": "0x86ff52",
      "from": "0x4100a9B680B1Be1F10Cb8b5a57fE59eA77A8184e",
      "to": "0x5a50e6E1092b63227548D6EC648f2ccb604a87B0",
      "contractAddress": null
    },
    {
      "status": "0x1",
      "cumulativeGasUsed": "0xdb6da",
      "logs": [
        {
          "address": "0xdE17cb08ae4Aa50bd5E8D34eD9c53d93ec36C7b4",
          "topics": [
            "0x3ea3314dd8adca61ba5ccef601f00167a9a3c43358bad8b897df2519ee6d3a6c",
            "0x2c776451901ebbcddc2623555140f6692847268100ad189e61f849f02d444feb",
            "0x00000000000000000000000015d34aaf54267db7d7c367839aaf71a00a2c6a65"
          ],
          "data": "0x00000000000000000000000000000000000000000000000000000000000d99ee000000000000000000000000000000000000000000000000000000000000000100000000000000000000000000000000000000000000000000000000671251f8",
          "blockHash": "0x0c4ca6cb1446885d006bb29ca7801150a0949996191b1ac56eca63cb2a098127",
          "blockNumber": "0xd99e4",
          "transactionHash": "0x8003444e41114e055181e9954192c84a05daa2b8b1b367e7c6e951d4fda29a05",
          "transactionIndex": "0x8",
          "logIndex": "0xa",
          "removed": false
        }
      ],
      "logsBloom": "0x00000000040000000000000000000000000000000000000000000100000000000000000000000000000000000000000000000000000000000000000080000000000000000000000000000000000000000000800000000000000000000000000000000000000000000000000000000000000000000000000000000000000000000000000000000010000000000000000000000000000000000000000100000000000000000000000000000000000000000000000000000000000000000000000000000000000000000000020000000000000100000000000020000000000804000000000000000000000000000000000000000000000000000000000000000200",
      "type": "0x2",
      "transactionHash": "0x8003444e41114e055181e9954192c84a05daa2b8b1b367e7c6e951d4fda29a05",
      "transactionIndex": "0x8",
      "blockHash": "0x0c4ca6cb1446885d006bb29ca7801150a0949996191b1ac56eca63cb2a098127",
      "blockNumber": "0xd99e4",
      "gasUsed": "0x21ccf",
      "effectiveGasPrice": "0x86ff52",
      "from": "0x4100a9B680B1Be1F10Cb8b5a57fE59eA77A8184e",
      "to": "0xdE17cb08ae4Aa50bd5E8D34eD9c53d93ec36C7b4",
      "contractAddress": null
    },
    {
      "status": "0x1",
      "cumulativeGasUsed": "0xe80c5",
      "logs": [
        {
          "address": "0x5a50e6E1092b63227548D6EC648f2ccb604a87B0",
          "topics": [
            "0xddf252ad1be2c89b69c2b068fc378daa952ba7f163c4a11628f55a4df523b3ef",
            "0x0000000000000000000000000000000000000000000000000000000000000000",
            "0x0000000000000000000000009965507d1a55bcc2695c58ba16fb37d819b0a4dc",
            "0x00000000000000000000000000000000000000000000000000000000000d99ef"
          ],
          "data": "0x",
          "blockHash": "0x0c4ca6cb1446885d006bb29ca7801150a0949996191b1ac56eca63cb2a098127",
          "blockNumber": "0xd99e4",
          "transactionHash": "0x1ec44c79d630ff71fa3c88c5025a1c2ac4dbc37f1494c19093de98e53317e557",
          "transactionIndex": "0x9",
          "logIndex": "0xb",
          "removed": false
        }
      ],
      "logsBloom": "0x00000004000080000000000000000000000000000000000000000000000000000000000000000000000000000000000000000800010000000000000000000000000000000000000000000008000000000000000000008000000000000000000000000000020000000000000000000800000010000000000000000010000000000000000000000000000000000000800000000000000000000000000000000000002000000000000000000000000000000000000000000000000000000000000000000002800000000000000000000000000000000000000000000000000020000000000000000000000000000000000000000000000000000000000000000000",
      "type": "0x2",
      "transactionHash": "0x1ec44c79d630ff71fa3c88c5025a1c2ac4dbc37f1494c19093de98e53317e557",
      "transactionIndex": "0x9",
      "blockHash": "0x0c4ca6cb1446885d006bb29ca7801150a0949996191b1ac56eca63cb2a098127",
      "blockNumber": "0xd99e4",
      "gasUsed": "0xc9eb",
      "effectiveGasPrice": "0x86ff52",
      "from": "0x4100a9B680B1Be1F10Cb8b5a57fE59eA77A8184e",
      "to": "0x5a50e6E1092b63227548D6EC648f2ccb604a87B0",
      "contractAddress": null
    },
    {
      "status": "0x1",
      "cumulativeGasUsed": "0x104fcc",
      "logs": [
        {
          "address": "0xdE17cb08ae4Aa50bd5E8D34eD9c53d93ec36C7b4",
          "topics": [
            "0x3ea3314dd8adca61ba5ccef601f00167a9a3c43358bad8b897df2519ee6d3a6c",
            "0x8a71ae0f7ce844c1bed53dc1119b39df026f5cb0d3ef756eb88de945441bda62",
            "0x0000000000000000000000009965507d1a55bcc2695c58ba16fb37d819b0a4dc"
          ],
          "data": "0x00000000000000000000000000000000000000000000000000000000000d99ef000000000000000000000000000000000000000000000000000000000000000000000000000000000000000000000000000000000000000000000000671251f8",
          "blockHash": "0x0c4ca6cb1446885d006bb29ca7801150a0949996191b1ac56eca63cb2a098127",
          "blockNumber": "0xd99e4",
          "transactionHash": "0xe8c467735133423c295a555bbee33dadbddd4479ec8d3d5c6be66a27f0eeba02",
          "transactionIndex": "0xa",
          "logIndex": "0xc",
          "removed": false
        }
      ],
      "logsBloom": "0x00000004000000000000000000000000000000000000000000000000000000000000000000000000000000000000000000000000000000000000000080000000000000000000000000000800000000000000800000008000000000000000000000000000000000000000000000000000000000000000000000000000000000000000000000000000000000000000000000000000000000000000000000000000000000000000000000000000000000000000000000000000000000000000000000000000800000000000020000000000000000000000000020000004000800000000000000000000000000000000000000000000000000000000020000000200",
      "type": "0x2",
      "transactionHash": "0xe8c467735133423c295a555bbee33dadbddd4479ec8d3d5c6be66a27f0eeba02",
      "transactionIndex": "0xa",
      "blockHash": "0x0c4ca6cb1446885d006bb29ca7801150a0949996191b1ac56eca63cb2a098127",
      "blockNumber": "0xd99e4",
      "gasUsed": "0x1cf07",
      "effectiveGasPrice": "0x86ff52",
      "from": "0x4100a9B680B1Be1F10Cb8b5a57fE59eA77A8184e",
      "to": "0xdE17cb08ae4Aa50bd5E8D34eD9c53d93ec36C7b4",
      "contractAddress": null
    },
    {
      "status": "0x1",
      "cumulativeGasUsed": "0x1119b7",
      "logs": [
        {
          "address": "0x5a50e6E1092b63227548D6EC648f2ccb604a87B0",
          "topics": [
            "0xddf252ad1be2c89b69c2b068fc378daa952ba7f163c4a11628f55a4df523b3ef",
            "0x0000000000000000000000000000000000000000000000000000000000000000",
            "0x000000000000000000000000976ea74026e726554db657fa54763abd0c3a0aa9",
            "0x00000000000000000000000000000000000000000000000000000000000d99f0"
          ],
          "data": "0x",
          "blockHash": "0x0c4ca6cb1446885d006bb29ca7801150a0949996191b1ac56eca63cb2a098127",
          "blockNumber": "0xd99e4",
          "transactionHash": "0xc5a0472637caa271fb6c62341114faf7373b77a24af7cad8d136c9db34708611",
          "transactionIndex": "0xb",
          "logIndex": "0xd",
          "removed": false
        }
      ],
      "logsBloom": "0x00000000000080010000000000000400000000040200000000000000000000000000000000000000000000000000000000000000010000000000000000000000000000000000000000000008000000000000000000000000080000000000000000000000020000000000000000000800000000000000000000000010000000000000000000000000000000000000000000000000000000000000000000000000002000000000000000000000000000000000000000000000000000000000000000000002000000000000000000000000000000000000000000000000000020000000000000000000000000000000000000000000000000000200000000000000",
      "type": "0x2",
      "transactionHash": "0xc5a0472637caa271fb6c62341114faf7373b77a24af7cad8d136c9db34708611",
      "transactionIndex": "0xb",
      "blockHash": "0x0c4ca6cb1446885d006bb29ca7801150a0949996191b1ac56eca63cb2a098127",
      "blockNumber": "0xd99e4",
      "gasUsed": "0xc9eb",
      "effectiveGasPrice": "0x86ff52",
      "from": "0x4100a9B680B1Be1F10Cb8b5a57fE59eA77A8184e",
      "to": "0x5a50e6E1092b63227548D6EC648f2ccb604a87B0",
      "contractAddress": null
    },
    {
      "status": "0x1",
      "cumulativeGasUsed": "0x133686",
      "logs": [
        {
          "address": "0xdE17cb08ae4Aa50bd5E8D34eD9c53d93ec36C7b4",
          "topics": [
            "0x3ea3314dd8adca61ba5ccef601f00167a9a3c43358bad8b897df2519ee6d3a6c",
            "0x1344dc8f22faeca074c50c4a96a1f3af7bd195635bec481e74f5d7992cedfc01",
            "0x000000000000000000000000976ea74026e726554db657fa54763abd0c3a0aa9"
          ],
          "data": "0x00000000000000000000000000000000000000000000000000000000000d99f0000000000000000000000000000000000000000000000000000000000000000200000000000000000000000000000000000000000000000000000000671251f8",
          "blockHash": "0x0c4ca6cb1446885d006bb29ca7801150a0949996191b1ac56eca63cb2a098127",
          "blockNumber": "0xd99e4",
          "transactionHash": "0x43fa638b722992492e0ab692d4f807d5daac0a1bce61750eb3ec5a2e74e9c853",
          "transactionIndex": "0xc",
          "logIndex": "0xe",
          "removed": false
        }
      ],
      "logsBloom": "0x00000000000000000000000000000000000000040200000000000000000000000000000000000000000000000000000000400000000000000000000080000000000000000000000000000000000000000000800000000000080000000000000000000000000000000000000000000000000000000000000000000000000000000000000000000000000000000000000000400000000000000000000000000000000000000000000000000000000000000000000000000000000000000000000000000000000000000000020000000000000000000000000020000000000a00000000000000000000000000000000000000000000000000000000000000000200",
      "type": "0x2",
      "transactionHash": "0x43fa638b722992492e0ab692d4f807d5daac0a1bce61750eb3ec5a2e74e9c853",
      "transactionIndex": "0xc",
      "blockHash": "0x0c4ca6cb1446885d006bb29ca7801150a0949996191b1ac56eca63cb2a098127",
      "blockNumber": "0xd99e4",
      "gasUsed": "0x21ccf",
      "effectiveGasPrice": "0x86ff52",
      "from": "0x4100a9B680B1Be1F10Cb8b5a57fE59eA77A8184e",
      "to": "0xdE17cb08ae4Aa50bd5E8D34eD9c53d93ec36C7b4",
      "contractAddress": null
    },
    {
      "status": "0x1",
      "cumulativeGasUsed": "0x140071",
      "logs": [
        {
          "address": "0x5a50e6E1092b63227548D6EC648f2ccb604a87B0",
          "topics": [
            "0xddf252ad1be2c89b69c2b068fc378daa952ba7f163c4a11628f55a4df523b3ef",
            "0x0000000000000000000000000000000000000000000000000000000000000000",
            "0x00000000000000000000000014dc79964da2c08b23698b3d3cc7ca32193d9955",
            "0x00000000000000000000000000000000000000000000000000000000000d99f1"
          ],
          "data": "0x",
          "blockHash": "0x0c4ca6cb1446885d006bb29ca7801150a0949996191b1ac56eca63cb2a098127",
          "blockNumber": "0xd99e4",
          "transactionHash": "0x2b58bc1f184e3c4635cf2b5067aa7263067f227575becf59b30b8ecd77d14f88",
          "transactionIndex": "0xd",
          "logIndex": "0xf",
          "removed": false
        }
      ],
      "logsBloom": "0x00000000000080000000000000000000000000000000000000000000000000000000000000000000000000000000000000000000010000000000000000000000000000000000000000000008000000000000000000000400000000000000000000000000020000000000000010000800000000000000000000000010000000000000000000000000000000000010000000800000000000000000000000000000002000000000000000000000000000002000000000000000000000000000000000000002000000000000000000000000040000000000000000000000000020000000000000000000000000000000000000000000000000000000000000000000",
      "type": "0x2",
      "transactionHash": "0x2b58bc1f184e3c4635cf2b5067aa7263067f227575becf59b30b8ecd77d14f88",
      "transactionIndex": "0xd",
      "blockHash": "0x0c4ca6cb1446885d006bb29ca7801150a0949996191b1ac56eca63cb2a098127",
      "blockNumber": "0xd99e4",
      "gasUsed": "0xc9eb",
      "effectiveGasPrice": "0x86ff52",
      "from": "0x4100a9B680B1Be1F10Cb8b5a57fE59eA77A8184e",
      "to": "0x5a50e6E1092b63227548D6EC648f2ccb604a87B0",
      "contractAddress": null
    },
    {
      "status": "0x1",
      "cumulativeGasUsed": "0x15cf78",
      "logs": [
        {
          "address": "0xdE17cb08ae4Aa50bd5E8D34eD9c53d93ec36C7b4",
          "topics": [
            "0x3ea3314dd8adca61ba5ccef601f00167a9a3c43358bad8b897df2519ee6d3a6c",
            "0x9e43ced62ab28cd5799faa2f8fc5c31b96113d184f8521e57d6ea92ef517be8a",
            "0x00000000000000000000000014dc79964da2c08b23698b3d3cc7ca32193d9955"
          ],
          "data": "0x00000000000000000000000000000000000000000000000000000000000d99f1000000000000000000000000000000000000000000000000000000000000000000000000000000000000000000000000000000000000000000000000671251f8",
          "blockHash": "0x0c4ca6cb1446885d006bb29ca7801150a0949996191b1ac56eca63cb2a098127",
          "blockNumber": "0xd99e4",
          "transactionHash": "0x7350df1c327090ca8fdd48692bee59c7d144cb8aa7f4dc22947a64f88a0ba2a4",
          "transactionIndex": "0xe",
          "logIndex": "0x10",
          "removed": false
        }
      ],
      "logsBloom": "0x00000000000000000000000000000200000000000000000000000000000000000000000000000000000000000000000000000000000000000000000080000000000000000000000000000000000000000000800000000400000000000000000000000000000000000000000000000000000000000000000000000000000000000000000000000000000000000000000000000000000000000000000000000000000000100000000000000000000000002000000000000000000000000000000000000000000000000000020000000000040000000080000020000000000800000000000000000000000000000000000000000000000000000000000000000200",
      "type": "0x2",
      "transactionHash": "0x7350df1c327090ca8fdd48692bee59c7d144cb8aa7f4dc22947a64f88a0ba2a4",
      "transactionIndex": "0xe",
      "blockHash": "0x0c4ca6cb1446885d006bb29ca7801150a0949996191b1ac56eca63cb2a098127",
      "blockNumber": "0xd99e4",
      "gasUsed": "0x1cf07",
      "effectiveGasPrice": "0x86ff52",
      "from": "0x4100a9B680B1Be1F10Cb8b5a57fE59eA77A8184e",
      "to": "0xdE17cb08ae4Aa50bd5E8D34eD9c53d93ec36C7b4",
      "contractAddress": null
    },
    {
      "status": "0x1",
      "cumulativeGasUsed": "0x169963",
      "logs": [
        {
          "address": "0x5a50e6E1092b63227548D6EC648f2ccb604a87B0",
          "topics": [
            "0xddf252ad1be2c89b69c2b068fc378daa952ba7f163c4a11628f55a4df523b3ef",
            "0x0000000000000000000000000000000000000000000000000000000000000000",
            "0x00000000000000000000000023618e81e3f5cdf7f54c3d65f7fbc0abf5b21e8f",
            "0x00000000000000000000000000000000000000000000000000000000000d99f2"
          ],
          "data": "0x",
          "blockHash": "0x0c4ca6cb1446885d006bb29ca7801150a0949996191b1ac56eca63cb2a098127",
          "blockNumber": "0xd99e4",
          "transactionHash": "0x2767d450382cb52ce4e77b3008d0c83b93fbca428d235dc2f17b2daaf46a12bf",
          "transactionIndex": "0xf",
          "logIndex": "0x11",
          "removed": false
        }
      ],
      "logsBloom": "0x00800000000080000000000000000000000000000000000000000000000000000000002000000000000000000000000000000000010000000000000000000000000000000000000000000008000000000000000000000000000000000000000000000000020000000000000000000800002000000000000000000010000000000000000000000000000000020000000000000000000000000000000000000000002000000000000000000000000000000000000000000000000000000000000000000002000400000000000000000000000000000000000000000000000020000000000000000000000000000000000000000000000000000000008000000000",
      "type": "0x2",
      "transactionHash": "0x2767d450382cb52ce4e77b3008d0c83b93fbca428d235dc2f17b2daaf46a12bf",
      "transactionIndex": "0xf",
      "blockHash": "0x0c4ca6cb1446885d006bb29ca7801150a0949996191b1ac56eca63cb2a098127",
      "blockNumber": "0xd99e4",
      "gasUsed": "0xc9eb",
      "effectiveGasPrice": "0x86ff52",
      "from": "0x4100a9B680B1Be1F10Cb8b5a57fE59eA77A8184e",
      "to": "0x5a50e6E1092b63227548D6EC648f2ccb604a87B0",
      "contractAddress": null
    },
    {
      "status": "0x1",
      "cumulativeGasUsed": "0x18b632",
      "logs": [
        {
          "address": "0xdE17cb08ae4Aa50bd5E8D34eD9c53d93ec36C7b4",
          "topics": [
            "0x3ea3314dd8adca61ba5ccef601f00167a9a3c43358bad8b897df2519ee6d3a6c",
            "0xc5de58b179d6c068f394a7ccedb25aa92f7f39a53ada48bc1a922042ee78497d",
            "0x00000000000000000000000023618e81e3f5cdf7f54c3d65f7fbc0abf5b21e8f"
          ],
          "data": "0x00000000000000000000000000000000000000000000000000000000000d99f2000000000000000000000000000000000000000000000000000000000000000100000000000000000000000000000000000000000000000000000000671251f8",
          "blockHash": "0x0c4ca6cb1446885d006bb29ca7801150a0949996191b1ac56eca63cb2a098127",
          "blockNumber": "0xd99e4",
          "transactionHash": "0x05572fadfde94060e9ce228e08e18bf2a0511ee509d05462225865e9da9a5c37",
          "transactionIndex": "0x10",
          "logIndex": "0x12",
          "removed": false
        }
      ],
      "logsBloom": "0x00800000000000000000000000000000000000000000000000000000000000000000000000000000000010000000000000000000000000000000000080000000000000000000000000000000000000000000a00000000000000000000000000000000000000000000000400000000000000000000000000000000000000000000000000000000000000000020000000000000000000000000000000000000000000000000000000000000000000000000000000000000000000000000000000000000000000000000000020000000000000000000000000020000000000800000000000000000000000000000000000000000000000000000000008000000200",
      "type": "0x2",
      "transactionHash": "0x05572fadfde94060e9ce228e08e18bf2a0511ee509d05462225865e9da9a5c37",
      "transactionIndex": "0x10",
      "blockHash": "0x0c4ca6cb1446885d006bb29ca7801150a0949996191b1ac56eca63cb2a098127",
      "blockNumber": "0xd99e4",
      "gasUsed": "0x21ccf",
      "effectiveGasPrice": "0x86ff52",
      "from": "0x4100a9B680B1Be1F10Cb8b5a57fE59eA77A8184e",
      "to": "0xdE17cb08ae4Aa50bd5E8D34eD9c53d93ec36C7b4",
      "contractAddress": null
    },
    {
      "status": "0x1",
      "cumulativeGasUsed": "0x19801d",
      "logs": [
        {
          "address": "0x5a50e6E1092b63227548D6EC648f2ccb604a87B0",
          "topics": [
            "0xddf252ad1be2c89b69c2b068fc378daa952ba7f163c4a11628f55a4df523b3ef",
            "0x0000000000000000000000000000000000000000000000000000000000000000",
            "0x000000000000000000000000a0ee7a142d267c1f36714e4a8f75612f20a79720",
            "0x00000000000000000000000000000000000000000000000000000000000d99f3"
          ],
          "data": "0x",
          "blockHash": "0x0c4ca6cb1446885d006bb29ca7801150a0949996191b1ac56eca63cb2a098127",
          "blockNumber": "0xd99e4",
          "transactionHash": "0x3886e135b06d24e6a1764517734631a737c5d75a1af07358809160d5a266026a",
          "transactionIndex": "0x11",
          "logIndex": "0x13",
          "removed": false
        }
      ],
      "logsBloom": "0x00000000000080000000040000000000000000000000000000000000000000000000000000000000000000000000000000000000010000000000000000000000200000000000000000000008000000000000000000000000000008000000000000000000020000000000000000000800000000004000000000000010008000000000000000000000000000000000000000000000000000000000000000000000002000000000000000000000000000000000000000000000000000000000000000000002000000000000000000000000000000000000000000004000000020000000000000000000000000000000000000000000000000000000000000000000",
      "type": "0x2",
      "transactionHash": "0x3886e135b06d24e6a1764517734631a737c5d75a1af07358809160d5a266026a",
      "transactionIndex": "0x11",
      "blockHash": "0x0c4ca6cb1446885d006bb29ca7801150a0949996191b1ac56eca63cb2a098127",
      "blockNumber": "0xd99e4",
      "gasUsed": "0xc9eb",
      "effectiveGasPrice": "0x86ff52",
      "from": "0x4100a9B680B1Be1F10Cb8b5a57fE59eA77A8184e",
      "to": "0x5a50e6E1092b63227548D6EC648f2ccb604a87B0",
      "contractAddress": null
    },
    {
      "status": "0x1",
      "cumulativeGasUsed": "0x1b9cec",
      "logs": [
        {
          "address": "0xdE17cb08ae4Aa50bd5E8D34eD9c53d93ec36C7b4",
          "topics": [
            "0x3ea3314dd8adca61ba5ccef601f00167a9a3c43358bad8b897df2519ee6d3a6c",
            "0xce7d09ce98eee5ac60ab7dfc5a8a0ed81966a52ca6420b589adaa643d4fe8295",
            "0x000000000000000000000000a0ee7a142d267c1f36714e4a8f75612f20a79720"
          ],
          "data": "0x00000000000000000000000000000000000000000000000000000000000d99f3000000000000000000000000000000000000000000000000000000000000000100000000000000000000000000000000000000000000000000000000671251f8",
          "blockHash": "0x0c4ca6cb1446885d006bb29ca7801150a0949996191b1ac56eca63cb2a098127",
          "blockNumber": "0xd99e4",
          "transactionHash": "0xebed8531eedc2c4be96e3c08e13721903a3c62ee767b4ea6bf25e05800a1cf67",
          "transactionIndex": "0x12",
          "logIndex": "0x14",
          "removed": false
        }
      ],
      "logsBloom": "0x00000000000000000000040000000000000000000000000000000000000000000000000000000000000000000000000000000000000000000000000080000000000000000000000000000000000000000000800000000000000008000000000000000000000000000000000000002000000000000000000000000000000000000000000000000000000000000000000000000000000000000000000000000000000000000000000000000000000000000000000000000000000000000020000000000000000000000000020000000000000000000000000020004000000800000000800000000000000000000000000000000000000000000000000000000200",
      "type": "0x2",
      "transactionHash": "0xebed8531eedc2c4be96e3c08e13721903a3c62ee767b4ea6bf25e05800a1cf67",
      "transactionIndex": "0x12",
      "blockHash": "0x0c4ca6cb1446885d006bb29ca7801150a0949996191b1ac56eca63cb2a098127",
      "blockNumber": "0xd99e4",
      "gasUsed": "0x21ccf",
      "effectiveGasPrice": "0x86ff52",
      "from": "0x4100a9B680B1Be1F10Cb8b5a57fE59eA77A8184e",
      "to": "0xdE17cb08ae4Aa50bd5E8D34eD9c53d93ec36C7b4",
      "contractAddress": null
    }
  ],
  "libraries": [],
  "pending": [],
  "returns": {},
  "timestamp": 1729253884,
  "chain": 167009,
  "commit": "f12d04e"
}