{
  "transactions": [
    {
      "hash": "0xe601ceadb8ffbcd28d31e58f8c6f903d94feae6260a856e00097380b566015c7",
      "transactionType": "CALL",
      "contractName": null,
      "contractAddress": "0xD8152aaA8a2dFAFb356238B14124a9A17D2E1D24",
      "function": "executeGame(uint256)",
      "arguments": [
        "123456790"
      ],
      "transaction": {
        "from": "0x4100a9B680B1Be1F10Cb8b5a57fE59eA77A8184e",
        "to": "0xD8152aaA8a2dFAFb356238B14124a9A17D2E1D24",
        "gas": "0x9d87",
        "value": "0x0",
        "input": "0xfa5ed38c00000000000000000000000000000000000000000000000000000000075bcd16",
        "nonce": "0x64c",
        "chainId": "0x28c61"
      },
      "additionalContracts": [],
      "isFixedGasLimit": false
    }
  ],
  "receipts": [
    {
      "status": "0x1",
      "cumulativeGasUsed": "0x329a7",
      "logs": [
        {
          "address": "0xD8152aaA8a2dFAFb356238B14124a9A17D2E1D24",
          "topics": [
            "0x2172ff16eae08fd909cc71c9feb7a6731eac72c99c46d8b59b6e57eab0007972"
          ],
          "data": "0x00000000000000000000000000000000000000000000000000000000075bcd16",
          "blockHash": "0x5f8ef3675198328f19b94e3f002f5a09a945a747118904ae6d5fc708aa95fa0b",
          "blockNumber": "0xd997a",
          "transactionHash": "0xe601ceadb8ffbcd28d31e58f8c6f903d94feae6260a856e00097380b566015c7",
          "transactionIndex": "0x1",
          "logIndex": "0x3",
          "removed": false
        }
      ],
      "logsBloom": "0x00000000000000000000000000000000000000000000000000000000001000000000000000000000000000000000000000000000000000000000000000000000000000000000000000000000000000000000000000000000000000000000000000000000000000000000000800000000000000000000000000200000000400000001000000000000000000000000000000000000000000000000000000000000000000000000000000000000000000001000000000000000000000000000000000000000000000000000000000000000000000000000000000000000000000000000000000000000000000000000000000000000000000000000000000000000",
      "type": "0x2",
      "transactionHash": "0xe601ceadb8ffbcd28d31e58f8c6f903d94feae6260a856e00097380b566015c7",
      "transactionIndex": "0x1",
      "blockHash": "0x5f8ef3675198328f19b94e3f002f5a09a945a747118904ae6d5fc708aa95fa0b",
      "blockNumber": "0xd997a",
      "gasUsed": "0x720d",
      "effectiveGasPrice": "0x86ff52",
      "from": "0x4100a9B680B1Be1F10Cb8b5a57fE59eA77A8184e",
      "to": "0xD8152aaA8a2dFAFb356238B14124a9A17D2E1D24",
      "contractAddress": null
    }
  ],
  "libraries": [],
  "pending": [],
  "returns": {},
  "timestamp": 1729250429,
  "chain": 167009,
  "commit": "ffaac9d"
}