{
  "transactions": [
    {
      "hash": "0xc63725d65e90385a8e63a4607820d6400d6354d09539f5097c220c3df6858d8e",
      "transactionType": "CALL",
      "contractName": null,
      "contractAddress": "0xD8152aaA8a2dFAFb356238B14124a9A17D2E1D24",
      "function": "executeGame(uint256)",
      "arguments": [
        "123456790"
      ],
      "transaction": {
        "from": "0x4100a9B680B1Be1F10Cb8b5a57fE59eA77A8184e",
        "to": "0xD8152aaA8a2dFAFb356238B14124a9A17D2E1D24",
        "gas": "0x10d0f",
        "value": "0x0",
        "input": "0xfa5ed38c00000000000000000000000000000000000000000000000000000000075bcd16",
        "nonce": "0x639",
        "chainId": "0x28c61"
      },
      "additionalContracts": [],
      "isFixedGasLimit": false
    }
  ],
  "receipts": [
    {
      "status": "0x1",
      "cumulativeGasUsed": "0x36f9f",
      "logs": [
        {
          "address": "0xD8152aaA8a2dFAFb356238B14124a9A17D2E1D24",
          "topics": [
            "0x2172ff16eae08fd909cc71c9feb7a6731eac72c99c46d8b59b6e57eab0007972"
          ],
          "data": "0x00000000000000000000000000000000000000000000000000000000075bcd16",
          "blockHash": "0x8041e977486732a749d8b312630aa5ed84a71cae9a9ce68d2043820567af5504",
          "blockNumber": "0xd9944",
          "transactionHash": "0xc63725d65e90385a8e63a4607820d6400d6354d09539f5097c220c3df6858d8e",
          "transactionIndex": "0x1",
          "logIndex": "0x3",
          "removed": false
        }
      ],
      "logsBloom": "0x00000000000000000000000000000000000000000000000000000000001000000000000000000000000000000000000000000000000000000000000000000000000000000000000000000000000000000000000000000000000000000000000000000000000000000000000800000000000000000000000000200000000400000001000000000000000000000000000000000000000000000000000000000000000000000000000000000000000000001000000000000000000000000000000000000000000000000000000000000000000000000000000000000000000000000000000000000000000000000000000000000000000000000000000000000000",
      "type": "0x2",
      "transactionHash": "0xc63725d65e90385a8e63a4607820d6400d6354d09539f5097c220c3df6858d8e",
      "transactionIndex": "0x1",
      "blockHash": "0x8041e977486732a749d8b312630aa5ed84a71cae9a9ce68d2043820567af5504",
      "blockNumber": "0xd9944",
      "gasUsed": "0xb7f9",
      "effectiveGasPrice": "0x86ff52",
      "from": "0x4100a9B680B1Be1F10Cb8b5a57fE59eA77A8184e",
      "to": "0xD8152aaA8a2dFAFb356238B14124a9A17D2E1D24",
      "contractAddress": null
    }
  ],
  "libraries": [],
  "pending": [],
  "returns": {},
  "timestamp": 1729248810,
  "chain": 167009,
  "commit": "ffaac9d"
}