{
  "transactions": [
    {
      "hash": "0x0a2f34ba97882378a0911898aeb578f87697206c9db8f3475b95a44d07eb4b23",
      "transactionType": "CALL",
      "contractName": null,
      "contractAddress": "0xe276dC810A8a79a441E1744bd4c5aDB9f494CB9B",
      "function": "executeGame(uint256)",
      "arguments": [
        "123456790"
      ],
      "transaction": {
        "from": "0x4100a9B680B1Be1F10Cb8b5a57fE59eA77A8184e",
        "to": "0xe276dC810A8a79a441E1744bd4c5aDB9f494CB9B",
        "gas": "0x12863",
        "value": "0x0",
        "input": "0xfa5ed38c00000000000000000000000000000000000000000000000000000000075bcd16",
        "nonce": "0x6de",
        "chainId": "0x28c61"
      },
      "additionalContracts": [],
      "isFixedGasLimit": false
    }
  ],
  "receipts": [
    {
      "status": "0x1",
      "cumulativeGasUsed": "0x47f1f",
      "logs": [
        {
          "address": "0xe276dC810A8a79a441E1744bd4c5aDB9f494CB9B",
          "topics": [
            "0x2172ff16eae08fd909cc71c9feb7a6731eac72c99c46d8b59b6e57eab0007972"
          ],
          "data": "0x00000000000000000000000000000000000000000000000000000000075bcd16",
          "blockHash": "0x42b5481b52ba9d4cdff9af3de15f8393ddb33a67fac8a0fcbbc5e6871df7726e",
          "blockNumber": "0xd9ad9",
          "transactionHash": "0x0a2f34ba97882378a0911898aeb578f87697206c9db8f3475b95a44d07eb4b23",
          "transactionIndex": "0x3",
          "logIndex": "0x5",
          "removed": false
        }
      ],
      "logsBloom": "0x00000000000000000000000000000000000000000000000000000000000000000000000000000000000800000000000000000000000000000000000000000000000000000000000000000000000000000000000000000000000000000000000000000000000000000000000800000000000000000000000000000000000400000001000000000000000020000000000000000000000000000000000000000000000000000000000000000000000000000000000000000000000000000000000000000000000000000000000000000000000000000000000000000000000000000000000000000000000000000000000000000000000000000000000000000010",
      "type": "0x2",
      "transactionHash": "0x0a2f34ba97882378a0911898aeb578f87697206c9db8f3475b95a44d07eb4b23",
      "transactionIndex": "0x3",
      "blockHash": "0x42b5481b52ba9d4cdff9af3de15f8393ddb33a67fac8a0fcbbc5e6871df7726e",
      "blockNumber": "0xd9ad9",
      "gasUsed": "0xcaa9",
      "effectiveGasPrice": "0x86ff52",
      "from": "0x4100a9B680B1Be1F10Cb8b5a57fE59eA77A8184e",
      "to": "0xe276dC810A8a79a441E1744bd4c5aDB9f494CB9B",
      "contractAddress": null
    }
  ],
  "libraries": [],
  "pending": [],
  "returns": {},
  "timestamp": 1729259166,
  "chain": 167009,
  "commit": "03851e6"
}