{
  "transactions": [
    {
      "hash": "0x527fba8c216f9e87917185f941211356589b464a10493daeb1858a0b7c781b33",
      "transactionType": "CALL",
      "contractName": null,
      "contractAddress": "0x81F51A95E18819b87059993A74102Cd8F046d296",
      "function": "executeGame(uint256)",
      "arguments": [
        "123456790"
      ],
      "transaction": {
        "from": "0x4100a9B680B1Be1F10Cb8b5a57fE59eA77A8184e",
        "to": "0x81F51A95E18819b87059993A74102Cd8F046d296",
        "gas": "0x12863",
        "value": "0x0",
        "input": "0xfa5ed38c00000000000000000000000000000000000000000000000000000000075bcd16",
        "nonce": "0x6c9",
        "chainId": "0x28c61"
      },
      "additionalContracts": [],
      "isFixedGasLimit": false
    }
  ],
  "receipts": [
    {
      "status": "0x1",
      "cumulativeGasUsed": "0x96f2f",
      "logs": [
        {
          "address": "0x81F51A95E18819b87059993A74102Cd8F046d296",
          "topics": [
            "0x2172ff16eae08fd909cc71c9feb7a6731eac72c99c46d8b59b6e57eab0007972"
          ],
          "data": "0x00000000000000000000000000000000000000000000000000000000075bcd16",
          "blockHash": "0xdadfe91d943348c245191a22be6910dfcdd3039623958e6fee9481283962f65a",
          "blockNumber": "0xd9a2a",
          "transactionHash": "0x527fba8c216f9e87917185f941211356589b464a10493daeb1858a0b7c781b33",
          "transactionIndex": "0xd",
          "logIndex": "0xf",
          "removed": false
        }
      ],
      "logsBloom": "0x00000000000000000000000000000000000000000000000000000000000000004800000000000000000000000000000000000000000000000000000000000000000000000000000000000000000000000000000000000000000000000000000000000000000000000000000800000000000000000000000000000000000400000001000000000000000000000000000000000000000000000000000000000000000000200000000000000000000000000000000000000000000000000000000000000000000000000000000000000000000000000000000000000000000000000000000000000000000000000000000000000000000000000000000000000000",
      "type": "0x2",
      "transactionHash": "0x527fba8c216f9e87917185f941211356589b464a10493daeb1858a0b7c781b33",
      "transactionIndex": "0xd",
      "blockHash": "0xdadfe91d943348c245191a22be6910dfcdd3039623958e6fee9481283962f65a",
      "blockNumber": "0xd9a2a",
      "gasUsed": "0xcaa9",
      "effectiveGasPrice": "0x86ff52",
      "from": "0x4100a9B680B1Be1F10Cb8b5a57fE59eA77A8184e",
      "to": "0x81F51A95E18819b87059993A74102Cd8F046d296",
      "contractAddress": null
    }
  ],
  "libraries": [],
  "pending": [],
  "returns": {},
  "timestamp": 1729255533,
  "chain": 167009,
  "commit": "f12d04e"
}