{
  "transactions": [
    {
      "hash": "0x332f7095c05899db35ebcd4475a78bb81e74da5252dce9d629275434af133d00",
      "transactionType": "CALL",
      "contractName": null,
      "contractAddress": "0xdE17cb08ae4Aa50bd5E8D34eD9c53d93ec36C7b4",
      "function": "executeGame(uint256)",
      "arguments": [
        "123456790"
      ],
      "transaction": {
        "from": "0x4100a9B680B1Be1F10Cb8b5a57fE59eA77A8184e",
        "to": "0xdE17cb08ae4Aa50bd5E8D34eD9c53d93ec36C7b4",
        "gas": "0x10d0f",
        "value": "0x0",
        "input": "0xfa5ed38c00000000000000000000000000000000000000000000000000000000075bcd16",
        "nonce": "0x689",
        "chainId": "0x28c61"
      },
      "additionalContracts": [],
      "isFixedGasLimit": false
    }
  ],
  "receipts": [
    {
      "status": "0x1",
      "cumulativeGasUsed": "0x36f9f",
      "logs": [
        {
          "address": "0xdE17cb08ae4Aa50bd5E8D34eD9c53d93ec36C7b4",
          "topics": [
            "0x2172ff16eae08fd909cc71c9feb7a6731eac72c99c46d8b59b6e57eab0007972"
          ],
          "data": "0x00000000000000000000000000000000000000000000000000000000075bcd16",
          "blockHash": "0x371cfa8a8e72e31035471c1ad5cc20b08103250920d9c08d4fecba99354fea23",
          "blockNumber": "0xd9999",
          "transactionHash": "0x332f7095c05899db35ebcd4475a78bb81e74da5252dce9d629275434af133d00",
          "transactionIndex": "0x1",
          "logIndex": "0x3",
          "removed": false
        }
      ],
      "logsBloom": "0x00000000000000000000000000000000000000000000000000000000000000000000000000000000000000000000000000000000000000000000000080000000000000000000000000000000000000000000000000000000000000000000000000000000000000000000000800000000000000000000000000000000000400000001000000000000000000000000000000000000000000000000000000000000000000000000000000000000000000000000000000000000000000000000000000000000000000000000000000000000000000000000000020000000000000000000000000000000000000000000000000000000000000000000000000000200",
      "type": "0x2",
      "transactionHash": "0x332f7095c05899db35ebcd4475a78bb81e74da5252dce9d629275434af133d00",
      "transactionIndex": "0x1",
      "blockHash": "0x371cfa8a8e72e31035471c1ad5cc20b08103250920d9c08d4fecba99354fea23",
      "blockNumber": "0xd9999",
      "gasUsed": "0xb7f9",
      "effectiveGasPrice": "0x176fde87",
      "from": "0x4100a9B680B1Be1F10Cb8b5a57fE59eA77A8184e",
      "to": "0xdE17cb08ae4Aa50bd5E8D34eD9c53d93ec36C7b4",
      "contractAddress": null
    }
  ],
  "libraries": [],
  "pending": [],
  "returns": {},
  "timestamp": 1729251390,
  "chain": 167009,
  "commit": "ffaac9d"
}