{
  "transactions": [
    {
      "hash": "0x3d566f7b206aa037cbe971370bd7339c413793efe310c4ae39839b8564e1ea14",
      "transactionType": "CALL",
      "contractName": null,
      "contractAddress": "0xbBDba7707A34f9091E2A068ab0D30D7dc2a6d265",
      "function": "executeGame(uint256)",
      "arguments": [
        "123456790"
      ],
      "transaction": {
        "from": "0x4100a9B680B1Be1F10Cb8b5a57fE59eA77A8184e",
        "to": "0xbBDba7707A34f9091E2A068ab0D30D7dc2a6d265",
        "gas": "0x10d0f",
        "value": "0x0",
        "input": "0xfa5ed38c00000000000000000000000000000000000000000000000000000000075bcd16",
        "nonce": "0x674",
        "chainId": "0x28c61"
      },
      "additionalContracts": [],
      "isFixedGasLimit": false
    }
  ],
  "receipts": [
    {
      "status": "0x1",
      "cumulativeGasUsed": "0x36f9f",
      "logs": [
        {
          "address": "0xbBDba7707A34f9091E2A068ab0D30D7dc2a6d265",
          "topics": [
            "0x2172ff16eae08fd909cc71c9feb7a6731eac72c99c46d8b59b6e57eab0007972"
          ],
          "data": "0x00000000000000000000000000000000000000000000000000000000075bcd16",
          "blockHash": "0xcca41977325f46cbd9b9d5e24a1b98c86963e3246c8965f25ed528dd548de66f",
          "blockNumber": "0xd998f",
          "transactionHash": "0x3d566f7b206aa037cbe971370bd7339c413793efe310c4ae39839b8564e1ea14",
          "transactionIndex": "0x1",
          "logIndex": "0x3",
          "removed": false
        }
      ],
      "logsBloom": "0x00000000000000000000000000000000000000000000000000000000000000000000000000000002000000000000000000000000000000000000000000000000000000000000000000000000000000000000000000000000000000000000000000000000000400000000000800000000000000000000000000100000000400000001000000000000000000000000000000000000000000000000000000000000000000000000000000000000000000000000000000000000000000000000000000000000000000000000000000000000000000000000000000000000000000000000000000000000000000000000000000000000000000000000000000000000",
      "type": "0x2",
      "transactionHash": "0x3d566f7b206aa037cbe971370bd7339c413793efe310c4ae39839b8564e1ea14",
      "transactionIndex": "0x1",
      "blockHash": "0xcca41977325f46cbd9b9d5e24a1b98c86963e3246c8965f25ed528dd548de66f",
      "blockNumber": "0xd998f",
      "gasUsed": "0xb7f9",
      "effectiveGasPrice": "0x176fde87",
      "from": "0x4100a9B680B1Be1F10Cb8b5a57fE59eA77A8184e",
      "to": "0xbBDba7707A34f9091E2A068ab0D30D7dc2a6d265",
      "contractAddress": null
    }
  ],
  "libraries": [],
  "pending": [],
  "returns": {},
  "timestamp": 1729251075,
  "chain": 167009,
  "commit": "ffaac9d"
}